:020000040000FA
:100000000210D8A2029290A2029280AD40AC3F7F33
:100010000A7E0012002E12001DA202B322E59120DA
:10002000E2FB220210487597A5222202141B8E4182
:100030008F428C438D4412163112188EE54424BF32
:100040009000E8F0E54334FF9000E7F09000E3E52E
:1000500041F0A3E542F043910422220211671219F4
:100060002253D87853DAFE1218F3E4900087F02276
:10007000D2DE2202146E1217C0C290C296C280E471
:10008000FBFD7F101218DA12053174A4F0D2AF1202
:10009000170AD2969000ECE004F070069000EBE0B6
:1000A00004F09000EBE0B427E9A3E0B410E4C296BA
:1000B0001200263003091216B18E228F2380067596
:1000C0002201752300E5237004E522640170469047
:1000D00000DEE0700612170B0202959000EBE4754B
:1000E000F001120807FED3E5F09410EE94274002C9
:1000F000D296D39000ECE094309000EBE0947550F1
:1001000003020295E4F0A3F09000DEF0900099F075
:10011000C29602029512170A9000DEE014602A14BB
:1001200070030202591470030202171470030202D2
:100130003024046003020295E52364AA60030202EE
:10014000959000DE04F0020295E523900099F0906E
:1001500000DE7402F0E52312092F0201A0017FA145
:10016000018BA501A9A601BDA701C6A801DDA901B2
:10017000CCB001D5B1019DC00295FF0000020C1268
:10018000051EE490008AF07FA1806512054E900064
:10019000EA7408F0E4F52575240902029512054E6B
:1001A000E4F52575240202029590008A7401F07F1F
:1001B000A61215A690007974A6F0020295120531D8
:1001C00074A4F00202959000EA7408F09000DE74C6
:1001D00003F00202957FB112056202029512051E1C
:1001E00090008AE09000E9F090008A7401F07FA905
:1001F0001205627D307C757F017E00121797020226
:100200009512056B900079EFF0E48005E490009979
:10021000F09000DEF0807EE4F525E523F524E5246A
:10022000D39400402C12005E9000DE7404F08065D0
:1002300074032525F582E43400F583E523F00525D4
:10024000E525B52402800AE525C39470404775244E
:10025000709000DE7402F0803CE5236455703690A7
:1002600000DEF0C203900099E02460601B24FC6073
:100270001224FE600E14600B24F760101460042436
:100280001070127FA0121875D2038009900004E04C
:10029000049000EAF0900099E012092F02BEA10339
:1002A00033A40377A50333A60447A802BEA9047CA0
:1002B000B004E5B1041EC00442FF000000B090008D
:1002C00086E030E73F7DC87C0012053F900099E052
:1002D0002457600E2408701F12056B7FA31215ECC3
:1002E00080159000E9E090008AF0900079E0FF121C
:1002F00015A67FAB12057CE4900086F043DA01D2AC
:10030000030200B01218EB50207DE87C0312053F79
:10031000900099E02457600C240860030200B07F2D
:10032000A20204D77FAA0204D71205744003020078
:10033000B0802E900086E030E71F900099E0245AAC
:10034000600F240260030204F17FA41215EC020482
:10035000F17FA612057C0204F1120574400302002D
:10036000B01216E7C006C0071216F69200D007D0EA
:10037000061209810200B09000DEE060030200B0C6
:100380001217127003020411240560030200B01258
:100390000558900005E0FFA3E090008BCFF0A3EF9D
:1003A000F0900007E0FFA3E090008DCFF0A3EFF006
:1003B000900003E0FFA3E090008FCFF0A3EFF07B6D
:1003C000017A00798B9019FAE493FC740193FD9003
:1003D00019FCE493F52E1217028E2FF5309019FFB9
:1003E000E493F5311217028E32F533901A02E4933A
:1003F000F5341217028E35F536901A05E493F53769
:10040000A3E493F538753900753A09120EBC020061
:10041000B09000EAE07063C2807FA00204D7900031
:10042000DEE060030200B0900003E0FCA3E0FD7F8B
:10043000017E00121797D29612001DC2967FA0026D
:1004400004D77F030204D79000DEE060030200B00F
:100450001217126019240560030200B012055890AB
:100460000003E0FF7C007D041213570200B09000EF
:10047000EAE07006C2807FA0805D80619000DEE0CF
:1004800060030200B01217126043240560030200EB
:10049000B09000EAE014F012005E7E007F05C00616
:1004A000C007900003E0FB25E0FFE433FE74052F56
:1004B000F58274003EAD82FCEB25E0FFE52424FECE
:1004C000C39FFBD007D006120FA70200B09000EA2E
:1004D000E0700AC2807FA01218680200B0E49000A9
:1004E00087F00200B0900086E030E7107FB1121173
:1004F000ECE4900086F043DA010200B07E007FED6C
:1005000012151040030200B01216E7C006C0071211
:1005100016F69200D007D006120D160200B07D32FA
:100520007C007F017E00121797D29612001DC296A2
:1005300022E490008AF07FA41215A6900079227F11
:10054000017E00121797D29612001DC29622120049
:100550005E9000DE7404F0229000EAE014F01200D5
:100560005E221215A6900079EFF022900079E0FF4C
:100570001215A6227E007FED12151022900086E053
:10058000547FFD12155B228F29E4F536EF25E02517
:10059000E02468F8E6701EEF25E025E02469F8768F
:1005A000087E007F707D007B017A00790312095577
:1005B000E490007AF0AB2CAA2DA92EC001120B6793
:1005C0002466F9E7540F120CA3120B86D001121403
:1005D000C1503D120B672466F9E7540FFF120CA3BC
:1005E000120C90300101B34031EF700A900077E5B2
:1005F0002AF0A3E52BF0120B67120CAF2401FFEFDA
:10060000FEEC54F04EFEEDFF120B67120C9A800ABE
:10061000120B672466F874F056F6AB2CAA2DA92E9F
:10062000C001120B67120CBB120BD1120CC7120BBC
:1006300086D0011214C15052120B67120CBB120B60
:10064000D1FF120CC75408FE120C92300101B340C6
:1006500043EF700A900088E52AF0A3E52BF0120B17
:1006600067120BC22401FFE433FEEFC4F8540FC835
:1006700068FFEEC454F048FEED540FFDEC4EFEED65
:100680004FFF120B67120C9A800A120B672467F84F
:10069000740F56F6120B67120CAFFB700F120BCAD9
:1006A000700A120B4D2469F8E4F6C322120B67247A
:1006B00068F8E53514667003753601C3E531953683
:1006C0006B7020D290120B672466F874F056F674A3
:1006D0000F0856120B662468F806120B672469F897
:1006E00016804C120B67120BC2FFC3E53495366FB0
:1006F000703DD290120B672466F8EC54F0FEED5476
:100700000FA60608120B662468F806120B67246908
:10071000F816120B67120BD8E0FF120B672469F86A
:10072000E6FE7401A806088002C333D8FC4FF0121D
:100730000B672469F8E67017120B67120BD8120CBE
:100740004CFF12182DEFF0120B672469F87608128F
:100750000B672468F8E6C3953540311218E350055D
:10076000E4900085F0120C4960181218F37D207C8B
:10077000037F017E0012176E120CD3A3E529F0440B
:1007800080F0120B4D2469F8E4F6D322C322BB019A
:100790000689828A83F0225002F722BBFE01F322EF
:1007A000EF8DF0A4A8F0CF8CF0A428CE8DF0A42E6D
:1007B000FE22BC000BBE0029EF8DF084FFADF022BD
:1007C000E4CCF875F008EF2FFFEE33FEEC33FCEECF
:1007D0009DEC984005FCEE9DFE0FD5F0E9E4CEFDC2
:1007E00022EDF8F5F0EE8420D21CFEADF075F00895
:1007F000EF2FFFED33FD4007985006D5F0F222C3EE
:1008000098FD0FD5F0EA22C5F0F8A3E028F0C5F076
:10081000F8E582158270021583E038F022BB0110E2
:10082000E58229F582E5833AF583E0F5F0A3E0223D
:100830005009E92582F886F008E622BBFE0AE92580
:1008400082F8E2F5F008E222E5832AF583E993F5E0
:10085000F0A3E9932275F008758200EF2FFFEE33C5
:10086000FECD33CDCC33CCC58233C5829BED9AEC23
:1008700099E58298400CF582EE9BFEED9AFDEC998D
:10088000FC0FD5F0D6E4CEFBE4CDFAE4CCF9A88297
:1008900022B800C1B90059BA002DEC8BF084CFCE3C
:1008A000CDFCE5F0CBF97818EF2FFFEE33FEED33FA
:1008B000FDEC33FCEB33FB10D703994004EB99FBC1
:1008C0000FD8E5E4F9FA227818EF2FFFEE33FEEDAA
:1008D00033FDEC33FCC933C910D7059BE99A4007B7
:1008E000EC9BFCE99AF90FD8E0E4C9FAE4CCFB22CE
:1008F00075F010EF2FFFEE33FEED33FDCC33CCC897
:1009000033C810D7079BEC9AE899400AED9BFDECA1
:100910009AFCE899F80FD5F0DAE4CDFBE4CCFAE4E0
:10092000C8F922A42582F582E5F03583F58322D02B
:1009300083D082F8E4937012740193700DA3A39393
:10094000F8740193F5828883E4737402936860EF0E
:10095000A3A3A380DFEF4E6012EF60010EEDBB0199
:100960000B89828A83F0A3DFFCDEFA2289F050072C
:10097000F709DFFCA9F022BBFEFCF309DFFCA9F0BC
:10098000228E268F27E4F528C3E5279464E5269474
:10099000005017E4F528E528120B922469F8E4F6D4
:1009A0000528E528B40EEFC2902290008AE014706A
:1009B00003020A6F046003020B4C7866E6C4540F0E
:1009C000F97065D3E5279494E52694115003020B42
:1009D0004C300003020B4CE9120C32E6540FFC08B9
:1009E000E6FDEC4E18F6ED08F618120C29EC540F43
:1009F0004E18F6ED08F6900001E526F0A3E527F085
:100A0000AE26FF7C007D1F1207B290008BEEF0A394
:100A1000EFF07C007D031207A0A3EEF0A3EFF0A39C
:100A2000E526F0A3E527F0227866E6C4540F6402B9
:100A30006003020B4C120CEB752C01752D00752E0A
:100A40008B901B9F93FE7401938E2FF530901BA10A
:100A5000E493F531A3120BBB8E32F533901BA4E463
:100A600093F534901BA8E493F535E4FF020587E481
:100A7000F528120BA8120D0CFFE528120C54F9EF03
:100A8000C399506EE528120C16F5828C832FF582DF
:100A9000E43583F583E493FF120C90300001B350EA
:100AA00003020B40E528C454F02499F582E4341B7A
:100AB000120C20F5828C83EF540775F00212092383
:100AC000120C22FDAF27AE261214CBE528501925B3
:100AD000E025E02466F8120C29EC540F4EFEEDFFE1
:100AE000120BA8120C9A8058120B922469F8E4F6A3
:100AF000804E120BA8120D0C697045120CEBE52804
:100B0000120BAFAA06752CFF8A2DF52EE528120CC4
:100B1000F6120BB98E2FF530E528120C63F531E58E
:100B200028120D01120BB98E32F533E528120C7222
:100B3000F534E528120C81F535AF28120587400CF5
:100B40000528E528C3940E5003020A7222C290E5DC
:100B50002925E025E02466F8E4F608F6E52925E0F5
:100B600025E02468F8E4F6E52925E025E022F58370
:100B7000E493FF5408FE131313541F24FF9202AB97
:100B800029AA2AA92BEF540775F002A4F58285F053
:100B9000832225E025E02466F8E4F608F6E528251A
:100BA000E025E02468F8E4F6E52825E025E022C405
:100BB00054F02499F582E4341BF583E493FE740128
:100BC00093222466F8E6FC08E6FDECC4F854F0C86D
:100BD000EDC4540F48540F222468F8E6141313137D
:100BE000541F2403F582E43400F58322E529252BE4
:100BF000F582E43528F583E022A200E433C43333E0
:100C00003354804526FFE527900074CFF0A3EFF022
:100C1000E490007BF022C454F0249CF582E4341B61
:100C2000F583E493FC74019322E6FC08E6FDECC432
:100C3000540F2401FFEFC454F0FE22E52E25E024DA
:100C40008BF582E43400F58322900085E0FF90006C
:100C50007AE06F22C454F0249EF582E4341BF583BD
:100C6000E49322C454F024A1F582E4341BF583E418
:100C70009322C454F024A4F582E4341BF583E49356
:100C800022C454F024A8F582E4341BF583E49322B3
:100C90005408131313541F24FF222466F8A60608D1
:100CA000A607222530F582E4352FF583E49322242C
:100CB00066F8E6FC08E6FDEC540F222466F9E7C46A
:100CC000F854F0C809E7222533F582E43532F5837C
:100CD000E4932290007AE0900085F053DAFE22251A
:100CE000E0247DF582E43400F58322A200920185A0
:100CF000262A85272B22C454F0249FF582E4341B36
:100D000022C454F024A2F582E4341B222466F8E6BF
:100D1000FEEEC4540F228E268F27C3E5279464E588
:100D20002694005003020EAA900087E024FE60255E
:100D3000147003020DB724036003020EAFC290AF1C
:100D400027AE2612185A4003020EAF120BF990007C
:100D5000877402F022120EB0503090007BE09404B1
:100D60004021D290E4900000F0900073F0C2049013
:100D7000007CF090007AF0900003F09000877403FC
:100D8000F08025E4900087F0801E900074E0547F8E
:100D9000FEA3E0FFD3E5279FE5269E4005120BF951
:100DA000800690007BE004F090007BE0C394E0506C
:100DB00003020EAF020EAA90007CE004F090007BCC
:100DC000E0FFA3E0D39F4003020E587B007A007936
:100DD00028AF27AE261212DF4022900000E0FF125B
:100DE0000C3DE526F0A3E527F08F28900000E004F5
:100DF000F0E0D394074005E4900087F030041DA292
:100E000000E433C43333335480FFE528C454F04F37
:100E1000FF900073E0120BE2EFF08039900073E076
:100E2000FF120BE2E0FEA200E43333333354F84503
:100E300028FDEE4DF074032F120BE4120C4CFF1240
:100E4000182DEFF0900073E004F0E0D394704005AB
:100E5000E4900087F0B20422120EB0504D1218E355
:100E60005005E4900085F0120C49603A1218F37DA9
:100E7000207C037F017E0012176E120CD3900003BA
:100E8000E0FD900074E05480FF900000E0C454F056
:100E90004FFFED4F900003F0900074E0547FF0900E
:100EA0000086E04480F0C2908000E4900087F02249
:100EB000A2009201AF27AE26121744228B298A2A5C
:100EC000892B8C2C8D2DE4F53D753E80F53BE53B63
:100ED000C3952E5010E52D253BF582E4352C120FDD
:100EE0006C053B80E9E4F53BE53BC395385057E59D
:100EF0003A253DF582E43539F583E0553E7019F524
:100F00003CE53CC39531502DE530253CF582E43578
:100F10002F120F6C053C80E9E4F53CE53CC39534A9
:100F20005013E533253CF582E43532120B6E120F77
:100F30009B053C80E6E53EC313F53E7005053D7517
:100F40003E80053B80A2E4F53BE53BC3953750135B
:100F5000E536253BF582E43535120B6E120F9B0505
:100F60003B80E6C2909000877405F022F583E493FD
:100F7000FF5408FE131313541F24FF9202AB29AA37
:100F80002AA92BEF540775F002A4F58285F083128D
:100F9000081DF54085F03F1200032212081DF540A0
:100FA00085F03F120003228E268F278C288D298BF7
:100FB0002AD200C201852982852883E05488D394EF
:100FC000004003D38001C39201E4F52BE52BC395C8
:100FD0002A505930010D120BECC413131354012481
:100FE000FF8002A2009202852782852683C083C0EB
:100FF00082120BECFFC45407D082D083121035301C
:10100000010C120BECFF131313541F138002A200E8
:101010009202852782852683C083C082120BEC54FE
:1010200007D082D083121035052B80A0C29090008B
:10103000877405F02275F002120923E0F53FA3E062
:10104000F540120003920022C0E0C0F0C083C082CD
:10105000C0D075D000C000C001C002C003C004C031
:1010600005C006C007E5985403F545F45298E545D8
:1010700030E01712192B9000DD121739EFF09000B5
:10108000DDE004F0E0B44002E4F0E54530E12E900C
:1010900000E0E0D39400401A9000DCE02446F8E63B
:1010A000FF1219289000DCE004F09000E0E014F05A
:1010B0008002D2059000DCE0B42002E4F0D007D03A
:1010C00006D005D004D003D002D001D000D0D0D0BB
:1010D00082D083D0F0D0E03212005A787FE4F6D884
:1010E000FD75819D021122020076E493A3F8E4933A
:1010F000A34003F68001F208DFF48029E493A3F80B
:101100005407240CC8C333C4540F4420C88340047C
:10111000F456800146F6DFE4800B0102040810203B
:101120004080901266E47E019360BCA3FF543F3080
:10113000E509541FFEE493A360010ECF54C025E0DF
:1011400060A840B8E493A3FAE493A3F8E493A3C897
:10115000C582C8CAC583CAF0A3C8C582C8CAC58328
:10116000CADFE9DEE780BEC0E0C0F0C083C082C055
:10117000D075D000C000C001C002C003C004C005CB
:10118000C006C007E5D85487F521F452D8E5F730FA
:10119000E508E5F730E60312193253F7DFE52130B1
:1011A000E708E5D930E003121931E52130E008E520
:1011B000DA30E003121675E52130E108E5DB30E0B6
:1011C00003121933E52130E208E5DC30E00312199F
:1011D00034D007D006D005D004D003D002D001D03F
:1011E00000D0D0D082D083D0F0D0E032AE07E4F58A
:1011F0002612180A900000E004FF12181112125F64
:10120000900000E0FFE526C39F501412172BE05416
:101210007FFF12181112172B121725052680E19057
:101220000074E0547FFF12181190007412172512F9
:10123000125FE4F526900073E0FFE526C39F501788
:10124000740325261217190526E526541F70E61289
:10125000192512191E80DE7F551218110219251248
:10126000192512191E224200E500004200E100008B
:101270004200E700004200E30000C1834100860015
:101280004100870041008A004100790042000100CE
:101290000042008800004200770000C10441007352
:1012A000004100850041007A004100000048007DB7
:1012B0000000000000000000410076004100DD0059
:1012C0004100DF004100DB004100DC004100E000A4
:1012D0004100DA00C1054100DE0041009900008EA6
:1012E000298F2A8B2B8A2C892DE4F52E900000E083
:1012F000FFE52EC39F505EE52AAE297803CEC313C7
:10130000CE13D8F9FDAC06E52AAE297802CEC31378
:10131000CE13D8F92DFFEE3CAB07FA120C3BE0FEE2
:10132000A3E0FFC39BEE9A50028004AE02AF03AA73
:1013300006AB07120C3BE0FCA3E0FDAF2AAE29127E
:1013400017E7500DAB2BAA2CA92DE52E12078ED333
:1013500022052E8097C3228F268C278D28EF120B13
:10136000AFAA06F97BFFEF120C16FDEF120C54F535
:101370002EEF120CF6120BB98E2FF530EF120C6314
:10138000F531EF120D01120BB98E32F533EF120C5D
:1013900072F534EFC454F024A5F582E4341B120B2B
:1013A000B98E35F536EFC454F024A7F582E4341B2A
:1013B000F583E493F537EF120C81F53885273985ED
:1013C000283A020EBC900076E0FDC4540F2401FBC5
:1013D000E433FAED540FF96B7001EA603DE97010E7
:1013E000E0C4540F2401FDE433FCED64044C602A96
:1013F000900076E0C4540FFD540F120CDFEEF0A302
:10140000EFF0ED04C454F049900076F0E0FFC454CE
:101410000FC394044004EF540FF022C0E0C083C017
:1014200082C0D075D000C004C005C006C00753C834
:101430007F9000E5E0FEA3E0FF4E700353C8FB90F1
:1014400000E112166A50099000E5E4F0A3F0800D67
:10145000C39000E6E09DF09000E5E09CF0D007D05E
:1014600006D005D004D0D0D082D083D0E032C0E006
:10147000C083C082C0D075D000C004C005C006C003
:101480000753917F9000E7E0FEA3E0FF4E70035307
:1014900091FB9000E312166A50099000E7E4F0A374
:1014A000F0800DC39000E8E09DF09000E7E09CF034
:1014B000D007D006D005D004D0D0D082D083D0E0E1
:1014C0003212081DFDACF0AF2BAE2A8F828E83AF97
:1014D00005AE041218A6AB07AA06D3EB94F4EA945F
:1014E0000140067E017FF48004AE02AF03AA06AB82
:1014F00007C3EB9464EA940050067E007F64800486
:10150000AE02AF03AA06AB07AF82AE831217E72283
:10151000AD07AC06ABDA900076E0FEC4540FFFEEE8
:10152000540FFEB50702C32253DAFE900076E0FAAC
:10153000EE120CDFE0FFA3E08D828C83CFF0A3EFEF
:10154000F0EA54F0FF900076E0044FF0540FC3949B
:10155000044004E054F0F08BDAD322AE05AD07E48A
:10156000FCFB7FAA121811AF05121811EEC454F03B
:10157000244AF582E4341DF583E493FFECC39F50C5
:101580000774082CFC0B80F4EB04FF12180CE4FC2D
:10159000ECC39B500974032C1217190C80F27F5571
:1015A0001218110219258F26900079E0F5277E0088
:1015B0007F387D007B007A0079661209557F0B1217
:1015C000192E43DA011200707D0A7C007F017E0033
:1015D00012179712001DE4900087F0900086F0909B
:1015E0000099E526F0900079F0AF2722AE07E4FDE0
:1015F000F52612180A900001E0FF12181190000160
:10160000121725900077E0FF12181190007712173B
:1016100025900088E0FF1218119000881217257499
:10162000032D1217190DBD03F67F5512181102195B
:1016300025AB07AA06E4F9F87F407E427D0FFC1235
:101640000891A804A905AA06AB077F207ED77D755F
:101650007C01120891C3E49FFFE49EFE22AB07AA1F
:1016600006E4F9F87FE87E03FD22E0FCA3E0FDC379
:10167000EF9DEE9C22AFFBAEFC7C007D0A1207A022
:10168000AD07AC06AFD953D9BFE4F5FAF5F98FD958
:10169000C3EC948050157F002093027F01EFC43388
:1016A000333354804CFEEDFF0213C5E4900076F016
:1016B000229000DDE0FF9000DBE0B507057E017FB2
:1016C00000229000DB121739E0FD7C009000DBE087
:1016D00004F0E0B44002E4F09000DAE0FEEE4204F0
:1016E000E4F0AE04AF05229000EDE0FCA3E0FDECD9
:1016F000547FFEAF0522EC5480C41313135401240D
:10170000FF22A3E493FE74019322E49000EBF0A384
:10171000F022900087E024FB22F582E43400F58378
:10172000E0FF021811A3E0FF021811E52625E024CE
:101730008BF582E43400F58322E0249AF582E434C8
:1017400000F58322AD07AC06900074E0FAA3E0FB3D
:10175000EA5480C413131354017005300102C322EC
:10176000AF05AE04EA547FFCAD031214CB228E37D2
:101770008F388C398D3A12165D12163E12188290EF
:1017800000E5E539F0A3E53AF09000E1E537F0A394
:10179000E538F043C804228E288F298C2A8D2B121D
:1017A000165D12163E12188E9000E7E52AF0A3E5AA
:1017B0002BF09000E3E528F0A3E529F04391042203
:1017C00012002A1218FA1219011218B2121916125E
:1017D00018441218D01218BC1218C612189A1219EE
:1017E0000812191A02190FC3ED9BF582EC9AF583C2
:1017F000C3E5829FE5839E500FED2BFDEC3AFCC3C1
:10180000EF9DEE9C50028001C3227FAA121811AFF7
:1018100006C2059000DFE0B42002E4F09000DFE0B3
:101820002446F8A607E004F0A3E004F0227E1DE4BD
:10183000FDEF30E70625E06EFF8004EF25E0FF0DA9
:10184000BD08EE22AF885388AF758CA0758DCBEFA5
:101850005440FEEF54104E428822C3EF942CEE9475
:10186000014003D38001C322121875D2039000797E
:10187000E0FF0215A6AE0712180A7F5512181102D2
:101880001925AD07AC06ECF5CBAF058FCA22AD0725
:10189000AC06ECF593AF058F9222C2DE75D90575C3
:1018A000F9FF75960122EF7802CEC313CE13D8F953
:1018B000FF2275E34075E10175E20122E5915404D0
:1018C0005391FB429122758E547589224388502290
:1018D000E5C8540453C8FB42C82253984FEB4F4D00
:1018E000F59822E5C8C320E201D322E591C320E2A6
:1018F00001D32253C8FB53C87F2275A41175D4CFDE
:101900002275A54175D5772253F77F75DA30227598
:10191000E69075A8B022E4F5A9224398102230057C
:10192000FD22C2DE22D299228F9922AF99228F8C7A
:101930002222222222015E041A2A620802080109D8
:1019400000017202E412C005DC20D00A030801097C
:101950000004017C044C0BB823280A030801090089
:1019600001F403E805DC733C030A0108010190045B
:10197000B00BB81C520A030801090001C2038428F5
:101980006E02080009010800D201A41D88020800A7
:1019900009010800C8017C1B260208000901080192
:1019A0005E028A32C8020800090108015E02BC3DDD
:1019B00022020800090108028A1E82071C0F8C08F7
:1019C0000108020803016802D012C005DC0A0308FE
:1019D000010900024E05DC01AE348A0A0308010940
:1019E00000012C0A00008C047E27F6080108030879
:1019F00002080208030804193503193B02193D02C5
:101A0000193F0200000018194105194B02194D0237
:101A1000194F0219510128195204195A02195C026E
:101A2000195E0200000018196004196801196902A2
:101A3000196B0200000047196D041975021977022D
:101A400019790200000018197B0319810219830219
:101A500019850200000018198703198D02198F02D9
:101A60001991020000000C199303199902199B02A5
:101A7000199D020000000C199F0319A50219A70265
:101A800019A9020000000C19AB0319B10219B30225
:101A900019B5020000001219B70419BF0219C102DA
:101AA00019C3020000002819C50419CD0219CF027C
:101AB00019D1020000002819D30419DB0219DD0234
:101AC00019DF020000001819E10519EB0219ED04F5
:101AD00019F10419F50220015E041A2A62080208AD
:101AE000010900017202E412C005DC20D00A0308DB
:101AF00001090004017C044C0BB823280A030801E7
:101B0000090001F403E805DC733C030A0108010144
:101B10009004B00BB81C520A030801090001C2036B
:101B200084286E02080009010800D201A41D880261
:101B3000080009010800C8017C1B260208000901F1
:101B400008015E028A32C8020800090108015E022B
:101B5000BC3D22020800090108028A1E82071C0FF0
:101B60008C080108020803016802D012C005DC0AD3
:101B70000308010900024E05DC01AE348A0A03089D
:101B8000010900012C0A00008C047E27F6080108D8
:101B90000308020802080308041AD7031ADD021A10
:101BA000DF021AE102000000181AE3051AED021A1A
:101BB000EF021AF1021AF301281AF4041AFC021AAD
:101BC000FE021B0002000000181B02041B0A011B7E
:101BD0000B021B0D02000000471B0F041B17021B0A
:101BE00019021B1B02000000181B1D031B23021BF4
:101BF00025021B2702000000181B29031B2F021BB4
:101C000031021B33020000000C1B35031B3B021B7F
:101C10003D021B3F020000000C1B41031B47021B3F
:101C200049021B4B020000000C1B4D031B53021BFF
:101C300055021B5702000000121B59041B61021BB6
:101C400063021B6502000000281B67041B6F021B58
:101C500071021B7302000000281B75041B7D021B10
:101C60007F021B8102000000181B83051B8D021BD5
:101C70008F041B93041B970220015E041A2A62083A
:101C80000208010900017202E412C005DC20D00A3A
:101C9000030801090004017C044C0BB823280A0343
:101CA0000801090001F403E805DC733C030A01089C
:101CB00001019004B00BB81C520A0308010900018D
:101CC000C20384286E02080009010800D201A41D85
:101CD0008802080009010800C8017C1B26020800D0
:101CE000090108015E028A32C802080009010801E0
:101CF0005E02BC3D22020800090108028A1E82071A
:101D00001C0F8C080108020803016802D012C005EC
:101D1000DC0A0308010900024E05DC01AE348A0A20
:101D20000308010900012C0A00008C047E27F60834
:101D300001080308020802080308041C79031C7F39
:101D4000021C81021C8302000000181C85051C8FE8
:101D5000021C91021C93021C9501281C96041C9ED7
:101D6000021CA0021CA202000000181CA4041CAC4F
:101D7000011CAD021CAF02000000471CB1041CB9DD
:101D8000021CBB021CBD02000000181CBF031CC5C6
:101D9000021CC7021CC902000000181CCB031CD186
:101DA000021CD3021CD5020000000C1CD7031CDD52
:101DB000021CDF021CE1020000000C1CE3031CE912
:101DC000021CEB021CED020000000C1CEF031CF5D2
:101DD000021CF7021CF902000000121CFB041D0388
:101DE000021D05021D0702000000281D09041D1127
:101DF000021D13021D1502000000281D17041D1FDF
:101E0000021D21021D2302000000181D25051D2FA3
:0B1E1000021D31041D35041D390220A5
:00000001FF
