:020000040000FA
:1000000002142AED24F8FEEFD39E4015ED2408FDDE
:10001000E433FCC3EF9DEC6480F874809850028058
:1000200001C32202139A7597A522220218387EFF77
:10003000EFD394004022EF9480501DE4FDED75F065
:1000400005A4240CF582E4341EF583E493B507047B
:10005000AE0580040DBD06E5AF06220215CD121DCA
:100060004053D87853DBFE121D04E4900085F02243
:10007000D2DE2202188BD202121ABAC290C296D2D3
:1000800080E4FBFD7F10121CEB1206CE74A4F0D2AC
:10009000AFE4F53BF53CD296053CE53C7002053BF0
:1000A000B410F3E53BB427EEC296120026300209E5
:1000B0001219F48E3E8F3F8006753E01753F00E5B4
:1000C0003F7004E53E640170409000CCE07007F59D
:1000D0003BF53C02028D053CE53C7002053BD394A8
:1000E00010E53B94274002D296D3E53C9430E53BA3
:1000F0009475500302028DE4F53BF53C9000CCF082
:100100009000CBF0C29602028DE4F53BF53C9000E6
:10011000CCE014602A14700302025F147003020220
:100120001D1470030202332404600302028DE53FB4
:1001300064AA600302028D9000CC04F002028DE5F7
:100140003F9000CBF0A37402F0E53F120C3902059A
:10015000A00173A10185A501A9A601BDA701C6A89B
:1001600001E2A901C9B001D2B1019AC0028DFF001C
:100170000002141206879000A87401F0E490007544
:10018000F07FA1806E12005E9000CC7404F0753D8B
:1001900008E4F54175400902028D9000CC7404F02A
:1001A000E4F54175400202028DE49000A8F0900051
:1001B00075F07FA612071174A6F002028D1206CE0A
:1001C00074A4F002028D753D089000CC7403F00217
:1001D000028D9000757401F07FB1120711EFF002EB
:1001E000028D1206879000A8E0F53AE4F0900075C1
:1001F000F07FA91219B790007CEFF07D307C75126A
:10020000070002028D1206EE90007CEFF0E49000F1
:10021000CCF08079E49000CBF0A3F08070E4F5415D
:10022000E53FF540E540D394009000CC402C7404A9
:10023000F0805A74042541F582E43400F583E53FEB
:10024000F00541E541B540059000CC800DE541C386
:10025000947040397540709000CC7402F0802EE5A7
:100260003F645570289000CCF0C2029000CBE0248F
:1002700060601824FC600F24FE600B14600824F6F4
:100280006004241070077FA0121CB8D2029000CB2B
:10029000E0120C3902B6A102E0A402F2A503DAA62C
:1002A00003F6A805C0A905FDB00670B103A6C003FA
:1002B000C8FF000000AA900084E030E70F7DC87CF2
:1002C000001206B77FA312192E0205DA121CFC4099
:1002D000030200AA7DE87C031206B77FA20205F59F
:1002E000900084E020E7030200AA7FA412192E02E6
:1002F00003EE9000CCE060030200AA900085E024A9
:10030000FC6070240460030200AA153D900008E020
:10031000FEA3E0FF7C007D64120C5FC006C00712E4
:100320001573D007D006120BA78F4B900006E0FE86
:10033000A3E0FF8E4CF54D7C007D64120C5FC0067F
:10034000C007121573D007D006120BA78F4E754F3A
:1003500018900008E0FAA3E0FB900004E0FCA3E0A2
:10036000FDA3E0FEA3E0FF1217569000747406F0A0
:100370000204B97F0112002E12159960030200AA2F
:10038000E53D601A7F0112002EEF12154912158DFE
:1003900050030205B81206E2121D2E0205B812061D
:1003A000EE7FA00205F59000CCE060030200AA9069
:1003B0000004E0FCA3E0FD120700D296121D2EC23D
:1003C000967FA0121CB8800A7F01121CB8E490002E
:1003D000CCF0D2021206F70200AA900084E020E7D7
:1003E000030200AA547FF543FD7FA61214B9E490DE
:1003F0000084F00200AA9000CCE060030200AA9002
:100400000085E024FC7003020569240460030200F7
:10041000AA900004E0FF2480600804700DE4F51D3C
:100420008003751D017542FF800F12002E8F42E57B
:1004300042F46005121599F51D153D12005EE51D8B
:1004400014607C0460030200AA900004E0647F70E2
:1004500024A31215BAA3E0FAA3E0FBA3E0F54BA393
:10046000E0F54CA3E0F54DA3E0F54EA3E01207083C
:10047000740CF0803BE542F46031121547F5828E32
:10048000831215AA740593FA740693FB740993F505
:100490004B740793F54C740893F54D740A93F54E1D
:1004A000740B931207087401F08005E49000CBF000
:1004B0009000CBE070030200AA121BF00200AA9089
:1004C0000004E06480704E900074740CF090000B97
:1004D000E0FF7E00900009E0FCA3E0FD120A47C0A7
:1004E00006C00790000C1215C6C007C00690000D8C
:1004F0001215C6AA06AB0790000E1215C68E4F8FB6
:10050000508A4D8B4ED04BD04C9000051215BA90AE
:10051000000FE08048E542F4700302062F121547F1
:100520009000747401F08544828E83740612156401
:10053000C006C0077407121564C007C0067408120D
:100540001564AA06AB0774091215648E4F8F508A82
:100550004D8B4ED04BD04C1215AA740A93F551D046
:1005600003D0021217D00200AAE53D70101206F760
:100570007FA0121CB8D202E4F51D0200AAE51D14EA
:10058000601B0460030200AAE542F4600E121547E6
:1005900012158D40061206E2121D2E801BE542F454
:1005A000601612154712158D400EEFFD7C007F017D
:1005B0007E00121B0D121D2EE4900085F00200AA91
:1005C000900084E0FF30E71C547FF5437DC87C0039
:1005D00012069AAD437FAB1214B9E4900084F0D2B6
:1005E000020200AA121CFC40030200AA7DE87C0360
:1005F00012069A7FAA121CB8D2020200AA90000426
:10060000E025E0F5439000CCE060030200AA9000F2
:1006100085E0700512005E800B900085E064046048
:10062000030200AAE5436007E540C394045008E4D0
:100630009000CBF00200AA74062543F9E43400755B
:100640004801F549894AC3E540954324FEF54B909E
:100650000005E0F54C7B017A0079061216527FA066
:10066000121CB890007CE0FF1219B7D2020200AA57
:10067000900084E020E7030200AA7FB11216D4E4C0
:10068000900084F00200AA7D327C007F017E00127F
:100690001B0DD296121D2EC296227F017E00121BC8
:1006A0000DD296121D2EC2969000A8E53AF0900049
:1006B0007CE0FF1219B7227F017E00121B0DD2963B
:1006C000121D2EC29690007CE0FF1219B7229000F6
:1006D000A87401F0E4900075F07FA41219B790009F
:1006E0007C22EFFD7C007F017E00121B0D2290001A
:1006F0007CE0FF1219B72290007CE0FF1219B722AC
:100700007F017E00121B0D22F54F121756900074C8
:10071000221219B790007C22AFE9AEEA120DB68E14
:10072000088F092093030209A285080A85090BC3D3
:10073000E509950DF511E508950CF510900075E0AB
:1007400014700302099C0460030209C3900085E051
:100750001460650460030209C3900084E060030232
:1007600009C39000A8E0FFAB11AA10AD0FAC0E12A8
:1007700010558F1AE51A648070030209C390007F38
:10078000120E6B900002E510F0A3E511120DC1E40A
:10079000900074F0900077F090007EF0F51BF51C4F
:1007A000FE7F70FD7B017A007904120C8CE49000CE
:1007B0007DF090008504F022E51A120D998E23F544
:1007C00024E51A120DFA70030208D004600302092E
:1007D000C3900004120CBBFFD39400400B90007E2A
:1007E000E09F5004E004F022120E13AE10AF11ABE4
:1007F00007AA06E50F2BFFE50E3AFEE433FDE433CE
:10080000FCC004A905AA06AB07AE0EAF0F120E730B
:10081000D000120BA78F22120D80FD120003401989
:1008200090000A120D83FDAF22120003400B120C40
:10083000B8120E646003020954120D80FDAF22123B
:1008400000035009120CB8C3120E444013D3E50F35
:10085000951CE50E951B402B120CB8120E647023EC
:10086000900086120E6B120CC4C083C082120E0B55
:100870007401A806088002C333D8FC4FD082D0830D
:10088000F0801790007A120E6BC290D3951CE50E83
:10089000951B4006850E1B850F1C900088E0700D8F
:1008A000120CC6120D78FF121C4D120DBD120CB8A1
:1008B000120E6460030209C3121CF45005E4900098
:1008C00083F0120D7570030209941209D70209947E
:1008D000120CB8FF7E00900004120AE4FDACF01286
:1008E0000A47120DE18E258F26120E13E4850F158F
:1008F000850E14F513F512851119851018F517F5E5
:1009000016900006120CF81209C4500F900007123E
:100910000CF21209F55004C2908043900008120CAA
:10092000F21209C4502EAA23A9247BFF90000912B9
:100930000CF81209F5501D120CC4C083C082120EAF
:100940000B7401A806088002C333D8FC4FD082D0B4
:1009500083F0800AE4900084F0C290A3F02290001B
:1009600088E0700D120CC6120D78FF121C4D120D8E
:10097000BDAA23A9247BFF90000A120A08120E6464
:100980007041121CF45005E4900083F0120D756064
:10099000031209D7C290E4900085F022AF11AE1087
:1009A000801E85080C85090DC3E509950BF50FE53B
:1009B00008950AF50E900075E0147007AF0FAE0EA3
:1009C000120E9B22E5159FFFE5149EFE121CACC380
:1009D000EF9526EE952522121D047D207C037F01D4
:1009E0007E00121AE490007DE0900083F0A3E51AE7
:1009F000F04480F022E5199FFFE5189EFE121CAC22
:100A0000C3EF9526EE952522BB010CE58229F582E0
:100A1000E5833AF583E0225006E92582F8E622BB19
:100A2000FE06E92582F8E222E58229F582E5833A8D
:100A3000F583E49322BB010689828A83F022500267
:100A4000F722BBFE01F322EF8DF0A4A8F0CF8CF0CB
:100A5000A428CE8DF0A42EFE22BC000BBE0029EFF0
:100A60008DF084FFADF022E4CCF875F008EF2FFF95
:100A7000EE33FEEC33FCEE9DEC984005FCEE9DFE63
:100A80000FD5F0E9E4CEFD22EDF8F5F0EE8420D2AA
:100A90001CFEADF075F008EF2FFFED33FD40079819
:100AA0005006D5F0F222C398FD0FD5F0EA22C2D548
:100AB000EC30E709B2D5E4C39DFDE49CFCEE30E7E1
:100AC00015B2D5E4C39FFFE49EFE120A59C3E49D0C
:100AD000FDE49CFC8003120A5930D507C3E49FFF54
:100AE000E49EFE22BB0110E58229F582E5833AF5FA
:100AF00083E0F5F0A3E0225009E92582F886F008AA
:100B0000E622BBFE0AE92582F8E2F5F008E222E5DA
:100B1000832AF583E993F5F0A3E99322E88FF0A403
:100B2000CC8BF0A42CFCE98EF0A42CFC8AF0EDA474
:100B30002CFCEA8EF0A4CDA8F08BF0A42DCC3825A7
:100B4000F0FDE98FF0A42CCD35F0FCEB8EF0A4FE87
:100B5000A9F0EB8FF0A4CFC5F02ECD39FEE43CFC1C
:100B6000EAA42DCE35F0FDE43CFC2275F008758238
:100B700000EF2FFFEE33FECD33CDCC33CCC5823327
:100B8000C5829BED9AEC99E58298400CF582EE9B2C
:100B9000FEED9AFDEC99FC0FD5F0D6E4CEFBE4CD4A
:100BA000FAE4CCF9A88222B800C1B90059BA002DE4
:100BB000EC8BF084CFCECDFCE5F0CBF97818EF2F9D
:100BC000FFEE33FEED33FDEC33FCEB33FB10D703CC
:100BD000994004EB99FB0FD8E5E4F9FA227818EF75
:100BE0002FFFEE33FEED33FDEC33FCC933C910D7D4
:100BF000059BE99A4007EC9BFCE99AF90FD8E0E4E1
:100C0000C9FAE4CCFB2275F010EF2FFFEE33FEEDB6
:100C100033FDCC33CCC833C810D7079BEC9AE89986
:100C2000400AED9BFDEC9AFCE899F80FD5F0DAE468
:100C3000CDFBE4CCFAE4C8F922D083D082F8E49367
:100C40007012740193700DA3A393F8740193F5824D
:100C50008883E4737402936860EFA3A3A380DFEC3E
:100C60008EF0A4CCC5F0CCCDF8EFA4CEC5F02DFD10
:100C7000E43CFCE8A42EC8C5F03DFDE43CFCEFA438
:100C8000FFE5F028FEE43DFDE43CFC22EF4E60125F
:100C9000EF60010EEDBB010B89828A83F0A3DFFCBC
:100CA000DEFA2289F05007F709DFFCA9F022BBFE2B
:100CB000FCF309DFFCA9F02290000BAA23A9247BF6
:100CC000FF020A08D290900077E024FFFFE434FF8F
:100CD000FE7C007D08120AAE74042FF58274003E7B
:100CE000F58322FF900074E02404F582E43400F5DB
:100CF0008322AA23A9247BFF120A08FD7C0090000E
:100D000004120AE4FFAEF0120A47C322120BA7AB8B
:100D100007AA06E4F9F87F407E427D0FFC120BA77C
:100D2000E47BFFFAF9F8120B1CA804A905AA06AB8C
:100D3000077F207ED77D757C01120BA7EFF404227C
:100D4000E53725E0248AF582E43400F58322AE2AD3
:100D5000AF2B7C007D1F120A598E2E8F2F7C007DB9
:100D600005120A59C3E52F9FFDE52E9EFCD3E52908
:100D70009DE5289C22900083E0FF90007DE06F229B
:100D8000900009AA23A9247BFF020A0853DBFE5323
:100D9000DAFE53F7DF53F7BF2275F005A4240EF5F2
:100DA00082E4341EF583E4740193FA740293AE0274
:100DB000227D64120A597C007D0A020A4790007D58
:100DC000EFF09000887408F022C3E5379FFDE53608
:100DD0009ED3FCE5339DE5329C2275F0FFA4FFAE67
:100DE000F07C007D64020A59AA2EA92F7BFF900097
:100DF00002120AE4F53785F0362275F005A4240DB9
:100E0000F582E4341EF583E4931422E0FF90008819
:100E1000E0FE22900088E014F0900077E004F022D9
:100E2000E52F2FFFE52E3EFEC3E5299FE5289E22F4
:100E3000AB48AA49A94A854D82758300020A0890E9
:100E40000081E0D3FF900077E09F22900078E527B3
:100E5000F0A3E528F022852F82852E83E493FA748F
:100E60000193FB22FF900077E06F22E50EF0A3E5EF
:100E70000FF0227C007D64020C5F540F75F002A419
:100E8000F58285F083227B007A007929AF28AE278E
:100E900022D3E52B9494E52A9411228E278F289053
:100EA0000085E0146035147003020F802402600393
:100EB000021054C290900084E06003021054AF28E6
:100EC000AE27121C7A4003021054E4900001F01285
:100ED0000E4B9000857401F0D29022900078E0FCD7
:100EE000A3E0FDAE047802CEC313CE13D8F92DFFD4
:100EF000EC3EFED3E5289FE5279E4009120E4BE409
:100F0000900001F022AF28AE271218DE501F90008B
:100F100001E094004017E4900074F090008874049D
:100F2000F0E490007DF09000857402F022C3E52883
:100F30009464E52794005003020FE6120E86121106
:100F4000BE5020E529120D42E0FEA3E02528FFE572
:100F5000273EC313FEEF13FFE529120D42EEF0A367
:100F6000EFF022900001E0120D42120E4E900001AF
:100F7000E004F0E0D3940F5003021054E402104553
:100F8000B290AF28AE271218DE505E121CF4500546
:100F9000E4900083F0120D75604A121D047DF47C0C
:100FA000017F017E00121AE490007DE0900083F042
:100FB000900088E07019120CE4C083C082E0FF90BA
:100FC0000001E0540FFEEF4ED082D083F0800E90EF
:100FD0000001E0C454F0440F120CE3EFF0900084E1
:100FE000E04480F0C290E48067120E8612126450D2
:100FF00057900088E0B40410E529C454F0120CE3C3
:10100000EFF0E4900088F022900074E0FF120CE80A
:10101000E0FEE529540FFDEE4DF074042F120CEAAA
:10102000120D78FF121C4DEFF0900074E004F09068
:1010300000887404F0900074E0D394704016121D80
:1010400004E4900001F08008121D04E4900001F017
:10105000900085F0228F278C288D298A2A8B2B756A
:101060002C80E5277071E4F52D7F0112002EEF65CD
:101070002D701B120E914054E52B9450E52A944696
:10108000504A120D4E4045120E2050408073E52DFF
:10109000120D998E2EF52FE52D120DFA60180470A1
:1010A0002B120E56C002C003120DE8D003D002125C
:1010B000110750188013120E56C002C003120DE81B
:1010C000D003D0021211075003852D2C052DE52DDC
:1010D000C394064094802DAF2712002E8F2D7F01E0
:1010E00012002EEF652D701C120E914017E52B9407
:1010F00050E52A9446500D120D4E4008120E205015
:1011000003852D2CAF2C22AD2BAC2AAF29AE281293
:101110001113228E308F318C328D33C2007C007DD2
:1011200064AF03AE02120DB38F828E83AE36AF373B
:10113000120DB1D3E58294F4E583940140050C7D52
:10114000F48004AC83AD828C838D82D3EF94F4EE73
:10115000940140067C017DF48004AC06AD07AE042A
:10116000AF05D3EB9400EA94004038EB9582FDEA9A
:101170009583FCD3E5319DE5309C403FEB2582FD16
:10118000EA3583FCC3E5319DE5309C502E120DC934
:101190004029E5372FFDE5363EC3120DD2501CD253
:1011A000008018120DC94013E5372FFFE5363EFECB
:1011B000C3E5339FE5329E5002D200A200228E2A60
:1011C0008F2B8B2C8A2D892EC2001212645005D2CF
:1011D00000021261E52BAE2A7803CEC313CE13D8DA
:1011E000F9FDAC06E52BAE2A7802CEC313CE13D898
:1011F000F92DFDEE3CFCE52AC4F854F0C868FEE584
:101200002BC4540F482DF531EC3EF530E4F52F900A
:101210000001E0FFE52FC39F5047C3E52B9531FF49
:10122000E52A9530FEE52F120D42E0FCA3E0FDD348
:101230009FEC9E4028E52B2531FFE52A3530FEC383
:10124000ED9FEC9E5017E52E452D452C600BAB2CE9
:10125000AA2DA92EE52F120A35D2008004052F8071
:10126000AEA200228E328F338B348A358936C2018A
:10127000E4F537900001E0FFE537C39F4003021318
:1012800005E533AE327803CEC313CE13D8F9FDACE7
:1012900006E533AE327802CEC313CE13D8F92DF55E
:1012A00039EE3CF538120D40E0FEA3E0FFC395395E
:1012B000EE953850028004AE38AF398E388F39122F
:1012C0000D40E0FEA3E0FFC39539FDEE9538FCC369
:1012D000ED9533EC95325028E5392FFFE5383EFE89
:1012E000C3E5339FE5329E5017E5364535453460FA
:1012F0000BAB34AA35A936E537120A35D201800581
:101300000537021273A201224200C700004200C347
:1013100000004200C900004200C500004100CC00AE
:101320004100CB00011D00410084004100850041C7
:1013300000A8004100750041007C00410076564144
:101340000089AB410000004100820042007F0000A4
:101350004200020000420086000042007A00004184
:10136000008100410088004100770041007E00417B
:101370000074004100830041007D004100010041F4
:1013800000C0004100C1004100BE004100BF00415B
:1013900000C2004100BD00C10300C0E0C0F0C08336
:1013A000C082C0D075D000C000C001C002C003C060
:1013B00004C005C006C007E5985403F55AF45298D6
:1013C000E55A30E017121D499000C0121A52EFF092
:1013D0009000C0E004F0E0B41402E4F0E55A30E11B
:1013E0002E9000C2E0D39400401A9000BFE0245B2E
:1013F000F8E6FF121D469000BFE004F09000C2E046
:1014000014F08002D2039000BFE0B42002E4F0D0D8
:1014100007D006D005D004D003D002D001D000D030
:10142000D0D082D083D0F0D0E032121D4F787FE44C
:10143000F6D8FD75817A021474020076E493A3F85D
:10144000E493A34003F68001F208DFF48029E493DB
:10145000A3F85407240CC8C333C4540F4420C883D2
:101460004004F456800146F6DFE4800B01020408D4
:1014700010204080901308E47E019360BCA3FF54C9
:101480003F30E509541FFEE493A360010ECF54C022
:1014900025E060A840B8E493A3FAE493A3F8E493AA
:1014A000A3C8C582C8CAC583CAF0A3C8C582C8CAB2
:1014B000C583CADFE9DEE780BE8F458D46E4FEFDC9
:1014C000F547121A3F247AF582E4341EF58374013D
:1014D00093FA7402938A48F5497FAA121BB0AF456C
:1014E000121A3C2479F582E4341EF583E4931460E7
:1014F0000E047019AA48A9497BFF90000B8009AA25
:1015000048A9497BFF90000A120A08F547EEC395E7
:1015100047500774082EFE0D80F3ED04FF121A3CAD
:101520002478F582E4341EF583E493FF121BB0E4C3
:10153000FEEEC39D500974042E121A2A0E80F27F0B
:1015400055121BB0021D43E54275F005A424A2F517
:1015500082E4341DF583740193FA740293AE028E13
:1015600043F5442293FF7E00740493FC740593FDBD
:10157000020A47900006E0FEA3E0FF900009E02F7A
:10158000FF900008E03EAB07FAE4F9F822F5828EFE
:1015900083740C93FFD3940022EF75F005A424A16B
:1015A000F582E4341DF583E49322E493FE74019301
:1015B000FF740293FC740393FD22E0FEA3E0FFA3FB
:1015C000E0FCA3E0FD22E0FF7E00020A47C0E0C08D
:1015D000F0C083C082C0D075D000C000C001C0027E
:1015E000C003C004C005C006C007E5D85487F52174
:1015F000F452D8E5F730E508E5F730E603121A5D56
:1016000053F7DFE52130E708E5D930E003121D503C
:10161000E52130E008E5DA30E003121B5DE521301A
:10162000E108E5DB30E003120718E52130E208E5C8
:10163000DC30E003121D51D007D006D005D004D015
:1016400003D002D001D000D0D0D082D083D0F0D04F
:10165000E0328B458A468947120D8C53E2FDE4F552
:101660004DE54DC3954B504FAB45AA46A947C00326
:10167000C002C001120E30C4120E7AD001D002D0C6
:1016800003120AE4F54F85F04ED2801216C6AB4520
:10169000AA46A947C003C002C001120E30120E7A3A
:1016A000D001D002D003120AE4F54F85F04EC2807B
:1016B0001216C6054D80AAB290AF4C154CEF709E25
:1016C00043E202C29022FDAC4E7F0A7E00121A8EC7
:1016D000121D2E22AE07E4F545121BA9900001E071
:1016E00004FF121BB012174F900001E0FFE545C345
:1016F0009F5012121A46121A2F121A46F583121A06
:1017000036054580E3900078E0FF121BB09000782A
:10171000121A3612174FE4F545900074E02401FFC9
:10172000E433FEC3E5459FEE6480F874809850175B
:1017300074042545121A2A0545E545541F70DA122E
:101740001D43121D3C80D27F55121BB0021D431257
:101750001D43121D3C228E458F468C478D48AE029C
:10176000AF03120E73C007AF4BAB07E4FAF9F8D022
:1017700007120D0C900000F0AE4CAF4D120E73C06E
:1017800007AF4EAB07E4FAF9F8D007120D0C900042
:1017900082F0E54B120DDA900076EFF0E54E120D77
:1017A000DA900089EFF090007FE545F0A3E546F080
:1017B000900002E547F0A3E548F0900081E54FF086
:1017C00043DA0153F7DF43F74053DBFE75F9FF229D
:1017D0008A498B4A755380120D8C53E2FD90007F2D
:1017E000EEF0A3EFF0900002ECF0A3EDF0121B3648
:1017F000E4F552E552C395515032120CE4E05553D2
:10180000600AAD50AC4FAF4EAE4D8008AD4CAC4B06
:10181000AF4AAE49121BCCE553C313F55370099080
:101820000074E004F0755380055280C743E202C2A1
:10183000909000857404F022C0E0C083C082C0D0C4
:1018400075D000C004C005C006C00753C87F900013
:10185000C7E0FEA3E0FF4E700353C8FB9000C31225
:1018600019AC50099000C7E4F0A3F0800DC39000BC
:10187000C8E09DF09000C7E09CF0D007D006D005EE
:10188000D004D0D0D082D083D0E032C0E0C083C0BA
:1018900082C0D075D000C004C005C006C0075391F7
:1018A0007F9000C9E0FEA3E0FF4E70035391FB90D0
:1018B00000C51219AC50099000C9E4F0A3F0800DE6
:1018C000C39000CAE09DF09000C9E09CF0D007D022
:1018D00006D005D004D0D0D082D083D0E032AB0780
:1018E000AA06900078E0FEA3E0FF7C00120DB1D3C1
:1018F000EF94F4EE940140050C7DF48004AC06AD49
:1019000007AE04AF05C3900079E09FFD900078E03A
:101910009EFCC3ED9BEC9A5013A3E02FFF90007840
:10192000E03EFEC3EB9FEA9E50028001C322AE0759
:10193000E4FDF545121BA9900002E0FF121BB090D8
:101940000002121A3690007AE0FF121BB090007A63
:10195000121A36900086E0FF121BB0900086121A11
:101960003674042D121A2A0DBD03F67F55121BB0D2
:10197000021D43AB07AA06E4F9F87F407E427D0FC3
:10198000FC120BA7A804A905AA06AB077F207ED7E7
:101990007D757C01120BA7C3E49FFFE49EFE22AB82
:1019A00007AA06E4F9F87FE87E03FD22E0FCA3E045
:1019B000FDC3EF9DEE9C228F4590007CE0F5467FB5
:1019C0000B121D4C43DB01120D8F1200707D0A7C3F
:1019D000007F017E00121B0D121D2E43E202E490D7
:1019E0000085F0900084F09000CBE545F090007CFD
:1019F000F0AF46229000C0E0FF9000BEE0B50705C2
:101A00007E017F00229000BE121A52E0FD7C009001
:101A100000BEE004F0E0B41402E4F09000BDE0FE8B
:101A2000EE4204E4F0AE04AF0522F582E43400F5A2
:101A300083E0FF021BB0A3E0FF021BB0121BB0E566
:101A40004675F005A422E54525E0248AF582E434B4
:101A50000022E024A9F582E43400F58322120E3F2F
:101A60004003021C2F120CE4120E0BEFA806088094
:101A700002C313D8FC30E00B900000E0FF121D4CB5
:101A8000D29022900082E0FF121D4CC290228E560E
:101A90008F578C588D59121973121C94E55924BF15
:101AA0009000CAF0E55834FF9000C9F09000C5E5F9
:101AB00056F0A3E557F04391042212002A121D0BA1
:101AC000121D12121CC3121D34121C64121CE112CE
:101AD0001CCD121CD7121CA0121D19121D20121D84
:101AE00038021D278E2A8F2B8C2C8D2D12199F12B8
:101AF0001980121C889000C7E52CF0A3E52DF0900A
:101B000000C3E52AF0A3E52BF043C804228E478FDB
:101B1000488C498D4A12199F121980121C9490000A
:101B2000C9E549F0A3E54AF09000C5E547F0A3E513
:101B300048F043910422D290D28090007F121B5033
:101B4000121D2EC290C280900002121B50021D2E48
:101B5000E0FCA3E0FD7F0A7E00121A8E229000882E
:101B6000E07008900074E004120DC1120E1990008C
:101B700088E014F0120E3F5003021B8253E2FDC2B4
:101B80008022120CE4120E0BEFA806088002C31389
:101B9000D8FC30E0059000768003900089E07D005D
:101BA000FCE4FF121C1122AE077FAA121BB0AF0685
:101BB000C2039000C1E0B42002E4F09000C1E02430
:101BC0005BF8A607E004F0A3E004F0228C548D55E6
:101BD000D280AD07AC067F0A7E00121A8E121D2E2F
:101BE000C280AD55AC547F0A7E00121A8E021D2EA3
:101BF000120DC2E014F09000777401F0900085742B
:101C000003F0121B8253E2FD121B3643E202020074
:101C100070AB07AF04EB14600C14600E2402700E5E
:101C20008DFB8FFC228DE98FEA228DEB8FEC22E475
:101C3000FDFCFF121C11120D8F121D4053D878535A
:101C4000E2FDC280C2909000857404F0227E1DE403
:101C5000FDEF30E70625E06EFF8004EF25E0FF0D85
:101C6000BD08EE22AF885388AF758CA0758DCBEF81
:101C70005440FEEF54104E428822C3EF94ACEE94D1
:101C80000D4003D38001C322AD07AC06ECF5CBAF0A
:101C9000058FCA22AD07AC06ECF593AF058F9222F3
:101CA000C2DE75D90575F9FF75960122EE30E7079A
:101CB000C3E49FFFE49EFE22121BA77F55121BB0B8
:101CC000021D4375E34075E10175E20222E591547E
:101CD000045391FB429122758E547589224388509A
:101CE00022E5C8540453C8FB42C82253984FEB4F17
:101CF0004DF59822E5C8C320E201D322E591C32027
:101D0000E201D32253C8FB53C87F2275A41175D4B6
:101D1000CE2275A54175D5772253F77F75DA4A2211
:101D200053F77F75DB302275E69075A8B022E591F8
:101D300020E2FB22E4F5A922439810223003FD2281
:101D4000C2DE22D299228F9922AF99228F8C222231
:101D500022220190307000064001904B19180012A9
:101D6000C005DC0002BC012C461E28080BB8232845
:101D700000044C01904B191800251C0BB80003847B
:101D80000140461E1800000072D80702BC012C2634
:101D90004040000BB81C520190010303011846009B
:101DA0000100FF1D520200FF1D5F0300FF1D6C04B8
:101DB00000FF1D790500FF1D860601FF1D930190A0
:101DC000307000064001904B19180012C005DC006D
:101DD00002BC012C461E28080BB8232800044C0125
:101DE000904B191800251C0BB80003840140461EB7
:101DF0001800000072D80702BC012C264040000BDE
:101E0000B81C520190010303011846000100FF1D98
:101E1000BE0200FF1DCB0300FF1DD80400FF1DE51F
:101E20000500FF1DF20601FF1DFF01903070000646
:101E30004001904B19180012C005DC0002BC012CB7
:101E4000461E28080BB8232800044C01904B191893
:101E500000251C0BB80003840140461E180000003A
:101E600072D80702BC012C264040000BB81C52015E
:101E700090010303011846000100FF1E2A0200FF23
:101E80001E370300FF1E440400FF1E510500FF1E05
:061E90005E0601FF1E6B5F
:00000001FF
