:100000000C945D000C9485000C9485000C94850084
:100010000C9485000C9485000C9485000C9485004C
:100020000C9485000C9485000C9485000C9485003C
:100030000C9485000C9485000C9485000C9485002C
:100040000C946A030C9485000C9438030C941203EE
:100050000C9485000C9485000C9485000C9485000C
:100060000C9485000C9485000000000024002700FB
:100070002A0000000000250028002B0004040404CE
:100080000404040402020202020203030303030342
:10009000010204081020408001020408102001021F
:1000A00004081020000000080002010000030407FB
:1000B0000000000000000000B40311241FBECFEFB9
:1000C000D8E0DEBFCDBF11E0A0E0B1E0ECEFF0E1A1
:1000D00002C005900D92AC35B107D9F722E0ACE52E
:1000E000B1E001C01D92AC37B207E1F710E0CDE5F9
:1000F000D0E004C02197FE010E948B05CC35D107CA
:10010000C9F70E94F3030C947C080C940000E1EB07
:10011000F0E02491EDE9F0E09491E9E8F0E0E49179
:10012000EE23C9F0222339F0233001F1A8F4213065
:1001300019F1223029F1F0E0EE0FFF1FEE58FF4FCA
:10014000A591B4912FB7F894EC91811126C09095A8
:100150009E239C932FBF08952730A9F02830C9F023
:10016000243049F7209180002F7D03C0209180002A
:100170002F7720938000DFCF24B52F7724BDDBCFEE
:1001800024B52F7DFBCF2091B0002F772093B000B6
:10019000D2CF2091B0002F7DF9CF9E2BDACFAF9236
:1001A000BF92CF92DF92EF92FF920F931F93CF9364
:1001B000DF936C017B018B01040F151FEB015E01C6
:1001C000AE18BF08C017D10759F06991D601ED915B
:1001D000FC910190F081E02DC6010995892B79F7FA
:1001E000C501DF91CF911F910F91FF90EF90DF90AC
:1001F000CF90BF90AF900895FC01538D448D252F73
:1002000030E0842F90E0821B930B541710F0CF96B0
:10021000089501970895FC01918D828D981761F0E2
:10022000A28DAE0FBF2FB11D5D968C91928D9F5FF9
:100230009F73928F90E008958FEF9FEF0895FC01D8
:10024000918D828D981731F0828DE80FF11D858D8B
:1002500090E008958FEF9FEF0895FC01918D228D1E
:10026000892F90E0805C9F4F821B91098F739927A3
:10027000089581E791E00E942D0121E0892B09F486
:1002800020E0822F089580E090E0892B29F00E94E1
:10029000390181110C9400000895FC01A48DA80F70
:1002A000B92FB11DA35ABF4F2C91848D90E00196B8
:1002B0008F739927848FA689B7892C93A089B189D8
:1002C0008C91837080648C93938D848D981306C079
:1002D0000288F389E02D80818F7D80830895EF92DD
:1002E000FF920F931F93CF93DF93EC0181E0888FF0
:1002F0009B8D8C8D98131AC0E889F989808185FFC0
:1003000015C09FB7F894EE89FF896083E889F98961
:1003100080818370806480839FBF81E090E0DF9163
:10032000CF911F910F91FF90EF900895F62E0B8DB6
:1003300010E00F5F1F4F0F731127E02E8C8D8E1171
:100340000CC00FB607FCFACFE889F989808185FFD8
:10035000F5CFCE010E944D01F1CFEB8DEC0FFD2FBB
:10036000F11DE35AFF4FF0829FB7F8940B8FEA8993
:10037000FB8980818062CFCFCF93DF93EC01888DA2
:100380008823B9F0AA89BB89E889F9898C9185FD10
:1003900003C0808186FD0DC00FB607FCF7CF8C919E
:1003A00085FFF2CF808185FFEDCFCE010E944D0108
:1003B000E9CFDF91CF9108958E50806480937C00C7
:1003C00080917A00806480937A0080917A0086FD23
:1003D000FCCF809178009091790008953FB7F89410
:1003E0008091610190916201A0916301B0916401DB
:1003F00026B5A89B05C02F3F19F00196A11DB11D80
:100400003FBFBA2FA92F982F8827BC01CD01620FBB
:10041000711D811D911D43E0660F771F881F991F75
:100420004A95D1F70895AF92BF92CF92DF92EF92A3
:10043000FF920F931F93CF93DF938B01D0E0C0E027
:1004400001975C018091720290917302DC01ED9141
:10045000FC910084F185E02D0995A816B906ACF051
:100460000E94EE016B017C010E94EE016C197D0976
:100470008E099F09683E734081059105A8F3219676
:100480000C171D07F9F680E001C081E0DF91CF91E4
:100490001F910F91FF90EF90DF90CF90BF90AF90A2
:1004A0000895DC01ED91FC910190F081E02D09941B
:1004B000CF93DF93EC0162E171E00E949105892BFB
:1004C00019F481E00E94870065E171E0CE010E948D
:1004D0009105892B29F480E0DF91CF910C9487005E
:1004E000DF91CF9108954F925F926F927F928F929A
:1004F0009F92AF92BF92CF92DF92EF92FF920F93B3
:100500001F93CF93DF93CDB7DEB7C456D1090FB693
:10051000F894DEBF0FBECDBF85E10E94DC01582EEE
:10052000492E84E10E94DC01782E692E83E10E942D
:10053000DC01982E892E82E10E94DC01B82EA92EC2
:1005400081E10E94DC01D82EC92E80E10E94DC01ED
:10055000F82EE92E8FE00E94DC01182F092F8EE083
:100560000E94DC014F925F926F927F928F929F92D6
:10057000AF92BF92CF92DF92EF92FF920F931F93B1
:100580009F938F9389E191E09F938F938E010F5FEB
:100590001F4F1F930F930E94A4056EEF7FEF809172
:1005A0007202909173020E9451020FB6F894DEBF5E
:1005B0000FBECDBFF12C2F2D30E0F80101900020AF
:1005C000E9F73197E01BF10B809172029091730271
:1005D0002E173F0758F4200F311FF9016081062EB6
:1005E000000C770B0E945102F394E5CF6FEF7FEF81
:1005F0000E945102CC59DF4F0FB6F894DEBF0FBEF8
:10060000CDBFDF91CF911F910F91FF90EF90DF90C1
:10061000CF90BF90AF909F908F907F906F905F90A2
:100620004F9008951F920F920FB60F9211242F939F
:100630003F934F935F936F937F938F939F93AF936A
:10064000BF93EF93FF9381E791E00E944D01FF91EB
:10065000EF91BF91AF919F918F917F916F915F913A
:100660004F913F912F910F900FBE0F901F901895B3
:100670001F920F920FB60F9211242F938F939F9377
:10068000EF93FF93E0918101F09182018081E091ED
:100690008701F091880182FD1BC0908180918A01C1
:1006A0008F5F8F7320918B01821741F0E0918A0157
:1006B000F0E0EF58FE4F958F80938A01FF91EF9104
:1006C0009F918F912F910F900FBE0F901F901895B3
:1006D0008081F4CF1F920F920FB60F9211242F93A7
:1006E0003F938F939F93AF93BF9380915D019091C0
:1006F0005E01A0915F01B091600130915C0126E044
:10070000230F2D3758F50296A11DB11D20935C01D2
:1007100080935D0190935E01A0935F01B0936001AF
:100720008091610190916201A0916301B091640197
:100730000196A11DB11D8093610190936201A09368
:100740006301B0936401BF91AF919F918F913F91ED
:100750002F910F900FBE0F901F90189529E8230F2F
:100760000396A11DB11DD2CFE1E7F1E01382128201
:1007700088EE93E0A0E0B0E084839583A683B783FE
:1007800084E091E09183808385EC90E09587848775
:1007900084EC90E09787868780EC90E0918B808B4B
:1007A00081EC90E0938B828B82EC90E0958B848B34
:1007B00086EC90E0978B868B118E128E138E148EA2
:1007C000F0937302E0937202E9E6F1E089E9808335
:1007D00087E1818384E3828381E0838314821582AD
:1007E000168217820895CF93DF93CDB7DEB72C978B
:1007F0000FB6F894DEBF0FBECDBF789484B582608B
:1008000084BD84B5816084BD85B5826085BD85B5B4
:10081000816085BD80916E00816080936E00109232
:1008200081008091810082608093810080918100AD
:10083000816080938100809180008160809380003E
:100840008091B10084608093B1008091B00081609C
:100850008093B00080917A00846080937A008091C8
:100860007A00826080937A0080917A008E7F8093F4
:100870007A0080917A00806880937A001092C1009B
:10088000EDE9F0E02491E9E8F0E08491882399F023
:1008900090E0880F991FFC01E859FF4FA591B49192
:1008A000FC01EE58FF4F859194918FB7F894EC912D
:1008B000E22BEC938FBFE0918101F091820182E005
:1008C0008083E0917D01F0917E011082E0917F01B3
:1008D000F091800180E1808310928901E09185018F
:1008E000F091860186E08083E0918301F09184019C
:1008F000808180618083E0918301F0918401808117
:1009000088608083E0918301F09184018081806818
:100910008083E0918301F091840180818F7D8083C9
:1009200080916D0123E732E03093750220937402C9
:100930008160886080936D0188E592E090937B02EE
:1009400080937A026E018DE0C80ED11C90E0E92EF2
:1009500090E0F92E8091720290917302DC01ED918A
:10096000FC910084F185E02D0995892B09F450C094
:100970008091720290917302DC01ED91FC910284EE
:10098000F385E02D09958C3F09F042C064E670E0E4
:1009900085E090E00E9413028823D1F18E01075F69
:1009A0001F4F58018091720290917302DC01ED910A
:1009B000FC910284F385E02D0995F80181938F0164
:1009C000EC15FD0579F78091720290917302DC01BC
:1009D000ED91FC910284F385E02D099589853A8596
:1009E0002B859C8580936501309366012093670178
:1009F00090936801833009F476C0B0F4813009F433
:100A000046C0E0917402F0917502823009F46FC023
:100A1000E114F10409F49ECF0E943901882309F4FE
:100A200099CF0E94000096CF843009F462C08530CF
:100A300079F780906601082D10E062E370E0C8014C
:100A400002960E941302882319F3809172029091FA
:100A50007302DC01ED91FC910284F385E02D099590
:100A60008EE0A82E82E0B82E912C80917202909197
:100A70007302DC01ED91FC910284F385E02D891471
:100A8000E9F10995F50181935F019394EECF88E038
:100A9000E9E6F1E0DE01119601900D928A95E1F709
:100AA0006EEF7FEF80917202909173020E9451026B
:100AB0008E010F5F1F4FF80161918F01062E000C10
:100AC000770B80917202909173020E945102A016DE
:100AD000B10689F76FEF7FEF8091720290917302F8
:100AE0000E94510295CFE0917602F091770209952C
:100AF0008FCFE0917802F0917902F9CF0995F80152
:100B0000E25FFD4F1082E0917A02F0917B028EE06D
:100B100092E009957DCFEE0FFF1F0590F491E02D37
:100B20000994FB01DC018D9181341CF08B350CF4B0
:100B3000805E619161341CF06B350CF4605E861B45
:100B4000611189F3990B0895AEE0B0E0EAEAF5E0AF
:100B50000C9453080D891E8986E08C831A830983BF
:100B60008FEF9FE79E838D83AE01475E5F4F6F8956
:100B7000788DCE0101960E94C7052F813885020F1E
:100B8000131FF80110822E96E4E00C946F08ABE07E
:100B9000B0E0EDECF5E00C9445087C013B018A01E6
:100BA000FC0117821682838181FFC8C1CE010196A4
:100BB0005C01F7019381F30193FD859193FF81918E
:100BC0003F01882309F453C1853239F493FD85919F
:100BD00093FF81913F01853229F4B70190E00E9493
:100BE000B707E7CF912C212C312CFFE1F31538F01A
:100BF0008B3211F190F4803209F1833229F137FC04
:100C00003CC020ED280F2A3050F536FE20C08AE087
:100C1000989E200D1124922E06C08D3291F08033C3
:100C200071F7689430F8F30193FD859193FF8191FA
:100C30003F018111DACF21C0689431F8689432F80D
:100C4000F2CF689433F8EFCF689434F8ECCFEAE051
:100C50002E9E200D1124222E689435F8E4CF8E327A
:100C600029F436FC04C1689436F8DDCF8C3619F4CB
:100C7000689437F8D8CF8836B1F2982F9F7D955475
:100C80009330E0F08336A1F18337C1F1833509F069
:100C900063C02801F2E04F0E511CF801C080D180E2
:100CA000692D70E036FC02C06FEF7FEFC6010E9435
:100CB000A1074C01689437F882010AC00C5F1F4FEE
:100CC000FFE3F98388248394912C6501E89437F835
:100CD00033FE2DC0522C8114910471F5552009F476
:100CE00068CFB70180E290E00E94B7075A94F6CF30
:100CF000F801808189830E5F1F4FE4CF2801F2E065
:100D00004F0E511CF801C080D180692D70E036FC77
:100D100002C06FEF7FEFC6010E94AC074C01820159
:100D2000D5CFB70180E290E00E94B7072A9428143B
:100D3000190409F0B0F7CECFF60137FC859137FEE4
:100D400081916F01B70190E00E94B70751105A944A
:100D5000F1E08F1A9108BFCF843619F0893609F077
:100D600077C0F80137FE6BC0608171818281938109
:100D70000C5F1F4FF32DFF763F2E97FF09C0909514
:100D80008095709561957F4F8F4F9F4F689437F88E
:100D90002AE030E0A5010E94E707C82ECA188C2C73
:100DA000432C36FE0CC0E89440F8C91440F434FEDD
:100DB00005C032FC03C0F32DFE7E4F2E892C44FE6D
:100DC00095C0FE01EC0DF11D8081803309F087C0D4
:100DD000242D297E422E842D8870582E43FC95C0E8
:100DE00040FE8FC09C2C821418F42C0C922C981866
:100DF00044FE91C0B70180E390E00E94B70742FE35
:100E000009C088E790E041FE02C088E590E0B701A4
:100E10000E94B707C91408F48AC0CA94D12C9FEF66
:100E2000C91AD90ACA0CDB1CF60182916F01B701FD
:100E300090E00E94B707AC14BD04B1F74FCF6081BA
:100E40007181072E000C880B990B0E5F1F4F92CFFC
:100E5000D32CE894D4F82AE030E0853739F1232DFB
:100E6000297FD22E8F3601F148F48835A9F0F70199
:100E7000868197812B96E2E10C946108803749F0D6
:100E80008837A9F7D4FE02C06894D2F820E130E098
:100E90000DC06894D4F8F6CF34FE03C0822F86606C
:100EA000D82E20E132E002C028E030E0F801D7FE81
:100EB0000FC060817181828193810C5F1F4FA501FA
:100EC0000E94E707C82ECA183D2CE89437F867CF70
:100ED0006081718190E080E00E5F1F4FF0CF42FC97
:100EE00002C0839478CF8394839475CF842D8678C1
:100EF00009F471CFF6CFB70180E290E00E94B70706
:100F000083948214C0F3512C73CF522C581882143E
:100F100008F46ECFF8CF842D867809F47BCF8BE26E
:100F200041FE80E247FC8DE2B70190E071CFB7014E
:100F300080E390E00E94B7079A946CCF8FEF9FEF09
:100F400099CFFC010590615070400110D8F7809551
:100F500090958E0F9F1F0895FC0161507040019085
:100F60000110D8F7809590958E0F9F1F08950F93CD
:100F70001F93CF93DF93182F092FEB018B8181FDF6
:100F800009C01FEF0FEF812F902FDF91CF911F919D
:100F90000F91089582FF14C02E813F818C819D8125
:100FA000281739073CF4E881F981CF01019699832C
:100FB000888310838E819F8101969F838E83E3CFE8
:100FC000E885F985812F0995892BA1F3DACFFA01FC
:100FD000AA27283051F1203181F1E8946F936E7F78
:100FE0006E5F7F4F8F4F9F4FAF4FB1E03ED0B4E069
:100FF0003CD0670F781F891F9A1FA11D680F791FAA
:101000008A1F911DA11D6A0F711D811D911DA11DBA
:1010100020D009F468943F912AE0269F11243019CA
:10102000305D3193DEF6CF010895462F4770405D65
:101030004193B3E00FD0C9F7F6CF462F4F70405D14
:101040004A3318F0495D31FD4052419302D0A9F76F
:10105000EACFB4E0A6959795879577956795BA9569
:10106000C9F700976105710508959B01AC010A2E2F
:1010700006945795479537952795BA95C9F7620F06
:10108000731F841F951FA01D08952F923F924F92AA
:101090005F926F927F928F929F92AF92BF92CF9208
:1010A000DF92EF92FF920F931F93CF93DF93CDB711
:1010B000DEB7CA1BDB0B0FB6F894DEBF0FBECDBF89
:1010C00009942A88398848885F846E847D848C845A
:1010D0009B84AA84B984C884DF80EE80FD800C8163
:1010E0001B81AA81B981CE0FD11D0FB6F894DEBF46
:0C10F0000FBECDBFED010895F894FFCFB6
:1010FC00000000006F01CF00FC00BC012D010B01B2
:10110C001F014F4E004F4646007B224130223A25AC
:10111C00752C224131223A25752C224132223A2556
:10112C00752C224133223A25752C224134223A2542
:10113C00752C224135223A25752C224136223A252E
:0C114C00752C224137223A25757D0000E9
:00000001FF
