:20000000003A0120D1F8010039FB021039FB021039FB021039FB021039FB021039FB021017
:1C00200039FB021039FB021039FB021039FB021039FB021039FB021011FB021002
:20004000BA492DE9F04F0446B74ADFF8E8920E68A578507800279046ADF1540D29460C29B1
:2000600007D9DFF8CCB2DFF8D0A2203933290FD953E3DFE811F06D055E0543052D050D0506
:20008000F704F304DD04C7045203BA04B6049604DFE811F083047F047B046B046704EC0242
:2000A00051042F04B10287024303430343034303430343030B04F003D303B80359029D034A
:2000C0003402FC01430343034303430343034303E801B5019C0143038C03790183037703BE
:2000E0006A0354012A01E500660362035803C000480382004503670046003400E1788DF871
:200100002A7031F07F0006D011F07F0F0CBF381C0120CA49087053210DF12A0300F004BD25
:2001200008F1110332203946012226F039F808F1120333203946012226F032F8C84898F894
:2001400011100078012905D04FF400611EF0EAFC00F001BD4FF40061642226F0ADFB00F0E9
:20016000FABC8DF82B7078B9E41C204626F058FA0546A01C0446083026F052FA0246214610
:20018000284624F0C0F900E012208DF82B0051210DF12B0300F0C8BCE01C26F041FAE51C02
:2001A000AE784FF6FF748DF80A600546ADF80850AC4218D0E01EA84215D0A01EA84212D0FD
:2001C00002208DF80C00ADF80E5003A81BF040FE012818BF4FF001090CD1BDF80E00ADF8E7
:2001E0000800012000E038468DF80B0002A81DF0E1FC8146E41EAC4204DC012088F82A00F2
:2002000088F82B6021F096FD8DF82C904F210BAB00F08ABC20798DF82E00E078012814D0E1
:20022000022809D0032805D052200DF12E0124F027FB0FE03C4600E0012452200DF12E01D1
:2002400021F0B8FD88F8004004E052200DF12E0121F0B0FD4D210DF12E0300F065BCE178D0
:2002600038465EB13279914205D1F2880DEB4003401CC0B21A813668002EF3D18DF830003A
:200280009DF83000012404EB4000C0B2054619F097FE5FEA000806D18DF8307049212246CB
:2002A0000CAB00F042BC02469DF8300002F8010B38469DF8301081420ADC652049212A462B
:2002C000434622F0A5F8404621F0D4FB00F043BC0DEB400108310B7813700988401CC0B2BA
:2002E00009125170921CE4E7301CE4788DF8317013D03E4601798C420BD11EB905680B49B8
:200300000D6002E001683160056821F0B3FB284601E0064600680028ECD121F06BFD0DF109
:200320003103472100F000BCE404012064F20020671B0120280401208A010120E01C10F856
:20034000014B26F06DF90146C7480068224650B13E4603799A4202D1C388994205D00646B8
:2003600000680028F5D1012008E006B9BE4E0168316021F07FFB21F03DFD38468DF832004E
:200380000DF13203CDE739460DF12200062207911BF024FDE01C07A924F09EFF8DF82200E7
:2003A000079870B101888DF8231046888DF8256009128DF8241031128DF8261000798DF894
:2003C0002700432106220DF12203AEE364788DF8377048B1012805D002281CBF01208DF80C
:2003E000370004D1022000E004200DF0BFFE24F01F04202C40F0AF830DF13703EEE22046BE
:2004000090F80180C01C26F00BF959460A7849468E6856B13C4633799A4202D1F3889842FE
:2004200005D034463668002EF5D101200EE03CB9346804B93C468C6004E0C046DC01012028
:2004400030682060304621F015FB384628F01F088DF83800B8F1200F40F07D830EABBDE213
:200460005001012020464478C01C26F0D9F80146584600781FF042FF24F01F048DF8390083
:20048000202C40F068830DF13903A7E2E41C204626F0C6F8A41CADF8080014F8010B04214E
:2004A0008DF81000204625F015F80646201D10F8019B10F8018B26F0B3F8044631464A464C
:2004C000434602A800941DF031FA8DF83A009DF810000F280FD1022053468DF810001888B2
:2004E00031464A46ADF80800434602A800941DF01DFA8DF83A000DF13A036FE2207826460E
:20050000042806F1030614BF16F8010B02208DF81000304626F084F8D54CADF80800B01C69
:2005200010F8018B012626700278414602A81EF047FE8DF83B002770404625F0CBFB0DF1B6
:200540003B0332464BE20220E41C8DF81000204626F066F84E46A11CADF808000C7A7068CB
:2005600026F0CEF97168C4F3400804F00104B8F1010F0F7204D17268107A40F04000107268
:20058000012C03D1087A40F080000872484602A9342209231DF080FD0DF13D038DF83D0069
:2005A000C1E20226E41C8DF81060204626F038F8A41CADF80800204626F032F8A2788046DC
:2005C00002A84146144625F023F98DF845009DF810000F280CD1504600888DF81060414642
:2005E0002246ADF8080002A825F012F98DF845000DF14503F2E10226E41C8DF810602046B6
:2006000026F00EF8A41CADF8080014F8010B8DF84700204626F004F8A41C14F8019B8046C7
:2006200002A90DF14700424600944B46019721F011F88DF846009DF810000F2811D150464C
:2006400000888DF810603E4602A94246ADF808004B4600940DF14700019620F0FBFF8DF829
:2006600046000DF14603B9E164F20020A946E51CA878B846FE280BD1E878FF2808D12078D5
:20068000082805DB284625F0CBFF294624F0BFF9284608A925F09CF9041C0ED1182019F0B9
:2006A0008FFC5FEA000807D0BDF8200039461822434625F075FD00B1C824192019F080FC8E
:2006C000061C20D05CB9701C2946082225F066FA06F109004146102225F060FA04E0701CC1
:2006E000FF2118221BF07AFB3470652049461922334621F08DFE3046394619221BF06EFB74
:20070000304621F0B7F9B8F1000F00F024824046394618221BF062FBD5E502271BE21BF0C2
:200720008DFF18E2E01C25F07BFFE51C0246A81C10F8011B1CF074FA4E210DF12D038DF8DB
:200740002D00F1E18DF82F7025F0DCFA0DF12F034C218DF82F00E7E120461BF035FFFAE1F2
:2007600020461EF08CF8F6E1E01C25F059FF6179A2791DF054FA46210DF133038DF833009E
:20078000D2E1E01C25F04CFF6179A27911F032FE45210DAB8DF83400C6E1E01C11F04CFB62
:2007A00044210DF135038DF83500BDE1E01C25F037FFE51CA91C0B4608310A4619461FF0F1
:2007C0005BF842210DF136038DF83600ACE10220E41C8DF81000204625F022FF4E46A11C40
:2007E000ADF808000C7A706826F08AF8706802A935220923047248461DF04EFC0FAB8DF8B6
:200800003C00EBE00220E41C8DF81000204625F007FFADF80800A0780DF13F0602A9332291
:200820008DF83F00012300964846019720F012FF0DF13E038DF83E00D0E00220E41C8DF89A
:200840001000204625F0ECFEADF80800A0780DF1410602A932228DF841000123009648460C
:20086000019720F0F7FE10AB8DF840005BE1C0468C0A01200220E41C8DF81000204625F030
:20088000CFFEADF80800A0780DF1430602A931228DF84300012300964846019720F0DAFEF1
:2008A0000DF142038DF842003DE10220E41C8DF81000204625F0B4FEA41CADF8080004219A
:2008C000204624F007FE4E46221D014612F8018B7068137825F056F902A900F8018B3022A1
:2008E0000370484606231DF0D7FB11AB8DF8440019E10126E41C8DF84860601C25F090FEFD
:20090000814604F10B0025F08BFE804694F800A0637BA07B22F036FC0093E01C494652468D
:20092000434613F06BFC12AB8D498DF84800042025F0A0FE05E60126E41C04218DF8496028
:20094000204624F0C7FD21791EF08CF885498DF84900022025F08EFE83490DF14903032095
:20096000E6E7204619F0E6FDF5E0E41C204625F057FEA11C0B4608310A4619461EF07CFF34
:200980000DF14A038DF84A00CDE020461AF089F9E1E020461AF042F9DDE020460FF0A4FE6E
:2009A000D9E0E01C25F03CFE4E464FF6FD740F22ADF8084071688DF81020022304121522CB
:2009C00001F8010B48460C7002A9F7701DF064FB39468DF84B000DF14B03F17001222946FC
:2009E000A3E0204618F0D8FDB5E0E41C204625F017FEA11C0A7A3B4622F028F813AB8DF8D5
:200A00004C0090E00220E41C8DF81000204625F007FEADF80800A01C25F002FE01461122EB
:200A200002A824F0F5FE0DF14D038DF84D007AE00220E41C8DF81000204625F0F1FDADF8C6
:200A40000800A01C25F0ECFD0146102202A824F0DFFE0DF14E038DF84E0064E020460FF0F5
:200A6000A3F978E00220E41C8DF81000204625F0D7FDADF80800A01C25F0D2FD01460522C1
:200A800002A824F0C5FE0DF14F038DF84F004AE00220E41C8DF81000204625F0C1FDA41CD7
:200AA000ADF80800204625F0BBFD4E467268A1781070726803125370706803230422817088
:200AC00002A948461DF0E8FA14AB8DF850002AE00220E41C8DF81000204625F0A1FDADF8DB
:200AE0000800A01C25F09CFD0146032202A824F08FFE0DF151038DF8510014E00226E41C89
:200B00008DF81060204625F08BFDADF80800A01C25F086FD0146324602A824F079FE0DF1EA
:200B200052038DF8520029460122652021F070FC11E0E41C204625F073FDA41C14F8011B31
:200B4000227822F053FB0DF153038DF85300EAE7204617F0FFF9384615B0BDE8F08FC046CC
:200B60006D290200CD4A0200C15101002DE9F04F04464FF6FE70ADF15C0DADF85400A44873
:200B800040784FF00008022812D1A148007878B92089002807BF30204146102001210EF0F9
:200BA000FDFE8DF8568052200DF1560121F002F96068217A08AA12F01DFA002800F0D98469
:200BC0009DF822000228B4BF012747469DF824000228A8BF4746BDF82A104FF6FE7BABF1EC
:200BE000060B8B450ED04FF6FE70401F884209D04FF6FE70001F884204D04FF6FE70C01E80
:200C0000884200D1474625F0D5FC9DF82310884240F0AF84002F00F0AC847D4840780228DB
:200C200004D19DF85100002840F0A384208D9DF82660678EADF84C00ADF82E70D6B1616839
:200C40009DF821209DF83C30012024F0FBFF002840F08F84C448001D007801280AD1208DD1
:200C600025F0F1FD30B1417901F0EF01417141F0080141719DF82570DFF8E492DFF8E4A283
:200C80004646002F49D19DF83D00474658BBBDF82A00034620F08EFE4546022808BF0125A7
:200CA000002D9DF8225018BF012749460988994208BF47F0020727B1002D14BF4021202185
:200CC0000F43184620F076FE012808BF47F00107002D3BD01298007825F0A6FA012818BFA2
:200CE00027F0010732E09DF8411041B1FF2906D09DF84000119A22F02BFA50B126E0524697
:200D0000BDF82A10508F884205D092F84A0004281CD101261AE0222718E0BDF82A10FF2009
:200D200023F0E6F9002804BF3D1C082708D09DF8250047F001052C2740F001008DF8250051
:200D400005F00305012D08BF47F0110730489DF82650407830F0010005D107F002010E43D5
:200D600008BF47F08007DFF8DCC295B961460E787EB107F0220122290BD007F042014229EA
:200D800040F0F78312990978062918BF072940F0F083F9094FEAA7155AD3BDF82A201299D6
:200DA00048B96046C01C0078800804D30878401E0A282FD909E00878C01E01282AD9001F2F
:200DC00028D0C01E26D0801E24D0B8F1000F21D148460088904240F0CC830D780520BDF845
:200DE0002C408DF8110004A824F036F9002800F0C0830269032313271370511C0F704C70B1
:200E000022128A70CD70448009F022FAB1E3C046E404012068081BD30878032802D148784F
:200E20000D2815D09DF8280038B1BDF82C000E990EF0AAFB012800F098839DF8270038B1EE
:200E4000BDF82A000D990EF09FFB012800F08A8309F10E00B4F844100088884209D1CDF856
:200E60000080208DB4F8421094F8462043460AF0C9FF9DF82600002843D0208DB4F8421069
:200E800020F092FC061C25D19DF8510088B99AF89000012835D112980078062801D1680892
:200EA0002FD2BDF82E100BF10700884240F0C5805FE3042024F04AF8011C00F05A836420D2
:200EC000087001274F70208D48809AF800001FF089FC4EE39DF821106068F3780A18527BFF
:200EE0009A4203D0F27040467060606840180421401C24F0EFFA7168814200F23A83401C46
:200F00007060B348DFF8C4B24078022800F08F8230F0010040F02D839AF832008008C0F0D9
:200F200028839DF8510030B3BDF82C0024F0E1FDE0B9A5495C46BDF82C000B686269990188
:200F4000A1EB83019047012840F01383A169BDF82C008847E168BDF82C00884709E3C04616
:200F60008A01012050010120500101206168487800F0DF0048709DF8320038B16168887957
:200F8000401E8871C0B28DF8320008B907F07F07380924D39DF82500F9084FF4805814D29F
:200FA00079091AD3811011F0070F01F0070604D0072E1CBF761EF6B20EB907F07F0700F0C8
:200FC000E30040EA8600C0B205E020F01C00C11021F0030108438DF82500616808729AF84B
:200FE0004A00042800F0E981092800F0E68117F0610F40F0EF809DF82200012811D1129817
:201000000078052800F0D88003280AD1BDF82A0024F06FFD28B1218D08A815AA002301F074
:20102000CFFB9DF8320078B99DF82200012804D112980078032800F09C8208A821461EF0B9
:20104000CBFC96E27F01012024F09EFA002840F090829DF83D0000286DD19DF82400BDF8F4
:201060002A10FD100028ADF854102ED13A0930D29DF82220012A28D0084600211BF0AEFC96
:20108000002620B14079012816D0022814D0BDF85400B4F8441020F087FB28B1807823F004
:2010A00088FF08B1082807DBBDF82C0024F021FD18B104208DF824000126BDF82A10002EF1
:2010C00008BF022272D09DF824006A0838BF002300D340230DF13D021BF0BAFC30B16168C0
:2010E000087848F0200800F03F0008709DF83D0040B1BDF82A1010A820F03CFC48F0400837
:20110000ADF854009DF82200012806D0BDF82A00BDF82C10002217F047FF68082CBF402224
:201120000022BDF82C10BDF82A0015F029F908B148F0200833E09DF840009DF84110119A04
:2011400022F006F800282ED09DF8410038B9BDF82A00ADF8540025F076FB00BB1DE01199D2
:201160009DF8286001EB400030F8020C002EADF854000CBF082110219DF8270008B10831F6
:20118000C9B29DF82500002200B1012266688918491CCAB2905D401E905548F0400823F011
:2011A000F1FC8146A8E0BDF82A100B22BDF82C0000231BF059F9DCE1218D08A815AA002379
:2011C00001F0FEFAD5E1C046BC800200E4020120E404012078084FF0000967D39DF8330052
:2011E000B4F828B0C04D494616901E20EA79169B934206D1BDF82C302A88934201D1AE789B
:201200002EB9401E05F1080501F10101EED11E2921D0AE79E6B1BAF84810584623F044F8E6
:2012200008B1761EAE71BE4833210279FF2A02D00288934504D0491E00F12400F5D102E018
:20124000A879401EA871A8794828A4BF4E46AE7127F060072AE023F095FC81469DF8320095
:2012600028B9BDF82C00218D814202D11EE0BDF82C00BAF83A10884202D19AF80600A8B1FF
:20128000218D08A84A4610F0DDFA58B1380932BFBDF82A004FF6FE70401C48F00408ADF877
:2012A000540003E027F020074FF00009B8094FEAA71510D394F8460094F8476094F94830CE
:2012C0008DF81000E26B8DF8116004A98DF8123008A804F037FF68080ED3218D08A815AA7A
:2012E0004B4601F06DFA5FEA000905D012980078012808BF48F01008BDF854104FF6FE70B0
:20130000884208BF4FF000099C49C97E012927D1628E411C914223D0228D914220D0BDF86C
:201320002A10401F88421BDDBDF82C00904217D025F089FAA0B10179012918BF02290FD149
:2013400001218DF810104088ADF81C0004A81EF06DFE28B105A81EF0B3F908B120F0EAFC29
:2013600037F07F0000F00581B9F1000F00F00181208918F025FE071C00F0FB806168228950
:2013800024F00CFC002605969DF822008DF81000CDF80090CDF8048004AD0296BDF8541024
:2013A0000395228D237A384614F09EFC002800F0E080384620F05EFBDBE04946BDF82A00A5
:2013C000098881420AD020F0F5FA022806D09DF8250000F00300012840F0CB809DF82200D8
:2013E00098B112980178042904D19DF83C10022900F090800078072804D19DF83C100429E9
:2014000000F0848003287CD0B3E094F846008DF8100094F847708DF8117094F948608DF864
:201420001260E26B08A804A904F08CFEA1E09AF84A00042818BF092840F09B80B80971D232
:2014400012986908C0F095800178042903D19DF83C1002295ED00178072903D19DF83C208A
:20146000042A53D003294CD00C2940F08280401C424A10F8017B0578164601215120D21CA6
:20148000F57025F051F93D4B3B49012658465C79067057B9002C14BF4EF660204FF47A706C
:2014A00051F8241000FB01F405E00846203000684EF6602444430320B4FBF0F441464FF405
:2014C00080400EF06BFA9AF8000002211DF02AFB68080BD2A8084CD39AF8000002212246C9
:2014E00025F0E7F945E0C046440200204FF48040214616F085FC4FF4804031460EF04EFAB5
:2015000037E008A8002112F017FA32E008A81AF0B1FA2EE0002008A90BF018FD29E0C0465B
:201520002C10002094F8460094F847709DF832508DF8100094F948608DF81170012D8DF8A0
:2015400012607FF46EAF208DBDF82C1088427FF468AFBDF82A0020F02DFA022808BF8DF80B
:2015600032805EE7BDF82A0001E0BDF82C001EF08DFF17B0BDE8F08F98800200E40401202B
:20158000B94A2DE9F04F0846ADF14C0D11780F90000C80F067849246B44D0F9A6878920B20
:2015A00080F03184022813D10F9A520810D39AF850000F2807D19AF84A0020B1012802D079
:2015C000002020F09DFF0F9880F0010000F06ABC0F9A920980F04C83DFF89892DFF898829C
:2015E00030F0010740F0BC820F9A520980F03D820F99C90980F0C4819D490F9F0A78390A9A
:2016000080F0AD813946490A43D23946090B2AD20F999AF80370490B1AD20F99C90BC0F09D
:201620009F824C46A06A70B1297D01290BD18047E06A00B180479AF800004FF480414FF4BE
:201640007A7225F036F90F9880F4804000F02ABC27B100208AF803001FF052FF0F9880F4B1
:20166000805000F01FBC1FF04BFF687C01280BD1A97C49B19AF800004FF47A7212FB01F2AD
:201680004FF4006125F015F9384680F4006000F009BC24F095FF4FF6FE7B834500F05B8182
:2016A0009AF832008008C0F0568100263446304623F00AF8071C19D03879012816D0022836
:2016C00014D0F879411CF9719AF88B1081420DDABC727C72388822F011F9388801A923F0A2
:2016E00096F901A81DF0ECFF20F024FB761C332EDDDBA8F11C0614275D46119436F81C0F49
:2017000085420CD0307B9AF88B40411C8442317305DA1198B0747074308822F0EFF87F1E79
:20172000ECD14C46032104F13C0010F8047F0FB17F1E0770491EF8D1B04C332605F1010921
:2017400034F8240F81451FD001208DF804006788ADF8107001A81EF069FCA8B1A8F11C0588
:20176000142735F81C0F2188814208D0BDF80610814204D002A8A91C24F000F910B1284685
:2017800024F08EF97F1EECD1761ED9D1119D2C46284622F099FF48B1077937F0040705D15D
:2017A000807A23F006FC08B1641CE4B26D1C332DEEDB23F02BFB119E5FEA00080ED0354607
:2017C000284622F087FD28B1807C23F0F2FB08B1761CF6B26D1CEDB2A845F1DCA019C7B229
:2017E000002F4BD0B80018F0EBFB1090002808BF119F45D0BA00FF211AF0F0FA119E3546AD
:20180000B44218DD284622F05FFF031C10D0187930F004000CD1987A23F0CBFB011C07D08F
:20182000009718885A7A109B19F07EFA761CF6B26D1C332DE4DBB8F1000F21D0119C2046D3
:2018400022F048FD061C0AD0B07C23F0B2FB011C05D00097109B3088727C19F065FA641C87
:20186000E4B2A045EBDC0BE050010120E4040120FE090120E40201209C0400201198109088
:201880009AF83000002808BF4FF0620805D024F0CDF9C0F154005FFA80F80320B8F1600F2E
:2018A00098FBF0FAA8BF4FF01F0ADDF84090ABF1020BB8F1000F0EBF119D2025DDF844807D
:2018C000BA45A6BF3C1C45F040055446032014FB00F0801C8DF8050001A823F0BDFB4E46E8
:2018E000031C26D01869082104F01F02017045EA02014170801CA4B12246C01E361F16F826
:20190000041F00F8031F318809124170B17801F0070CF178521E01F0070141EA0C118170CD
:20192000EDD1A3F802B001209876184608F090FC00E00120E90906D2641EE4B20CB109EBF7
:2019400084093F1BFFB205F040052843B1D0109808B120F08FF80F9880F48070A2E21043EF
:2019600008D1B3480179012902D10021C170017121F0F4F91EF09EFE384680F0800091E2CF
:20198000B44C1E2600214FF006084FF00409A778002F43D07F1EFBB26079A37023F0B6FFEA
:2019A000071C3AD06BB9787B022808BF87F80D8033D087F80D803868407BF0211FF0FEFB63
:2019C0002BE0A3791BB9787B032812D025E023791BB3E078401EC3B2E370F3B99AF82500BC
:2019E000E0702079401EC3B22371787B032814D133B92046394620F0BDF80EE008100020D8
:201A000087F80D9024F0C7FE00F00F00401C38819AF8000020211DF01BFB0121761E04F11C
:201A20000804B4D19AF80000012910D040211DF079F895F82A00012813D1002085F82A000F
:201A400095F82B0016F0B0FE20F074F909E040211FF0F0FF28B99AF800004021642224F0E7
:201A600028FF0F9880F040001CE2084610211FF0E1FF30B99AF8000010214FF47A7224F08D
:201A800018FFBB48DFF8EC82417808F2AC54491ECFB217BB012141700020052123F09CFCB6
:201AA000071C1BD006253846052123F095FC0646388978B1401E80B2388158B97889C0084C
:201AC00002D3387B21F002FF7D733868407BF0211FF074FB371CE6D100E0477064274FF621
:201AE000FE7600252079A0B1FF2812D0401E2071C0B270B96079032805D160882188022241
:201B00001CF060FD6079012803D0268066806571A5717F1E04F10804E4D108F15A04082736
:201B2000207A401E2072C0B230B9C048214622F01DF890B9668025707F1E04F10A04EFD106
:201B4000BB4AC82112F8080F08B1401E1070491EF8D10F9880F01000A4E11FF07DF8E4E7B4
:201B60004C460F992778890864D20F992289890A40D20F99090906D301200F9F8AF80600E3
:201B800087F008008EE10F99C90A26D20F98400C38BF0020C0F08681C44C332501262079FB
:201BA00080B105280EDA607900090BD28DF804606088ADF8100001A81EF038FA10B102A846
:201BC0001DF07EFD6D1E04F12404E8D100200F9F8AF8040087F4803064E1022801D11AF052
:201BE000DBFABAF84800012119F0F2FA0F9880F4806057E1BAF8485004F108015020AAF872
:201C0000482020F0D7F82689142744466089854205D0864204D0204623F042FF00E0668167
:201C20007F1E04F11C04F1D10F9880F4007039E1CCE8002087B9BAF83E10012021F0BCFA8F
:201C40006878022810D19AF8000001211CF06AFF0AE0C0464402002001A824F0F8FD24F054
:201C60009DFC01A91DF03CF90F9880F0020019E1084620211FF0DEFE28B9DAF81000002867
:201C800008BF012616D024F0D9FF044624F074FC4FF47A716043B0FBF1F1DAF8100000284E
:201CA00008BF002004D088428CBF4FF0FF30081A46086AD00020042123F08EFB071C64D004
:201CC000FF254FF0FF3B06244FF001093846042123F082FB10903889864204D8801B83B2EC
:201CE0003B8113B14EE000203881BB7B012B02D17889C00840D3002B36D08DF804508DF8BD
:201D000005508DF806B03968086AC97F02AA11F071F94FF00008012808BFC8465FEA08002B
:201D20001DD0788A40F08000ADF83600B87B8DF838007889000908D3BDF8360040F4807045
:201D4000ADF83600387B8DF83A007B6913B1187BADF8180001A9002202A804F0F3F97C73F9
:201D6000387B19F007FE0DE087F80D900AE0C046640F0120200100207C733868407BB721B2
:201D80001FF01CFA109F002FA0D10CF061F89AF800300020012123F01FFB18B118462021E1
:201DA0001DF056F90020042123F016FBB3B278B152460789147823F00FFBF8B9BB42AEBFE4
:201DC0000027FF1ABFB2204627B920211DF040F900200DE07A00202124F06EFD24F02EFFFD
:201DE000044624F0C9FB4FF47A716043B0FBF1F0CAF810000F9880F0200053E00289BA42A1
:201E0000D8BF171CD7E724F095FD294C0546201D00680746C0B157F80C1C9AF8000049B966
:201E20004FF400511CF06AFB08E0C04621130200E40900204FF400511DF00AF920463946E3
:201E40000022001D21F0BEFB284624F0F3FE2FB13846FEF78BFE384623F07EF90F9880F407
:201E600000501FE008461DF0C5F8071C17D0114920310A78FF2A0FD03C780B4600209442C1
:201E800007D0401CC0B2C200D1189A5CFF2AF6D102E0496838468847384623F05DF90F989E
:201EA00080F4004013B0BDE8F08FC0462C100020E40A0120987C02002DE9F04FC14DC24C8F
:201EC000DFF808A3C44E88465FEA1840ADF11C0D80F09E826F78DFF8F892DFF8F8B25FEA96
:201EE000580080F01B82384630F0010040F091805FEA980058D25FEA981044D25FEAD8303A
:201F0000C0F087800120022122F0CAFBC5B20DB3E80018F055F8071C1DD0C04C82464FF058
:201F2000010933262079012818BF02280DD18DF804906088ADF8100001A81EF077F820B1F0
:201F400002A9504624F0DCFC8246761E04F12404E8D100E0002797B175B10F204FF6FC76C7
:201F60008DF80C001F24ADF8046001A92A463B46C248009415F032FC38461FF07BFD88F497
:201F8000804000F00DBC207A38B92078062802D1072023F087FE23F06FF9E07910211DF0D3
:201FA00057F888F02000FBE3207AE8B92178E079082917D123F0F8FA092023F073FEBF485D
:201FC0000078052806D0072809D10720012105F0D3FA04E0012022F067FC1BF0C1FF23F01A
:201FE0004BF913E010210FE024F0DEFAEF2803DB002022F059FC09E024F0D6FA1030C0B2A3
:2020000024F0E4FAE07901211DF022F888F00200C6E3CE48CE4B0668B3F900005FEA58110E
:2020200080F04E815FEA181028BF88F0080080F0B7835FEA582080F0D1805FEAD80080F0CC
:20204000B78037F001001CD15FEAD81019D32069A0B116F071F92069076820691FF00AFD36
:2020600027615FB1FA8802E0F888801AF8803F68002FF9D1E079402124F01EFC88F0400092
:202080008EE35FEA182064D25FEA98205CD2C84C5FEA18302CD25FEAD82027D3142017F0D0
:2020A0008FFF071C1FD0002524342E46207A012812D10097042029463246142320F0A6FB5F
:2020C00050B9206838606068294614223B467860042021F0DDF926726D1C0C34C82DE5DBF0
:2020E00038461FF0C7FC88F4806059E3002057E3182017F065FF071C23D000252E46207AB2
:20210000012812D10097062029463246182320F07DFB50B9206838616068294618223B4630
:202120007861062021F0B4F926726D1C0C34032DE5DB38463146182219F050FE38461FF07E
:2021400099FC88F400602BE319F000F888F4007026E31BF005FF207805281DD1E0790421CA
:202160001CF0E0FCE07904211CF0C8F9062023F099FD687830F0010007D15046007800F086
:202180000700022801D024F0FFF81FF0D3FD18F0DDFF1EF08BF801E01FF0CCFD012021F0F3
:2021A00055FC0320012105F0E7F988F08000F7E2FF20032120F00AFE24F00EFAC249012040
:2021C0000860FEE7E4040120C4030120501A0120500101203C0501204C1A01204A4692F8C1
:2021E0004A00082818BF042845D124322120742124F09AFABF4E6878716832880024B146DD
:20220000A2423DDC30F001002DD1044CFF25002694F82100802822D102E0C0462C1000207C
:202220006788ADF8067023798DF80830A1798DF80A1062798DF809202088ADF80400E77948
:2022400084F82150237D8DF80B70A7698DF80C3031461022032001AB049721F019F9761C58
:202260002434332ED4DBBB48006800B180470020022120F0ABFD88F4807091E228040120EC
:20228000A30003EBC403CF5C37F07F0C13D017F07F07CF540B4405D101A8FF210C2219F051
:2022A0009DFD01AB012021460C2221F0F1F86878D9F804103288641CA4B2A1E76F060120B5
:2022C000B0F1FF3F37465C4602D1B8480078A0805FB17968087818B1486800781AF088FDA4
:2022E0003F68002FF5D1B4F90400B0F1FF3F02D0C0B21AF07DFD24F063F9AD49088023F0E9
:202300001DFC687C012806D14C4620784FF40061642224F0D1FA88F0100041E2012023F0AE
:20232000C1FC3046677801793546122201F0070A11F0070F16D1022F0CD0012F12D108201A
:2023400023F0B0FC24F020F80BE0C046C00A012040050120082023F0A5FC0020014612F00B
:2023600031F90246BAF1010F18BFBAF1020F45D107B3032F1ED0012F40D1BAF1010F3DD1A3
:202380000A2023F08FFC4C4620784FF480611CF0C9FB502005A922F073FABDF81400A4F855
:2023A0004800BDF81400002118F012FF2DE0C046E0E8002023F0A8FF002818BF032F16D105
:2023C000022023F06FFCB749E06809781CF04AFB0246A879000911D28AB959464878401CF0
:2023E000C0B20428487004BFBB48E06006E024F0D2F90146012012F0E5F802462AB1E079F9
:2024000001214FF47A7224F057FA88F00100C7E1DFF8CCB2BBE10646B04A337827781168EB
:2024200068781A46521E00F08D81521E00F09480183A00F0A681B93A00F09F812A3A00F0BA
:2024400083801B1F77D05B1E6ED05B1E54D05B1E3CD05B1E2CD05B1E40F0968120BB707F20
:20246000DBF8109000BBB9F1000F06F1050A1BD0BAF1000F18D04F46B81C5146082222F0A6
:202480005BFE18B9FF68002FF6D104E038461DF079FDDBF81090B9F1000F05D19BF800003B
:2024A0004FF400611CF03EFB304622F005FF6BE1012818BF022840F06781307916F074F9FD
:2024C0001FF038FC60E1C0467C052043002840F05B813079012800F05781022806D0042894
:2024E00040F05281304618F001FA4DE1304612F0B7FF49E1DC0A0120012840F045817088BC
:20250000002840F04181301D01A921F0D7F8012840F03A8124F054F8ADF80C00361D0296BA
:2025200001A816F0BBFB2FE1002840F02D81304611F0F2FC28E1012818BF022840F02481B3
:20254000304608F031FD1FE1002900F01D813046884719E13C090120012818BF022840F029
:2025600013815846C0795E46072818BF082805D1237A1BB9012104F0FFFF2778032F00F0FA
:2025800093800A2F16D0042F1AD00D2F18D00E2F16D00C2F14D0002F00F0F6801DF086FE60
:2025A000E07910211CF054FDEEE0C046671B0120E00301208048007800F00700012873D016
:2025C000277A6078002F35D10020E0720746F7701FF01EF8F8B120780D281CD00E281AD080
:2025E000062023F05FFB70480078000904D34FF4004001210DF0D2F9687830F0010007D1F2
:202600006E48007900F00700022801D023F0BCFE1DF04CFEB8E06878022803D108200121B5
:202620000DF0BCF9052023F03DFB42F2107022F013FEA9E0E17A01280BD003281ED16878BF
:2026400002281BD1594900260E7001270320677113E0491CC8B20428E07204DB54480078B8
:20266000012809D00AE0534800884FF6FF7181421CBF0426A672E8D10020607021F08EFA74
:2026800020F07CFC48480078000902D3287D01287AD16078032877D1082001210DF07EF9AA
:2026A00072E0C04699060120207A002848D1E07910211CF0CDFC1EF0ABFF98B968780228B5
:2026C00003D1082001210DF069F9052023F0EAFA01201FF0CFFB57E000F8FF0728070120E2
:2026E000680601206F78207837F001070AD10A2808D13149097801F00701022902D02B4A51
:202700000821117003280BD11DF0D0FDF079022806D1012021F09AF90220012104F02CFF9C
:20272000062023F0BFFA687830F001002CD12248007800F00700022826D023F025FE23E077
:202740000020C6E7022F1FD1012818BF02281BD123F0A8FF28B113F09BFBA8B168780228E6
:2027600008D023F0D5FF00280CBF002001201FF099FF09E019F010FD06E0304605F0A2F8D5
:2027800002E0304606F082FC069822F0E5FCE0791CF030FC002806907FF43DAE88F4004073
:2027A00007B0BDE8F08FC046521A01209A010120E006012098010120501A01204C1A01201C
:2027C0002DE9F04F064693460020ADF13C0DABF80000B06A099303460078884623F024FD5C
:2027E00048B1708904461FF0E5F8022804BFABF80040B36A01D0002009901878C84DDFF8BE
:202800002493401E0A2800F20B84DFE810F02F03B3020C04A0028D0151010904BE0088005D
:2028200066000B00BD4C207D012840F0F9835B1CB06913F8015B1F7824F032F8002800F0C8
:20284000F7830379002B00F0F383032B80F2F0830E2D1CDCDFB9D04907752DB901EB850126
:202860000A6BC261096B0AE001EB85010B6B9A01A2EB8302C2610A6B9101A1EB82018161B2
:20288000012180F820101FF055FA002500E001250320B689E4788DF8190006A822F0DCFBF2
:2028A000071C00F0C58338690C2100F8011B00F8015B04700124BC7723F040F9786204A9E8
:2028C000304622F0A4F810B17C7704A838627E80BC76384607F0BCFCAAE35C1C207820F0D0
:2028E0001F0700F01F00012840F09A83641C04A8214624F005F8284604A95D3023F03EF898
:20290000002800F08D83002F40F08A830834A2786178207801EB022120F0B0F988E3688F32
:202920007189884240F07C835C1C14F8016B04A8214623F0E5FF284604A95D3023F01EF8D9
:2029400006F01F0726F01F06002800F07183002E40F06E83780017F033FB011C00F0688320
:2029600067B184460834384663782278401E04F1020402EB03222CF8022BF5D100910EF035
:2029800058FC08461FF076F852E35C789A1C34F07F0704F01F0E40F04B83377F03201EFB9E
:2029A00000F0801CC1B2B94240F04283002714F01F0F04BF4FF6FE7C614618D0D9789B785A
:2029C00070464D4603EB012C5378117812F802EF01EB03213EF0770340F02A832B888B422F
:2029E00008BF0EF00707521C401EEDD1BFB960464FF6FE72824212D004F06002602A0ED043
:202A00004D462A88A30907D2E30902D2904203DD0EE3904203DD0BE39142C0F20983B0899F
:202A200023F011FF002836D1B0894FF6FF7121F03BFC041C14D120F011FD041C00F0F88261
:202A400000211C2219F0CAF9B0894D460E35208028886081AA23A374062222740121617472
:202A6000207C0C2805DB0620072F2074BCBF7F1CFFB2677400202073A01C22F01CFD002852
:202A800040F0D682307A002800F0D282B169A01C23F036FFCCE20021C171017A0C2905DBE9
:202AA0000621072F0172BCBF7F1CFFB24772BFE2484671890088884240F0B282307F02280E
:202AC00040F0AE82AA4CA01D00884FF6FE71814240F0AE82162022F039FA071C00F0A882CC
:202AE00001213970B07900280CBF081C02207870B06A4078B872000902D2B0891FF068FE3A
:202B0000B169B81C23F0FCFE0020F874287839461DF068FEB089E0808AE2C046E404012088
:202B2000500101208A01012070891EF043FF002840F076825F78B94987B10C2F03F1020399
:202B400080F276828C463D465A7818786D1E03F1020300EB02202CF8020BF5D14846758940
:202B60000488DFF8D892AC4200F0B280B37C002B00F05E823B1C0A974FF0000811D0A74A3D
:202B800038464146921E32F8023F9C4206D0401E01F10101F7D104E0688002000A914FF09F
:202BA00001082846002119F019FF00280B907ED0407901287BD10B98807910F0180F76D014
:202BC0000B984188384622F0AFFE10B9B8F1010F6DD109F55F794FF6FE704FF000080C9719
:202BE000B6F80CB0CDF820904FF0010A0D90C14611E0B8F1010F08BF4FF0010908D023F063
:202C0000CAFDC0B290FBF8F101FB08F1A0EB01094FF00008C246089D14271C3D35F81C4F5D
:202C20004FF6FE70A04213D0A34511D00C98214622F07AFE60B96B7C53B1072B08DA08F1AD
:202C40000100BAF1000F5FFA80F801D1C14521DD7F1EE3D1B34D332735F8244F0D98A04240
:202C60001AD0A34518D00C98214622F05DFE98B96B7A8BB1072B0FDA287901280CD00228C5
:202C80000AD008F10100BAF1000F5FFA80F803D1C14501DC0D9407E07F1EDDD1B8F1000F93
:202CA00002D0B9F1000FA4D00D980B994880B37C5A4C581EB074F77C00970A9D01950294B8
:202CC00001220392B189B269708915F02BFCAFE1B4890C2F80F2AC818846ADF81040BD4853
:202CE0008DF812700168CDF8148009B104A8884720461CF009FAC82803D14FF6FE701CF0DE
:202D000003FAC82880F2948109EBC00000F6CC05686808B11EF0AEFE2FB1780017F050F9D9
:202D2000686010B984E1002068606C80C2486F70007828706878002800F07A8168680028E5
:202D400000F076817A00414622F028FF70E1307F022840F06581099828B94D467189288853
:202D6000884240F06581099831460AF0EFF85EE1E4020120B5F8481040461EF015FDA8469B
:202D8000074608202FB17D781DB90621397007257D70B16A0A79CC788B794D7891F802A054
:202DA000CF7904EB02244A7902EB03296A0928BF1020AA0924BF0830C0B235F0700340F048
:202DC0003781327F904240F0338105F07005680938BF002006D306A8083123F091FD25F06C
:202DE00010050820A90907D3B16A091804A8083123F086FD25F020052046514621F0B2F861
:202E000008280DDA8D4B410001EBC001C9188879B84240F30D818F71002002E044010020D1
:202E20000420B8F83A10A14219D048B9B189484601222B460EF06CFC28B1F9E020010020F2
:202E4000042840F0F58006A804AE009049463A46534601962046029512F0CCF8E8E0B189AD
:202E6000484601222B460EF053FCE1E0B5F8481040461EF099FC4FF00609041C03D06078DB
:202E8000002800F0CD80B06A817847780891C378017900F1050A03EB0120099040461DF072
:202EA000EDFC9AF8001009185FFA81FAB80928BF4FF00E0937F0780040F0B28007F0180084
:202EC000182800F0AD80307F814540F0A9804FF00009CDF800900899B0895246434619F026
:202EE000F1FD032800F09C80002807F078074DD117F0180F18D195F8310028B1B089414683
:202F000001223B460EF004FC09984FF6FE714A463B460EF0FDFB002838D14FF6FF70ABF82B
:202F2000000039E00810002047F00107780928BF47F00207B089394619F050FD90B1817910
:202F400011F0180F0ED0417901290BD154B14088B5F848101EF028FC20B1437813B160787F
:202F600098425DDCB089414601223B460EF0D0FB60B94FF6FF70347AABF80000002C0CBFFC
:202F80004946B169B089524622F034FCBBF800104FF6FF70884243D1012000900899B08995
:202FA0005246434619F08EFD099839461DF0E6FF698F81422ED1099823F045FC60B1007911
:202FC000012818BF022807D1099804A921F01FFD08E0C0460404012022F0B0FD014604A8AB
:202FE00023F08EFC307A012803D1B16906A823F087FC06A8009004AF0197B06A407840F0A4
:20300000300002900999089BB0894A4611F0F2FF48460CE0B06A80F805A021F0B3FD06E096
:203020004FF00009F4E70999304610F085FC099009980FB0BDE8F08FFE0401207A010020F9
:203040002DE9F04FAD4C04F12C000768ADF1540D17B1002087F84500DFF89C82002517F1C5
:2030600048030BD0BF6DA34E73612FB940460068D0F84C05804773695868706023F05AFCAE
:203080001390082014F086F91AF0E6F8464610B181A023F0CBFD1CF0C3FB684623F03AF8F4
:2030A0000427284669468DF8007023F0ADF9206422F072FF09A823F0FFF8284609A98DF8B3
:2030C000247023F001F9A06322F070FF0DA823F003F928460DA98DF8347023F005F9A16B9D
:2030E000E06319B974A023F0A1FDE06B10B977A023F09CFD206C10B979A023F097FD306872
:20310000D0F8E00380473068D0F8180280473068D0F8F0028047404600682F460726A03083
:2031200001687B5823B11846804740460068A030761E07F10407F3D1D0F8B8028047EB20ED
:2031400023F044FAE06A2F4670B105A8FF21082218F044FEE06A05A9082221F0EDFF04F1E9
:203160002C06012818BF3768654A0CCA05A8391C80E80C0021D1082016F022FF5FEA0008F1
:2031800056D0A8F10206032723F005FB06F8020F7F1E4FEA20207070F6D13020F82706F8F2
:2031A000020F4146082204F1480088F8077022F0F5FC40461EF05EFC04E004F148000822DD
:2031C00022F0ECFC0120082105AA23F0A7FA04F14806002818BF092826D121F08AFC8008BF
:2031E0001DD205A8FF21082218F0F8FD07AFFF210822384618F0F2FD0120294608223B463C
:2032000022F0CEFF80B9384605A9082221F094FF28B930463946082222F0C0FC04E00120C9
:203220000821324623F080FAE22031461EF0C2FD21F05FFC400834BF2F1C0127314E55200C
:20324000012106F1320223F069FA18B917B1284620F0FCFB2C4EE22006F1400121F010FBCD
:2032600038461BF0AFFD05A82946102218F0B6FD707830F001004ED1DFF8908005A9102221
:20328000404621F059FF002842D105A84146102222F084FC3FE0C04652616E646F6D5F73B4
:2032A0006565644175746F6D617469632829206661696C656400C04641455343434D206F22
:2032C00070656E206661696C656400C0414553454342206F70656E206661696C656400C0AC
:2032E00054524E47206F70656E206661696C656400C046C0D405012014010020D4DB002078
:203300001083020068060120E40401207880020005A820F06BFB6220102105AA23F0FEF9F7
:2033200028B927B16220102105AA23F0FDF905A82946102218F052FD384612F03FFD38468A
:203340001FF056F9384613F083F87078A8B905A820F04CFB40F20110102105AA23F0DEF9B9
:2033600030B92FB140F20110102105AA23F0DCF905A82946102218F031FD1FB12846012195
:203380001FF024FD282016F01BFE0028606400F04081206B616B221D1AF07AFDCA49087057
:2033A00010211BF055FE616C201D0860206B616B04F108021AF06CFDC2490968D1F84C139F
:2033C0008847616C04F108004860206B616B04F10C021AF05DFD0DF071FB616C04F10C00B7
:2033E0008860206B616B04F110094A461AF050FDB64F7870B18EBD70381D0180303006F113
:203400005001119007F1340023F07AFADFF8C08296F8230006F148032946FB604FF4B472C8
:20342000387008F5057018F0D9FC04F1340B04F1300A626CDBF80010DAF800003C2308F553
:20344000057C0C324FF6FE7E5B1E2CF806EBF9D1C2F8009004F114021AF01AFD9F4B9D494E
:203460007B629D4A08709E4B606CBA6004F11802DBF80010BB6204F114030361DAF80000F0
:2034800012921AF005FDDFF85C9289F80700022289F824204FF6FE70A9F81C0022F04EFB7B
:2034A000914811990560AF4823F02AFA4046FF210E22801C18F092FC8C488E4B83608E4A86
:2034C000C2608B49416005708C4B03618C4A42618E4939618B4B83618B4AC2618C4B7B6156
:2034E0008C4ABA618E488C4B8C4AFB618E4910618C4FD16009F1300097601EF0CDF81EF0A6
:2035000065F8984809272C307F1E40F8045BFBD14F46F87948F201011CF0F0FEF8794FF4F2
:2035200000411CF0EBFEF87948F221011CF0E6FEF87948F222011CF0E1FEF87920211CF021
:20354000DDFEF87921211CF0D9FEF87922211CF0D5FE606C12994161DAF80000DBF8001099
:2035600004F11C021AF094FC704F48F2150138701CF0C4FE387838211CF0C0FE6D4B6E4AD6
:20358000FB606B483A61616C786102234FF6FE72DAF8000087F8283004F11C038B61DBF886
:2035A00000103A8404F120021AF072FC634904F12003634A0870634F606CDBF80010C36140
:2035C000DAF80000176004F124073A461AF060FC65497378087023B991F833300BB10221E4
:2035E000F17148F202011CF089FE606CDBF800100762DAF8000004F128021AF049FC2070B1
:203600005149087022F0C4FF4870616C04F1280048621BF073FF12F00FFD139823F00AFB29
:203620000FF03EFA21F086FB26480068D0F8D40090F8430021F090FB22480068D0F85824D2
:2036400029460120904722F079FD40481D4F05707868C068007830B938460068D0F858247F
:2036600028460146904717F051FA3A4F3D703848058145818581C581058245828582C58282
:2036800005832B464583344C858307210360344A43603248257021F0A3F816F0BFFB1EF0AC
:2036A000E3FF1DF041FA7078022807D13078012804D14FF4004001210CF070F915B0BDE8DC
:2036C000F08FC04614010020671B0120E006012020010020800A0120892001004D81010021
:2036E000F9620200C40301204805012020090120DDC700004941020099D901003B2E0200BF
:20370000F14602006913020019470200D5690100D54401003D4B02009DA40000FC09012046
:20372000F1420100E9B40100193401001C070120152A02001540020031480200C40A012023
:20374000D00A0120751C020028180020701B0120D8180120691B0120681B0120EC00002069
:20376000B9690200D8030120680601202DE9F04F0446B54DB5480021ADF14C0D001D2E6831
:203780000768A0780C910146102910DC102900F0AC80002900F0AE82491E012940F2FD81BA
:2037A000891E00F05581491E00F0248144E3113966D0491E1ED0491E03D0491E00F042834E
:2037C0003AE3207967798DF81000E0788DF8117022F02CF8002808BF022005D00C3004A95B
:2037E000022222F0DBF90C988DF82000132108AB01223BE3204634460421C61C304621F0E0
:2038000069FE0C9F0121002C35D0A268904203D02468002CF9D12EE06CB3361D304622F00A
:20382000FFFEB778804657B92868844218BF251C2068286020461EF01DF90C991BE0B81C0A
:2038400016F0BEFB051C04BF10210C9F13D00C9828706F7061683A46A81C414422F09EF9B0
:20386000BE1C642012212B46F2B21EF0D1FD28461EF000F9FDE23170334612217770F4E268
:2038800020460126C41C8DF82160204622F0C8FE6F68A3780FB3B3B938680090686818300F
:2038A0000190787E0290B87E03903969BA8AFB8A381D08F0A5F98DF8210068681EF0DAF87A
:2038C0000C9868600CE03968E41C1A4609180846214622F063F90C9800E010208DF82100F1
:2038E000112132460DF12103C0E22546BD4C89462D1DA07815F8011C002937D0491E10D014
:20390000491E02D0481E67D064E0287822F08CFD002869D041680978E170007820710C98C9
:2039200054E02D7800285FD1E1200DF1230120F0A7FF9DF8230085424AD00126A670304631
:2039400022F024FC0C9809A98DF8240052201EF031FA28461CF05AFC002839D0657020781D
:203960003146642222F0A8FFBA202FE000283BD1E1200DF1250120F083FF9B4E06F13C079A
:203980009DF825103878884222D0DDF8308001255220A5700DF126018DF826801EF00AFA5D
:2039A00096F83C000A2805DD1B2803DAE12039461EF000FA8DF8265052200DF126011EF0E1
:2039C000F9F9404622F0E2FB4046A07002460CE00C9A0AE00220F9E7284622F021FE0C9ADF
:2039E000A97822F0FBFE00B901228DF822200DF122031FE210218DF82710E1788046DFB138
:203A00007A681278384691420ED03F683FB17A681278914205D038463F68002FF7D1022022
:203A20000BE03968016002E0B1493868486038461EF020F80C9800E001208DF827000DF182
:203A40002703CDF83480A5E0FC0A0120BC0A012001218DF828100C990D900C2204A818F02D
:203A6000BDF925460224ED1C8DF81840284622F0D7FDAF1CADF8100017F8010B8DF819008C
:203A800017F8010B22F0D0FC8146384622F0C8FDBD1C0E9015F8010B15F801AB15F8018B2F
:203AA0002E788DF82900700016F08AFA0F9000286CD06D1C4EB183463746284622F0B0FDBA
:203AC000AD1C7F1E2BF8020BF7D1B9F1000F57D0CDF8409015F8013BDDF83C903746AB46BB
:203AE0000C2FBDF8105011934ADA28461BF00CFBC82815D14FF6FE701BF006FBC8280FD1C9
:203B0000C34890F8CC38012100F6D40C0C981CF8082B9342C4BF131C081C491CC829F6DB59
:203B2000C74C4FF6FE7604EBC0046068668018B11DF0A0FF0C9860606FB17E00304616F065
:203B40003FFA6060002808BF102419D060684946324622F023F8C9486580007867700DF121
:203B6000290620701099CDF800B00E9A0196119BCDF808A004A8CDF80C8008F041F8044698
:203B80000F988DF828401DF075FF02E010208DF828000AAB0D9881464CE194F801B00121A4
:203BA0000228814604F103048DF82B101ED114F8010B03288DF8180005D0204622F030FD0F
:203BC000ADF8100004E004A82146082221F0E6FF083414F8010B8DF81900204622F020FD92
:203BE000A41C11E0C40A01205001012002208DF81800204622F014FDA41CADF8100014F8EA
:203C0000010B8DF819000C98ADF81A0014F8010B22F00AFC8046204622F002FDA41C0D90CD
:203C2000B9F1020F14F8010B14F801AB14F8017B8DF82A001CBF14F8016B06F10A0006D197
:203C4000204622F0EDFCA41C064606F11400B8F1000F80B240D0FA2830DD6C68002C3BD1B7
:203C600006F11C0016F0ACF904466C6024B30C9804F11C0504A98DF82B000C222560201D92
:203C800021F08CFFC4F810800D98A082E6829DF82A50257684F819A0A7760F23E376784CC2
:203CA000207808214FF47A7222F006FEB8B1207808211BF0CDF912E010200EE000940DF161
:203CC0002A000D9A019041463346CDF808A004A8039707F095FF00E002208DF82B002BF077
:203CE0001F0BBBF1200F40F0C4800DF12B03A1E0BC0A01204FF0100A89468DF82CA05046A8
:203D000016F05EF9071C00F094805D48E41C7860207822F089FB00287CD120780C9E387015
:203D2000B04687F80C80142016F04AF90028B8606BD014F8011B017062782178A61C01EBD0
:203D40000221418031787278B41C01EB02218180817914F8022B01F0F00102F00F020A43A7
:203D60008271B96814F8010BC871BD68EB79464673B1580016F024F9A860B8688568002DE8
:203D800008BF564604D03046BA68D179814231DC2078B9680873BD682B7B73B1580016F0B9
:203DA0000FF92861BD682B69002B08BF564606D0641C4046297B814210DC102E2BD1A868B2
:203DC00010B11DF057FEBD68287B18B128691DF051FEBD6828461DF04DFE1CE062782178E8
:203DE0002B6901EB022123F81010BD68A41C421CD0B2DFE7637821789268451CA41C01EBDF
:203E0000032122F81010E8B2BEE7564603E0C04620010020B8268DF82C603EB938461DF0CE
:203E20003BFC8DF82C009DF82C0010B138461DF021FE0BAB4946DBE402200C9019E0C046AD
:203E4000EC0900200C988DF810008DF81100E07804A921F09DF89DF8117014219DF81000E3
:203E60008DF81D7007AB8DF81C00022264201EF0CFFA0C9813B0BDE8F08FC046FE040120AA
:203E8000671B01202DE9F04FADF13C0DC54C0B90C3480C91002147780E919FB137F00106F2
:203EA00008D0022F12D1207900F0F80141F00201204605E02046017901F0F80141F0010118
:203EC000017103E0207900F0F8002071261D3078402537F00102657100F00700307005D1BE
:203EE0008E20A0716FB940F0010009E0022F08D1AB4980200978A071012902D140F008005C
:203F0000A0710E99F170317150256572A020B071F171B072F172A089099140F43050A0813A
:203F20002174B2B1022F1CD1012019F00DFE28B9206820F00F0040F0020004E0206820F000
:203F40000F0040F001006FF30F1048F22021014306E0216894484CF21017084047EA0001B7
:203F60002160934B9149A0791F780A9381F8320067B90E981AF026FF8C4890F83200000984
:203F800011D30E9808A98DF8200009E0084690F83200000907D301200DF121018DF8210086
:203FA00052201DF007FF1BF0A9FA20F0A2FD800838BF0E9803D30E981FF048FD01200028E1
:203FC000DFF80CA30D9040F0D8800FF031FE5FEA000B40F0C380754ADDF83880212074211F
:203FE0002432174622F09AFB002859D12120414674223B4622F0D4F8002851D16B48408F8C
:204000004FF6FE7181424BD0684890F84A004FF00108082806D0042804D010F0A1FDDDF8CB
:2040200038803DE0C14642200DF122018DF822901DF0C0FE07F12F0143201DF0BBFE07F1D6
:204040002C0147201DF0B6FE07F11C014A201DF0B1FE07F11A014B201DF0ACFE07F124017E
:2040600028461DF0A7FE07F1160153201DF0A2FE07F12D0154201DF09DFE07F11801E1209D
:204080001DF098FE494890F83200000938BFDDF8389052200DF122018DF822901DF08AFE36
:2040A0000E9D17E0DAF804100E9AA80000EBC5000C23401881460090294601201EF0A6FB5B
:2040C00030B999F80000FF2804BF099889F800006D1CADB23248BAF800104078A942E1DCD6
:2040E00030F0010001D10FF0A7FC9548001D006800B180471EF000FCB8F1000F1BD022F092
:204100005FFA0A99888318B9307800F0F800307023484078022818BF012104D1234A09986E
:20412000032182F84A000A98393741703946143022F0E6FB01E04FF0090B804D0999184F14
:20414000A81C0180787818B91DF062FA38464078BBF1000FA94605D10E9904E01048DFF880
:20416000DC91407801210D9110490A9D91F83C20012707FA02F1E96087E00FF059FD10F054
:20418000EFFC0A4A21207421243222F0CDFA02A8FF210C2217F022FE0E9D574612E0C0467C
:2041A000E40401204C1A01200000FFFF50010120C4030120294601200C2202AB1FF068F93C
:2041C0006D1CADB23888A842F4DCB848407830F001000ED102A8FF21102217F0FFFD0E9D1B
:2041E00003202946102202AB1FF052F96D1C332DF6DB5348006800B180471FF08FFF099881
:2042000006220E99ADF8100002A817F0E7FD142015F0D6FE5FEA00081BD0A34810300768A2
:20422000A7B103270225A8B202A90622404421F0B5FCAD1D7F1EF6D104A94046022221F0CC
:20424000ADFC4C201421424622F06EFA40461DF011FC182015F0B4FE071C10D00E9D18229B
:20426000294617F0BBFD0620294618223B461FF00FF96D1C032DF6DB38461DF0FBFB17F097
:2042800013FF8A48DFF8B49040780D99864D012966D1B44F2437E8B1012807D002280BD190
:2042A000307800F0F80040F0020004E0307800F0F80040F001003070A34820F08BFE00284B
:2042C00008BF09980BD00A9A04210320917206E0DC0A01203178022001F0F8013170DDF894
:2042E000288088F8010022F056FA0B996F4E00F07F000818643080B20E90F06B0221C8F8A1
:204300000C00FF201EF062FD96494FF6FE70431C48870E46F0870998A1F848301EF048FE74
:2043200062484078012810D10C9801280AD0099902A8082217F052FD02A804E0100A0120D5
:204340003409012009981DF015FD212074213A4622F0EAF9099802211EF038FD534840789A
:20436000DDF834A018B9A08940F00100A0812F6987B9122015F024FE0646002E2E616ED0D0
:204380004FF6FE70B61F0327411C26F8060F7F1E7180FAD1BAF1000F61D1099906AB4C20D7
:2043A000022221F0FDFE002852D1BDF8180000284ED004284CDA182015F002FE03274FF077
:2043C00002084FF6FE7B0646099C2B691FFA88F14C2006221B1921F0E3FE78BB2869015B24
:2043E0008B452BD056B300962018099A4188182306201EF00BFA30692A6900F2E93333616D
:204400001019418805F11402880000EBC10029691350081973694188880000EBC1008018E3
:2044200029694360081941881822334606201FF02FF809993046182217F0D0FC7F1E04F197
:20444000060408F10608C0D116B130461DF012FB164B099971200822483321F0A1FE13481F
:204460004778381C06D121F069FB21F055FF0F48477817B121F048FF18B10120E870099E59
:204480002E713248324EC9F80C00C9F810607FB137F0010003D120F0B3F82F480BE020F02C
:2044A000AFF82E4807E0C046CCE80020E404012020F0A6F82A482749BAF1000F086019D07A
:2044C000284890F86500A8B92748407890B9DDF82480622102AA404618F068FB02A84146E4
:2044E0001FF078FC404614F05FF902A81022414617F074FC0A98006950B10A9C1034076818
:2045000020681DF0B7FA0A99384600280861F6D10A9A099F01200146107002F109045772DF
:204520008520093222F0FAF828B9852039460122234621F035FE0E9821F040F920F034FB93
:2045400050460FB0BDE8F08F1407012001F00000E9630200C808012091780100995402007D
:20456000F181010050010120E40401202DE9F04FBE48C84CADF1340D069025694068012111
:204580004FF0E047C06809934FF000080170C24808921F4080F800804FF0020000EA020011
:2045A00008BF002840F0E682DFF8F092DFF8F0A21E4611464FF4803018EA060700EA01000A
:2045C00008BF002833D141464FF4003011EA060700EA020008BF00280ED137464FF48000EC
:2045E000394000EA020008BF002800F0B78285F8048019F0B9FDB1E285F80480EB201EF0D1
:2046000091FE4A46514682F800800878862801D11EF00AFF22F08EF9E1690A6882F8048080
:204620000968E16122F006FB21F09AF996E285F804801EF0DFFE81262778A4F80C8099495C
:20464000A770994D0860994B2E70FF221A702169069E087A801E81B230684A46D0F8000156
:2046600082F80080C0890B918842C0F26B82E1690831096804F1180001600426A6810B989C
:20468000657EA17E04F11902C01E80B2069EE37E0B9005EB01205178C1F301193168608136
:2046A00001F1B80CDCF80010237109780792002908BFB9F1020F00F04582B9F1020F00F3A2
:2046C000418219B110F0070F00F03C82667800F00705AD1E022D08BF002E00F0338231B139
:2046E00051460978862902D1002D40F02B82001300F00200022864DA35435AD1DCF81C0016
:2047000090F88300022851D0E1690C31097805A801700527A78122F00DF95546064628782A
:20472000862840D106980068403001680F6837B9D0F80C05804706980068006C07689DF95D
:20474000140022F035F9787706980068016C096881F81E80006C9DF914100068C1773046DF
:2047600022F068FA2679678922F0E4F851460A7807F01007862A15D1BA4D05F11E031A88CB
:20478000521C1A8087220A7022F054FAE879B04206D11FB9404615F043FE07E01B20FAE7BD
:2047A000E920F8E70646304622F044FA21F0D8F8CAE151460878862803D11EF035FEA7787A
:2047C00066788FB186B9012F00F0BC816089022F03D110F0070F40F0B581032F05D100F0BD
:2047E0000701032901D0ADE16089010980F0AA81011301F00201022902DA810A80F0A2816B
:2048000007994978C1F3810BBBF1010F4FEAA1110A9100F09781012900F09481B9F1020FC3
:2048200014DA00F00701012918BF03290ED1BBF1000F0BD10A9F002F00F084810699096812
:20484000AC3109680F78002F00F07C81BC49B9F1020F0DD00A9E11F80B708A5DB918CFB265
:204860005EB3C10929D3BF1E12E0C046140100200A460A990BEB0207891809793A79521825
:20488000C109D7B214D20A995BEA010615D0BF1CFFB212E0B4180120B40A0120711B012014
:2048A000741B0120501B01206F1B01202D1A00200A995BEA010608BF02270B9AC0F3002152
:2048C000781A61718242C0F23D81069E1046C01B4018316880B2D1F850122081743080B2A6
:2048E000884700286678606100F02C814146742217F074FA84F8038062891EB9C14902F036
:2049000020000870BF4861790678C446002E30D000292ED102F00700032808D0012828D122
:2049200006980068D0F8D40090F882600EB306984068406906781EB121F060FBFE2815D0F7
:2049400006980068D0F84C02804750B906980068D0F84402804720B96289617994F803C0A3
:2049600007E00420E0706289617901E00420E07084466569268905F1740305F17400AB6594
:20498000079B686093F801A02E812089CAF301190029A5F85C001878AA8100F0780049EADA
:2049A00000004CEA000028744FF0FF06AE730CBF2079404685F83AB085F849000A9885F88A
:2049C0003000A089002FA0EB010086B2A68100F0B480E169E78068463A468919083114F082
:2049E00095FABF19B8B2A0812846017C4FEAAA0212F0030F02F003076D4601F0400B42D0E4
:204A0000B9F1020F434601D1C9090BD29DF801209DF8001001EB0221A0F844100DF1020576
:204A2000A0F84210814EB0F84410B6F846208A4203D04FF6FF728A4223D1032F14D06A78A0
:204A4000297801EB022189B24186B6F84420AD1C01208A4214D04FF6FF728A4218BF181C6B
:204A60000EE0C0460418002060692946323021F047FF60693B363146323020F07FFF083537
:204A80000346002B56D00798407886111ED06169B9F1020F03D0087CC00903D309E05BEAF7
:204AA000070306D16A782878AD1C00EB0220A1F84200032E05D068782A7802EB00220A85BC
:204AC00004E060692946283021F01AFF06990968AC310A686089167886B1B9F1020F0DDA89
:204AE00000F00702012A18BF032A0BD162692FB94F4BB2F842201B8893421BD100F00702FC
:204B0000032A05D0012A18D1886A90F88200A0B1D1F89C116069884778B90798817867698B
:204B2000407884F80380C1F3011100F078000843387402E019F018FB06E00BF087FC03E054
:204B4000D487020020F0FEFE21F0F4FEE1690A6882F804800968E16122F06CF80899099EBE
:204B6000202047460840374008BF002830D020F0B1FE2DE02F4991F90000002803DD91F95A
:204B80000000401E08702C4991F90000002803DD91F90000401E0870114640461E464FF058
:204BA00080770840374008BF00280DD0234991F90000002803DD91F90000401E08702048AD
:204BC0000121017021F0CEF885F8048019F0CCFADFF864C09CF90070B7B108994FF0E0472C
:204BE0000220374000EA010008BF002816D09CF90000002812DC06980068D0F84C058047CB
:204C00000CE0C046711B01200E48069F80F800803868D0F85824414608469047069840682C
:204C2000C06880F800800DB0BDE8F08FD40501201A060120B70A0120B60A0120B80A012092
:204C4000B50A0120B20A01202DE9F04F0446B54EA578F06A4FF0000BADF14C0D2946312974
:204C600011DC312900F0E280DFF8C882B24F142914D91C3900F06281491E00F01B811339E8
:204C800000F0E9807FE2323900F0BA80491E69D0491E012929D9891E17D074E2DFE811F0E6
:204CA0006402A502A102500299027302730224024E010A010D02F8018F0273028902DE0175
:204CC00073027302C901B801760240B1C06830B1E01C21F0A5FCF16AC968884700E00320E9
:204CE0008DF8380036210EAB61E201270028A8468DF839702ED0406A60B3204602A920F05C
:204D00009BF9342D044618BF584602D121F088FCA41C2578E0B902A821F07DFA641C0128A6
:204D20000DD1BDF80C00294622461FF06DFBBDF80C00012803D1E22021461DF03BF8F06AC5
:204D4000466A02AB93E803002A462346B04702E0042000E003208DF8390041460DF1390320
:204D60003D46A5E0002840D0C06900283DD0204602A920F061F9054602A821F04CFA0128A5
:204D800018BF584603D1BDF80C0021F041F90446284621F045FCAD788046F82DA8BFF72521
:204DA000A81C5FFA80F9484615F00AF9071C1AD0A4B9F06ABE1C02ABC469009693E803003B
:204DC00042462B46A047041C08D1584638704A4633213B467D7061201DF01AFB38461CF035
:204DE00049FE1CB90DE2102400E0032408A85946022216F0F3FF8DF82040332108ABFCE139
:204E000068B1806A58B104A9204620F015F9F06A826A04AF97E803009047014600E059463D
:204E200002A820F0AFFE32210422D8E160B1806950B1204602A920F0FFF8F06A826902AFD0
:204E400097E80300904700E003208DF83A0031210DF13A03ABE101258DF83B5010B30069BC
:204E600000B3204602A920F0E7F8042120F032FB5FEA000814D015F0A3F8F46A071C14D0E3
:204E80005946424616F0AAFF246902A803C842463B46A0478DF83B0038461CF0EBFD04E034
:204EA000052000E003208DF83B0030210DF13B032A46A3E1E41C8DF83CB0204621F0B0FBF6
:204EC000A846092D064609D0A01C21F0A9FB0746201D21F0A5FBA41D054602E0A778E57873
:204EE000241D242E03D12088352606AC069030461FF006FA7919884216DB27B93046294669
:204F000022461FF081FA30462946224621F00CFC30B9012E0BD1E22021461CF04BFF04E0A2
:204F20000A2002E0D4DB002002208DF83C0041460FAB3CE1671B01200C8802002646F61C9E
:204F4000304621F06DFBA9468046B8F1240F46D021F05EF80446082D08BFB67803D0B01C41
:204F600021F05EFB064640461FF0CAF986422BDA5CBB801B85B2F82DA8BFF725A81C5FFAA8
:204F800080FA504615F01CF8071C1BD0B81C59462A4616F023FFBB1C404631462A4621F07A
:204FA000FFF848B958463870524649463B467D7061201DF02DFA00E00A2438461CF05AFD7A
:204FC0001CB91EE1102400E002240AA85946022216F004FF8DF8284049460AAB0DE13520D1
:204FE0005946042207AB21F0DBF838B9BDF81C20584602210425ADF8262002E001205946FD
:2050000002258DF824008DF8251009AB08214FE7E01C21F005FB242802D01FF071F900E06F
:2050200058468DF82C00001213210BAB8DF82D00E3E0E01C21F0F4FA0546601D21F0F0FAF2
:205040000146242D03D0284621F0EBFB00E058468DF83F0012210DF13F03A8E0E078211DAD
:2050600070B1401E0AD10878012805D020B1522010A91FF005FC08E0522002E0022002E00C
:20508000E0201CF097FE8DF840000F2110AB8EE041460125087814F8031F8DF842500429B2
:2050A000A8BF022003DA37F8111019F03BFD8DF842000B210DF14203FAE6E41C207804281F
:2050C000A8BF02200ADA601C21F0AAFA267841460246087837F8161021F0EEFB8DF843002E
:2050E0000A210DF1430362E0E01C21F099FA0646601D21F095FAE779E51C0146242E19D013
:20510000B94205F1050510DD30465A4621F006FB8DF844009DF8440009280ED16FB1304637
:2051200039462A4621F000FB07E030462A4621F0F5FA00E058468DF84400072111AB36E066
:205140000127E41CE2208DF8457021461CF032FE30B938460821224621F0E6FA8DF8450095
:2051600003210DF14503FBE5E078284C30B1401E47D121F031FA01202060FEE721F02CFAC9
:2051800001202060FEE74FF0020B3AE094F903001F4F8DF83D003868D0F830240DF13D016B
:2051A000E020904714210DF13E038DF83E00012224E08DF841B00E210DF14103F7E721F0E4
:2051C000EAFA8DF830000C210CAB00128DF8310013E0E22002A91FF053FB0421082202AB91
:2051E0000CE00C4B02210A2208E05920062701218DF834000DAB8DF83570022261201DF020
:2052000007F9584613B0BDE8F08FC0467C05204314010020C0870200D249D14A03462DE90C
:20522000F04301F108009D78177800680024ADF1440D2A46402A2ADC402A00F0DE81202A3F
:2052400014DC202A00F010820A2A45D9103A00F03282521E00F02582D21E00F01982521E60
:2052600000F00F82501E00F0048263E1B2F1210000F0F481401E00F0EB81401E00F0DE81F5
:20528000401E00F0D481401E00F0C98152E14A2A11DC4A2A00F08E81413A00F0A381D21E4D
:2052A00000F09C81521E30D0D21E00F08B81521E00F084813EE1B2F14B0000F06881801E9C
:2052C00000F06181163800F04F81401E00F039817C3800F031812DE1121E00F0CE80521EA4
:2052E00070D0521E00F02A82521E00F01582521E00F00282521E00F0F281521E41D0D21E43
:2053000000F0DE81521E1DD014E1184606A9C01C20F05EFB2E468DF81E0048B99DF81800D5
:20532000BDF818708DF81F0038128DF8200005E00DF11F00FF21022216F050FD03220DF1E1
:205340001E031CE0DB1C5F782E460D4638B9684620F058FF012069460DF0B4FCA8603FB120
:20536000052F03D064211DF083FD03E0012129701DF012F88DF836400DF13603012235468F
:20538000EFE118468DF83740C71C384621F048F9BF782E46C0F304213FB9052903D04FF66F
:2053A000FF7181420BD1204607E0052903D04FF6FF71814203D14FF0FF30D64908600DF151
:2053C0003703DBE7202014F0FBFD061C00F0CD81FF21202216F002FD731C0120214608228D
:2053E00020F0DEFE751C071C18BF01272146042205AB842020F0D4FE083560B99DF8170049
:2054000028709DF8160068709DF81500A8709DF81400E87001E047F002078320214602225F
:2054200007AB20F0BDFE2D1D38B99DF81C002870BDF81C000012687001E047F00407ED1C84
:205440006120214601226B1E20F0AAFE08B147F008072146102262202B4620F0A1FE08B10D
:2054600047F01007012120223346672037701CF0CFFF30461CF0FEFA77E1264637F0010093
:205480008DF83C600AD10FA818F070FF9DF83C1080460E2000EB4100C7B201E0A0460E276C
:2054A000384614F08DFD5FEA00093DD0054621460822012005F8016B2B4620F071FE21F01A
:2054C0007FF80835072305F8010B001205F8010BA84A05F8013B1078A74905F8010B4B785B
:2054E00033F0010316D19DF83C0028709DF83C308BB141466D1C20469DF83C2082420ADDE6
:205500000A782A7031F8022B401CC0B212126A70AD1CF1E72E70672021463A464B461CF003
:2055200077FF48461CF0A6FAB8F1000F00F01D8146469EE7022418E122464720E02113461C
:2055400011E11846C11C4A7A087A00EB02208A7A8DF82E400EF0D8FD0DF12E0300E1C046EB
:20556000E5040120CCE8002018468DF82F400822C01C0146684620F011FB68461AF0A0F894
:205580000DF12F03ECE018460FF0C0FCEDE0D91C6846082220F002FB8DF80840CDF80CD0E1
:2055A00002208DF8090002A816F022F80CAB8DF83000D5E018461CF049FFD6E018461FF07B
:2055C00072FAD2E0DE1C307871781FF069F80222307000127070294630466FE0184612F068
:2055E000F3FFC2E0D81C21F01BF8ADF80200684616F02EFC01AE0822EDE7D91C01A8082205
:2056000020F0CCFA684618F073FBBDF802000DF122038DF8220000128DF8230016E0F5204A
:205620008DF827400DF126038DF826000EE0F52011460DF131038DF831003AE0F520FF2715
:205640008DF82A000DF12A038DF82B70022288E0F5200DF132038DF8320081E0F5200DF151
:2056600033038DF833007BE0F5200DAB8DF8340076E068462146092216F0B0FB16210922B2
:205680000DE068462146062216F0A8FB152105E068462146062216F0A1FB142106226E462C
:2056A0009AE7D8781CF02CFF11210DF135038DF83500012256E01A78D81C1021034651E036
:2056C00021F0BCFA054620F057FF2C496843B0FBF1F1684620F056FA09210422DFE7DE1C87
:2056E00062201EF00DFE01463246622021F01CF80EAB8DF8380033E0DE1C61201EF000FE99
:2057000001463246612021F00FF80DF139038DF8390025E0900A0120D81C04211FF0DAFE79
:20572000049084201EF0ECFD014604AA842020F0FBFF0DF13A038DF83A0011E0D81C20F0A8
:205740006FFFADF81A0083201EF0DAFD01460DF11A02832020F0E8FF0DF13B038DF83B009D
:205760000122294667201CF053FE204611B0BDE8F083C046C4030120E404012040420F00EC
:205780002DE9F04FCF48D04CDFF840830F46390CADF1240D80F06582790927D30023037015
:2057A000D7494370184620F065FFD649012020F061FFD549062020F05DFFD449072020F090
:2057C00059FFD849082020F055FF0522D6498DF80C300DF10D0020F0E1F94120802106229E
:2057E00003AB1CF015FE87F0100044E2B80828BF87F0020080F03F822068390931D217F406
:20580000706F08BF002000F03682380B04D3002020F008FC87F40067F80A04D3012020F0E0
:2058200001FC87F48067B80A04D3022020F0FAFB87F40077780A04D3032020F0F3FB87F462
:205840008077384617E22168884205D0016829601CF010F9286804E0016821601CF00AF93E
:20586000206808BB606858B1C27EC17E521E491ED6B2C17626B960681CF0FCF80020606070
:205880002668002E08BF00280BD04446207808214FF47A7221F010F818B12078082119F05C
:2058A000D7FB87F00800E6E1017B491E0173C9B20029C8D005460068D3E70546D9F8046050
:2058C00028781A280EDC1A2854D0401E00F06C81401E00F02B81801E00F0B581801E00F00F
:2058E0001781BBE1243800F0A881AD3800F09E81801E03D02A3800F08B81AFE1A87C09304F
:20590000C0B2804614F05CFB061C00F0A781A97800F8011B6988091200F8011B99F80C10B8
:2059200000F8011B99F80E1000F8011BB9F80E10091200F8011B99F8101000F8011B99F83C
:20594000111000F8011B99F8141000F8011BB9F81410091200F8011BAA7CA96920F01EF9E6
:205960004520FF21424633461CF052FD30461CF081F873E1B5F824A0E97B0AF114001FFAFA
:2059800080F820F02BFF002640B9A87B032805D0B8F1F00FD8BF4FF0810B16DD08F10A0013
:2059A0004FF0820B1FFA80F8B8F1FA0F0DDD0AF1100014F005FB061C00F0508106F11000F5
:2059C000A8EB0A0470601FFA84F8404614F0F8FA079020B9002E00F041813046A0E00446B5
:2059E000A87804F8010B6888001204F8010B287904F8010BA888BBF1820F4FEA202004F8EA
:205A0000010B1AD1A87B04F8010BA87B032805D0A8792070E8880012607004E0A91D20462E
:205A2000082220F0BBF8E87B083404F8010B287C04F8010B288A001207E0A87904F8010B52
:205A4000E888001204F8010BE87B04F8010B287D04F8010B687D04F8010BA87D04F8010B8A
:205A6000687E04F8010BE969204620F08BF8241DBBF1820F04D0002004F8010B504606E0F7
:205A8000002004F8010B04F801AB4FEA2A2004F8010B0E480078DEB10B4909680A4B3160A3
:205AA0004FF47A721E6008210F23337320F004FF20B106480078082119F0CAFAE869B06037
:205AC000706807E088040120FC0A0120671B012020465444A96A524620F060F895F82C00C6
:205AE00004F8010BA88D5FFA88F85946001204F8010B95F82E00079E2070442032E7C04664
:205B0000D1E3010093350200351902004D370200A878401DC0B214F053FA002800F09E80BA
:205B2000064623E785280200C087020029790B2000EB4100C0B21FF009FA002800F08E8074
:205B4000A9782E798DF80010EC788DF802608DF801400DF10301FEB1AA792C79EE880A706E
:205B6000022C4FEA26218DF804100DF1050113DB2A7A2C792E890A70032C4FEA26218DF83E
:205B800006100DF1070107D1AA7A6E890A7031128DF808100DF109012A7BAE890A703212FA
:205BA0004A701FF0D9FA59E0002E57D070788DF81500B0788DF816003078FA2819DC9DF822
:205BC000150000F01E00162811DA2C499DF815000D4600F01F00820050194068091D30B15E
:205BE0008958304688478DF8140028B9BEE6012000E004208DF814009DF8150020F01F00CA
:205C000020287FF4B3AE60200021032205ABABE66878AE78EC788DF8180006AB8DF81960AB
:205C200003228DF81A404420802103E06B1C4520C02101221CF0ECFB10E0F0783346401D67
:205C4000C2B26920F0E7F078401DC4B2A11E701CC9B220F0E7F8A41904F8010C48461FF01D
:205C60007BFA0748007819F0C5F95FEA00097FF424AE87F4004009B0BDE8F08F8804012045
:205C8000671B01202DE9FC47D44C0F460646F80B80F00C826078B90F80F0AC81B90880F0D8
:205CA0009F81DFF84C83F90A80F00281390B80F0CC80380907D2F80FC0F02E8227F08047C9
:205CC00017F05CFD28E220F035FE81461FF084FA002800F0B480082020F0C0FC002840F02B
:205CE000AE80802020F0BAFC002840F0A880684613F040FA012803D10098002800F09F80D9
:205D000094F84102002840F09A8000250126E8B220F0E2F948B1837A3BB1867290F9090005
:205D200006FA00F0C0B21DF0DFF96D1C032DEED3032084F8240004F5CE7020F0F5FD484618
:205D400020F078FFC34800252A460168056050F8081CD44940F8085C04F160001FF04BF981
:205D600040460068006B8047A168401A010BE06AC1F1FF3282422CBF08444FF0FF30E062BC
:205D800094F8300020B12069E16AB1EBC02F25D91FF032FA294600B13146081C1BD0C2482E
:205DA00040F6090101804580417B06F00F0221F00F010A434273017B05F00F0321F00F01D3
:205DC00043EA010202732946416020F0F5FA418811F4406FFBD084F83060E5621AF0D2FF99
:205DE000D1482946056002201EF038FF02201DF03DFD112011F036F8207818B960685030D5
:205E000020F0AEFDC948007810B90E2011F02AF894F8310020B184F8315005201DF026FD44
:205E2000C348A06284F82450B4F9B400B4F9B610884214BF0220072015F0C2F802E048467C
:205E400020F0F8FE27F008073AE720B104201DF00DFD0020607065681CF0C0FD38B128460C
:205E60002D6A6FF4807100224FF00073A847E06858B140460068006B8047E2686168801A56
:205E8000C860000BC8600026E660AA4904F1600000221FF0B0F80221D4F8A00084F82410DB
:205EA00018B104F1E00020F063FD27F4006707E720F040FD06461FF08FF9D4F89810002898
:205EC000894600F08480002900F081809A49042504F16000002284F824501FF08CF8304669
:205EE00020F0A8FE04F5CE7020F01EFD40460068006B8047E0604FF0010884F80180284677
:205F00001DF0CCFCD9F810006060D9F81000816AC90803D3436A294600229847404618F0ED
:205F200031FE606880F81980606811F0BBF86568D5F808A040F60A02D01F564600F1010CD0
:205F400000E01E46736833B119888A4203D0884218BF8C45F5D100217160727B08F00F03DD
:205F600022F00F0213437373D9F80C201288904224D06046904221D02B8F03B3E96305F14A
:205F80003802518095F8440001F00F0320F00F00034385F8443095F8450008F00F0320F0E0
:205FA0000F00034385F845307260707B01F00F0520F00F0045EA0001717300E0E1605046EE
:205FC00020F0FAF9514640461EF048FE02E0304620F030FE27F480679EE0C04668F20020B7
:205FE0000AF036F8D4F8A00008B927F0020793E08C010010514A116841F08001116020B114
:2060000004201DF033FC0020607020F093FC80464B480068016804208847216A81421BD13A
:20602000357ECDB1A568BDB1D4F8A8506DB1E968098840F60300884204D0E9680988401CDB
:20604000884202D106F1140001E006F110001BF071FD06E01410044040F6C411316171617A
:206060002062404620F0E6FD1CF0B8FC80B1356A30466FF4807100224FF00073A847D4F83C
:206080009800002808BF47F0020701D017F076FBF569002130464FF080630A46A84727F083
:2060A000005739E0ADF00100601A012020F042FCD4F8B06066B306F1280106C90A234FF099
:2060C000E0450B40154008BF002B21D106F1280191E8000306F1280595E8060006F12803B2
:2060E00022EA090221EA080183E8060020F0A2FDB16879B1B9F1000F08BFB8F1000F09D001
:206100003069B6F93010B5684B464246A84701E020F090FD27F4804727B104F1E000394646
:2061200020F026FCBDE8FC870000046086870200B546010035380100B9510200CC210840E7
:20614000E00100102DE9F04FADF17C0D1B91C0491C923CC9064610A83CC00EC980E80E001D
:2061600000248DF84240327F8DF84340B08D8DF84D40D6F828C0ADF844401746ADF85A00B1
:20618000F0898DF854706146ADF84A00087800F00303022B8DF8400000F3FD8123461D93B5
:2061A000491C1E9343083CD200F00C0EBEF10C0F0CD043093CBF11F8013B8DF84230BEF18E
:2061C000080F04BF01238DF84C3001D08DF84C40BEF10C0F0AD0737903F00303012B0CD14C
:2061E00040F00C0073898DF8400004E04D780B78891C03EB0523ADF84430430911D24D78AE
:206200000B78891C03EB0523ADF846300B784D78891C03EB0523ADF8483011F8013B8DF83B
:20622000433011F8013B30F07F058DF855301ED00B7833F003058DF8413040F0A88103F01A
:20624000030EBEF1030F00F0A28113F0030F01F101010ED011F8013B00F00305022D8DF881
:20626000573004BF11F8013B8DF8583001E08DF841401491A1EB0C017F1AFFB2BA42C0F265
:206280008681D21B8DF85470D1B28DF84D100F4300F08181C10907D370891BF08BFB0028C2
:2062A00040F079819DF8400000F00C012746091F08BF0127820932D301221E9279B3B28994
:2062C00020F07EF9904202D1F08D000A0DD220F077F9904221D0F18D080A38BF101C07D35C
:2062E0009DF8400000F003032DE07089ADF85A20804620F065F9BDF85A10884205D0404636
:2063000019F09BFC002800F04681A448026810A940469047002840F03E819DF84000F18D28
:2063200000F003030A0A0ED2C2090CD39DF8412012F0030F07D100F00C020C2A03D0082AAE
:206340001CBF01221D92DFF86082022B00F00081012B00F0CE8010F0030F40F01C81904818
:2063600090F82F00012803D1B579002D00F013819DF8540002221A900B0A9DF84240BDF8F2
:2063800046B0BDF848A09DF855E09DF857C0DDF850908DF86420B0899DF84350ADF85C00D4
:2063A00075D2454605F11C021468002F52D11D9F17B110A913F0ABFA7A484178022936D197
:2063C0000078012833D1B07C002830D070891BF0F1FA022801D0707948B37449B2893C20A2
:2063E0008B1F33F8064F944204D19C78F77CBC4200F0D180401EF4D16878891F3C234FF6B3
:20640000FE7731F8064FA74202D05B1EF9D1C2E00A80F27C8A700C228A8004211BF00AFB8A
:2064200028B9687804214FF4FA7220F045FAF07C1E9F00901C9D0197594C0295B07C1B9B50
:206440000390B4F8482017A910A811F02FFDA2E068850200307C002C8DF8560000F09B80C1
:2064600020F0AEF8BDF85C20904240F0948030791E9F00901C9D01971B9A02951D9B039140
:2064800096F8300010A9049017A8A04783E08DF820208DF822508DF82340ADF83010708966
:2064A000ADF818008DF835E0ADF826B0ADF828A0CDF82C901A9B8DF836C0327CADF82A303F
:2064C00035798DF83220B47C8DF8335096F832108DF83440324F8DF83810B7F84800ADF84C
:2064E000240096F830708DF8377006A805F08AFD51E01D9FB58937B1080A04D2284610A9D2
:2065000013F005FAB5899DF85400B6791030C0B21EF01CFD071C3ED07D81022038703E73A0
:206520007C709DF854203A7207F110057D609DF84000800928BF01247C72149978681FF0DC
:206540002DFB45466D1C287839461AF04BF922E09DF84100B189454624352B6810F0030FF7
:2065600010D110A807901248ADF8181006A91DF0FDFA80B1062141730068407B21461AF071
:206580001DFE08E03BB110A82246984703E08DF84D408DF854401FB0BDE8F08FC40801201F
:2065A00050010120E4040120E0060120340300201B0602002DE9F04F4FF0FF084146ADF11F
:2065C0004C0D0E910F914FF0000910914E46089609960A96AD4C0B9604F1300B0C96E06815
:2065E0000D96494611919EE0E068710306AA042320F0CCF8119903AA30461FF01BF802AA47
:20660000304601211FF016F83046022101AA1FF011F8069800F0FF0028709DF81900069FF1
:206620006870C7F30140E8709DF80E30AB702878FF2834D0BDF80C70FE2830D04FF6FF706B
:20664000B8422AD107A81BF03DFFE06871034FF088524FF4005320F099F8BA484FF40057A7
:2066600050F8041D3F1FBFB2B1F1FF3F07F1885201D1032FF4D810684FF0010A514600F017
:20668000FF03FF2B18BF8A46491C000A0529F6DB106007981FF06AFA5744EF8001E010201C
:2066A000E8809DF80A00BDF8087028719DF806302F81BDF804206B7129786A81E068FF29E1
:2066C0002AD0FE2922D07E291AD07C2912D078290BD0702904D00D99491CC9B20D9120E082
:2066E0000C99491CC9B20C911BE00B99491CC9B20B9116E00A990F96491CC9B20A9110E0B4
:2067000009990E96491CC9B209910AE00899B046491CC9B2089104E009F1010710965FFADA
:2067200087F9761CF6B2E578B54200F323810D9F002F38D10898022835DA0C98022832DA1D
:20674000099802282FDA4D452BD00C98C0B90898A0B90B980A99084325D01EF019F8854256
:2067600019DCB9F1000F14D094F83200FE211DF01DF8E5780120DDF8408015E0012013E06C
:20678000089860B9B9F1000F07D11EF001F8854201DC062008E0032006E00220EBE70220D7
:2067A00002E0119800E004200028A07000F0CC80401E49D0401E00F0AA80401E06D0401E55
:2067C00000F09880801E00F094800EE11DF0E0FF05460C2084F83C5015FB00B0817E84F87A
:2067E0003D10C07E84F83E000EF030FAE2782D1895FBF2F050432D1AE8B284F83200401C9D
:2068000090FBF2F15143401A84F831007C201CF0C9F8FF2810D17E201CF0C4F8FF280BD195
:20682000FF201CF0BFF8FF2806D178201CF0BAF8FF2808BF94F8310084F833000C2110FB90
:2068400001B0808BE0868FE00F9F08F1010090FBF5F184F832806943FF2FA0EB0100C1B287
:2068600084F8311014D10E98FF2804D10C200E9111FB00B004E00146880000EBC100584452
:2068800084F83310808BE086AFE0C046C01900203A46D0B2910084F8330001EBC2015944AC
:2068A000898B1729E18640F2A080C91F01AA89B212F058F99DF80F00C0083FD3119F0097E5
:2068C000BDF81220E18E94F833000323891AC91F01AA89B209F012FB002840F08680BDF8F3
:2068E0001010002900F081809DF8140019F054FF7BE0FEE7119EB54226DD304610F052FAAE
:206900006178E578761CF6B201436170F3E708F1010084F8328090FBF5F16943401A84F8FD
:2069200031005FFA88F010F03DFA6070FE215FFA88F01CF03BFF012084F83500119801F0AC
