:1000000000200120F54E0200916C0200916C02006C
:10001000916C0200916C0200916C0200916C0200E4
:10002000916C0200916C0200916C0200916C0200D4
:0C003000916C0200916C020071F4000061
:10003C002DE9F04F99B0054680780224532800F240
:10004C00C785DFE810F054009900A800B800C8007C
:10005C00DA00EA000C011B01C5052A01380159011F
:10006C00C505C505C505C505C505C505C505C50534
:10007C00C505C505C505C505C505C505C505C50524
:10008C00C505C505C505650188019401A001AB0135
:10009C00BA01D401EB0107023A02C505C505C50535
:1000AC00C505C505C505600276028C02A202B80220
:1000BC00CD02DE020303C505C505C505C505C5058D
:1000CC00C50538034C036003C5056D037703950321
:1000DC009E03AA03B603C503CF03F2030F04340433
:1000EC003C044E045B0467048B0492049504EC1CE2
:1000FC00E97A2A7B002320461EF094F88DF818002C
:10010C0006AB65200021012222F0B2FADFF8180BB1
:10011C000078012800F25B85204629F0ACFC002811
:10012C0000F0558505460079012840F0508529F0EE
:10013C0035FA00274FF400018DF83F008DF8380098
:10014C00000ACDF83A108DF841708DF83E708DF89C
:10015C0040008DF839000EAE214606F10A0029F058
:10016C0008FD297815223346017069788770417033
:10017C004520FF2100F029BD29F0ADFC6979AA7951
:10018C000023002425F0FCF98DF838000EAB652017
:10019C00012100F053BC29F043FA29F0B9FB0146C8
:1001AC000EA8022229F043FC8DF8180006AB65203E
:1001BC00022100F043BC29F033FA29F0A9FB0146D7
:1001CC000EA8032229F033FC8DF8180006AB65202D
:1001DC00032100F033BC29F023FA29F099FBEA79CA
:1001EC0001460EA80023002427F058F88DF81800BB
:1001FC0006AB6520042100F021BC29F011FA29F08E
:10020C0087FB01460EA8052229F011FC8DF8180079
:10021C0006AB6520052100F011BC0020DFF8304A48
:10022C0029F0E0F8ADF85800681DA0478046E81D9D
:10023C00A04795F809B0824605F10A07BBF1100FEB
:10024C0000F2AE830EAC5E46002E00F0AC83384656
:10025C0029F0E0FC24F8020B013E0237F4E729F008
:10026C00DFF929F055FB01460EA8102229F0DFFB1F
:10027C008DF8180006AB65200721DFE329F0D0F9D3
:10028C0029F046FB01460EA8112229F0D0FB8DF86F
:10029C00180006AB65200821D0E329F01CFC6A7B12
:1002AC00691D0023002423F01FFE8DF838000EABCF
:1002BC0065200A21C2E302208DF8200029F00BFCF6
:1002CC00ADF81800681D29F0A5FCEA79064605F181
:1002DC0008018DF838200EAF781C28F053FF06A8C3
:1002EC0031463A460023002420F084FB8DF8580058
:1002FC0016AB65200B21A1E329F0EDFB00210024B6
:10030C0023F048F88DF838000EAB65200C2195E3EE
:10031C000020DFF83C4929F065F8ADF85800681D5D
:10032C00A047804695F80F9005F11000A04705F105
:10033C001304AD7C83460F2D00F247830EAE2F467F
:10034C00002F00F04583204629F064FC26F8020BB0
:10035C00013F0234F4E729F063F929F04AF828F058
:10036C0001FF40F0468306A829F003FC46E329F080
:10037C0057F929F03EF828F0F5FE40F04D8306A819
:10038C0029F0F7FB4DE329F0A6FB29F09EFA8DF836
:10039C0038000EAB6520232100F016BCDFF888185E
:1003AC00C8208DF81800E81C0978002900F081831A
:1003BC0028F065FB8DF81800A3E36879EE1CFE2885
:1003CC000BD1A879FF2808D12878082805D3304606
:1003DC0029F020FC314625F0FBFA0EA9304628F016
:1003EC0043F8002800F09183054600249FE3E81CA5
:1003FC00042126F08DF8E97929F02EFCDFF8441859
:10040C008DF83800022028F063FCDFF83C1803203C
:10041C0028F05EFC0EAB65202621D5E329F055FBB8
:10042C00044605F10E0029F0F5FB297C6A7C034695
:10043C00E878CDE90012AA1D214625F053FDDFF81E
:10044C0000188DF83800042028F042FC0EAB652013
:10045C002721B9E34FF00208E81C8DF8408029F001
:10046C00D9FBADF8380068798DF85800A81D29F033
:10047C00D1FB2E7A044600270935CDE9005716A882
:10048C000EA92246334621F0C7F829F0E7F810D11F
:10049C00DFF890078DF84080CDE9005722463346AF
:1004AC00C08AADF8380016A80EA921F0B5F88DF861
:1004BC00180006AB6520282186E30226E81C8DF87F
:1004CC00406029F0A7FB29F023FAED7904460EA829
:1004DC00002321462A4627F069FE29F0BFF80ED1E9
:1004EC00DFF840078DF8406021462A460023C08A79
:1004FC00ADF838000EA827F059FE8DF8180006ABA1
:10050C006520292160E329F08BF8ADF83800681DCF
:10051C00042125F0FDFF6A7AAB7A00240146009491
:10052C000EA825F00BFD8DF8180006AB65203021C8
:10053C0084E229F075F829F0CDF9312201238DF8E8
:10054C00580016A8CDE90004DFF8F0060EA921F03A
:10055C0063F88DF8180006AB652031216EE229F0A6
:10056C005FF829F0B7F9322201238DF8580016A84C
:10057C00CDE90004DFF8C4060EA921F04DF88DF882
:10058C00180006AB6520322158E229F049F829F011
:10059C00A1F9332201238DF8580016A8CDE90004E7
:1005AC00DFF898060EA921F037F88DF8180006AB85
:1005BC006520332142E229F033F8ADF83800687B2E
:1005CC000024691D0094C0F3400200F001030EA842
:1005DC0022F0C2FE8DF8180006AB652034212DE206
:1005EC0029F01EF86A7BADF83800691D0EA80023AF
:1005FC00002426F0F3F98DF8180006AB65203521A0
:10060C001CE22C4614F8030B04281ABFE8782C1DA6
:10061C0002208DF84000204629F0FCFADFF818661D
:10062C00A5780121E278ADF8380000230024317060
:10063C000EA829461EF066FE8DF818002846347068
:10064C0026F008FA06AB65203621F7E129F043FACB
:10065C00ADF83800687904218DF84000A81D25F00C
:10066C0057FF0446AE7AEF7A05F10C0029F0D2FA66
:10067C00DFF8B0850546214632463B4628F08FFE12
:10068C000EA820F0A5FF28F0E9FF10D1022021468A
:10069C0032463B468DF84000B8F81600ADF83800ED
:1006AC0028F07DFE0EA820F093FF8DF8180006AB05
:1006BC006520372188E26C7829F00DFA0146DFF8C5
:1006CC007405007820F070F98DF8380004F0E00023
:1006DC00202840F07C820EAB65203E2174E26C78C1
:1006EC0029F0F9F90146DFF84C05007821F07CFC83
:1006FC008DF8380004F0E000202840F068820EAB42
:10070C0065203F2160E200206C788DF83800DFF81E
:10071C0018050078411E022980F09481022095E191
:10072C0029F0D9F929F0D1F88DF838000EAB6520F5
:10073C00422149E2002006908DF83D00CDF83900A9
:10074C00E81C06A926F0BCFD8DF83800069850B1BF
:10075C0028F02CFE81788DF83B10C1788DF83C1078
:10076C0000798DF83D000EAB6520432106222CE26A
:10077C00E81C28F084F98DF838000EAB6520442174
:10078C0022E229F0A8F96979AA790DF0BBFF8DF85E
:10079C0038000EAB6520452116E229F09CF96979E9
:1007AC00AA791AF08FFC8DF838000EAB6520462123
:1007BC000AE2EC7829F089F90146204622F080FE05
:1007CC00B0FA80F0472140098DF838000EABC1E13A
:1007DC00E87800248DF8384023F0F6FB0EAB65204A
:1007EC0047212BE1E8780EA926F08EFD06468DF800
:1007FC00180040000130C5B2284629F00FFA002835
:10080C0000F0A381044600F8016B00219DF818202C
:10081C00914280F0BE809DF83830013100F8023BE7
:10082C009DF8393000F8013CF2E70EAC132120465C
:10083C0028F044FBEE7829F048F90146304626F0C2
:10084C0031F9002800F088810021231D8DF8381023
:10085C0028F0ACFDC11C827818468DF83B2028F09E
:10086C0091FC7CE10020EC78CDF84600CDF84200FC
:10087C00CDF83E00CDF83A0029F027F9AA79ADF869
:10088C0038000F2A28BF0F228DF83A2022B10EA86B
:10089C00E91D033028F076FC0EA9204601221CF03D
:1008AC00CBFF8DF8180006AB65204B218CE128F0AE
:1008BC0069FA8DF838000EAB65204C2184E1E8789C
:1008CC0029798DF838100EA9032800F05F810228D1
:1008DC0000F06281012840F06681522021F0C8FBB3
:1008EC0064E129F0F8F869790246A81D1BF054FA66
:1008FC008DF838000EAB65204E2165E129F0EBF840
:10090C000146687919F05AFF8DF838000EAB652056
:10091C004F2159E1C34D0822E88A05F13901ADF8A0
:10092C003800C24800788DF83A00A88CADF83B002E
:10093C00688BADF83D000EACE01D28F023FC04F1F3
:10094C000F0005F11C01082228F01CFC287E502108
:10095C00182223468DF84F00652036E1B248007806
:10096C00002800F0018112200AE120F07DFD2EE12B
:10097C0000208DF83800E878010606D5A94910F05A
:10098C007F0018BF012081F868000EAB6520532151
:10099C001AE1652049212A46234621F069FE39E1F6
:1009AC0080208DF863003E78102E52D80DF1180976
:1009BC00013734464D46002C4DD0384629F02AF9E3
:1009CC0025F8020B013C0237F5E780208DF8630017
:1009DC0027780F2F54D801340DF1180A3E46002EFB
:1009EC0050D0204629F016F92AF8020B013E0234A9
:1009FC00F5E7084629F00EF9ADF81800687E06A94F
:100A0C0028F0B8FB0EA921201BF018FB8DF858001C
:100A1C0016AB6520212111E0084629F0FBF8ADF852
:100A2C001800687E06A928F0A5FB0EA922201BF051
:100A3C0005FB8DF8580016AB65202221012221F010
:100A4C0017FEC5E0002840F0B580042008F002FE37
:100A5C00B3E080200DE0BBF1100F0CD80EA90020E4
:100A6C0052465B468DE84202039016A8414615F0AB
:100A7C0009FA8DF863000DF1630365200621A3E0EC
:100A8C0080200FE00F2D0FD80EA9002002974A46A8
:100A9C005B46CDE9005106A9CDE9031016A84146E5
:100AAC0015F098F98DF863000DF163036520202192
:100ABC008AE016A90EAD2A4618F076FD04469DF87C
:100ACC005800F0B1614904EB4400002641F8206065
:100ADC0001EB800046609DF94B00B0F1FF3F03DC59
:100AEC0005F1130022F07CFF0EAD1421284628F0EE
:100AFC00E5F90420214614222B4625F05BFC8DF8E9
:100B0C00186006AB652024215EE0182029F086F8D9
:100B1C00002800F083800446BDF83800002118221C
:100B2C00234628F0B1F90546002818BFC82519201E
:100B3C0029F074F8002867D007460130002D4BD0FF
:100B4C001821FF2228F0B4F950E0002049218DF83B
:100B5C00180006AB652037E001208DF838000EAB8D
:100B6C0065204A21132230E028F0B5FF044605F138
:100B7C000D0029F04FF80246691D204625F0F4F9C6
:100B8C008DF838000EAB652051211DE0522021F06C
:100B9C006FFA2748002104E0522021F069FA24481A
:100BAC000121017002E0522025F036FA0EAB6520CF
:100BBC004D2109E001208DF8380004F0E0002028D8
:100BCC0005D10EAB65204021012221F051FD0024FE
:100BDC00204619B0BDE8F08F3146082228F0D2FA31
:100BEC0007F109002146102228F0CCFA65202521B6
:100BFC0019223B463D7021F03BFD3846192128F067
:100C0C005DF9384629F008F8002CE0D02046182170
:100C1C0028F054F9204628F0FFFFD8E7C825FFF745
:100C2C00E4BB00BF407B002018260020C426002017
:100C3C00D527002096880020952700207C260020B0
:100C4C0059680200CD6D0200494E0100804300201E
:100C5C00219C02002DE9F04F99B080466FF00700FF
:100C6C00DFF8DCA80630ADF852009AF80000022834
:100C7C0014D1DFF8C808007880B9B8F8080010B1B2
:100C8C001020012101E0302000210AF03FFE00205D
:100C9C008DF81C0007A9522021F0EAF90DF11C096E
:100CAC0098F80810D8F804004A4610F001FAE8B198
:100CBC009DF81E609DF81F409DF82050BDF82670D1
:100CCC0028F066FC844211D127F003004FF6F8712E
:100CDC0080B288420AD0012D08D8022E06D29AF88A
:100CEC000000022808D19DF84D0028B1D32016F041
:100CFC000AF819B0BDE8F08FB8F82800ADF8480034
:100D0C00B8F83200ADF82A009DF82200D0B1D8F81E
:100D1C0004109DF81D209DF83830012027F0E4F9CF
:100D2C0008B1CF20E3E7DFF81C08C078012809D10F
:100D3C00B8F8280028F04BFE20B1417901F0E7010A
:100D4C00083141719DF8210068B1BDF82610FF20D3
:100D5C0025F0A8FE9DF82110E0B141F001012C26F0
:100D6C008DF8211017E09DF83900002800F0EB8079
:100D7C009DF83D10FF2902D0002940F02681DFF8B4
:100D8C00C807BDF82620C18A8A4240F0278101207D
:100D9C00222607E0082601F00300012808BF46F0D0
:100DAC00110601209AF800104FF6F877012908D89F
:100DBC003446B20758BF64F07F04002808BF34469D
:100DCC0000E034469DF82200DFF87C575FFA84FB84
:100DDC0030B9E87A20B10BF02200222840F0808054
:100DEC001BF0400004901CD0012903D8A87B80077D
:100DFC0000F1D880119801780C2900F2DB800122D7
:100E0C0041F298438A401A4200F0D480032902D15F
:100E1C0040780D2805D007A822F036F901283FF4B8
:100E2C0068AFA88CB8F8441081420AD198F84620D3
:100E3C00B8F84210B8F8280000230093002307F0FC
:100E4C00E5FC9DF82200F8B1B8F84210B8F828007B
:100E5C0022F0EAFB002800F08F800646D8F8040048
:100E6C009DF81D10F2780844417B8A421EBF002277
:100E7C007260F1700130042125F04AFB71688842E0
:100E8C00FFF437AF013070609AF80000022834D2BA
:100E9C00A87B80077FF52DAF9DF84D004FF6F876B7
:100EAC0060B1BDF8280027F06BFB002800F007812B
:100EBC00D8F80400417801F0DF0141709DF82E0054
:100ECC00002800F0DF80D8F80400817901398171A5
:100EDC008DF82E1004F07F00090640F0D680D3E088
:100EEC000BF0420042287FF41CAF1198007800F000
:100EFC00FE0006287FF415AF72E77FF4FAAE95F882
:100F0C002600092802D004287FF4F3AE5FEA8B6038
:100F1C0000F19E80049800283FF4EBAE11989DF8E8
:100F2C0038100078042808BF022900F045810728F2
:100F3C0008BF042900F009810C2840F04D8107A856
:100F4C0015F0AEFAD5E6BDF8260022F00DFE0238FB
:100F5C00DFF8F415B0FA80F0CA8A4109BDF8260012
:100F6C00904208BF023100293FD09DF81E20002A74
:100F7C0056D001F1400455E09DF84D00B8B3042063
:100F8C0026F06CF800283FF4B4AE01464FF4B27072
:100F9C000880B8F828004880DFF8B00500781EF00B
:100FAC007DF8A6E611980178A1F10C0212F10C0F54
:100FBC003FF62CAFE88ABDF8262082427FF496AE2D
:100FCC00BDF8280024F02CF990E6109A9DF83C000E
:100FDC0020F060FF30B101200026E3E690F82600F7
:100FEC000428F8D100260020DCE600241AE095F84D
:100FFC006C0001287FF448AF11980078062803D1C3
:10100C00049800287FF440AFF81DBDF82A1080B278
:10101C0081423FF46EAE07A841461EF0FFFA68E627
:10102C0001F1200422F0A0FD0138B0FA80F0400953
:10103C0044EA00069DF81E0000283FF4B2AE119859
:10104C00007827F0F1FA012818BF04F07E06A8E614
:10105C0098F8460028F080F99DF82E00012840F001
:10106C00B480B8F82800BDF82810814240F0AD805B
:10107C00BDF8260022F078FD022804BF00208DF870
:10108C002E00A2E004F07F000446210702D44FF0AA
:10109C00000A34E0E1B24A0722D4C9069DF82110B7
:1010AC0028D5C1F3820212B1072A18BF013A002ACF
:1010BC0008BF044601F0E30040EA820118E0D320A7
:1010CC0015F021FEDFF888040078002800F09F80DE
:1010DC00DFF8801451F82000C0EB0010810098E07C
:1010EC009DF8210000F0E00100F0E30040EAD1019E
:1010FC008DF82110D8F804004FF4805A017295F83D
:10110C002600092801D0042823D1E98ABDF826003D
:10111C0088420AD022F028FD022806D09DF8210032
:10112C0000F0030001287FF4E4AD9DF81E000028B8
:10113C0047D011989DF838100078042808BF022970
:10114C003AD0072848D1042946D107A817F040FF08
:10115C00CFE5E7B214F0610F46D0F80709D0B8F824
:10116C00281007A8A94615F0E3FB002864D004F06A
:10117C009F040025E7B2A00609D598F84600D8F8D8
:10118C003C2028F0E9F807A815A905F04DFC7806D5
:10119C0040F12681B8F8281007A80DF152022B4611
:1011AC0010F002F800286FD005461198007801283D
:1011BC0008BF4AF0100A13E107A9002010F068FFDD
:1011CC0097E598F8460028F0C7F8D8F83C2007A80F
:1011DC0015A905F029FC8CE503287FF48AAD07A836
:1011EC0000210FF0EFFC84E59DF81E0001285AD178
:1011FC0011980078032849D0052854D1B8F8281044
:10120C0007A80DF1520200230FF0CEFF71E5D14873
:10121C000168D1480268BDF82800904701287FF486
:10122C0068ADCE480168BDF828008847CC480168F5
:10123C00BDF8280088475CE526F0E4FA9DF82E10EE
:10124C000546BDF8280019B9B8F82810884291D085
:10125C00B9F81610814204D1BA48807800283FF4BE
:10126C0089AFB8F8281007A82A4609F027FA0028F1
:10127C0000F09B8038074AF0040ABDF8260048BFEE
:10128C00F01DADF8520075E70025A9E0BDF8260069
:10129C0027F076F938B1B8F8281007A80DF15202EA
:1012AC0000230FF081FF9DF82E0088B323F066FD1C
:1012BC0000287FF41EAD9DF83900A0B3109A9DF85C
:1012CC003C009DF83D1020F0E5FD002870D09DF805
:1012DC003D00002875D0109928F042FB9DF8243071
:1012EC00ADF8520011209DF823209DF821104AF0F2
:1012FC00400A002B08BF0920002A18BF083000291B
:10130C0018BF0130D8F804100A5C013A0A5462E0A4
:10131C009DF81E0001287FF47EAE119800780328FA
:10132C003FF4E7AC77E69DF82010BDF826000029C5
:10133C00ADF8520000F0D3804020BDF8261009F122
:10134C001D0200EAC4059DF820002B4618F0C2FDD2
:10135C0038B1D8F804004AF0200A017801F03F01B6
:10136C0001709DF8390048B1BDF8261009F1200034
:10137C0021F06CFE4AF0400AADF852009DF81E00B8
:10138C00012806D0BDF82810BDF82600002214F064
:10139C0085FFBDF82810BDF826002A4612F0BEFBCA
:1013AC00002818BF4AF0200A15E004F0DF04E0E63C
:1013BC00BDF82610BDF828000B2200231AF07AFC89
:1013CC0097E4BDF82600ADF8520028F000FB002889
:1013DC0008BF4AF0400A26F015FA05464FF6F87693
:1013EC00B01DBDF8521080B20F1A5E4818BF2F46C0
:1013FC000078012805D1F01DB8F8321080B2814276
:10140C002FD160B2B0F1FF3F3FF773AC002F3FF428
:10141C0070ACB8F8080028F001FC00283FF469AC67
:10142C00B8F80820D8F80410054627F0ABFE9DF854
:10143C001E10002098F80830B8F8282016908DF867
:10144C005410BDF8521015ACCDE9007ACDE9020468
:10145C00284610F0DDFB70B3284628F0DDFBFFF7C3
:10146C0048BCB8F828108142CBD0701CBDF826209F
:10147C0080B28242C5D2BDF828008142C1D028F08A
:10148C00A6FA0028BDD0017901390129B9D84088C4
:10149C0001218DF85410ADF8600015AD28461EF0F2
:1014AC002DFD0028ADD0281D1DF0F0FC0028A8D083
:1014BC0021F0DAFEA5E72348407800283FF419AC68
:1014CC0000208DF81870ADF81900DDF826004FEAF1
:1014DC003040059005A827F0CDFCFFF70ABC390772
:1014EC003FF52AAF9DF81E1001293FF425AF0021CE
:1014FC0018F0B0FC20B1407901380228FFF41CAF81
:10150C00B8F84410BDF8520022F08EF830B1807853
:10151C0026F0B8FB01380728FFF40EAFBDF8280001
:10152C0027F02EF818B104208DF8200004E7BDF840
:10153C002610BDF8280002223FE700BFD527002067
:10154C0018260020E8250020407B002098880020E9
:10155C00C727002060B70200942300209C230020A2
:10156C0098230020D32700202DE9F0438DB00546A9
:10157C0080780224252800F27380DFE810F0260022
:10158C00A400C400D700EA00F8000601B602B602B7
:10159C001D012E01B602B602B602B602B602460113
:1015AC004B01B602B602540158016101B602B602F3
:1015BC00B602B602B602B602B602B602B6026B01AB
:1015CC006E017101740178017F01DFF8D47500247C
:1015DC000E258DF804403878012807D801A81DF095
:1015EC00EDF804469DF8040005EB4005EEB23046DC
:1015FC0028F014FB002800F087824FF00008054605
:10160C00431C0021082280F80080012027F03CFCBC
:10161C0027F0C4FF6872000A0721A872DFF884055E
:10162C00E972007828733878012800F262829DF8FC
:10163C000420002A6A7300F05E8205F10E0000217E
:10164C002346914280F0578213F8022B013100F8A7
:10165C00022B13F8012C00F8012C9DF80420F0E764
:10166C00A0F140010D291FD8DFE811F00E00100188
:10167C003F023F021E012E013F023F023A0145018B
:10168C00500165013F02740101ACE91C0822201DC8
:10169C0027F078FD204619F0E1FFBDF80600402147
:1016AC00ADF828000AABEEE0632800F069816428ED
:1016BC0000F07681E02840F0188200244720E021D9
:1016CC00002200230FE2202028F0A8FA002800F0C6
:1016DC00C1812021FF22044627F0EAFB631C012074
:1016EC000021082227F0D0FB0546002818BF012551
:1016FC0001AB84200021042227F0C6FB002800F057
:10170C000582023506E2E81C28F084FAADF80400E4
:10171C00832028F09CF9014601AA832028F070F858
:10172C008DF828000AAB6720022190E1E81C042107
:10173C0024F0EEFE0190842028F089F9014601AADC
:10174C00842028F05DF88DF828000AAB672003216F
:10175C007DE1612028F07BF90146EA1C612028F02C
:10176C004FF88DF8040001AB672004216FE1622073
:10177C0028F06DF90146EA1C622028F041F88DF83A
:10178C00040001AB6720052161E100208DF8040005
:10179C00E81C28F03FFA6A7900F4F851002A00F0AE
:1017AC004981B1F5A06F04D04FF6FF71884240F02B
:1017BC004B814FF0FF3045E128F002FA044628F047
:1017CC00FDF9D949604301ACB0FBF1F1204628F09A
:1017DC008EF9672009210422ABE0DFF8B4632D7980
:1017EC00306840B901AC204627F09AFD0120214613
:1017FC000EF028FA3060052D00F06981002D00F004
:10180C006981642122F040F966E115F8032B672009
:10181C0010216EE0E87823F093FD8DF8040001AB05
:10182C006720112113E100246720142102E0002419
:10183C0067201521ADF80840019401AB062252E156
:10184C0000246720162109228DF80C40CDE90144B3
:10185C0001AB48E1F52020210BE0F520212108E027
:10186C00F520222105E04FF6F570232108E0F52044
:10187C0024218DF8040001AB6720E8E0F520252138
:10188C00ADF8040001AB67200222E1E0E81C28F06F
:10189C00C1F9ADF8060001AC204617F055FB231D2D
:1018AC00672041210822D3E0E81C0AA926F0DCFDC0
:1018BC0000288DF8040000F0CF8001A81821FF2229
:1018CC00013027F0F5FAF4E0E81C0AA926F0CCFD6B
:1018DC0000288DF8040000F0F1804FF0FF30EFE0AD
:1018EC0015F8030F697822F0B3F828806720482197
:1018FC0002222B46ACE0E87824F058FF01AC0146FC
:10190C00204618F0E7FC6720492111E0EC1C20462A
:10191C0026F066FA002818BF2046B5F80B1019F00F
:10192C00F1F901AC0146204618F0D4FC67204A219D
:10193C00242223468CE001ACE91C0822204627F027
:10194C0021FC204627F0D8F98DF828000AAB672037
:10195C004B217CE04FF0FF3095F80380691D01901E
:10196C00ADF81000CDE90200FE208DF806002879B4
:10197C0003288DF8300020D10AA828F0FAF821E0CD
:10198C000024E91C08228DF8284001AD284627F0D8
:10199C00F9FB28461DF07AFA0AAB67206321A1E017
:1019AC00B5F80B006A7B0024E91C8DF804400AF0A2
:1019BC0067F801AB6720642194E0084628F02AF907
:1019CC00ADF82800AF7B002F00F0DD807E0095F88D
:1019DC000D90304628F022F9002800F0D48005F153
:1019EC000F013246044627F0CDFB00940AA940466D
:1019FC004A463B460DF0F8F9002800F0BA8083788F
:101A0C0001784278057946798DF806308DF8041006
:101A1C008DF80520C3788DF809608DF808508DF885
:101A2C00073001A98B1D811D40794200184627F013
:101A3C00A9FBA5E0B1F5A06F03D04FF6FF7188426A
:101A4C0002D100205549086001AB67200621012214
:101A5C0020F00EFE002448E0182028F0DFF840B3F8
:101A6C00BDF828100446009006200022182324F00C
:101A7C008BFCB8B9BDF8285001AE21461022701C61
:101A8C0027F080FB444F05EB450506F1110057F894
:101A9C00251028F02CF807EB8500416806F115009D
:101AAC0028F025F82046182127F008FA204628F0BF
:101ABC00B3F801AB672044211922C9E7BDF828000F
:101ACC00ADF8050001AB672045210322C0E7314981
:101ADC0001220A7021F08BF9002467200A218DF86D
:101AEC00044001AB012220F0C3FD20460DB0BDE83F
:101AFC00F08385F80D806720002132462B4620F0BC
:101B0C00B7FD284628F088F87CBBA3E7019800BAFB
:101B1C00C4F809000AAB83200021022227F0B4F993
:101B2C0020B1043506E000BF40420F00BDF828008C
:101B3C00A4F80D0004F10F0361200021012227F00D
:101B4C00A3F9002818BF083504F110036220002106
:101B5C00102227F099F9002818BF1035234625705C
:101B6C0067200121202220F083FD204628F054F824
:101B7C0070E74FF6FF70ADF808006FF480300190FD
:101B8C00204628F049F801AB67204D210E225FE773
:101B9C00248800209227002018830020048800202D
:101BAC0018260020C42600202DE9F04F85B084783B
:101BBC000226362C00F2BE820546DFE814F06C01DA
:101BCC00740172007C017800BB02BB0281003700FB
:101BDC004C008C009F00AD00BB02B5009001BB0215
:101BEC00BB029A01AD01BB01BB02BB02BB02BB0233
:101BFC00BB02BB02BB0237004C00BB02BB02BB02E8
:101C0C00BB02BB02BB02BB02BB02BB02BB02BB02E0
:101C1C00BB02BB02BB02BB02BB02BB02BB02BD00D0
:101C2C00EB00CB01FF005B005B00DB0127F047FF03
:101C3C00242840F0AA8102AB352000210422002484
:101C4C0027F022F9002800F0FC81012002228DF8F7
:101C5C0010000020FCE100208DF8100027F02FFF71
:101C6C000646092C40F0ED8095F8059095F8068015
:101C7C000720EFE0DFF82465306880B1406A70B16E
:101C8C0002A927F025FF0546342C40F02C8228466B
:101C9C0027F0C0FF002800F02582042041E2032039
:101CAC003FE2DFF80835612002210A223FE202AC54
:101CBC00E220214624F0B0F961200421082288E1B9
:101CCC0027F0FDFE0446681D27F0A4FF242C40F0ED
:101CDC0087810020FBE1E878032800F29781281D1A
:101CEC0027F098FF0246E878DFF8B81431F81010A6
:101CFC00DFF8B404007827F0F7FE88E1E8780328D1
:101D0C0000F28981DFF89C1431F81010DFF8980488
:101D1C0000781CF067FE7FE127F018FEADF8080094
:101D2C0002AB61200C2103E1002661200E2101226F
:101D3C008DF8086002AB1BE2DFF8606401208DF8BF
:101D4C0010003068002800F02C810069002800F099
:101D5C00288102A927F0BCFE042124F0D9FB00281D
:101D6C0000F0EC81044627F059FF002800F01C819C
:101D7C002146054627F0A2F83068BDF80C10224623
:101D8C002B4606690298B0478DF81000284627F0BC
:101D9C0043FF09E1DFF804442068002800F00881C3
:101DAC008069002800F0048102A927F091FE2068C8
:101DBC00BDF80C10826902989047FAE0DFF8DC73EA
:101DCC003868002800F0FB80C069002800F0F7801C
:101DDC0002A927F07DFE9DF80850BDF80AB0BDF8A9
:101DEC000C90044627F016FFA6788046F72E28BFE5
:101DFC006FF00806B01C5FFA80FA504627F00EFF11
:101E0C00002800F09D81012D044608BFBBF1000F96
:101E1C0000F09A813868A11CF3B24246C569029859
:101E2C0000914946A8470746002840F093810027B7
:101E3C0061203321524623466670277020F018FC2F
:101E4C0088E1681D27F0E6FE8146E81D27F0E2FEDA
:101E5C008046092002AF242E18BF2F1808BF352644
:101E6C00304609EB080527F0F2FD854201D9022026
:101E7C0057E1B9F1000F04D1304641463A4622F001
:101E8C0047FA304641463A4627F0BAFC002800F0A3
:101E9C00E5800A2045E1E878012802D0002840F0CE
:101EAC00488127F0D7F940F259600121ADF80800BC
:101EBC0002AB61203CE00120EC1C8DF80800E22014
:101ECC00214620F0D5F830B901200821224627F010
:101EDC0097FC8DF8080002AB6120032126E1E8781D
:101EEC00291D012800F0E180002840F0E580E02069
:101EFC00DFE027F0E4FD0446681D27F08BFE242C60
:101F0C000FBF00200146204627F052FD8DF8080037
:101F1C0002AB6120122109E127F0D1FD24280CBF6E
:101F2C00002027F094FDADF8080002AB61201321CE
:101F3C000222FCE0E8788DF8080099488068D0F817
:101F4C00302402A9E02090478DF8100004AB6120EA
:101F5C001421EBE0914C206898B3806A88B302A9F5
:101F6C0027F0B6FD2068BDF80C10826A02989047E5
:101F7C00014627E0894C206868B3C06858B327F045
:101F8C009EFD2168C968884726E08046693800268E
:101F9C0080B2032838BF0126681D082C40D1057873
:101FAC0041E003208DF8100004AB61203021BDE02E
:101FBC0003208DF8100004AB61203121B6E003271B
:101FCC00CDE0002102AC204627F091FD61203221AA
:101FDC0004222346ABE0032027F095FC3621A5E034
:101FEC0005F10806ED790146A8426CD9204600227D
:101FFC0027F000FC09288DF808006AD1002D68D064
:10200C0020462946324627F0FBFB62E0022027F0EF
:10201C007AFC0A218AE0022027F075FC0B2185E06E
:10202C0027F0F8FD0546404627F011FD0227A8428F
:10203C0088BF7700CFB100268DF80870612021464B
:10204C0092E002988DF810400422ADF812000220A4
:10205C008DF8110004AB6120082168E0012E62D1DB
:10206C00E220394620F004F85BE0471BB8B2F728B1
:10207C0028BFF727B81CC6B2304627F0CFFD002882
:10208C0060D01FFA87FB00F1020982464846594688
:10209C0026F014FF404629465A464B4626F0F4FEDD
:1020AC000546002867D00A2770E00878022814D269
:1020BC0052201FF0DDFF00E002208DF8080002AB7B
:1020CC0061200F2132E02046324627F093FB8DF839
:1020DC00080002AB6120072128E002A9522023F05E
:1020EC009BFFECE702359DF8080015F8018BBDF855
:1020FC000C7001280ED1BDF80A0058B9384641467B
:10210C002A4622F005F9012F04D1E22029461FF0BE
:10211C00AFFF01273068394642462B46466A029883
:10212C00B0478DF8100004AB61202146012220F04D
:10213C009FFA0026304605B0BDE8F08F052031E748
:10214C0010270CE0102776E7A9F169000328BFF4EB
:10215C0061AE0227204627F05FFD002FE9D0002654
:10216C008DF80870612033218DF8096002AB0222D2
:10217C0020F07EFADEE78AF8017000276120214604
:10218C00324653468AF8007020F072FA504627F017
:10219C0043FD002D7FF44FAFCBE700BF5C27002041
:1021AC000C01002064BC02009688002000BC0200D8
:1021BC002DE9F04F8FB00C4648070FD4200441D4C2
:1021CC00E00400F19781200600F1C081A00700F126
:1021DC00D481200500F1F3810020B4E1DFF8200563
:1021EC000178062900F2AD81DFE811F007009401B7
:1021FC00AB01AB019901AB01A001DFF81055DFF881
:10220C0004152A7891F82B30022A02D19E0600F18F
:10221C0098815E0700F19D819B0740F19281042318
:10222C00037091F82C30DB0700F08B8191F82E3085
:10223C00002B00F0528225F03CFE0420012102F01C
:10224C00A3FA57E2DFF8C8040394DFF8BCB4DFF854
:10225C00B094DFF8C474DFF8AC44DFF8B054DFF8A6
:10226C00BCA448F20208008802909BF800001CF005
:10227C00E7FB002800F03A8106460078D3282DD1E0
:10228C00F089404540F019813878002800F015811C
:10229C0099F80000012840F0108126F0BBFE0028C0
:1022AC0040F00B817088002840F00781A24604ACF6
:1022BC001221204626F002FE27F0ACF930462146CA
:1022CC0018F02EFCBDF81C00B0F5285FC0F088801B
:1022DC00012002211FF078FA54462AE099F80010E8
:1022EC00884217D1012834D0032840F0E6802878A2
:1022FC000138012800F2E180B078012851D0002883
:10230C0040F0DB807078002800F0BF8000201DF0CA
:10231C000DFFD2E00A2811D194F82B00BA46B71C55
:10232C003071A16909B138468847384625F03AFA28
:10233C005746DFF8D853DFF8E4A3BEE0297800292C
:10234C0040F0BB80092840F0B880A168B01C8847D9
:10235C00B3E028780138012800F2AF80707860B1C2
:10236C0094F8330094F83410013084F83300C0B280
:10237C00884202D9012000219DE099F80100032830
:10238C0058D0022871D0012840F097803878002866
:10239C0000F08C8026F03EFE002800F09280012098
:1023AC0085E07078002875D027F0F8F84FF6FE71AC
:1023BC00884203D1BAF81600884207D0AAF8161042
:1023CC00ADF8281053200AA91FF052FE1EF04CFD48
:1023DC0025F048FA00208AF826001DF0C5FB6CE0B9
:1023EC00CF48006809A90AAA17F0DEF80746029838
:1023FC005446C64DDFF824A3874212D29DF838000C
:10240C0010B1FD208DF838000420394614220AAB97
:10241C0023F0D0FFC34907EB470001EB80000121FB
:10242C0041720020012184F83200012002F0ACF945
:10243C00B94F42E0A2460AACAB20002122461CF068
:10244C00F9FC042004945446DFF8D0A2AF4D8DF86B
:10245C00140004A80FF038FD27F0DCF89BF80000FE
:10246C004FF4805141F288321DE0012020714FF46D
:10247C008060ADF828000AA819F0B6F827F0CAF861
:10248C00A4484FF4805102680BE010F0C1FB606966
:10249C0098B9A2E702204FF4805140F6B83289F87F
:1024AC0002009BF8000027F01FFB06E0002084F8D8
:1024BC0032000120012102F067F9304625F0CCFCF6
:1024CC00D3E694F8350020B1E0690028F5D08047B8
:1024DC00F3E70020002102220023ADF8280002209F
:1024EC008DF830000AA825F061FEB5E7039880F45A
:1024FC00004028E0854800780138012859D88048E8
:10250C00017803294DD0012953D1417800201FF0C7
:10251C005BF94EE0012001211FF056F911E025F086
:10252C00C8FC0420012102F02FF90AE0002132221C
:10253C000170744880F82A1073480421007827F041
:10254C00D3FA84F004000FB0BDE8F08F84F0800063
:10255C00F9E70522027091F82C2092072CD591F8FE
:10256C002E204ABB052202600120487000201CF07E
:10257C004DFB022024F0DAFEE3E7644800780138D2
:10258C0001280BD80020CDE90A000AA812F00EFD94
:10259C0020B15D48022100781BF054FD84F002004C
:1025AC00D1E78178022904D10121817000201FF02C
:1025BC00E7F884F48050C6E705200021B3E75348C0
:1025CC000078002840F08680DFF838A1DAF80C504B
:1025DC00002D79D004A80DF1280B01300BF1040665
:1025EC000390002D6DD0A87A18B10138A87200069E
:1025FC0046D19AF83180B8F1000F11D00020A91CF7
:10260C0008228DF82800304626F0BCFD584619F0FB
:10261C0025F828B12A88BDF82A00314623F0A4FCFD
:10262C00AF1C0DF127015A46384616F0BDFF814606
:10263C00384609A923F0E3F9B8F1000F05D09DF84D
:10264C00380040F0020002281CD1DAF80800A0B1D2
:10265C0003983946082226F095FD022000220C230F
:10266C008DF81000BDF82400ADF81A00264800784B
:10267C0004A90091092120F0F8FB28461EF052FA1B
:10268C00ED68AEE7384623F097FF9DF82700012848
:10269C00DBD15846142126F011FC224A09EB4900E3
:1026AC0000215B4642F8201002EB800014224160AE
:1026BC004172FF2049468DF83800042023F07AFE41
:1026CC00C3E7DAF80C0028B90F484FF40061007822
:1026DC001CF088F984F4006035E7013A012A09D826
:1026EC00032202600120487001201CF08FFA0120A7
:1026FC0024F01CFE287800287FF423AF04205CE72C
:10270C0008880020AC2200209F880020182600207A
:10271C00C6BC020064270020AA270020407B0020B2
:10272C00DC870020804300202DE9F04F9DB004464B
:10273C00DFF84005406818B18047002800F0798226
:10274C00DFF834A5DFF834B50D940DF138099AF89B
:10275C000000411E002C0B9118BF01218BF80F10AB
:10276C009BF802800BF118049BF801100027002540
:10277C000C91C0B287421ED2B84517D0FEB20021D0
:10278C004A460423304626F0C5FC0E9810F4403F10
:10279C0040F0040018BF0135C0B27C2806D1304689
:1027AC000621F82225F030FCF82020709AF8000061
:1027BC000C340137DDE7E9B201380022884204D13C
:1027CC009BF80500002800F05182CDF82880DDF838
:1027DC0034804FF001094046B8F1000F08BF1020BB
:1027EC00059015AD00200190DDE90B74002638042E
:1027FC0000F0F9819BF80F0008B98BF80F90E0B24C
:10280C0000210EAA042326F085FC0E98B8F1000FC7
:10281C0018D010F4403F18D04FF400509AF8001024
:10282C000136013FABF810009BF80F0001388BF814
:10283C000F0059FA84F0B0FBF1F202FB11048BF893
:10284C000D40D4E70021049102E0CDE90B7404960D
:10285C00C0B20A9E4FF00009702804D00C98702169
:10286C00C0B221F0FDFEF4B200210EAA04232046D2
:10287C0026F050FC9DF83800FE2803D02046FE219F
:10288C0021F0EEFE20460621FE2225F0BDFB4FF482
:10289C0000500C9F0BF116010022ABF814908BF832
:1028AC000C60A146ABF81000FF208BF80E00F8B2BC
:1028BC008BF80D70400050FA87F001EB8000B0F8F7
:1028CC0006A0DFF8B00302706000ABF812A050FA5B
:1028DC0086F09BF80F6001EB8002FE20114601F898
:1028EC00020F32F8060F03910890E3480292047825
:1028FC0014A821F0A9F956FA87F0CDF824900138E4
:10290C0090FBF4F101FB140000905FFA87FB0C972D
:10291C00CB4500F06081ABEB0900B0FA80F04009C8
:10292C0007900020069000204FF00109C00740F0EE
:10293C009D801FFA8AF4162C71D9CE480078002895
:10294C0040F07181AAF1070758460FAAB9B216F0E8
:10295C00AFFEBDF84A6006F11000A0420FD89DF8FA
:10296C00460096280BD1A7EB06099DF84520314669
:10297C005B461FFA89F840461AF0CAF918B3AAF157
:10298C00010A4FF001095446A0B2172864D3362827
:10299C00A4F1160658462A4688BF2026A41BB3B2BB
:1029AC00A1B226F0B7FB3004EED015FA86F010F881
:1029BC00010C962801D0013EF5E7DDF8348006EBDA
:1029CC00040A0020B2E79DF84700C10701D1800737
:1029DC0004D40020CA46DDF83480A5E7F01D83B28C
:1029EC00089813FA80F4B4F5005F01D90120F2E7DE
:1029FC0080B2A54918440A1A5846414626F08AFB6B
:102A0C0006980130B4F5005F069004D101204FF414
:102A1C0000510891DEE70020CA460894DBE70698CF
:102A2C0010B1964926F0D0FC0098C0B2834500F056
:102A3C00D88091490C98097859FA80F0DDF82490E7
:102A4C00B0FBF1F202FB11078C4907EB470001EBDD
:102A5C008000B0F81CA058E78948149900684268B7
:102A6C00884890470020DDF8348005E0069810B1C6
:102A7C00824926F0A9FC002007900C980A907D480A
:102A8C000078002840F0CF8008981021C0F5005243
:102A9C00103883B20998C1F2001221F0F1F8754A8E
:102AAC00117808431499107075480068426875488D
:102ABC00904707980A9A88B16F4800780BEB000191
:102ACC00013991FBF0F202FB10126C49D0B24000BC
:102ADC0050FA82F001EB8000B0F81CA0DFF89CB13A
:102AEC0008990298099C01238BF80E200180ABF801
:102AFC001010BBF912209BF80D102046ABF814A057
:102B0C0023F040F9BBF914209BF80E102046022349
:102B1C0023F038F9BBF81000049CB8F1000FC0F595
:102B2C00005007D00599DFF850A18842A4BF0121BD
:102B3C00019101E0DFF840A1059988424FF07C013A
:102B4C00B8BF7821099E304621F08AFD0DF01EFB9E
:102B5C0007469BF80F000621FC22C01B8BF80F00C8
:102B6C00304625F051FA0399FC209BF80E30087082
:102B7C009BF8021017FA84F00C9301449AF80000A9
:102B8C00B1FBF0F202FB10118BF802100A9101312B
:102B9C00CAB2B2FBF0F202FB10118BF8011003EB7E
:102BAC0043010BEB8101898B102906D10C99013162
:102BBC00B1FBF0F202FB10100C900B98C01BB8F19B
:102BCC00000F0B903FF410AE019880F00100C0078D
:102BDC007FF40AAE07E00120CB464FF001090790C5
:102BEC004DE700984AE77C2021F054FD0446FF286D
:102BFC0025D17E2021F04EFD0446FF281FD19BF8E5
:102C0C00014004EB44000BEB8000807DFF2812D0C8
:102C1C009AF800009BF802100144013991FBF0F284
:102C2C0002FB10140BE01648149900684268154812
:102C3C00904700221AE020467E2121F011FDE0B2DF
:102C4C00FE218BF80340400050FA84F00BEB80001F
:102C5C00808BABF806009BF8020021F001FD0020F0
:102C6C008BF80500BBF81000C0F5005210B21DB077
:102C7C00BDE8F08FA023002097880020A0800020C2
:102C8C00D801001000400340002000112DE9F04F46
:102C9C0089B021F05DFADFF810158122DFF8148578
:102CAC00DFF814A5DFF82045DFF814E50A70DFF82B
:102CBC00FC140860DFF8F804FF2101700020DFF835
:102CCC000415A8F800008AF80000DFF8F004096881
:102CDC00007891F808B04FF6FE718EF80000594458
:102CEC008AB2A168D1F80031DB899A4200F267817F
:102CFC000422DFF8DC54A8F80020DFF8D024126896
:102D0C009668330ECEF80C60C6F301592B706FF039
:102D1C00FF0303EA1627B3B2D1F8B86047EA1327CA
:102D2C00AEF8047036781EB9B9F1020F00F0478185
:102D3C00B9F1030F00F043811B0A03F0070316B12E
:102D4C00002B00F03C81DFF88CC4042B9CF800C0F5
:102D5C0008BFBCF1000F00F032813EB1DFF878649F
:102D6C003678862E02D1022B40F02981BB0416D472
:102D7C00BBB203F00703022B08BFBCF1000F20D03D
:102D8C00DFF854140978862909D10020764621F001
:102D9C0017FADFF84004B64690F800C030780028E7
:102DAC004ED0BCF1000F4BD1012800F00881032854
:102DBC003FD0022844D1BEF80400400740F0FF8009
:102DCC003EE0D1F8D40090F88300022800F0808017
:102DDC0027460520147BF246A946A8F8000026F0E9
:102DEC00A7FB0546DFF8F003007886286DD1B8689C
:102DFC00016C096811B9D0F84C05804760B200210C
:102E0C00002626F04FFFB9680A6C12685077086CE0
:102E1C0000688677086C0068C477284626F034FE74
:102E2C00BAF8041099F8000001F010011CF0F0FE43
:102E3C004EE0BEF8040000F00700032840F0BF800D
:102E4C00BEF80400010700F1BA80810402D48105A8
:102E5C0000F1B5809EF80E20C2F38107012F00F01F
:102E6C00AE809609012E00F0AA80B9F1010F11D89D
:102E7C0040F0020101F0070103290BD117B93F2AD9
:102E8C0040F29D8037B9A168D1F8AC1009780029BF
:102E9C0000F095804FF6FB71B9F1020F0BEB010CB2
:102EAC0019D1CF4BD95D9B5D03EB01090023402A5F
:102EBC00B7FA87F238BF012352091A40430616D4D9
:102ECC00002A08BF09F1020915E0284626F0DCFDAE
:102EDC0025F04CFA75E0C14B402AD95D9B5D03EBA4
:102EEC00010908D3420648BFA9F1020903E0002AF0
:102EFC0018BF4FF00209C0F300205FFA89F11FFAE6
:102F0C008CF30A1A8EF801009A4258DC6044039143
:102F1C00B346401AA168AEF806007430D1F85012CE
:102F2C0080B28847A6490028886048D07421CDE932
:102F3C00019725F0C3FFA24F0020B870A548007878
:102F4C0020B9387900F020008AF8000078789AF8D7
:102F5C000010DFF878C24FF000092E4600299A497C
:102F6C003DD000284FF000003AD1B88800F007009F
:102F7C00032807D0012832D18868D0F8D40090F803
:102F8C00820060B3C8684069007818B125F028FE4B
:102F9C00FE280DD08C488068D0F84C02804738B998
:102FAC0089488068D0F844028047002800F0F780F8
:102FBC00834F0120B870DFF814C22E4610E025F0C4
:102FCC0077FC26F0B5FA814900240A6813681C7155
:102FDC0012680A6026F058FD09B0BDE8F08F002099
:102FEC00BC6804F1740184F830B06160A165797833
:102FFC00BB88FA880029A381029B228184F83A308D
:10300C00337808BF994697F80EB084F84990019D23
:10301C00A4F85C20FF22B8F80030A273CBF301199E
:10302C005E1A797BA8F8006001F0780160F38201E8
:10303C0001EB09002074280600F0AE80DCF80000DB
:10304C0004AF039A10FA86F000F10801384626F016
:10305C0051FE56FA85F0CBF38105A8F80000207CD0
:10306C0000F04008CDB3B9F1020F06D1B8F1000F52
:10307C0003D0B4F8440004AF06E0BDF810000237EA
:10308C00A4F84400A4F84200564EF189884203D0BB
:10309C004FF6FF7188425ED1032D11D104F132003D
:1030AC00394626F066FD464CF11CA068323024F0FF
:1030BC00F6FA454900284ED094F80EB008370EE0C9
:1030CC0037F8020BB1898842608606D04FF6FF7143
:1030DC003B4C88423C493ED101E03B49384CBBF16A
:1030EC00400F20D3B9F1020F06D16DB9B8F1000F22
:1030FC000AD13348806803E0A068017C490603D4F8
:10310C0039880237A0F84210BBF1C00F06D32C4C03
:10311C003946A068283026F02CFD03E0284C38886E
:10312C00A168088528498968A088D1F8AC20127854
:10313C00B2B1B9F1020F13D200F00700012802D08E
:10314C0003282FD11E4C6DB9264AA368D289B3F837
:10315C004230934206D018F058FE19F04FF830E781
:10316C0000F00700032806D0012815D1D1F8D400AF
:10317C0090F8820080B1A068D1F848128847104AB4
:10318C0050B90020D17B9070907BC1F3011100F0FD
:10319C00780008449168087408F042FA11E7084F67
:1031AC00B87808E7064CDDE7AC88002034880020AE
:1031BC00B1880020A6860020AF880020AE880020B1
:1031CC0024250020748800200C010020C0870020DA
:1031DC00BF880020BE880020B488002058BC0200A4
:1031EC0054BC0200E88600202DE9F04F97B0DFF8C0
:1031FC0010850546DFF80C6598F800000328307040
:10320C0040F04C81002088F8000030700DAC204656
:10321C0026F0BBFC2046002124F069FEDFF8E89480
:10322C00B0603A21484625F049FE4FF0FF30A9F82E
:10323C001400C9F81000C9F80C0022F0B9FD0020E8
:10324C0029461DF0F1FF06F11001F06026F02BFC71
:10325C00D6E90502DFF8B474B0FBF2F1C9B2032968
:10326C0028BF032189F800103970B2F5005F40F0D7
:10327C001281B0EB413FC0F00E81F068002800F0E5
:10328C000A814FF40050FF224FF000084FF0885B8A
:10329C00A9F80600FF2089F8032089F8058005901D
:1032AC000020089000200B9000200990002007902F
:1032BC000020069000200A9000200C90FF20029025
:1032CC00FF200490FF200390CCB2A04580F0E98051
:1032DC005FFA88F6002116AA0423304625F01AFF5F
:1032EC00DFF830443046002115AAA04730460121B2
:1032FC0014AAA0473046022113AAA04716996FF0D2
:10330C006F0050FA81F2C8B20E2A06D8012303FAD4
:10331C0002F245F201131A4203D1A0F1FE02022A75
:10332C0004D242F28352B2EB914F1ED0304614F0CD
:10333C0021FADFF8D0130028087040F0D280304614
:10334C00002116AA042325F0E5FEDFF8C843304619
:10335C00002115AAA0473046012114AAA0473046E7
:10336C00022113AAA0471699C8B208EB4802CA4614
:10337C003D4609EB8209C1F30142090A4C46FD287E
:10338C0004F8160F61709DF85610E270A17001D907
:10339C00102135E0BDF854104FF6FF7291422FD139
:1033AC000EA820F051FC304600214FF088524FF40B
:1033BC0000534FF4005725F0ADFE6FF0030313FAE2
:1033CC0087F7B8B250F80B104A1C01D10328F6D875
:1033DC0001220126D3B2042B06D8CBB2FF2B18BF87
:1033EC0016460132090AF5E740F80B10CA480E9947
:1033FC0000684268C948904757FA86F081B2207835
:10340C00A9F81C109DF85210702889F81A10BDF8F4
:10341C005010A9F81E109DF84E1089F81B10BDF81D
:10342C004C10A9F8201011D07828D14614D07C2843
:10343C002F4616D07E281AD0FE281FD0FF2823D165
:10344C000898CDF80C800130089020E00A98D146FD
:10345C002F4601300A901AE006982F46013006904C
:10346C0015E00798CDF81080013007900FE009980F
:10347C00013009901FFA88F0029008E00B98CDF803
:10348C00148001300B9002E00C9801300C903978CC
:10349C0008F1010818E7012088F8000017B0BDE812
:1034AC00F08F0C98974E00060BD10B98C0B20128E8
:1034BC0007D80A98C0B2012803D80998C0B20128CD
:1034CC0011D99348042200240270CAB2E0B290428F
:1034DC0010D214F04FF93178013408433978307038
:1034EC00F3E7884E1BE0089BD8B2A04219D188485C
:1034FC0000220270002089F8030089F80100481EA0
:10350C007E2189F80200B9F81C00A9F806000020F9
:10351C0021F0A6F899F80200FE2121F0A1F83078EC
:10352C00BCE70A98000624D00B98059A000603D134
:10353C00039A180600F08480754802210127D5B241
:10354C0089F80220017017FA82F0B0FBF4F101FB4C
:10355C00140089F80100284614F00CF93070284644
:10356C00FE2121F07DF889F805700020FFF7DCF8CA
:10357C00D5E70B98059A000621D06548012189F8FA
:10358C000220017011FA82F0049AB0FBF4F101FBF5
:10359C00140091B2FF2989F801001FD10299FF296B
:1035AC0019BF89F8031001EB410089F8030000EB07
:1035BC00400009EB8000808BA9F80600AFE7DDE93D
:1035CC000620104300063FF47CAF22F0C5FBA0425E
:1035DC0080F085804E48032101703EE0480089F858
:1035EC00032010FA82F009EB8000818B1829A9F8CE
:1035FC00061094D30739D0B20EAA89B216F058F837
:10360C009DF843004007B0D5B9F80610BDF8462028
:10361C00002399F8030000930323891A0EAA073993
:10362C0089B206F0B5FE00287FF479AFBDF84410DE
:10363C0000293FF474AF9DF848001DF085F86EE743
:10364C0022F08AFB0621A042314838BF032103290E
:10365C00017002D0062952D061E722F07DFB0546AD
:10366C0089F80C0000EB400009EB8000408BA9F8B6
:10367C000D000CF08BFD39782844B0FBF1F202FB05
:10368C00110089F802000130C2B2B2FBF1F202FB68
:10369C00110089F801007C2020F0FCFFFF2812D1DA
:1036AC007E2020F0F7FFFF280DD1FF2020F0F2FF45
:1036BC00FF2808D1782020F0EDFF014699F8010091
:1036CC00FF2918BF0846C1B289F80300490051FA16
:1036DC0080F009EB8000808BA9F806001AE70898A7
:1036EC00000609D099F80200FE213C46374620F02E
:1036FC00B7FF2478039A40E7054806210170FEE7DE
:10370C0088270020A0230020A0800020978800207C
:10371C00A38800203B930200D80100100040034016
:10372C002DE9F84305460C46480413D4A00024D4D4
:10373C00A0075CD460057ED4200500F1068120072B
:10374C0000F13B81600040F1F68019F049FF24F054
:10375C008044F0E025F0ECFEDFF81C140F6D3FB157
:10376C00D7E90A1202F0E04201F00A01891849D0A7
:10377C0026F08AF924F48044DDE0BB48DFF8FC73C2
:10378C00016841F080010160B878012804D104205F
:10379C0020F0E8FF0020B87025F0CAFE0646042091
:1037AC0025F06EFFDFF8D8130A68904219D12A7EF3
:1037BC00BAB1FA68AAB1DFF8C003806C002800F037
:1037CC009780C16840F603020988914206D0C06810
:1037DC0040F604010088884240F08A8005F114000C
:1037EC0088E040F6C4120860C5E9042284E009F0C0
:1037FC0061FBDFF88403006C002840F09D8024F00E
:10380C00020498E0D7E90A65D7E90A12AA43B14342
:10381C00C7E90A1226F038F9B8680028AAD056EA87
:10382C000500A7D0D7F808C03869B7F93010324670
:10383C002B46E0479EE725F07BFE054623F0B0FCC7
:10384C00002800F0B780CC48876B002F00F0B280C6
:10385C00DFF828830420CB49002288F81800C648DA
:10386C0025F0C0F826F03AF9C74826F007F9C74802
:10387C000068006B8047C8F810000125042088F808
:10388C00025021F08DFD386990F82810C8F804001A
:10389C00490703D5436A04210022984701201BF0F5
:1038AC0029FCD8F80400457612F0F0FFD8F8040093
:1038BC0081680B461A465B684BB11E88A6F6030658
:1038CC00072EF7D805FA06F616F0830FF2D0537BC5
:1038DC0003F0F003013353730023FD6853602D880C
:1038EC00A5F60305012D00F28A80C8F810309FE080
:1038FC0005F110001EF0ACFA304626F0C5F821F0A8
:10390C0067FD78B12E6A28466FF4807100224FF063
:10391C000073B0479848806B10B119F061FE01E05C
:10392C0044F00204EE692846002100224FF0806327
:10393C00B04724F0005434B1974821462830BDE8F4
:10394C00F84326F081B9BDE8F8838C4EB078012895
:10395C0004D1042020F006FF0020B07021F038FDC7
:10396C0038B170686FF4807100224FF00073056AF3
:10397C00A847306950B185480068006B80473269B0
:10398C007168801A000BC860002030617A4D814943
:10399C000022284625F026F802203076286C20B12B
:1039AC007D480221283026F04FF919F019FE24F435
:1039BC000064C0E726F092F841E025F0B9FD054619
:1039CC0023F0EEFBA0B1DFF8B48198F800000007FB
:1039DC000ED498F9000000280AD4684613F0E4F9D4
:1039EC0008B1009820B1DFF8B49199F8610048B3A0
:1039FC0026F074F819F0F4FD24F008049BE7034654
:103A0C0033F8385FA5B190F8445090F8456005F054
:103A1C00F00580F8445006F0F005013580F845506B
:103A2C0000255360C5634587507B00F0F000507350
:103A3C0057480022C2610160012024F003F824F4ED
:103A4C00806478E700260127602E0FD009EB060072
:103A5C00817A31B18772407A07FA00F0C0B220F057
:103A6C009BFE2036F0E700BFCC210840032088F8ED
:103A7C001800454826F002F826F030F8444F3E4D29
:103A8C000022786900207861F968F860284644497A
:103A9C0024F0A8FF3D480068006B8047D8F80C1054
:103AAC00D8F82020411A02EB1130B0EB113F38BF8F
:103ABC004FF0FF3098F82410C8F8200021B1D8F846
:103ACC000810B0EBC12F20D923F0CCFFB8B140F6D1
:103ADC000900414621F83C0F002048804A7B02F047
:103AEC00F00201324A730A7B02F0F0020A7348605A
:103AFC00F8613960B8F83E0010F4406FFAD000203D
:103B0C00C8F82000012088F824001DF045FB25484A
:103B1C00002101600220002123F094FF022020F0FC
:103B2C0021FE102011F08CFE98F8010020B9D8F875
:103B3C000400503026F084F81B48807810B90D2012
:103B4C0011F07EFE98F8250028B1002088F8250099
:103B5C00052020F007FE002088F818001348C8F84C
:103B6C001C000220B5F85610B5F85420914208BF3D
:103B7C00072018F07DFE3DE730210020D01E0020EC
:103B8C00D426002089710200207F00208C010010B7
:103B9C0000100440D10C010070200020B87B0020E4
:103BAC0051D6010000000460ACBB0200A903010067
:103BBC002DE9F04F8DB084780226142C00F21F8270
:103BCC000546DFE814F02900150015004A008500B1
:103BDC001C021C021C021C021C021C021C021C02E9
:103BEC001C021C021C028E009C00AF00BE00CC000C
:103BFC0001206A78022C8DF83100089240F0C080C8
:103C0C00E878291D03288DF82C0040F0E18009A8E4
:103C1C00082225F0B7FAE0E010208DF824001020DF
:103C2C0025F0FCFF98B10446DFF8E0032146606004
:103C3C00E81C10F0FFFA8DF8240028B9204623F078
:103C4C0051FB8DF8240010B1204625F0E5FF00262D
:103C5C0009AB642000210122C2E10020CDF82A002A
:103C6C00ADF82E00CDF8260002208DF82C00E81CB3
:103C7C0025F0D0FFADF824006979A8798DF82D10C6
:103C8C0025F010FB8346E81D25F0C4FF95F80C9039
:103C9C008046687AAC7A95F80BA04FEA49078DF804
:103CAC003100384625F0BAFF002800F01081CDE92C
:103CBC00074806464FF0000805EB0800474570D052
:103CCC000D3025F0A7FF26F8080008F10208F3E7ED
:103CDC00E87820F065FE8DF8240009AB64200421FF
:103CEC0089E1E978032900F25281281DDFE811F0FF
:103CFC000400510155015D0118F05CFE76E1E81CF1
:103D0C0025F088FFC04C6668002E00F0E4806A79CC
:103D1C00002A00F0E4803368A91D184425F032FA1B
:103D2C000020D9E0B84EEC1C04212046376822F064
:103D3C00EFFB002F4AD0B968814200F0A0803F68A9
:103D4C00F7E7A888ADF82400E87809A924F058FA18
:103D5C008DF832000DF13203642013214BE1002663
:103D6C00E878ADF8246009A923F066FCBDF82400BE
:103D7C000DF1320314210222ADF8320064202FE140
:103D8C00E81C02218DF82C1025F044FFADF824001E
:103D9C00002005F10608ADF82E0068798DF82D008D
:103DAC0026E0BBF1000F00F0B580437B0DF1310133
:103DBC000E30CDE90496CDE9000107985946CDE9BE
:103DCC00020A09A8089A1DF089FEA4E0012000E16E
:103DDC00084625F01FFFADF82400287B8DF82D0038
:103DEC0005F10D0025F016FFADF82E0005F10F08BA
:103DFC0098F8000025F056FA054608F1010025F068
:103E0C0009FF98F8036098F804A098F805B081466B
:103E1C00022C8DF8326009D108F1060025F0FAFE6B
:103E2C00074608F1080007F10A0104E098F806704B
:103E3C0008F1070039464DB10A3189B2FB2907D385
:103E4C00DFF8C481D8F8040000286ED0022009E005
:103E5C000DF132018DE8030C09A84A463B46294670
:103E6C0003F016FF089E8DF8310006F0E0002028C4
:103E7C0040F0C4800DF1310364202146BBE0EC1D01
:103E8C00204625F0C7FE6D7A002D00F0978005F1D5
:103E9C0002098246484625F0C1FE002800F09880B1
:103EAC000026457080462A460670786800EB0A01A9
:103EBC0008F1020025F066F95FFA89F264201221FC
:103ECC0043461EF0D5FB404625F0A6FE97E0102099
:103EDC008DF8320024E010208DF8240016E0D6F87E
:103EEC0000C0F38AB28A3169757EB77E06F118007C
:103EFC00CDE900C0301DCDE9025703F0C9FE8DF8A5
:103F0C002400606825F088FE0020606009AB642006
:103F1C00112170E002208DF83200304625F07CFE35
:103F2C000DF132036420032165E007F11C0025F03C
:103F3C0075FE0028C8F8040055D000F11C010C22B5
:103F4C00016000208DF83100D8F8040009A9043074
:103F5C0025F018F9D8F804000F214FF47A72056196
:103F6C002A4DC17680F81AB080F819A00676C7825F
:103F7C00A0F814900821287825F0B6FD089E00289A
:103F8C003FF473AF287808211AF05CF86DE7022033
:103F9C002CE000781AF086F828E0007825F082F9F9
:103FAC0018B324F063FE002020E025F033FEA9793D
:103FBC0025F096FBB0FA80F0400917E03068B84263
:103FCC0001D138683060384625F026FE002000E02C
:103FDC0010200026207064201221022223466670D5
:103FEC001EF046FB0BE010203CE701208DF824006E
:103FFC0009AB6420102101221EF03AFB002630464A
:10400C000DB0BDE8F08F00BF5C2600209688002024
:10401C002DE9F04F8FB00C4608040CD4A00426D424
:10402C00DFF88853287802282DD1E10740F0018170
:10403C00A10641D558E0DFF86C0300781AF000FDBA
:10404C0090B10178DFF8602305460020602808D085
:10405C00135C08308B42F9D1104450F8041C2846EC
:10406C008847284623F0F8FE84F4004595E11DF0BE
:10407C003BFC28B10546FCF7EDFD284623F0ECFE91
:10408C0084F4005589E1A1062ED4012814D8E10648
:10409C0000F11781610600F12F81210600F13D81AD
:1040AC00E10500F13F81210500F14181E10400F1BE
:1040BC005481610400F15B81A10700F1E080A1054E
:1040CC0000F1FA80210700F11181610500F11981DD
:1040DC00E0034FF0000540F160811BF037FFB6485C
:1040EC00C57084F4803558E1AE4F202138781FF02C
:1040FC0061F8DFF8C4820125D8F80810084317D0FE
:10410C0025F05EFD054625F059FD68434FF47A71A4
:10411C00B0FBF1F0D8F80810401A4FEA500538BF40
:10412C006FF00045002908BF0D46002D00F0C2803D
:10413C0000200421002222F055FD06464FF0060A0D
:10414C004FF0FF094FF6FF780DF1080B002E4DD004
:10415C00304604210022374622F044FD06463889B9
:10416C00401B38BF002038810004EFD1B87BD0B39E
:10417C0001280AD17889400707D4386887F80DA040
:10418C00B721407B1DF068FBE0E739685A468DF893
:10419C000690ADF80480086AC97F0CF089FF0128ED
:1041AC001BD1B87BB97A8DF838000907788A40F0B2
:1041BC008002ADF8362006D540F4C070ADF836005C
:1041CC00387B8DF83A00786910B1007BADF8180097
:1041DC00584601A9002202F027FC387B87F80DA075
:1041EC0016F038F8B2E701207873AFE7DFF8C88132
:1041FC006C4F22F057FE00200121002222F0F2FC2D
:10420C0018B13878202119F01DFF0020042100225C
:10421C00002622F0E7FC002847D006890421002262
:10422C0022F0E0FCA0B10289B1B2914228BF16463F
:10423C00F4E7654890F82C100F2906D190F8260069
:10424C00022802D3002021F07BF884F00105A4E0C1
:10425C00A8B2B1B2814223D9D6FA55F0202180B24E
:10426C004200387825F040FC25F0AAFC054625F0E4
:10427C00A5FC68434FF47A71B0FBF1F615E0534896
:10428C00007818B302AD284625F0A5FB25F074F98B
:10429C004F490B784F490A7829461AF0A7FE22E0BD
:1042AC003878202119F0CEFE0026C8F8086084F07A
:1042BC00200572E000259CE715F0C8FB84F400751E
:1042CC006BE008F05DF984F0100566E03E48418B28
:1042DC00012025F099FC2878022804D131480121CD
:1042EC0000781AF07FFB84F0020556E03248012179
:1042FC0084F00805817050E00CF0D4F884F040058F
:10430C004BE0022808BF15F0A5FE2F480121808C38
:10431C0025F06CFC84F480653FE024F091F984F086
:10432C0080053AE022F0BAFA84F4807535E01BF08F
:10433C0049FB2048007801280CD11D48007848B171
:10434C004FF47A7100FB01F216484FF400610078CB
:10435C0025F0C7FB84F400651FE01748017819B1FC
:10436C00002101701BF02EFB84F4805515E01448DD
:10437C00006880B11149097801290CD18047114896
:10438C00006800B1804707484FF480414FF47A72BF
:10439C00007825F0A6FB84F4804528460FB0BDE8D4
:1043AC00F08F00BF9888002030B50200182600203E
:1043BC00BC270020BD270020E8250020BA270020BC
:1043CC008423002090230020407B0020972700208E
:1043DC00C0270020C22700202DE9FE4F8846080484
:1043EC0026D45FEAC87004BF0020BDE8FE8FE54804
:1043FC00056825F0E5FB044625F0E0FB60434FF42F
:10440C007A714FF6FF72B0FBF1F14FF6FF70002D91
:10441C0000F01A812B886C88CB1A9BB29C4240F21C
:10442C001C81E31A94B2A342B8BF1A46ED68EEE7BA
:10443C00DFF840A3CDF804809AF800001AF000FBD6
:10444C00002800F0FC8006460078012840F0EC8043
:10445C00DAF8041096F83390D6F814B096F8138066
:10446C0021B148468847002840F0DE80718896F8D4
:10447C003100022222F05EF90546002842D0287A4B
:10448C00297CA0F10108FF2900F0BB80707F4F460A
:10449C00C00718BF0027E97C287D0144B94204D825
:1044AC00E974FF2101FA00F06874A969A87C96F8F8
:1044BC003020896A10FB0710F16A24F063FE287D16
:1044CC00697CB7FBF0F202FB107001228240D2B281
:1044DC000A436A74C8457CD196F83010AB7C13FB48
:1044EC000713A9698B844FF4FF7303FA00F0C0B271
:1044FC001043FF2868746CD1287C1AF0CFFDFF2084
:10450C0028747FE0707FC00700F08E80B07F24F0AD
:10451C00C9FE002800F0888004461C2025F07EFB94
:10452C00002800F081801C21054624F0C7FCB07FD8
:10453C0002A923F081F89DF809000221287528466C
:10454C0023F0D0F8708896F8312096F8301096F851
:10455C003330A880287DEA71FF2202FA00F06874DB
:10456C0060680078A9742874302013FB010080B2B5
:10457C0022F074FD0028A8615DD004461A20B11CFD
:10458C002060708CA080A01D23F048FEF27F04F107
:10459C003000B17F96F82830C4F81CB084F819802C
:1045AC00A062307CE273744A217563750121A07599
:1045BC00928C2282F28EA285F28C6282B6F8110065
:1045CC00A4F817009AF8000085F8089019F03AFD45
:1045DC0055E725F0F5FA044625F0F0FA60434FF460
:1045EC007A71B0FBF1F0654928806348097800794D
:1045FC004843642148436249097800FB0100688004
:10460C0000E04F46E87C297D6A7C01440139B942BF
:10461C0018BFFF2A0CD186F83300708806F11C01F4
:10462C0086F8342016F0A5FF304623F015FC03E77E
:10463C00C845F9D1EFE7284623F064F8F4E7019870
:10464C0080F40040BDE8FE8F92B282424BD04948C4
:10465C000121007825F048FA45E0A879022806D116
:10466C00287CFF2837D0A86923F0F6FB33E025F02F
:10467C00A7FA044625F0A2FA60434FF47A71B0FB16
:10468C00F1F03F49288095F83800097888421BD210
:10469C0095F83620FF2A06D195F83720013085F899
:1046AC00380085F8362095F8351095F8394082F0A9
:1046BC00FF0300200126C7B2A7421DD206FA07F756
:1046CC001F4214D10130F6E7EA8BA87E95F82A1028
:1046DC00E9231EF0B9FE284623F014F825480121E1
:1046EC00007819F0AFFC88F00100BDE8FE8FFBB23A
:1046FC0001441A4385F83620AB8F95F83440C8B284
:10470C0004FB10339EB2A64203D2FF2285F836205A
:10471C0002E0FF2A08D12346184A174E1278367940
:10472C0072436426724302E095F83A2023466A806D
:10473C002A8D0E0606D022F0200244432A852A6CCC
:10474C00224404E042F020012A6C2985297A85F85C
:10475C002E10E9796A6285F82D10D9B26984054961
:10476C00496811B188470028B8D105F1100004F050
:10477C0021FAB3E73C260020407B0020B027002024
:10478C00B6270020546500207FB50138072800F2B9
:10479C004C810C46DFE810F008002C0054006E0031
:1047AC0089004901A600C900CB48007801380128CE
:1047BC0000F23B81002C00F04781002003210024F3
:1047CC001FF07CF8C64DC74E0420042132222870FD
:1047DC00307825F089F90820002107F097F8307817
:1047EC006C704FF4805104B0BDE870401AF0FAB808
:1047FC000020002524F05EFDBB480121017004203F
:10480C008DF80D0074B1B548B34C4585207801285E
:10481C0003D1072023F066F92078022802D1062064
:10482C0023F060F9AE48042132220570AD480078BF
:10483C0025F05AF9A94890F82B1001F0FE01F2E08E
:10484C00A54800780138012800F2EF80A548042122
:10485C003222007825F048F9002C00F00F819F4C93
:10486C009F48012101702069002800F0EC801FF0A6
:10487C00C7FBF8E70120002C8DF80D007BD0974882
:10488C0000219B4A80F82A10984824F0DBFE924CB9
:10489C002078012803D1072023F024F9207802285E
:1048AC0070D1062023F01EF96CE002208DF80D006B
:1048BC008A48002C73D000218D4A80F82A108B482E
:1048CC0024F0C0FE002003211EF0F8FF824C20785B
:1048DC00012803D1072023F005F92078002877D18F
:1048EC00092073E07C4D00208DF80D00002C2878F9
:1048FC007BD018B9092023F0F5F82878022806D1C6
:10490C000820002107F002F8042023F0EBF810F047
:10491C00F1FF73480021C822017070480D2180F806
:10492C002A10704825F06FF878E005208DF80D00FE
:10493C0069480078022878D1002C00F0C3806848C0
:10494C000022C178C270017042F20800002106F00A
:10495C00DDFF62480D2190F82B2080F82A10C178D9
:10496C0002F0DF02002980F82B200CBF04200D2060
:10497C0023F0B8F859E05848007818B95748022184
:10498C0080F82A105648002132220170554825F033
:10499C003AF8524890F82B1001F0FD0143E0082141
:1049AC0080F82A104C490978012911D890F82E006A
:1049BC0070B900200DF10A018DF80A0052201DF08B
:1049CC0057FB24F0F3F91EF09BFB002023F08AF830
:1049DC004348002132220170424825F014F83F4828
:1049EC0090F82B1001F0FB011DE03C4C022812D179
:1049FC0094F82E0078B194F82B00002140F02000A0
:104A0C0084F82B0005208DF80D00082006F07EFFA1
:104A1C000A2023F067F8022084F82A002F4890F827
:104A2C002B1001F0EF0180F82B102C4800220323EF
:104A3C0090F82A008DF80C002A48007803A9009100
:104A4C000A211EF012FA7FBD244C0720254D4FF48D
:104A5C00805184F82A0001208DF80D00287819F077
:104A6C00C1FF0020002622F031F82878022141F203
:104A7C00883284F82B6025F037F8D6E7174C0220E3
:104A8C0000218DF80B1084F82A001548017094F859
:104A9C002B000DF10B0100F0FD0084F82B00012020
:104AAC008DF80D0052201DF0E3FA24F07FF91EF072
:104ABC0027FB002023F016F820690028B5D01FF042
:104ACC009FFAF9E70548022180F82A1090F82B107C
:104ADC0041F02001A7E700BF18260020AC220020DF
:104AEC00088800209F880020AD270020407B0020F4
:104AFC008027002092B0DFF8EC92D9F8000010B1BA
:104B0C00002180F84510483020F02AFE24F010FDDA
:104B1C008046072011F006F917F0E0FE10B1B248FC
:104B2C0024F0AAFE1AF03EFB01AD284624F09AFBB5
:104B3C000427002029468DF8047024F09BFBAB4C15
:104B4C00206023F0E9FF0AAD284624F03BFA002050
:104B5C0029468DF8287024F03DFAA54E306023F0DC
:104B6C00E5FF06AD284624F03DFA002029468DF8D5
:104B7C00187024F03FFA31689E4D286019B99E4890
:104B8C0024F07AFE286810B99C4824F075FE206841
:104B9C0010B99B4824F070FE1CF086FDD9F800007B
:104BAC004FF0FF3438B1CDE9104410A9082223F09E
:104BBC0039FA01281BD1CDE91044082025F02EF834
:104BCC00002846D005460026052E04D824F0BEFE4B
:104BDC00A8530236F8E74FF6300029460822E88041
:104BEC00884824F0CFFA284625F016F809E0D9F8C1
:104BFC000010CDE910440029DFD08248082224F0AF
:104C0C00C1FA10AA0120082124F0F4FD092800D0D3
:104C1C00D8B921F079FD800712D4CDE91044CDE943
:104C2C000E440EAB01200021082224F02DF960B9AE
:104C3C000EA810A9082223F0F5F9002800F0CB806B
:104C4C00704A0120082124F0DBFD6E49E2201DF0A2
:104C5C000FFA12F077FB282024F0E0FF6A4E0028B0
:104C6C00306055D0694F6A4C07F10C0524F0C7FE33
:104C7C0024F018FA3068056007F1100524F0BFFE27
:104C8C0064498968D1F84C1388473068456007F14E
:104C9C00140524F0B4FE1CF00DF93068856007F1A2
:104CAC00180524F0ACFE19F05BFD3068C56007F107
:104CBC001C0524F0A4FE1FF0CFFB3068056107F142
:104CCC00200524F09CFE1EF0B1FA3068456107F116
:104CDC00240524F094FE1DF043F93068856107F13A
:104CEC00280524F08CFE23F02FFD3068C56107F1F8
:104CFC002C0524F084FE20F0BBFC3068056207F123
:104D0C00300524F07CFE387024F014F830684562CD
:104D1C0018F08CFE404841494FF00009CDF8409006
:104D2C0001603F480321119010A820F0F1FA24F003
:104D3C0091FB404624F0A8FE17F0DEFE24F02EFE78
:104D4C0001201DF095FE19F033FF3748007802283A
:104D5C0008D134480078012804D14FF400400121D7
:104D6C0006F0D4FD294F4FF48041387824F07CFCB8
:104D7C002E484FF0FF3100680DF036FCDFF8B080A4
:104D8C0078684FF0FF310DF02FFC3068002550F89B
:104D9C002510096821B9691C092D0D46F7D3EFE7D9
:104DAC0024F0CFFD316851F825100C68C1F8009043
:104DBC0024F0A3FE58F825200020214690470446F5
:104DCC0024F0BFFD316851F825100A6822430A60AF
:104DDC0024F093FED4E70B480EA9082224F0D2F954
:104DEC0033E700BF5C270020F0B50200F0870020FD
:104DFC00F4870020F88700200EB6020021B60200CE
:104E0C0034B602009E8700206C8800208821002088
:104E1C00094702000C0100209C230020A5C70100BB
:104E2C00008D1500D527002018260020488800206A
:104E3C0074B802002DE9F04F89B08A4608040DD4ED
:104E4C005FEACA7040F01D815FEA8A7000F12B8125
:104E5C005FEA0A7000F13381002042E1A24F3878FA
:104E6C0019F0EEFDDFF88892A04C06464FF0000BCF
:104E7C0048F21508002E00F001813078312838D026
:104E8C00322849D0D32840F0B380F089404573D004
:104E9C00382840F0AD80CDF820B0CDE906BB3046C7
:104EAC0006A920F03DFB9DF81C10052968D8307B25
:104EBC00002840F09D809DF81D00002800F098808F
:104ECC00052800F29580069823F0ADFD002840F0EF
:104EDC008F80707C87497870708808809DF81D00E1
:104EEC00214601388DF81D0006A890E82C002CC135
:104EFC007EE0B87803287BD899F82E10804823F0F0
:104F0C0092FD002874D1FF207C4960717088088064
:104F1C00B088794908806BE06079FF2814D00020B4
:104F2C0016F074FA0246B9F8701078783346CDF85A
:104F3C0000B012F04FFD6079002859D03878082164
:104F4C00322224F0D1FD53E099F81810706820FA41
:104F5C0001F2D2071ABF3144097A002106F1080286
:104F6C0000231B2B42D020FA03F5ED0702D0D55CB1
:104F7C00A9421ED80133F4E7304621F007FD37E093
:104F8C00FF293DD0FE2956D199F872109DF81E00CC
:104F9C00884202D860BBFF292AD11CF06BFE06990F
:104FAC0000201B2859D021FA00F2D20757D101302A
:104FBC00F7E7B9F86E004F49334608804E4802882F
:104FCC004E48018810200090002012F003FD0120B3
:104FDC00F870B87840B93C2002214EF66022B880B7
:104FEC00387824F081FDB8780130B87084F805B0B9
:104FFC00304622F031FF387819F022FD064639E7A9
:10500C0099F872109DF81E00884203D80028EFD141
:10501C00FF29EDD11CF02EFE069838B1D9F82810D6
:10502C00814203D0C9F8280022F06CFDBDF82000A5
:10503C0023F0BAFBDCE7307B0028D9D170882D49EE
:10504C00802200230880707CCDE900BBCDE902BB37
:10505C00CDE904BB11F074FBCAE71B2000E0C0B221
:10506C0099F818108142C3D02649087099F80700A6
:10507C00642100FB01F23878012162E78AF40040D8
:10508C002FE020491A4C08782076E1201CF0F0FF24
:10509C0022F038FD0020A4F87000012016F0B6F9BB
:1050AC008AF001001DE010488188B1B101394EF63B
:1050BC00602281800078022124F016FD0FE00B4C59
:1050CC00607938B12179206823F0ADFC10B9607992
:1050DC00013860718AF0080003E0002181708AF0C9
:1050EC00020009B0BDE8F08FCC24002040870020DE
:1050FC00407B00207A8700205E840020DA8000202C
:10510C0000F8FF079B8800202DE9FE4F0746086832
:10511C000024B0B1D7E9018A0E4624F009FA814681
:10512C00D8F8E800082888BF0124B068204202D1D2
:10513C007068204208D003203074484624F0A4FC48
:10514C0000242046BDE8FE8FD8F8C01069B198F84D
:10515C00F8100029EFD006213174D8F8C410C8F823
:10516C00C4604E6198F8FC100DE000210522C8E9DE
:10517C003066C8E93411C8E9361198F8FC100029DA
:10518C0008BF0122327400220129726109D1022068
:10519C004FF4E02188F8FC0098F8FB001FF0C8FFE2
:1051AC00706889490138884205D8042020F0F8F845
:1051BC00062020F0F5F8022020F0F2F898F8F8001C
:1051CC0040B9DAF83C003168814203D298F8FC000F
:1051DC0000286CD0D8E9361009B118B900E028B312
:1051EC0024F015FCDAF80000416941F0010141613D
:1051FC00484624F049FC98F8F80008B10124A0E7CF
:10520C0008F16C05D8F8EC10284624F0B3FB002804
:10521C00F4D0D8F8C00003210174384612F0EAFF2C
:10522C0028460021002424F0A5FB8AE79AF8040004
:10523C0024F0D2FC654CDAF810100222206991FAA5
:10524C00A1F1B1FA81F14368D8F8CC00406800684C
:10525C0098472069DAF8141002224368D8F8CC0079
:10526C0091FAA1F1B1FA81F14068006898479AF877
:10527C00040022F087FA9AF8040024F0AFFC24F022
:10528C00C6FB0020C8F8E000D8F8C0000068B0F5F4
:10529C00806F01D924F0BBFB98F8FE000028A1D147
:1052AC00DAF80000416841F0020141609AE798F891
:1052BC00F90020B1D8F8EC0001307FF48BAF4846F0
:1052CC0024F0E2FBB2683AB1D8F8E80002210928D0
:1052DC0038BF0121009103E008F1F4020020009096
:1052EC00746834B1D8F8E8000227092838BF0127C0
:1052FC0002E008F1F6040027DAF80000334D4168AB
:10530C0041F002014160D6F800B0D946BBF1000F64
:10531C0040D0D8F8E800019209284FF0010011D2D2
:10532C002A68B9F1000F1FD0C0071DD02178DAF818
:10533C0000009268904700281EBF3C44A9F1010967
:10534C000120EDE72A68B9F1000F16D0C00714D080
:10535C002188DAF800009268904700281EBF3C4470
:10536C00A9F101090120EDE7DAF80000D26802A9E1
:10537C009047DDE90120107007E0DAF80000D268F0
:10538C0002A99047DDE9012010800098ABF1010BD8
:10539C000244BBE7D8F8F000DAF80010CA68024003
:1053AC00102802D1002AF9D101E0002AF6D0706849
:1053BC0022F070F8D8F8C0100020C8F8C400C8F863
:1053CC00C00008741AE700BFFEFFFF0FC4010010F5
:1053DC002DE9F04F85B08846080418D4A948007808
:1053EC00012802D85FEAC87155D15FEA88714CD4A4
:1053FC00022807D1A4480078012803D15FEA48703D
:10540C0000F188805FEA087057D400202BE1DFF8A8
:10541C005CA29AF8000019F013FB002800F021811F
:10542C000546807FC8B9688C132816D190486E88C1
:10543C0000F11C09002049464F46002818BF071DE3
:10544C00086850B1014631F8042BB242F4D14468DB
:10545C003C6024F0E1FB2046F3E7A87A05F1020B4F
:10546C00022840F0E480DFF8089295F83170BBF820
:10547C00006009F11C000068A0B10188B14202D1A2
:10548C008178B94242D00430F5E7794801210170A6
:10549C0088F00200E7E07648406900B1804788F068
:1054AC000100E0E0D9F81C40002C57D001206168C5
:1054BC00002955D001300C46F9E77048DFF8B0915F
:1054CC00807BD9F81C60000760D424F079FB04467B
:1054DC0024F074FB6A4A60434FF47A71B0FBF1F02C
:1054EC00D9F818101288411A91427AD3B1FBF2FB09
:1054FC000BFB02F2511A08445E49C9F818001FFA56
:10550C008BF00978884288BF8B4641E0594909786D
:10551C00C170A3E05E495D4800224FF6FE73002483
:10552C000978023079B130F8025C9D4208D0458888
:10553C00013D45802D0406BF027020F8023C012479
:10554C0001390630EEE734B1484804214FF4FA72C1
:10555C00007824F0C9FA88F0040084E000240020CC
:10556C00454980B20988884261D2082024F056FB54
:10557C0000285CD000210680877041603D49097885
:10558C00C170D9F81C1079B360603FE04FF0010B8B
:10559C0000205FFA8BF44FF0000A071D002808BFAB
:1055AC0009F11C0796B1F078C0FA5BF1A042F170DA
:1055BC0006D8756830463D6024F02EFB2E46F1E788
:1055CC00716830460AF1010A0E46E6E75FEA0A40C6
:1055DC0007D100200821C9F818002448007819F0D8
:1055EC0001FA88F008003EE0C9F81C002348807BD3
:1055FC0000070BD424F0E4FA044624F0DFFA6043ED
:10560C004FF47A71B0FBF1F0C9F818001B48807B9D
:10561C0000070CD59AF8000008211DF0CBFD30B91D
:10562C001748082102889AF8000024F05AFA2878C2
:10563C00022810D0012811D1297EAA89EB7C05F112
:10564C001C006C696E7E8DE85A0005F110035946FA
:10565C0005F0FEF802E0284615F0A0FA284622F0E4
:10566C00FBFB88F4004005B0BDE8F08F9588002066
:10567C002C240020B52700207A270020407B002016
:10568C007E27002018260020D52700204C6D0020F6
:10569C00912700202DE9F04F87B0851C83462846C2
:1056AC0024F0E9F901AC06461821204623F006FC4B
:1056BC009BF801A004F10B002946009524F059FA3F
:1056CC006FF001009BF80A1002240122ADF81800BB
:1056DC0000208DF81A408DF80C0001F00800C1F381
:1056EC00C007890782EAD00507D4002808BF012427
:1056FC00B946A8460027002507E004244FF000090E
:10570C004FF00008002808BF03248548007850EAB1
:10571C000A000BD0834890F82600082809D123F002
:10572C0079FC00285AD0BAF1010F57D14FF0C309B8
:10573C0001E04FF0C2090025BAF1000F10D07F48EC
:10574C00007890B9BAF1010F0FD1002E55D000207E
:10575C00214601228DF81A0001A814F03BFA0AE048
:10576C0001A81BF06DF986B91CE001A82146524630
:10577C0014F030FAB6B17179BAF1020F41F040026F
:10578C00727104BF41F0600171719BF80A104906F7
:10579C0003D5717941F080017171B1790024013127
:1057AC00B17100E00124B0FA80F149090D422CD10D
:1057BC0007D1002D18BF814641F20100494618F06F
:1057CC009EFF14B9009819F061FBBDF818004FF654
:1057DC00FE71884218BF24F02BFA16E0DEB3327942
:1057EC00A24218BFBAF1020F12D1D01EC0B20128CA
:1057FC001BD857EA050020D12AE0022021460122BD
:10580C008DF81A0001A814F0E5F907B0BDE8F08F87
:10581C004FF00009009953468DF81A903088ADF876
:10582C00180024F0E5F9012586E7501EC0B20128C6
:10583C000ED849EA0800012807D1308821F0AAF9CE
:10584C0050B93088ADF8180008E0308824F0F0F931
:10585C00009819F01BFB0026BDF818004FF6FE71DE
:10586C0088421ED120F08EFF10B1BDF8180011E057
:10587C00BAF1000F04D02C4D288821F08BF930B1EF
:10588C009BF80A0000F002001FF0BAFD00E0288827
:10589C00ADF818004FF6FE71884202D14FF0C709DF
:1058AC0049E79BF80A200099534624F0A1F910B15E
:1058BC004FF001093FE71D48016811B1BDF8180010
:1058CC008847BDF818000099224606F0D9F806461C
:1058DC00174818490A6800784FF4803124F004F90D
:1058EC0001211548C17096B1AAF10100C0B201287E
:1058FC0007D81020BAF1020F08BF082071790843AD
:10590C0070714FF0000901258DF81A9014E74FF6CD
:10591C00FE7000254FF001090026ADF818000BE7CA
:10592C00F4240020407B00207427002098230020C2
:10593C0098880020B0BC0200E82500201826002022
:10594C002DE9F04F8DB0044600209A4616460F46BE
:10595C00CDE90B00CDE9090087488568804614F035
:10596C00B8FD1C2803D014F0B4FD1B281BD13088C3
:10597C0040F60201884218BFB0F5C15F03D1F07B3D
:10598C00022810D93EE043F6070188420BD196F865
:10599C002400032807D33069784940F0806020F058
:1059AC00604088422ED100206FB366B3387825FA58
:1059BC0000F0C00726D03046002124F029F97048A9
:1059CC00C4E90176006880B109A800900CA90BAA63
:1059DC000AAB304609F00CFF0B980B214FF6FF7207
:1059EC00502321F06FFFFF280CD023F0A1FD654F51
:1059FC0006467878012802D840B1012070E0304684
:105A0C0024F042F800200DB0BDE8F08F09F064FEE0
:105A1C005D480DF10409016841F0020101605B4829
:105A2C00C8F80000484623F00DFCDFF864B15A4971
:105A3C004A469BF801009BF80050039055482830CB
:105A4C001EF0F8FE554856494A461EF0F3FE4846ED
:105A5C0023F008FBDFF84C81534A19214B46029581
:105A6C0040461DF0B7FA514A08F11C001A214B466A
:105A7C001DF0B0FA4E484F4923F0D5FF4E484F4920
:105A8C0023F0D1FF4E48006810F4402F06D04D4A49
:105A9C0007F128000421002321F04CFB9BF80200A5
:105AAC0010B10D2010F03EF908F1400022F0A5FFD6
:105ABC0008F1380022F0A1FF434900200722387674
:105ACC00B8843862386181F860200521C7E902107A
