:100000000C9435000C945D000C945D000C945D0024
:100010000C945D000C945D000C945D000C945D00EC
:100020000C945D000C945D000C945D000C945D00DC
:100030000C945D000C945D000C945D000C945D00CC
:100040000C94DF020C945D000C94AD020C948702BA
:100050000C945D000C945D000C945D000C945D00AC
:100060000C945D000C945D00290311241FBECFEF9A
:10007000D8E0DEBFCDBF11E0A0E0B1E0E6E8FFE0F0
:1000800002C005900D92A435B107D9F722E0A4E58E
:10009000B1E001C01D92A437B207E1F710E0C5E35B
:1000A000D0E004C02197FE010E94E304C433D107CD
:1000B000C9F70E9468030C94C1070C940000AF922A
:1000C000BF92CF92DF92EF92FF920F931F93CF9345
:1000D000DF936C017B018B01040F151FEB015E01A7
:1000E000AE18BF08C017D10759F06991D601ED913C
:1000F000FC910190F081E02DC6010995892B79F7DB
:10010000C501DF91CF911F910F91FF90EF90DF908C
:10011000CF90BF90AF900895FC01538D448D252F53
:1001200030E0842F90E0821B930B541710F0CF9691
:10013000089501970895FC01918D828D981761F0C3
:10014000A28DAE0FBF2FB11D5D968C91928D9F5FDA
:100150009F73928F90E008958FEF9FEF0895FC01B9
:10016000918D828D981731F0828DE80FF11D858D6C
:1001700090E008958FEF9FEF0895FC01918D228DFF
:10018000892F90E0805C9F4F821B91098F73992784
:10019000089589E691E00E94BD0021E0892B09F4D1
:1001A00020E0822F089580E090E0892B29F00E94C2
:1001B000C90081110C9400000895FC01A48DA80FC2
:1001C000B92FB11DA35ABF4F2C91848D90E0019699
:1001D0008F739927848FA689B7892C93A089B189B9
:1001E0008C91837080648C93938D848D981306C05A
:1001F0000288F389E02D80818F7D80830895EF92BE
:10020000FF920F931F93CF93DF93EC0181E0888FD0
:100210009B8D8C8D98131AC0E889F989808185FFA0
:1002200015C09FB7F894EE89FF896083E889F98942
:1002300080818370806480839FBF81E090E0DF9144
:10024000CF911F910F91FF90EF900895F62E0B8D97
:1002500010E00F5F1F4F0F731127E02E8C8D8E1152
:100260000CC00FB607FCFACFE889F989808185FFB9
:10027000F5CFCE010E94DD00F1CFEB8DEC0FFD2F0D
:10028000F11DE35AFF4FF0829FB7F8940B8FEA8974
:10029000FB8980818062CFCFCF93DF93EC01888D83
:1002A0008823B9F0AA89BB89E889F9898C9185FDF1
:1002B00003C0808186FD0DC00FB607FCF7CF8C917F
:1002C00085FFF2CF808185FFEDCFCE010E94DD005A
:1002D000E9CFDF91CF9108958E50806480937C00A8
:1002E00080917A00806480937A0080917A0086FD04
:1002F000FCCF809178009091790008953FB7F894F1
:100300008091590190915A01A0915B01B0915C01DB
:1003100026B5A89B05C02F3F19F00196A11DB11D60
:100320003FBFBA2FA92F982F8827BC01CD01620F9C
:10033000711D811D911D42E0660F771F881F991F57
:100340004A95D1F70895AF92BF92CF92DF92EF9284
:10035000FF920F931F93CF93DF938B01D0E0C0E008
:1003600001975C0180916A0290916B02DC01ED9132
:10037000FC910084F185E02D0995A816B906ACF032
:100380000E947E016B017C010E947E016C197D0937
:100390008E099F09683E734081059105A8F3219657
:1003A0000C171D07F9F680E001C081E0DF91CF91C5
:1003B0001F910F91FF90EF90DF90CF90BF90AF9083
:1003C0000895DC01ED91FC910190F081E02D0994FC
:1003D0004F925F926F927F928F929F92AF92BF9255
:1003E000CF92DF92EF92FF920F931F93CF93DF9301
:1003F000CDB7DEB7C456D1090FB6F894DEBF0FBE35
:10040000CDBF85E10E946C01582E492E84E10E94E7
:100410006C01782E692E83E10E946C01982E892E42
:1004200082E10E946C01B82EA92E81E10E946C012C
:10043000D82EC92E80E10E946C01F82EE92E8FE0A3
:100440000E946C01182F092F8EE00E946C014F92C0
:100450005F926F927F928F929F92AF92BF92CF9254
:10046000DF92EF92FF920F931F939F938F9382E1FE
:1004700091E09F938F938E010F5F1F4F1F930F93F8
:100480000E94E9046EEF7FEF80916A0290916B0207
:100490000E94E1010FB6F894DEBF0FBECDBFF12C74
:1004A0002F2D30E0F80101900020E9F73197E01B93
:1004B000F10B80916A0290916B022E173F0758F45E
:1004C000200F311FF9016081062E000C770B0E946E
:1004D000E101F394E5CF6FEF7FEF0E94E101CC598A
:1004E000DF4F0FB6F894DEBF0FBECDBFDF91CF91C7
:1004F0001F910F91FF90EF90DF90CF90BF90AF9042
:100500009F908F907F906F905F904F9008951F9273
:100510000F920FB60F9211242F933F934F935F9337
:100520006F937F938F939F93AF93BF93EF93FF93BB
:1005300089E691E00E94DD00FF91EF91BF91AF91BC
:100540009F918F917F916F915F914F913F912F91EB
:100550000F900FBE0F901F9018951F920F920FB61D
:100560000F9211242F938F939F93EF93FF93E0911A
:100570007901F0917A018081E0917F01F091800111
:1005800082FD1BC09081809182018F5F8F732091CB
:100590008301821741F0E0918201F0E0E759FE4FBC
:1005A000958F80938201FF91EF919F918F912F9171
:1005B0000F900FBE0F901F9018958081F4CF1F925F
:1005C0000F920FB60F9211242F933F938F939F9307
:1005D000AF93BF938091550190915601A09157011F
:1005E000B09158013091540123E0230F2D3758F575
:1005F0000196A11DB11D2093540180935501909344
:100600005601A0935701B0935801809159019091E0
:100610005A01A0915B01B0915C010196A11DB11D31
:100620008093590190935A01A0935B01B0935C01B0
:10063000BF91AF919F918F913F912F910F900FBEDE
:100640000F901F90189526E8230F0296A11DB11D4B
:10065000D2CFE9E6F1E01382128288EE93E0A0E0C7
:10066000B0E084839583A683B78384E091E091838F
:10067000808385EC90E09587848784EC90E0978771
:10068000868780EC90E0918B808B81EC90E0938B5F
:10069000828B82EC90E0958B848B86EC90E0978B3C
:1006A000868B118E128E138E148EF0936B02E09354
:1006B0006A02E1E6F1E089E9808387E1818384E3EE
:1006C000828381E0838314821582168217820895C3
:1006D000CF93DF93CDB7DEB72C970FB6F894DEBF7C
:1006E0000FBECDBF789484B5826084BD84B581602F
:1006F00084BD85B5826085BD85B5816085BD8091ED
:100700006E00816080936E00109281008091810064
:10071000826080938100809181008160809381005C
:10072000809180008160809380008091B10084601E
:100730008093B1008091B00081608093B00080917F
:100740007A00846080937A0080917A00826080933E
:100750007A0080917A00816080937A0080917A009B
:10076000806880937A001092C100E0917901F09145
:100770007A0182E08083E0917901F0917A01108220
:10078000E0917501F09176011082E0917701F0918E
:10079000780180E1808310928101E0917D01F091E8
:1007A0007E0186E08083E0917B01F0917C01808175
:1007B00080618083E0917B01F0917C018081886081
:1007C0008083E0917B01F0917C018081806880834F
:1007D000E0917B01F0917C0180818F7D808380910D
:1007E000650181608093650188EE91E090936D02D0
:1007F00080936C026E018DE0C80ED11C90E0E92E52
:1008000090E0F92E80916A0290916B02DC01ED91EB
:10081000FC910084F185E02D0995892B09F450C0E5
:1008200080916A0290916B02DC01ED91FC9102844F
:10083000F385E02D09958C3F09F042C064E670E035
:1008400085E090E00E94A3018823D1F18E01075F2B
:100850001F4F580180916A0290916B02DC01ED916B
:10086000FC910284F385E02D0995F80181938F01B5
:10087000EC15FD0579F780916A0290916B02DC011D
:10088000ED91FC910284F385E02D099589853A85E7
:100890002B859C8580935D0130935E0120935F01E1
:1008A00090936001833009F476C0B0F4813009F48C
:1008B00046C0E0916C02F0916D02823009F46FC085
:1008C000E114F10409F49ECF0E94C900882309F4C1
:1008D00099CF0E94000096CF843009F462C0853021
:1008E00079F780905E01082D10E062E370E0C801A6
:1008F00002960E94A301882319F380916A029091C5
:100900006B02DC01ED91FC910284F385E02D0995E9
:1009100086E0A82E82E0B82E912C80916A029091F8
:100920006B02DC01ED91FC910284F385E02D8914CA
:10093000E9F10995F50181935F019394EECF88E089
:10094000E1E6F1E0DE01119601900D928A95E1F762
:100950006EEF7FEF80916A0290916B020E94E1013D
:100960008E010F5F1F4FF80161918F01062E000C61
:10097000770B80916A0290916B020E94E101A016B0
:10098000B10689F76FEF7FEF80916A0290916B0259
:100990000E94E10195CFE0916E02F0916F020995FE
:1009A0008FCFE0917002F0917102F9CF0995F801B3
:1009B000EA5FFD4F1082E0917202F091730286E0CF
:1009C00092E009957DCFEE0FFF1F0590F491E02D89
:1009D0000994AEE0B0E0EFEEF4E00C9498070D89D6
:1009E0001E8986E08C831A8309838FEF9FE79E839D
:1009F0008D83AE01475E5F4F6F89788DCE01019682
:100A00000E940C052F813885020F131FF8011082F8
:100A10002E96E4E00C94B407ABE0B0E0E2E1F5E040
:100A20000C948A077C013B018A01FC011782168223
:100A3000838181FFC8C1CE0101965C01F7019381DA
:100A4000F30193FD859193FF81913F01882309F480
:100A500053C1853239F493FD859193FF81913F0114
:100A6000853229F4B70190E00E94FC06E7CF912C73
:100A7000212C312CFFE1F31538F08B3211F190F479
:100A8000803209F1833229F137FC3CC020ED280F78
:100A90002A3050F536FE20C08AE0989E200D1124A1
:100AA000922E06C08D3291F0803371F7689430F841
:100AB000F30193FD859193FF81913F018111DACF7D
:100AC00021C0689431F8689432F8F2CF689433F812
:100AD000EFCF689434F8ECCFEAE02E9E200D11247D
:100AE000222E689435F8E4CF8E3229F436FC04C106
:100AF000689436F8DDCF8C3619F4689437F8D8CF7F
:100B00008836B1F2982F9F7D95549330E0F083366C
:100B1000A1F18337C1F1833509F063C02801F2E008
:100B20004F0E511CF801C080D180692D70E036FC59
:100B300002C06FEF7FEFC6010E94E6064C01689489
:100B400037F882010AC00C5F1F4FFFE3F983882446
:100B50008394912C6501E89437F833FE2DC0522C14
:100B60008114910471F5552009F468CFB70180E232
:100B700090E00E94FC065A94F6CFF80180818983A8
:100B80000E5F1F4FE4CF2801F2E04F0E511CF80119
:100B9000C080D180692D70E036FC02C06FEF7FEF1E
:100BA000C6010E94F1064C018201D5CFB70180E257
:100BB00090E00E94FC062A942814190409F0B0F76A
:100BC000CECFF60137FC859137FE81916F01B701D9
:100BD00090E00E94FC0651105A94F1E08F1A91089F
:100BE000BFCF843619F0893609F077C0F80137FE97
:100BF0006BC060817181828193810C5F1F4FF32DE7
:100C0000FF763F2E97FF09C090958095709561956E
:100C10007F4F8F4F9F4F689437F82AE030E0A5014F
:100C20000E942C07C82ECA188C2C432C36FE0CC0F0
:100C3000E89440F8C91440F434FE05C032FC03C007
:100C4000F32DFE7E4F2E892C44FE95C0FE01EC0D47
:100C5000F11D8081803309F087C0242D297E422E2A
:100C6000842D8870582E43FC95C040FE8FC09C2C6C
:100C7000821418F42C0C922C981844FE91C0B701E1
:100C800080E390E00E94FC0642FE09C088E790E005
:100C900041FE02C088E590E0B7010E94FC06C9143D
:100CA00008F48AC0CA94D12C9FEFC91AD90ACA0C79
:100CB000DB1CF60182916F01B70190E00E94FC06F7
:100CC000AC14BD04B1F74FCF60817181072E000CC9
:100CD000880B990B0E5F1F4F92CFD32CE894D4F85A
:100CE0002AE030E0853739F1232D297FD22E8F3647
:100CF00001F148F48835A9F0F701868197812B9698
:100D0000E2E10C94A607803749F08837A9F7D4FEB2
:100D100002C06894D2F820E130E00DC06894D4F8A5
:100D2000F6CF34FE03C0822F8660D82E20E132E059
:100D300002C028E030E0F801D7FE0FC06081718169
:100D4000828193810C5F1F4FA5010E942C07C82E42
:100D5000CA183D2CE89437F867CF6081718190E024
:100D600080E00E5F1F4FF0CF42FC02C0839478CF2B
:100D70008394839475CF842D867809F471CFF6CF50
:100D8000B70180E290E00E94FC0683948214C0F3D5
:100D9000512C73CF522C5818821408F46ECFF8CF10
:100DA000842D867809F47BCF8BE241FE80E247FCFC
:100DB0008DE2B70190E071CFB70180E390E00E942F
:100DC000FC069A946CCF8FEF9FEF99CFFC010590B2
:100DD000615070400110D8F7809590958E0F9F1F3D
:100DE0000895FC016150704001900110D8F7809582
:100DF00090958E0F9F1F08950F931F93CF93DF93AE
:100E0000182F092FEB018B8181FD09C01FEF0FEF18
:100E1000812F902FDF91CF911F910F91089582FF25
:100E200014C02E813F818C819D81281739073CF4A5
:100E3000E881F981CF0101969983888310838E819F
:100E40009F8101969F838E83E3CFE885F985812F6B
:100E50000995892BA1F3DACFFA01AA27283051F19D
:100E6000203181F1E8946F936E7F6E5F7F4F8F4FDB
:100E70009F4FAF4FB1E03ED0B4E03CD0670F781F3A
:100E8000891F9A1FA11D680F791F8A1F911DA11D1F
:100E90006A0F711D811D911DA11D20D009F4689458
:100EA0003F912AE0269F11243019305D3193DEF600
:100EB000CF010895462F4770405D4193B3E00FD0B6
:100EC000C9F7F6CF462F4F70405D4A3318F0495DA1
:100ED00031FD4052419302D0A9F7EACFB4E0A69584
:100EE0009795879577956795BA95C9F700976105A6
:100EF000710508959B01AC010A2E069457954795FC
:100F000037952795BA95C9F7620F731F841F951FF0
:100F1000A01D08952F923F924F925F926F927F9201
:100F20008F929F92AF92BF92CF92DF92EF92FF92F9
:100F30000F931F93CF93DF93CDB7DEB7CA1BDB0BA5
:100F40000FB6F894DEBF0FBECDBF09942A8839884A
:100F500048885F846E847D848C849B84AA84B98451
:100F6000C884DF80EE80FD800C811B81AA81B9815D
:100F7000CE0FD11D0FB6F894DEBF0FBECDBFED0171
:060F80000895F894FFCF74
:100F860000000000FF005F008C004C01BD009B00CC
:100F9600AF007B224130223A25752C224131223A7C
:100FA60025752C224132223A25752C224133223ACC
:100FB60025752C224134223A25752C224135223AB8
:100FC60025752C224136223A25752C224137223AA4
:040FD60025757D0000
:00000001FF
