:100000000C945D000C9485000C9485000C94850084
:100010000C9485000C9485000C9485000C9485004C
:100020000C9485000C9485000C9485000C9485003C
:100030000C9485000C9485000C9485000C9485002C
:100040000C94AB020C9485000C9479020C9453022E
:100050000C9485000C9485000C9485000C9485000C
:100060000C9485000C9485000000000024002700FB
:100070002A0000000000250028002B0004040404CE
:100080000404040402020202020203030303030342
:10009000010204081020408001020408102001021F
:1000A00004081020000000080002010000030407FB
:1000B0000000000000000000F50211241FBECFEF79
:1000C000D8E0DEBFCDBF11E0A0E0B1E0E4EAF9E0A6
:1000D00002C005900D92A231B107D9F722E0A2E14A
:1000E000B1E001C01D92A333B207E1F710E0CDE506
:1000F000D0E004C02197FE010E94CA04CC35D1078C
:10010000C9F70E9434030C94D0040C940000E1EB76
:10011000F0E02491EDE9F0E09491E9E8F0E0E49179
:10012000EE23C9F0222339F0233001F1A8F4213065
:1001300019F1223029F1F0E0EE0FFF1FEE58FF4FCA
:10014000A591B4912FB7F894EC91811126C09095A8
:100150009E239C932FBF08952730A9F02830C9F023
:10016000243049F7209180002F7D03C0209180002A
:100170002F7720938000DFCF24B52F7724BDDBCFEE
:1001800024B52F7DFBCF2091B0002F772093B000B6
:10019000D2CF2091B0002F7DF9CF9E2BDACFAF9236
:1001A000BF92CF92DF92EF92FF920F931F93CF9364
:1001B000DF936C017B018B01040F151FEB015E01C6
:1001C000AE18BF08C017D10759F06991D601ED915B
:1001D000FC910190F081E02DC6010995892B79F7FA
:1001E000C501DF91CF911F910F91FF90EF90DF90AC
:1001F000CF90BF90AF900895FC01538D448D252F73
:1002000030E0842F90E0821B930B541710F0CF96B0
:10021000089501970895FC01918D828D981761F0E2
:10022000A28DAE0FBF2FB11D5D968C91928D9F5FF9
:100230009F73928F90E008958FEF9FEF0895FC01D8
:10024000918D828D981731F0828DE80FF11D858D8B
:1002500090E008958FEF9FEF0895FC01918D228D1E
:10026000892F90E0805C9F4F821B91098F739927A3
:10027000089588E291E00E942D0121E0892B09F484
:1002800020E0822F089580E090E0892B29F00E94E1
:10029000390181110C9400000895FC01A48DA80F70
:1002A000B92FB11DA35ABF4F2C91848D90E00196B8
:1002B0008F739927848FA689B7892C93A089B189D8
:1002C0008C91837080648C93938D848D981306C079
:1002D0000288F389E02D80818F7D80830895EF92DD
:1002E000FF920F931F93CF93DF93EC0181E0888FF0
:1002F0009B8D8C8D98131AC0E889F989808185FFC0
:1003000015C09FB7F894EE89FF896083E889F98961
:1003100080818370806480839FBF81E090E0DF9163
:10032000CF911F910F91FF90EF900895F62E0B8DB6
:1003300010E00F5F1F4F0F731127E02E8C8D8E1171
:100340000CC00FB607FCFACFE889F989808185FFD8
:10035000F5CFCE010E944D01F1CFEB8DEC0FFD2FBB
:10036000F11DE35AFF4FF0829FB7F8940B8FEA8993
:10037000FB8980818062CFCFCF93DF93EC01888DA2
:100380008823B9F0AA89BB89E889F9898C9185FD10
:1003900003C0808186FD0DC00FB607FCF7CF8C919E
:1003A00085FFF2CF808185FFEDCFCE010E944D0108
:1003B000E9CFDF91CF9108953FB7F894809118016C
:1003C00090911901A0911A01B0911B0126B5A89B2B
:1003D00005C02F3F19F00196A11DB11D3FBFBA2FD7
:1003E000A92F982F8827BC01CD01620F711D811D97
:1003F000911D42E0660F771F881F991F4A95D1F71C
:100400000895AF92BF92CF92DF92EF92FF920F9337
:100410001F93CF93DF938B01D0E0C0E001975C0185
:100420008091290290912A02DC01ED91FC910084D7
:10043000F185E02D0995A816B906ACF00E94DC0103
:100440006B017C010E94DC016C197D098E099F09FA
:10045000683E734081059105A8F321960C171D078E
:10046000F9F680E001C081E0DF91CF911F910F91FB
:10047000FF90EF90DF90CF90BF90AF900895DC0198
:10048000ED91FC910190F081E02D09948091120191
:10049000882329F01092120180E00C94870081E0FB
:1004A00080931201FACF1F920F920FB60F92112470
:1004B0002F933F934F935F936F937F938F939F936C
:1004C000AF93BF93EF93FF9388E291E00E944D01B9
:1004D000FF91EF91BF91AF919F918F917F916F911C
:1004E0005F914F913F912F910F900FBE0F901F90F2
:1004F00018951F920F920FB60F9211242F938F937E
:100500009F93EF93FF93E0913801F091390180813F
:10051000E0913E01F0913F0182FD1BC090818091EE
:1005200041018F5F8F7320914201821741F0E0916A
:100530004101F0E0E85DFE4F958F80934101FF910E
:10054000EF919F918F912F910F900FBE0F901F9061
:1005500018958081F4CF1F920F920FB60F9211243D
:100560002F933F938F939F93AF93BF9380911401E9
:1005700090911501A0911601B091170130911301CE
:1005800023E0230F2D3758F50196A11DB11D2093AF
:1005900013018093140190931501A0931601B09359
:1005A00017018091180190911901A0911A01B09141
:1005B0001B010196A11DB11D809318019093190193
:1005C000A0931A01B0931B01BF91AF919F918F919E
:1005D0003F912F910F900FBE0F901F90189526E816
:1005E000230F0296A11DB11DD2CFE8E2F1E01382E4
:1005F000128288EE93E0A0E0B0E084839583A68326
:10060000B78384E091E09183808385EC90E09587C7
:10061000848784EC90E09787868780EC90E0918BCC
:10062000808B81EC90E0938B828B82EC90E0958BB9
:10063000848B86EC90E0978B868B118E128E138EB6
:10064000148EF0932A02E0932902E0E2F1E089E9B6
:10065000808387E1818384E3828381E083831482C2
:100660001582168217820895CF93DF93CDB7DEB738
:100670002C970FB6F894DEBF0FBECDBF789484B52B
:10068000826084BD84B5816084BD85B5826085BD8E
:1006900085B5816085BD80916E00816080936E001C
:1006A000109281008091810082608093810080910E
:1006B00081008160809381008091800081608093BF
:1006C00080008091B10084608093B1008091B0007F
:1006D00081608093B00080917A00846080937A007A
:1006E00080917A00826080937A0080917A008160A4
:1006F00080937A0080917A00806880937A001092CB
:10070000C100E0913801F091390182E08083E091ED
:100710003801F09139011082E0913401F0913501F6
:100720001082E0913601F091370180E180831092D0
:100730004001E0913C01F0913D0186E08083E09131
:100740003A01F0913B01808180618083E0913A0120
:10075000F0913B01808188608083E0913A01F091C3
:100760003B01808180688083E0913A01F0913B01F8
:1007700080818F7D8083EDE9F0E02491E9E8F0E06D
:100780008491882399F090E0880F991FFC01E85923
:10079000FF4FA591B491FC01EE58FF4F85919491C4
:1007A0008FB7F894EC91E22BEC938FBF80912401EA
:1007B00082608093240186E492E090932E028093DD
:1007C0002D026E018DE0C80ED11C90E0E92E90E064
:1007D000F92E8091290290912A02DC01ED91FC9181
:1007E0000084F185E02D0995892B09F450C0809192
:1007F000290290912A02DC01ED91FC910284F3859B
:10080000E02D09958C3F09F042C064E670E085E078
:1008100090E00E9401028823D1F18E01075F1F4FF3
:1008200058018091290290912A02DC01ED91FC91FE
:100830000284F385E02D0995F80181938F01EC1571
:10084000FD0579F78091290290912A02DC01ED9152
:10085000FC910284F385E02D099589853A852B85E5
:100860009C8580931C0130931D0120931E01909361
:100870001F01833009F476C0B0F4813009F446C01A
:10088000E0912B02F0912C02823009F46FC0E11448
:10089000F10409F49ECF0E943901882309F499CF0D
:1008A0000E94000096CF843009F462C0853079F749
:1008B00080901D01082D10E062E370E0C8010296EF
:1008C0000E940102882319F38091290290912A0243
:1008D000DC01ED91FC910284F385E02D099585EC16
:1008E000A82E81E0B82E912C8091290290912A02A5
:1008F000DC01ED91FC910284F385E02D8914E9F18E
:100900000995F50181935F019394EECF88E0E0E2D1
:10091000F1E0DE01119601900D928A95E1F76EEFFC
:100920007FEF8091290290912A020E943F028E015E
:100930000F5F1F4FF80161918F01062E000C770B9E
:100940008091290290912A020E943F02A016B106CE
:1009500089F76FEF7FEF8091290290912A020E9420
:100960003F0295CFE0912D02F0912E0209958FCF95
:10097000E0912F02F0913002F9CF0995F801EB5385
:10098000FE4F1082E0913102F091320285EC91E04D
:1009900009957DCFEE0FFF1F0590F491E02D09948E
:0409A000F894FFCFF9
:1009A400000000006F01CF00FC00BC012D010B0111
:0209B4001F0121
:00000001FF
