:020000040000FA
:1000000002135C7E1DE4FDEF30E70625E06EFF8005
:1000100004EF25E0FF0DBD08EE2253984FEB4F4D46
:10002000F598220212CC7597A522220216418E590C
:100030008F5A8C5B8D5C121807121A3EE55C24BF48
:100040009000D8F0E55B34FF9000D7F09000D3E546
:1000500059F0A3E55AF043910422220213EB121A3D
:10006000CF53D87853DAFE121A9AE4900080F02227
:10007000D2DE22021694D202121972C290C296C225
:1000800080E4FBFD7F1012001A12066274A4F0D205
:10009000AFE4F53CF53DD296053DE53D7002053CEB
:1000A000B410F3E53CB427EEC296120026300209E4
:1000B0001218C28E3F8F408006753F01754000E5E3
:1000C000407004E53F640170409000BCE07007F5AB
:1000D0003CF53D020293053DE53D7002053CD3949D
:1000E00010E53C94274002D296D3E53D9430E53CA0
:1000F00094755003020293E4F53CF53D9000BCF08A
:100100009000A3F0C296020293E4F53CF53D900006
:10011000BCE014602A14700302026514700302022A
:100120002314700302023924046003020293E540A1
:1001300064AA60030202939000BC04F0020293E5FB
:10014000409000A3F09000BC7402F0E540120B4018
:10015000020DA00175A10185A501A9A601BFA701F6
:10016000C8A801E4A901CBB001D4B1019AC002939F
:10017000FF0000021812061BE49000A2F090007429
:10018000F07FA1807212005E9000BC7404F0753E96
:1001900008E4F5427541090202939000BC7404F032
:1001A000E4F5427541020202939000A27480F0E4EB
:1001B000900074F07FA612069274A6F002029312C9
:1001C000066274A4F0020293753E089000BC7403AA
:1001D000F00202939000747401F07FB1120692EF66
:1001E000F002029312061B9000A2E0F53B7480F02F
:1001F000E4900074F07FA912188B90007AEFF07DE4
:10020000307C757F017E0012192102029312067460
:1002100090007AEFF0E48005E49000A3F09000BC39
:10022000F08070E4F542E540F541E541D39400905B
:1002300000BC402C7404F0805A74032542F582E41B
:100240003400F583E540F00542E542B541059000F4
:10025000BC800DE542C3947040397541709000BC7C
:100260007402F0802EE540645570289000BCF0C206
:10027000029000A3E02460601824FC600F24FE605C
:100280000B14600824F66004241070077FA0121A73
:1002900025D2029000A3E0120B4002BCA102E6A40A
:1002A00002F8A50399A603B3A8055EA90595B006B3
:1002B00004B10366C00387FF000000AA90007FE03E
:1002C00030E70F7DC87C0012064B7FA31217C202D5
:1002D0000578121A9240030200AA7DE87C031206F8
:1002E0004B7FA20205FC90007FE020E7030200AAFA
:1002F0007FA41217C20203AB9000BCE060030200AF
:10030000AA12176A6043240360030200AA153E1272
:10031000005E900005E0FAA3E0FBFFAE0212176159
:10032000900007E0F8A3E0888385834BF54C858334
:100330004DF54E900005E0F54FA3E0F550E4F55182
:10034000755218755306020534E53E601112177197
:10035000500302054E12067D121ABD02054E12060A
:10036000747FA00205FC9000BCE060030200AA12AA
:1003700017617F017E00121921D296121ABDC29612
:100380007FA0121A25800A7F02121A25E49000BC71
:10039000F0D2021206890200AA90007FE020E70353
:1003A0000200AA547FFD7FA61216E7E490007FF0BA
:1003B0000200AA9000BCE060030200AA12176A7053
:1003C0000302053A240360030200AA900003E0FF41
:1003D000248070057543FF80028F43153E12005E36
:1003E000900003E06480600302046EA3E0FCA3E0DD
:1003F000FD900008E0FAA3E0FBFFAE02120991C0F5
:1004000006C007900006E0FCA3E0FDAF03AE0212B9
:100410000991C006C00790000AE0FF7E0090000826
:10042000E0FCA3E0FD120991C006C00790000B128A
:10043000175AC007C00690000C12175AAA06AB073D
:1004400090000D12175A8E4F8F508A4D8B4ED04B05
:10045000D04C90000EE0F551A3E0F55275530DD04D
:1004600003D002D005D004D007D006020534E543FE
:10047000F470030205C012175324E2F582E4341A23
:10048000F583E493FF7E0012175324E5F582E434EC
:100490001AF583E493FA740193FDAC02120991C03A
:1004A00006C00712175324E3F582E4341AF583E4F7
:1004B0009312175BC006C00712175324E7F582E4B6
:1004C000341A121733C006C00712175324E8F582F6
:1004D000E4341A121733C007C00612175324E9F583
:1004E00082E4341A121733AA06AB0712175324EA10
:1004F000F582E4341A12173312175324E4F582E418
:10050000341AF583E493FD12175324EBF582E43497
:100510001AF583E493F5528D518E4F8F508A4D8B8F
:100520004ED04BD04C755301D003D002D005D0042F
:10053000D007D00612156C0200AAE53E6018E5430C
:10054000F4600B121771400612067D121ABDE4907A
:100550000080F00200AA1206897FA00205FC90002C
:100560007FE030E71D7DC87C0012062E90007FE002
:10057000547FFD7FAB1216E7E490007FF0D20202B9
:1005800000AA121A9240030200AA7DE87C03120618
:100590002E7FAA8067900003E025E0F5449000BC20
:1005A000E060030200AA12176A6047240360030296
:1005B00000AA12005EE5446007E541C394045008B8
:1005C000E49000A3F00200AA74052544F9E4340085
:1005D000754801F549894AC3E541954424FEF54B28
:1005E000900004E0F54C7B017A0079051215DE02DB
:1005F00000AA90007AE0FF12188B7FA0121A25D271
:10060000020200AA90007FE020E7030200AA7FB167
:10061000121470E490007FF00200AA7D327C007F0B
:10062000017E00121921D296121ABDC296227F01B4
:100630007E00121921D296121ABDC2969000A2E530
:100640003BF090007AE0FF12188B227F017E0012AF
:100650001921D296121ABDC29690007AE0FF1218A4
:100660008B22E49000A2F0900074F07FA412188B0B
:1006700090007A2290007AE0FF12188B22EFFD7C26
:10068000007F017E001219212290007AE0FF1218EB
:100690008B2212188B90007A228C228D238A248B35
:1006A00025AE07900080E014607F046003020921FA
:1006B00090007FE06003020921C3E5239414E52242
:1006C0009405500EC3E5259414E5249405500302C7
:1006D00009219000A2E0FFAD0685242C85252DABD5
:1006E00023AA2212184B90007DEFF0648070030261
:1006F0000921900001E524F0A3E525F09000837422
:1007000008F0E4900075F090007CF0F508F509FE23
:100710007F70FD7B017A007903120B66E490007B09
:10072000F0D29090008004F02290007DE0FD75F002
:100730000DA42454F582E4341B120D82FC74019341
:10074000120E4C90007DE075F00DA4244CF582E46F
:10075000341BF583E493FFD39400400B90007CE0BE
:100760009F5004E004F02290007DE0F96053FD12F8
:100770000E94120D82120EB59000C1120DF7245086
:10078000F582E4341B120E021209919000C3120D7F
:10079000F72451F582E4341BF583E493FFE9120D4D
:1007A00088120EB59000C5120DF72452F582E4347C
:1007B0001B120E021209919000C7EEF0A3EFF08019
:1007C0003E900078E0FEA3E0FF9000C1EEF0A3EFC2
:1007D000F0900081E0FCA3E0FD9000C3ECF0A3EDFD
:1007E000F0A3ECF0A3EDF0A3120DF72454F582E48E
:1007F000341B120E02900078E0FCA3E0120E4C9025
:100800000083E014F0900075E004F0AE22AF23E422
:10081000FCFD9000C9120B34AE24AF25E4FCFD9022
:1008200000CD120B34120E5C9000C1120922500E42
:100830009000CD120E5F9000C3120922400CC3122B
:100840000EA05020120D9AB5071A900078E522F0FC
:10085000A3E523F0C290D3120EA2406A8522088538
:1008600023098062120E5C9000C512093A500E9066
:1008700000CD120E5F9000C712093A400CD3120E41
:10088000A04033120D9A6F702D900081E522F0A3E5
:10089000E523F0D290120DDAC083C082E0FF900011
:1008A00083E0FE7401A806088002C333D8FC4FD051
:1008B00082D083F08010E490007FF0C290A3F0908B
:1008C000007D7480F022900083E07012120DDA1225
:1008D0000E33FF120003EFF09000837408F0120D46
:1008E0009A6F703D121A8A5005E490007EF0120E45
:1008F000306027121A9A7D207C037F017E00121837
:10090000F890007BE090007EF090007DE090007F0A
:10091000F04480F090007D7480F0C290E4900080FC
:10092000F022FFE0FCA3E0FDC3EF9DFFEE9CFE1272
:100930001A56C3EF9527EE952622FFE0FCA3E0FDB3
:10094000C3EF9DFFEE9CFE121A56C3EF9527EE955E
:100950002622BB010CE58229F582E5833AF583E086
:10096000225006E92582F8E622BBFE06E92582F838
:10097000E222E58229F582E5833AF583E49322BBFE
:10098000010689828A83F0225002F722BBFE01F31E
:1009900022EF8DF0A4A8F0CF8CF0A428CE8DF0A487
:1009A0002EFE22BC000BBE0029EF8DF084FFADF0BF
:1009B00022E4CCF875F008EF2FFFEE33FEEC33FCA9
:1009C000EE9DEC984005FCEE9DFE0FD5F0E9E4CEDF
:1009D000FD22EDF8F5F0EE8420D21CFEADF075F0AE
:1009E00008EF2FFFED33FD4007985006D5F0F222B7
:1009F000C398FD0FD5F0EA22C2D5EC30E709B2D595
:100A0000E4C39DFDE49CFCEE30E715B2D5E4C39F42
:100A1000FFE49EFE1209A3C3E49DFDE49CFC800359
:100A20001209A330D507C3E49FFFE49EFE22BB0159
:100A300010E58229F582E5833AF583E0F5F0A3E03D
:100A4000225009E92582F886F008E622BBFE0AE971
:100A50002582F8E2F5F008E222E5832AF583E9939E
:100A6000F5F0A3E9932275F008758200EF2FFFEEF1
:100A700033FECD33CDCC33CCC58233C5829BED9ACA
:100A8000EC99E58298400CF582EE9BFEED9AFDEC28
:100A900099FC0FD5F0D6E4CEFBE4CDFAE4CCF9A86E
:100AA0008222B800C1B90059BA002DEC8BF084CF76
:100AB000CECDFCE5F0CBF97818EF2FFFEE33FEED4D
:100AC00033FDEC33FCEB33FB10D703994004EB9977
:100AD000FB0FD8E5E4F9FA227818EF2FFFEE33FE8A
:100AE000ED33FDEC33FCC933C910D7059BE99A40BF
:100AF00007EC9BFCE99AF90FD8E0E4C9FAE4CCFBD7
:100B00002275F010EF2FFFEE33FEED33FDCC33CC2A
:100B1000C833C810D7079BEC9AE899400AED9BFDB3
:100B2000EC9AFCE899F80FD5F0DAE4CDFBE4CCFAC6
:100B3000E4C8F922ECF0A3EDF0A3EEF0A3EFF0226D
:100B4000D083D082F8E4937012740193700DA3A344
:100B500093F8740193F5828883E473740293686058
:100B6000EFA3A3A380DFEF4E6012EF60010EEDBB99
:100B7000010B89828A83F0A3DFFCDEFA2289F05020
:100B800007F709DFFCA9F022BBFEFCF309DFFCA993
:100B9000F0228E228F23900080E014604A147003AC
:100BA000020C6F24026003020D4DC29090007FE0A2
:100BB0006003020D4DAF23AE22121A174003020D3F
:100BC0004DE4F524E524120D51E4F0A3F00524E5ED
:100BD00024B40FF0E4900000F0F524120E709000A1
:100BE000807401F0D29022900076E0FCA3E0FDAE8C
:100BF000047802CEC313CE13D8F92DFFEC3EFED3FA
:100C0000E5239FE5229E4009120E70E4900000F05B
:100C100022AF23AE2212177B501F900000E09400F9
:100C20004017E4900073F09000837404F0E49000A7
:100C30007BF09000807402F022C3E5239464E522E7
:100C400094005003020D3E120EBF1210E05003023A
:100C50000D4D900000E0120D51120E73900000E057
:100C600004F0E0D3940F5003020D4DE4020D48B29E
:100C700090120EBF12122A5059900083E0B4041053
:100C8000E524C454F0120D73EFF0E4900083F022D9
:100C9000900073E0FF120D78E0FEE524540FFDEEA6
:100CA0004DF074032F120D7A120E33FF120003EF72
:100CB000F0900073E004F09000837404F0900073EF
:100CC000E0D394705003020D4D121A9AE490000084
:100CD0008076AF23AE2212177B5066121A8A500517
:100CE000E490007EF0120E306052121A9A7DF47C6D
:100CF000017F017E001218F890007BE090007EF0EA
:100D0000900083E07019120D74C083C082E0FF90E0
:100D10000000E0540FFEEF4ED082D083F0800E90A2
:100D20000000E0C454F0440F120D73EFF090007314
:100D3000E0FF120EDB90007FE04480F0C290E48080
:100D400008121A9AE4900000F0900080F022FCE56E
:100D50002A25E02484F582E43400F583228E398F3D
:100D60003AE53075F00DA4244BF582E4341BF5838D
:100D7000E49322FF900073E02403F582E43400F54D
:100D80008322F583E493FFED7E0075F00DA4244DDE
:100D9000F582E4341BF583E4932290007DE075F046
:100DA0000DA42453F582E4341BF583E493FF9000F3
:100DB00075E0227C007D641209A37C007D0A120983
:100DC00091D3EF94F4EE940122EF75F00DA4245624
:100DD000F582E4341BF583E49322900075E024FF50
:100DE000FFE434FFFE7C007D081209F874032FF540
:100DF0008274003EF58322EEF0A3EFF0E975F00D6A
:100E0000A422F583E493FF7E0022E4F9C3ED9BF571
:100E100082EC9AF583D3EF9582EE958322FFE5303D
:100E200075F00DA4244AF582E4341BF583E4932283
:100E300090007EE0FF90007BE06F22E0FCA3E0FDED
:100E4000EC547FFAD3ED9400EA940022FD1209914C
:100E50007C007D641209A38E268F27229000C9A3EF
:100E6000A3E0FEA3E022FF7E00AC37AD380209917B
:100E7000900076E522F0A3E523F022852C34852D21
:100E800035AB2BAA2AAD2922ED2BFDEC3AFCC3EFA2
:100E90009DEE9C2275F00DA4244FF582E4341B22B4
:100EA000E5239509E522950822540F75F002A4F573
:100EB0008285F08322FA740193FDAC020209917BD2
:100EC000007A007924AF23AE2222E0FEA3E0FFC324
:100ED00022EC4480AF05F0A3EFF0228F25E4F52744
:100EE000F526E5252401FFE433FEC3E5269FEE64E5
:100EF00080F8748098503974032526120D7AE0C466
:100F0000540FFF120D51120E3B4007EF120D5112FC
:100F10000ED174032526120D7AE0540FFF120D51E5
:100F2000120E3B4007EF120D51120ED1052680B272
:100F3000E4F526900000E0FFE526C39F4003020F82
:100F4000F7E526120D51E030E703020FE9AF2690D6
:100F50000000E0FEEFC39E4003020FE5EF25E02412
:100F600086F582E43400F583E0FCA3E0FDEF120D8A
:100F700051ECF0A3EDF0E4FEE5252401FDE433FCA3
:100F8000EEC39DEC6480F8748098505574032E1263
:100F90000D7AE0F9C4540FFDEF2401FBE433FAEDC0
:100FA000B50316E4B50212E9540FFDEFC454F04D39
:100FB000FD74032E120D7AEDF0EF2401FDE433FCF5
:100FC00074032E120D7AE0F9540FB50511E4B5043F
:100FD0000DE954F04FFD74032E120D7AEDF00E80E2
:100FE000970F020F4F05278009E526120D51E05497
:100FF0007FF00526020F33900000E0C39527F02212
:101000008F30E4F536120DC96D6003AF3622E5303E
:101010007028120D61120E1DFED39F400AEEFD7C5A
:1010200000AF03AE02800A120D61FD7C00AE34AF4A
:10103000351209A38E378F38800CE530120D8AF5F2
:1010400037740193F538120D61120E1DD39F402E97
:101050007C007D64AF03AE02120DB740070C7E0129
:101060007FF48000120D5D120E66AC06AD07AF0373
:10107000AE02AB3AAA391219FBEF602D8028AE34CC
:10108000AF35120DB340070C7E017FF48000120DC6
:101090005D120E66AC06AD07AB3AAA39AF35AE3479
:1010A000121A09EF6003753601E5366401702EE50A
:1010B00030120E94120E02120E69900078EEF0A318
:1010C000EFF0E53075F00DA42451F582E4341B12E5
:1010D0000E02120991900081EEF0A3EFF0AF3622DC
:1010E0008E258F268B278A288929C20012122A5022
:1010F00005D200021184E4F52A900000E0FFE52A01
:10110000C39F4003021184120D4FE0FCA3E0FDAE2B
:10111000047803CEC313CE13D8F9FBAA06EDAE04B0
:101120007802CEC313CE13D8F92BFDEE3A120D4E32
:10113000E0C4F854F0C868FEA3E0C4540F482DFF83
:10114000EC3EFEC3E5269FFDE5259E120D4EE0FA1E
:10115000A3E0FBD39DEA9C4026E5262FFFE5253E34
:10116000FEC3EB9FEA9E5017E52945284527600BF3
:10117000AB27AA28A929E52A12097FD200800505F4
:101180002A0210F9A20022AFFBAEFC7C007D0A12FD
:1011900009919000BFEEF0A3EFF09000BF120ECACD
:1011A0009464EE9400500302122930933B8E0A8F10
:1011B0000BC3EF950DF511EE950CF510900074E052
:1011C00014601F04706390007DE0FF64806007126C
:1011D0000DC964016053AB11AA10AD0FAC0EE4FF52
:1011E000803DAF11AE10803E9000BFE0FEA3E08EC8
:1011F0000CF50DC3950BF50FEE950AF50E900074E6
:10120000E014601E04702290007DE0FF64806005A1
:10121000120DC96014AB0FAA0EAD11AC107F010204
:101220000699AF0FAE0E120B92228E2B8F2C8B2DA8
:101230008A2E892FC201E4F530900000E0FFE530EE
:10124000C39F40030212C9E52CAE2B7803CEC31313
:10125000CE13D8F9FDAC06E52CAE2B7802CEC31325
:10126000CE13D8F92DF532EE3CF531E530120D51A3
:10127000120ECA9532EE953150028004AE31AF3273
:101280008E318F32E530120D51120ECA9532FDEEBD
:101290009531FCC3ED952CEC952B5028E5322FFFB2
:1012A000E5313EFEC3E52C9FE52B9E5017E52F450B
:1012B0002E452D600BAB2DAA2EA92FE53012097FEC
:1012C000D20180050530021239A20122C0E0C0F02F
:1012D000C083C082C0D075D000C000C001C002C0B1
:1012E00003C004C005C006C007E5985403F55DF4CB
:1012F0005298E55D30E017121AD89000BB1219B56C
:10130000EFF09000BBE004F0E0B41402E4F0E55D1F
:1013100030E12E9000BEE0D39400401A9000BAE075
:10132000245EF8E6FF121AD59000BAE004F09000AF
:10133000BEE014F08002D2039000BAE0B42002E4D0
:10134000F0D007D006D005D004D003D002D001D011
:1013500000D0D0D082D083D0F0D0E03212005A78C2
:101360007FE4F6D8FD75817D0213A6020076E49332
:10137000A3F8E493A34003F68001F208DFF4802988
:10138000E493A3F85407240CC8C333C4540F442077
:10139000C8834004F456800146F6DFE4800B010266
:1013A0000408102040809014F2E47E019360BCA3F6
:1013B000FF543F30E509541FFEE493A360010ECFB4
:1013C00054C025E060A840B8E493A3FAE493A3F8DE
:1013D000E493A3C8C582C8CAC583CAF0A3C8C5829E
:1013E000C8CAC583CADFE9DEE780BEC0E0C0F0C07E
:1013F00083C082C0D075D000C000C001C002C0034D
:10140000C004C005C006C007E5D85487F521F452D2
:10141000D8E5F730E508E5F730E603121ADF53F7B1
:10142000DFE52130E708E5D930E003121ADEE521D7
:1014300030E008E5DA30E003121187E52130E108F9
:10144000E5DB30E003121AE0E52130E208E5DC30AC
:10145000E003121AE1D007D006D005D004D003D0A3
:1014600002D001D000D0D0D082D083D0F0D0E032F2
:10147000AE07E4F545121999900000E004FF121937
:10148000C91214EB900000E0FFE545C39F50121213
:1014900019A91219C51219A9F5831219A3054580B6
:1014A000E3900076E0FF1219C99000761219A3129A
:1014B00014EBE4F545900073E02401FFE433FEC330
:1014C000E5459FEE6480F8748098501774032545B5
:1014D0001219C00545E545541F70DA121AD2121AC6
:1014E000CB80D27F551219C9021AD2121AD2121AFF
:1014F000CB224200D500004200D100004200D700BC
:10150000004200D3000041007F0041008000410004
:10151000A2804100740041007D8041007A004200B9
:101520000100004200810000420078000041008379
:10153000004100750041007C004100730041007EC5
:101540000041007B00410000004100BB004100BDA4
:10155000004100B9004100BA004100BE004100B89E
:1015600000C1034100BC004100A300008A498B4A2E
:1015700085535575568012194AE551D39400401988
:10158000E4F554E554C39551500FAD50AC4FAF4EF8
:10159000AE4D12194A055480EAE4F554E554C3955A
:1015A00052503274032555120D7AE05556600AAD3B
:1015B00050AC4FAF4EAE4D8008AD4CAC4BAF4AAEC9
:1015C0004912194AE556C313F55670050555755667
:1015D00080055480C7C2909000807403F0228B4530
:1015E0008A468947E4F54DE54DC3954B5043AB45DD
:1015F000AA46A947C003C002C001AB48AA49A94AEC
:10160000854D82758300120952FDC4120EA9D001C6
:10161000D002D003120A2EFFAEF0AB45AA46A9476E
:10162000ED120EA9120A2EFDACF012194A054D80DA
:10163000B6AF4C154CEF70ACC2909000807403F0C4
:1016400022C0E0C083C082C0D075D000C004C005F5
:10165000C006C00753C87F9000D5E0FEA3E0FF4E50
:10166000700353C8FB9000D112184050099000D568
:10167000E4F0A3F0800DC39000D6E09DF09000D57B
:10168000E09CF0D007D006D005D004D0D0D082D0D6
:1016900083D0E032C0E0C083C082C0D075D000C02B
:1016A00004C005C006C00753917F9000D7E0FEA399
:1016B000E0FF4E70035391FB9000D3121840500985
:1016C0009000D7E4F0A3F0800DC39000D8E09DF027
:1016D0009000D7E09CF0D007D006D005D004D0D041
:1016E000D082D083D0E032AE05AD07E4FCFB7FAA08
:1016F0001219C9AF051219C9EE75F00DA424BBF576
:1017000082E4341BF583E493FFECC39F5007740815
:101710002CFC0B80F4EB04FF12199BE4FCECC39B44
:10172000500974032C1219C00C80F27F551219C98C
:10173000021AD2F583E493FF7E00E54375F00DA411
:1017400024E5F582E4341AF583E493FC740193FDF7
:10175000020991E54375F00DA422E0FF7E00020925
:1017600091900003E0FCA3E0FD22900080E024FDC6
:1017700022901AEDE493FFD3940022AB07AA0690BF
:101780000076E0FEA3E0FF120DB340050C7DF4806F
:1017900004AC06AD07AE04AF05C3900077E09FFD33
:1017A000900076E09EFCC3ED9BEC9A5013A3E02FD3
:1017B000FF900076E03EFEC3EB9FEA9E5002800160
:1017C000C322AE07E4FDF545121999900001E0FF30
:1017D0001219C99000011219A3900078E0FF1219A4
:1017E000C99000781219A3900081E0FF1219C990E6
:1017F00000811219A374032D1219C00DBD03F67FC9
:10180000551219C9021AD2AB07AA06E4F9F87F40AB
:101810007E427D0FFC120AA2A804A905AA06AB0706
:101820007F207ED77D757C01120AA2C3E49FFFE46E
:101830009EFE22AB07AA06E4F9F87FE87E03FD22AC
:10184000E0FCA3E0FDC3EF9DEE9C228F288D298A4A
:101850002A8B2B752E80E5282480701EE4F52F122C
:101860000E7BAF2F121000EF6005852F2E8019051B
:101870002FE52FC3940840E7800E120E7BAF28128D
:101880001000EF600385282EAF2E228F4590007A3E
:10189000E0F5467F0B121ADB43DA011200707D0A75
:1018A0007C007F017E00121921121ABDE490008095
:1018B000F090007FF09000A3E545F090007AF0AF43
:1018C00046229000BBE0FF9000B9E0B507057E011D
:1018D0007F00229000B91219B5E0FD7C009000B99C
:1018E000E004F0E0B41402E4F09000B8E0FEEE4250
:1018F00004E4F0AE04AF05228E288F298C2A8D2BAC
:10190000121833121814121A329000D5E52AF0A3D7
:10191000E52BF09000D1E528F0A3E529F043C804B9
:10192000228E478F488C498D4A1218331218141290
:101930001A3E9000D7E549F0A3E54AF09000D3E5C0
:1019400047F0A3E548F0439104228C578D58D2907C
:10195000D280AD07AC067F0A7E0012002E121ABD9F
:10196000C290C280AD58AC577F0A7E0012002E0292
:101970001ABD12002A121AA1121AA8121A62121AF9
:10198000C31219E5121A80121A6C121A76121A4A28
:10199000121AAF121AC7021AB67FAA1219C9AF06D5
:1019A0000219C9A3E0FF0219C9E54525E02484F521
:1019B00082E4340022E024A4F582E43400F583229A
:1019C000F582E43400F583E0FFC2039000BDE0B48B
:1019D0002002E4F09000BDE0245EF8A607E004F0E9
:1019E000A3E004F022AF885388AF758CA0758DCB2F
:1019F000EF5440FEEF54104E428822120E0A400669
:101A0000120E88500109AF0122120E0A4006120E72
:101A100088500109AF0122C3EF9414EE94054003EE
:101A2000D38001C322AE071219997F551219C9023A
:101A30001AD2AD07AC06ECF5CBAF058FCA22AD07C5
:101A4000AC06ECF593AF058F9222C2DE75D9057511
:101A5000F9FF75960122EE30E707C3E49FFFE49E8D
:101A6000FE2275E34075E10175E20122E59154041F
:101A70005391FB429122758E5475892243885022DE
:101A8000E5C8540453C8FB42C822E5C8C320E2019C
:101A9000D322E591C320E201D32253C8FB53C87F70
:101AA0002275A41175D4CF2275A54175D57722531F
:101AB000F77F75DA302275E69075A8B022E591209F
:101AC000E2FB22E4F5A922439810223003FD22C252
:101AD000DE22D299228F9922AF99228F8C22222244
:101AE0002222011F00015E01030301183C00000DCA
:101AF0000400017201020201283C080008170001DD
:101B00008601030301183C00001F0A00012C010399
:101B10000301183C0000003B0701F40302010240EE
:101B20003C0000071200019001030301183C000073
:101B300017010001C201020201183C00012401004A
:101B400000D2010202010C3C0001011F00015E01F4
:101B5000030301183C00000D0400017201020201A0
:101B6000283C0800081700018601030301183C0007
:101B7000001F0A00012C01030301183C0000003B78
:101B80000701F403020102403C000007120001902B
:101B900001030301183C000017010001C201020209
:101BA00001183C000124010000D2010202010C3C9A
:101BB0000001011F00015E01030301183C00000D3C
:101BC0000400017201020201283C0800081700010C
:101BD0008601030301183C00001F0A00012C0103C9
:101BE0000301183C0000003B0701F403020102401E
:101BF0003C0000071200019001030301183C0000A3
:101C000017010001C201020201183C000124010079
:0A1C100000D2010202010C3C0001A9
:00000001FF
