:020000040000FA
:1000000002166B8E258F26121D12AA06AB079000D2
:1000100076E0FCA3E0FDAF26AE25121CC7EF24FF5F
:100020002222220215DB7597A522220219CB8E5BB4
:100030008F5C8C5D8D5E121B02121D9AE55E24BFE3
:100040009000FAF0E55D34FF9000F9F09000F5E5DE
:100050005BF0A3E55CF043910422220216FA121E23
:100060003453D87853DAFE121DFFE4900082F02258
:10007000D2DE22021A1ED201121C79C290C296C28E
:1000800080E4FBFD7F10121DE612068A74A4F0D2F4
:10009000AF1219B2D2969000F2E004F07006900010
:1000A000F1E004F09000F1E0B427E9A3E0B410E43B
:1000B000C296120026300109121BBD8E3E8F3F8072
:1000C00006753E01753F00E53F7004E53E64017032
:1000D000469000DAE070061219B302029A9000F11D
:1000E000E475F001120A85FED3E5F09410EE942732
:1000F0004002D296D39000F2E094309000F1E09468
:1001000075500302029AE4F0A3F09000DAF0900038
:1001100095F0C29602029A1219B29000DAE01460C9
:100120002A14700302026C14700302022A14700372
:100130000202402404600302029AE53F64AA6003BD
:1001400002029A9000DA04F002029AE53F900095CC
:10015000F09000DA7402F0E53F120BBB0214A0012C
:1001600081A10191A501B8A601C6A701CFA801EE02
:10017000A901D5B001DEB101A9C0029AFF000002B9
:100180001F120641E4900094F0900074F07FA1806B
:100190006D12005E9000DA7404F09000F07408F0C4
:1001A000E4F54175400902029A9000DA7404F0E423
:1001B000F54175400202029A12199D7FA61206BAF5
:1001C00074A6F002029A12068A74A4F002029A90AF
:1001D00000F07408F09000DA7403F002029A9000C4
:1001E000747401F07FB11206BAEFF002029A12069F
:1001F00041900094E09000EFF012199D7FA9121B2E
:100200008690007AEFF07D307C757F017E00121CB5
:100210005002029A12069C90007AEFF0E48005E406
:10022000900095F09000DAF08070E4F541E53FF53C
:1002300040E540D394009000DA402C7404F0805ADA
:1002400074032541F582E43400F583E53FF0054170
:10025000E541B540059000DA800DE541C39470405A
:10026000397540709000DA7402F0802EE53F6455D5
:1002700070289000DAF0C201900095E024606018C8
:1002800024FC600F24FE600B14600824F660042434
:100290001070077FA0121D81D201900095E0120B13
:1002A000BB02C3A102EDA402FFA503A4A603BEA83E
:1002B0000580A905B7B0062AB10371C00392FF00FB
:1002C0000000B2900081E030E70F7DC87C0012068C
:1002D000737FA3121ABD02059A121DF74003020094
:1002E000B27DE87C031206737FA202062290008191
:1002F000E020E7030200B27FA4121ABD0203B69009
:1003000000DAE060030200B21219BA60432405600B
:10031000030200B21206C1900005E0FAA3E0FBFF61
:10032000AE021219A9900007E0F8A3E08883858344
:1003300049F54A85834BF54C900005E0F54DA3E067
:10034000F54EE4F54F755018F551755206020552F9
:100350009000F0E060111219C1500302056E120600
:10036000A5121E2202056E12069CC2807FA0020604
:10037000229000DAE060030200B21219A97F017E28
:1003800000121C50D296121E22C2967FA0121D810E
:10039000800A7F02121D81E49000DAF0D201120679
:1003A000B10200B2900081E020E7030200B2547F66
:1003B000FD7FA6121A71E4900081F00200B2900055
:1003C000DAE060030200B21219BA70030205582481
:1003D0000560030200B2900003E0FF248070057501
:1003E00042FF80028F421206C1900003E0648060E9
:1003F0000302047BA3E0FCA3E0FD900008E0FAA365
:10040000E0FBFFAE021209E8C006C007900006E05C
:10041000FCA3E0FDAF03AE021209E8C006C00790DE
:10042000000AE0FF7E00900008E0FCA3E0FD120956
:10043000E8C006C00790000B121996C007C00690CE
:10044000000C121996AA06AB0790000D1219968E91
:100450004D8F4E8A4B8B4CD049D04A90000EE0F520
:100460004FA3E0F550A3E0F55175520ED003D00232
:10047000D005D004D007D006020552E542F470033F
:100480000205E212198F2445F582E4341EF583E457
:1004900093FF7E0012198F2448F582E4341EF58301
:1004A000E493FA740193FDAC021209E8C006C00798
:1004B00012198F2446F582E4341EF583E493121951
:1004C00097C006C00712198F244AF582E4341E1221
:1004D000196FC006C00712198F244BF582E4341E31
:1004E00012196FC007C00612198F244CF582E4342C
:1004F0001E12196FAA06AB0712198F244DF582E45C
:10050000341E12196F12198F2447F582E4341EF538
:1005100083E493FD12198F244EF582E4341EF58393
:10052000E493FC12198F2451F582E4341EF583E420
:1005300093F5518C508D4F8E4D8F4E8A4B8B4CD0F6
:1005400049D04A755201D003D002D005D004D0075B
:10055000D00612177F0200B29000F0E06018E5426A
:10056000F4600B1219C140061206A5121E22E49077
:100570000082F00200B21206B1C2807FA002062201
:10058000900081E030E71D7DC87C00120654900089
:1005900081E0547FFD7FAB121A71E4900081F0D2AC
:1005A000010200B2121DF740030200B27DE87C0395
:1005B0001206547FAA806B9000DAE060030200B25A
:1005C0001219BA6051240560030200B212005E9055
:1005D0000003E025E0900000F06007E540C39404CC
:1005E0005008E4900095F00200B2900000E0FF2473
:1005F00005F9E43400754601F5478948C3E5409F95
:1006000024FEF549900004E0F54A7B017A00790563
:100610001218FF0200B290007AE0FF121B86C2801F
:100620007FA0121D81D2010200B2900081E020E77C
:10063000030200B27FB1121803E4900081F00200BF
:10064000B27D327C007F017E00121C50D296121EB9
:1006500022C296227F017E00121C50D296121E22C8
:10066000C2969000EFE0900094F090007AE0FF12C4
:100670001B86227F017E00121C50D296121E22C2BF
:100680009690007AE0FF121B8622E4900094F0908E
:100690000074F07FA4121B8690007A2290007AE00A
:1006A000FF121B8622EFFD7C007F017E00121C5092
:1006B0002290007AE0FF121B8622121B8690007A9D
:1006C000229000F0E014F012005E22EC4D6011E880
:1006D000497017ED33EC3304600DE4FCFFFEFD229E
:1006E000E933E8330470F802099412095F58046092
:1006F00009E4CC2481500628500902099E284003B1
:1007000002099BC0E0EB4A7044B98006D0E0FB02CE
:10071000098AEF4E701CBD8008EBFFEAFEE9FD8000
:10072000EBE98DF0A4FEE5F00207B4E9CDF9EAFEAD
:10073000EBFFEF89F0A4FCE5F0CE89F0A42EFFE4F6
:1007400035F0CD89F0A42DFEE435F08067EF4E70D2
:1007500005BD80D780C3EF8BF0A4ACF0EE8BF0A486
:100760002CFCE435F0F8EF8AF0A42CE5F038FCE43A
:1007700033CB8DF0A42CFCE5F03BF8EE8AF0A42CF2
:10078000FCE5F038F8E433CF89F0A42CFCE5F03830
:10079000CF3400CE89F0A42FFFE5F03EFEE433C94C
:1007A0008DF0A42EFEE5F039CD8AF0A42FFFE5F000
:1007B0003EFEE43DFD33D0E0FB50070BBB000F02D3
:1007C000099EEC2CFCEF33FFEE33FEED33FD020906
:1007D0007602099EEC5D046005E859047003020985
:1007E0009412095F580460F6EC4860F2EC7004FD66
:1007F000FEFF22C860DB2481C85009C39860025004
:100800000602099B9850CAF582E9294B4A7005AB4C
:100810008202098A75F0007C1A7880C3EF9BEE9AF9
:10082000ED99400DC3EF9BFFEE9AFEED99FDE84276
:10083000F0DC23ACF0D0E0FFD0E0FED0E0FDAB82F6
:1008400020E7101BEB60BAEC2CFCEF33FFEE33FE1D
:10085000ED33FD020976E803F830E705C0F075F0E6
:1008600000EF2FFFEE33FEED33FD40B830E7C280DE
:10087000AA74F8CC6480CCC86480C8F58204604F48
:10088000C3EB9FF5F0EA9E42F0E99D42F0E89C45FB
:10089000F0603C501DE5825FFFE582D313CB5BCB5C
:1008A000F42B5582FB50280ABA002409B90020080D
:1008B000801DE5825BFBE582D313CF5FCFF4C313CA
:1008C0002F5582FF50090EBE00050DBD00010CC35F
:1008D000EB9FF5F0EA9E42F0E99D42F0E89C45F07E
:1008E0006007CC4820E701B3EC2275F020800E753C
:1008F000F010800575F0087D007E007F003392D5F2
:1009000030D503120BA1EC334010EF33FFEE33FE72
:10091000ED33FDEC33FCD5F0ED22E5F0247EA2D5DD
:1009200013CC92E7CDCEFF22EDD2E7CD33EC33925C
:10093000D524814006E4FFFEFDFC22FCE4CFCECDB1
:10094000CC24E0501174FF80EDC3CC13CCCD13CD7B
:10095000CE13CECF13CF0470F030D5DE020BA1E959
:10096000D2E7C933E833F892D5EDD2E7CD33EC3393
:10097000FC5002B2D522EC30E7100FBF000C0EBEC7
:1009800000080DBD00040BEB6014A2D5EB13FCEDC9
:1009900092E7FD2274FFFCFDFEFF22E480F8A2D561
:1009A00074FF13FC7D80E480EFBB010CE58229F528
:1009B00082E5833AF583E0225006E92582F8E622B3
:1009C000BBFE06E92582F8E222E58229F582E5836D
:1009D0003AF583E49322BB010689828A83F0225090
:1009E00002F722BBFE01F322EF8DF0A4A8F0CF8C1A
:1009F000F0A428CE8DF0A42EFE22BC000BBE002950
:100A0000EF8DF084FFADF022E4CCF875F008EF2F05
:100A1000FFEE33FEEC33FCEE9DEC984005FCEE9DC2
:100A2000FE0FD5F0E9E4CEFD22EDF8F5F0EE8420DE
:100A3000D21CFEADF075F008EF2FFFED33FD40073F
:100A4000985006D5F0F222C398FD0FD5F0EA22C2E5
:100A5000D5EC30E709B2D5E4C39DFDE49CFCEE3053
:100A6000E715B2D5E4C39FFFE49EFE1209FAC3E482
:100A70009DFDE49CFC80031209FA30D507C3E49F76
:100A8000FFE49EFE22C5F0F8A3E028F0C5F0F8E5EB
:100A900082158270021583E038F022BB0110E582D6
:100AA00029F582E5833AF583E0F5F0A3E0225009C9
:100AB000E92582F886F008E622BBFE0AE92582F8DD
:100AC000E2F5F008E222E5832AF583E993F5F0A345
:100AD000E9932275F008758200EF2FFFEE33FECD0B
:100AE00033CDCC33CCC58233C5829BED9AEC99E5EE
:100AF0008298400CF582EE9BFEED9AFDEC99FC0F7E
:100B0000D5F0D6E4CEFBE4CDFAE4CCF9A88222B845
:100B100000C1B90059BA002DEC8BF084CFCECDFCCA
:100B2000E5F0CBF97818EF2FFFEE33FEED33FDEC57
:100B300033FCEB33FB10D703994004EB99FB0FD840
:100B4000E5E4F9FA227818EF2FFFEE33FEED33FDDE
:100B5000EC33FCC933C910D7059BE99A4007EC9BDD
:100B6000FCE99AF90FD8E0E4C9FAE4CCFB2275F06D
:100B700010EF2FFFEE33FEED33FDCC33CCC833C87E
:100B800010D7079BEC9AE899400AED9BFDEC9AFC84
:100B9000E899F80FD5F0DAE4CDFBE4CCFAE4C8F933
:100BA00022C3E49FFFE49EFEE49DFDE49CFC22EC56
:100BB000F0A3EDF0A3EEF0A3EFF022D083D082F803
:100BC000E4937012740193700DA3A393F8740193CE
:100BD000F5828883E4737402936860EFA3A3A38013
:100BE000DFEF4E6012EF60010EEDBB010B89828AD0
:100BF00083F0A3DFFCDEFA2289F05007F709DFFC5F
:100C0000A9F022BBFEFCF309DFFCA9F0228C228DA7
:100C1000238A248B25AE07900082E0147003020C17
:100C2000A2046003020E9EC290900081E060030265
:100C30000E9EC3E5239414E5229405500EC3E525CA
:100C40009414E52494055003020E9E900094E0FF56
:100C5000AD0685242C85252DAB23AA22121B469098
:100C6000007FEFF064807003020E9E900001E52487
:100C7000F0A3E525F09000857408F0E4900075F08D
:100C800090007CF0F508F509FE7F70FD7B017A008D
:100C90007903120BE1E490007BF0D2909000820483
:100CA000F02290007FE0FD75F00DA424B7F582E4FA
:100CB000341E12108F1210B0FC7401931211379071
:100CC000007FE075F00DA424AFF582E4341EF583B7
:100CD000E493FFD39400400B90007CE09F5004E02D
:100CE00004F02290007FE0F96051FD121084121090
:100CF000B012118E9000DF12110B24B3F582E43490
:100D00001E12108F1209E89000E112110B24B4F5A5
:100D100082E4341E12108FE91210B112118E90006D
:100D2000E312110B24B5F582E4341E12108F120960
:100D3000E89000E5EEF0A3EFF0803E900078E0FE52
:100D4000A3E0FF9000DFEEF0A3EFF0900083E0FC63
:100D5000A3E0FD9000E1ECF0A3EDF0A3ECF0A3ED37
:100D6000F0A312110B24B7F582E4341E12108F90F9
:100D70000078E0FCA3E0121137900085E014F090B9
:100D80000075E004F0AE22AF23E4FCFD9000E71212
:100D90000BAFAE24AF25E4FCFD9000EB120BAF12BD
:100DA00011479000DF120E9F500E9000EB12114A77
:100DB0009000E1120E9F400CC312117A50201210C5
:100DC00097B5071A900078E522F0A3E523F0C290CA
:100DD000D312117C4066852208852309805E12119A
:100DE000479000E3120EB7500E9000EB12114A909C
:100DF00000E5120EB7400CD312117A40331210974F
:100E00006F702D900083E522F0A3E523F0D29012BD
:100E100010EEC083C082E0FF900085E0FE7401A860
:100E200006088002C333D8FC4FD082D083F0800CF8
:100E3000E4900081F0C290A312119822900085E006
:100E400070161210EEE0FF90007BE06FFF121D3570
:100E5000EFF09000857408F01210976F7040121D2B
:100E6000EF5005E4900080F0900080E0FF90007B60
:100E7000E06F6023121DFF7D207C037F017E001246
:100E80001C2790007BE0900080F090007FE09000B5
:100E900081F04480121198C290E4900082F022FF09
:100EA000E0FCA3E0FDC3EF9DFFEE9CFE121DB2C36C
:100EB000EF9527EE952622FFE0FCA3E0FDC3EF9D12
:100EC000FFEE9CFE121DB2C3EF9527EE9526228EF3
:100ED000228F23900082E024FE6034146068147036
:100EE00003020FC22404600302105DC290900081CF
:100EF000E0600302105DAF23AE22121D73400302B7
:100F0000105D90007612116D9000827402F0221232
:100F1000105E501890007DE09402405CD290E4A3F3
:100F2000F0900000F09000827403F022C3900077EC
:100F3000E09523900076E09522500412116D2290E6
:100F4000007DE004F02212105E5030900000E0942A
:100F500000402890007EE0FF90007DE0B50719C2B8
:100F600090E4900073F09000857404F0E490007BAE
:100F7000F09000827404F022021005C3E52394640B
:100F8000E5229400400790007EE0B4FF0280769056
:100F9000007EE004F01211A0121540500302105D13
:100FA000900000E0121069E522F0A3E523F0900024
:100FB00000E004F0E0D39407500302105DE4F00277
:100FC0001059B2901211A01214A3503C900085E069
:100FD000B40410E524C454F0121075EFF0E490004E
:100FE00085F022121076E0FFE524540FFEEF4EF05C
:100FF000900073E004F09000857404F0900073E0BA
:10100000D394704058E48051AF23AE2212000350B5
:1010100047900081E0703C900085E07019121076D6
:10102000C083C082E0FF900000E0540FFEEF4ED07E
:1010300082D083F0800E900000E0C454F0440F1280
:101040001075EFF0900073E0FF1211C3900081E083
:101050004480F0C290E48001E4900082F022AF234B
:10106000AE2212000322FCE52A25E02486F582E464
:101070003400F58322FF900073E02403F582E4340A
:1010800000F5832275F00DA424B2F582E4341EF538
:1010900083E493FF7E002290007FE075F00DA4248E
:1010A000B6F582E4341EF583E493FF900075E022E8
:1010B000ED75F00DA424B0F582E4341EF583E493BD
:1010C00022EF75F00DA424B9F582E4341EF583E413
:1010D0009322AC3CAD3DE41208EFE4FBFA79C8780A
:1010E000421207D4E4FBFA792078410206CB900043
:1010F00075E024FFFFE434FFFE7C007D08120A4FF8
:1011000074032FF58274003EF58322EEF0A3EFF016
:10111000E975F00DA422E0FCA3E0FDEC547FFAD3C6
:10112000ED9400EA940022AC38AD391209E8AC061F
:10113000AD07AB3BAA3A22FD1209E87C007D6412A0
:1011400009FA8E268F27229000E7A3A3E0FEA3E0F2
:1011500022AB46AA47A948854C827583000209A99B
:10116000852C34852D35AB2BAA2AAD2922E522F01A
:10117000A3E523F0E490007DF022E5239509E52224
:10118000950822AFFBAEFC7C007D0A0209E8FA74E8
:101190000193FDAC020209E8F090007F7480F02218
:1011A0007B007A007924AF23AE2222E53075F00D62
:1011B000A422E0FEA3E0FFC322EC4480AF05F0A32D
:1011C000EFF0228F25E4F527F526E5252401FFE43D
:1011D00033FEC3E5269FEE6480F87480985039741E
:1011E00003252612107CE0C4540FFF12106912115F
:1011F000164007EF1210691211B974032526121058
:101200007CE0540FFF1210691211164007EF121004
:10121000691211B9052680B2E4F526900000E0FFBE
:10122000E526C39F40030212DFE526121069E03075
:10123000E7030212D1AF26900000E0FEEFC39E400C
:10124000030212CDEF25E02488F582E43400F58313
:10125000E0FCA3E0FDEF121069ECF0A3EDF0E4FE7A
:10126000E5252401FDE433FCEEC39DEC6480F874B5
:101270008098505574032E12107CE0F9C4540FFD71
:10128000EF2401FBE433FAEDB50316E4B50212E9ED
:10129000540FFDEFC454F04DFD74032E12107CED7D
:1012A000F0EF2401FDE433FC74032E12107CE0F90E
:1012B000540FB50511E4B5040DE954F04FFD740366
:1012C0002E12107CEDF00E80970F0212370527804A
:1012D00009E526121069E0547FF0052602121B90E2
:1012E0000000E0C39527F0228F308A328B33E4F57B
:1012F00036F5371210C16D6006E5365537FF22E529
:10130000307014901EAE93FD7C00AE34AF351209E0
:10131000FA8E388F39800CE5301210B1F53874012F
:1013200093F5391211AB24ADF582E4341EF583E454
:1013300093D394004021AF33AE321213C324ADF5E2
:1013400082E4341E12108F121127AF33AE32121CFA
:10135000C7EF60037536011211AB24AEF582E43499
:101360001EF583E493D394004021AF35AE341213BD
:10137000C324AEF582E4341E12108F121127AF354C
:10138000AE34121CC7EF6003753701E5365537FBE5
:101390006401702CE530121084AC38AD391209E8C4
:1013A000900078EEF0A3EFF01211AB24B4F582E4D4
:1013B000341E12108F1209E8900083EEF0A3EFF0B4
:1013C000AF0322121D128E3A8F3BE53075F00DA44B
:1013D00022D3E50B9400E50A9400401F121183C349
:1013E000EF950BFFEE950A9000DDF0A3EFF0AFFB59
:1013F000AEFC1209E88E0A8F0B80081211838E0A48
:101400008F0B229000DD1211B29464EE9400501103
:10141000121199E4F50CF50DF50EF50F900082F020
:101420002230933C8E0E8F0F900074E014602B04DA
:101430007070E50D450C606AE50F450E6064900024
:101440007FE0FF648060071210C164016054AB0F3D
:10145000AA0EAD0DAC0CE4FF803EAF0FAE0E803F88
:101460009000DDE0F50CA3E0F50D900074E0146051
:101470002A04702EE50D450C6028E50F450E60220C
:1014800090007FE0FF648060051210C16014AB0D16
:10149000AA0CAD0FAC0E7F01020C0DAF0DAE0C12FD
:1014A0000ECF228E2B8F2C8B2D8A2E892FE4F53098
:1014B000900000E0FFE530C39F400302153EE52C9D
:1014C000AE2B7803CEC313CE13D8F9FDAC06E52CB2
:1014D000AE2B7802CEC313CE13D8F92DF532EE3CE5
:1014E000F531E5301210691211B29532EE95315096
:1014F000028004AE31AF328E318F32E53012106986
:101500001211B29532FDEE9531FCC3ED952CEC95A0
:101510002B5026E5322FFFE5313EFEC3E52C9FE53B
:101520002B9E5015E52F452E452D600BAB2DAA2E79
:10153000A92FE5301209D6D32205300214B0C322F8
:101540008E258F268B278A2889291214A3500122E1
:10155000E4F52A900000E0FFE52AC39F507B1210BB
:1015600067E0FCA3E0FDAE047803CEC313CE13D82E
:10157000F9FBAA06EDAE047802CEC313CE13D8F958
:101580002BFDEE3A121066E0C4F854F0C868FEA3D2
:10159000E0C4540F482DFFEC3EFEC3E5269FFDE559
:1015A000259E121066E0FAA3E0FBD39DEA9C40243E
:1015B000E5262FFFE5253EFEC3EB9FEA9E5015E58D
:1015C0002945284527600BAB27AA28A929E52A1217
:1015D00009D6D322052A021553C322C0E0C0F0C0A9
:1015E00083C082C0D075D000C000C001C002C0035B
:1015F000C004C005C006C007E5985403F55FF45267
:1016000098E55F30E017121E3D9000D9121CBCEF28
:10161000F09000D9E004F0E0B44002E4F0E55F307F
:10162000E12E9000DCE0D39400401A9000D8E02432
:1016300060F8E6FF121E3A9000D8E004F09000DC5B
:10164000E014F08002D2009000D8E0B42002E4F070
:10165000D007D006D005D004D003D002D001D000EE
:10166000D0D0D082D083D0F0D0E032120022787F68
:10167000E4F6D8FD75817F0216B5020076E493A3E7
:10168000F8E493A34003F68001F208DFF48029E434
:1016900093A3F85407240CC8C333C4540F4420C880
:1016A000834004F456800146F6DFE4800B01020417
:1016B0000810204080901885E47E019360BCA3FF51
:1016C000543F30E509541FFEE493A360010ECF544C
:1016D000C025E060A840B8E493A3FAE493A3F8E43B
:1016E00093A3C8C582C8CAC583CAF0A3C8C582C8A7
:1016F000CAC583CADFE9DEE780BEC0E0C0F0C083B0
:10170000C082C0D075D000C000C001C002C003C0FC
:1017100004C005C006C007E5D85487F521F452D8A7
:10172000E5F730E508E5F730E60312005A53F7DF36
:10173000E52130E708E5D930E00312002AE5213041
:10174000E008E5DA30E0031213D1E52130E108E5E5
:10175000DB30E003121E43E52130E208E5DC30E037
:1017600003121E44D007D006D005D004D003D00207
:10177000D001D000D0D0D082D083D0F0D0E0328A57
:10178000478B488D828C83AD07AC068552547555C6
:1017900080AB82AA83AF51121BF3E54FD394004074
:1017A0001BE4F553E553C3954F5011AB4EAA4DAD15
:1017B0004CAC4BAF51121BF3055380E8E4F553E5F5
:1017C00053C3955050347403255412107CE0555582
:1017D000600AAB4EAA4DAD4CAC4B8008AB4AAA494F
:1017E000AD48AC47AF51121BF3E555C313F5557027
:1017F000050554755580055380C5C29090008274CC
:1018000005F022AE07E4F543121CA0900000E004AE
:10181000FF121CF612187E900000E0FFE543C39F04
:101820005012121CB0121CF2121CB0F583121CAA2A
:10183000054380E3900076E0FF121CF690007612DC
:101840001CAA12187EE4F543900073E02401FFE423
:1018500033FEC3E5439FEE6480F87480985017749C
:10186000032543121CED0543E543541F70DA121E95
:1018700037121E3080D27F55121CF6021E37121E00
:1018800037121E30224200F700004200F3000042EF
:1018900000F900004200F500004100810041008293
:1018A00000410094804100740041007F8041007A33
:1018B0000042000100004200830000420078000066
:1018C000410085004100750041007C00410073002B
:1018D0004100800041007B00410000004100D90030
:1018E0004100DB004100D7004100D8004100DC008E
:1018F0004100D600C1004100DA0041009500008B94
:10190000438A448945754B01E4F54CE54CC3954940
:10191000502B121151C4540FFF640F600912194D5E
:1019200070027F018F4B121151FF540F640F600939
:1019300012194D70027F018F4B054C80CEAF4A15B6
:101940004AEF70C1C2909000827405F022AB43AAA6
:1019500044A945EF540775F002A4F58285F083127F
:101960000A9BFDACF0AF4B121D62E54B7F0022F5E8
:1019700083E493FF7E00E54275F00DA42448F582D0
:10198000E4341EF583E493FC740193FD0209E8E559
:101990004275F00DA422E0FF7E000209E890009459
:1019A0007480F0E4900074F022900003E0FCA3E067
:1019B000FD22E49000F1F0A3F022900082E024FBED
:1019C00022901E50E493FFD3940022C0E0C083C055
:1019D00082C0D075D000C004C005C006C00753C87F
:1019E0007F9000F7E0FEA3E0FF4E700353C8FB902A
:1019F00000F3121B3B50099000F7E4F0A3F0800DB8
:101A0000C39000F8E09DF09000F7E09CF0D007D084
:101A100006D005D004D0D0D082D083D0E032C0E050
:101A2000C083C082C0D075D000C004C005C006C04D
:101A30000753917F9000F9E0FEA3E0FF4E7003533F
:101A400091FB9000F5121B3B50099000F9E4F0A3C4
:101A5000F0800DC39000FAE09DF09000F9E09CF05A
:101A6000D007D006D005D004D0D0D082D083D0E02B
:101A700032AE05AD07E4FCFB7FAA121CF6AF0512DF
:101A80001CF6EE75F00DA4241EF582E4341FF583D8
:101A9000E493FFECC39F500774082CFC0B80F4EB1D
:101AA00004FF121CA2E4FCECC39B500974032C122B
:101AB0001CED0C80F27F55121CF6021E37AE07E4B7
:101AC000FDF543121CA0900001E0FF121CF69000EF
:101AD00001121CAA900078E0FF121CF69000781208
:101AE0001CAA900083E0FF121CF6900083121CAA2F
:101AF00074032D121CED0DBD03F67F55121CF6026A
:101B00001E37AB07AA06E4F9F87F407E427D0FFC42
:101B1000120B0FA804A905AA06AB077F207ED77D6C
:101B2000757C01120B0FC3E49FFFE49EFE22AB07FE
:101B3000AA06E4F9F87FE87E03FD22E0FCA3E0FDBD
:101B4000C3EF9DEE9C228F288D298A2A8B2B752E20
:101B500080E5282480701EE4F52F121160AF2F124B
:101B600012E8EF6005852F2E8019052FE52FC3940D
:101B70000840E7800E121160AF281212E8EF6003F0
:101B800085282EAF2E228F4390007AE0F5447F0BFC
:101B9000121E4043DA011200707D0A7C007F017E34
:101BA00000121C50121E22E4900082F0900081F07E
:101BB000900095E543F090007AF0AF44229000D970
:101BC000E0FF9000D7E0B507057E017F002290007E
:101BD000D7121CBCE0FD7C009000D7E004F0E0B41C
:101BE0004002E4F09000D6E0FEEE4204E4F0AE04E1
:101BF000AF05228F568C578D588A598B5AD290E553
:101C000056640124FF92807F0A7E0012002E121E6D
:101C100022C290E55624FF9280AD5AAC597F0A7ECD
:101C20000012002E021E228E288F298C2A8D2B1244
:101C30001B2E121B0F121D8E9000F7E52AF0A3E554
:101C40002BF09000F3E528F0A3E529F043C8042227
:101C50008E458F468C478D48121B2E121B0F121D6E
:101C60009A9000F9E547F0A3E548F09000F5E545C6
:101C7000F0A3E546F043910422120021121E061241
:101C80001E0D121DBE121E28121D4C121DDC121D2F
:101C9000C8121DD2121DA6121E14121E2C021E1BCB
:101CA0007FAA121CF6AF06021CF6A3E0FF021CF688
:101CB000E54325E02486F582E4340022E02496F50D
:101CC00082E43400F58322C3ED9BF582EC9AF58320
:101CD000C3E5829FE5839E5011ED2BFDEC3AFCC3DA
:101CE000EF9DEE9C50047F0180027F0022F582E48C
:101CF0003400F583E0FFC2009000DBE0B42002E492
:101D0000F09000DBE02460F8A607E004F0A3E00414
:101D1000F0228E3C8F3D1210D2E4FBFA79FA784320
:101D20001208715009E4FFFE7DFA7C438003121013
:101D3000D2120928227E1DE4FDEF30E70625E06E71
:101D4000FF8004EF25E0FF0DBD08EE22AF88538829
:101D5000AF758CA0758DCBEF5440FEEF54104E4202
:101D60008822D290EF24FF92807F0A7E0012002EFC
:101D7000021E22C3EF9414EE94054003D38001C3E6
:101D800022AE07121CA07F55121CF6021E37AD07AB
:101D9000AC06ECF5CBAF058FCA22AD07AC06ECF56F
:101DA00093AF058F9222C2DE75D90575F9FF75963E
:101DB0000122EE30E707C3E49FFFE49EFE2275E3B5
:101DC0004075E10175E20122E59154045391FB4213
:101DD0009122758E5475892243885022E5C8540497
:101DE00053C8FB42C82253984FEB4F4DF59822E55C
:101DF000C8C320E201D322E591C320E201D32253DC
:101E0000C8FB53C87F2275A41175D4CF2275A54194
:101E100075D5772253F77F75DA302275E69075A86D
:101E2000B022E59120E2FB22E4F5A922439810229A
:101E30003000FD22C2DE22D299228F9922AF992250
:101E40008F8C222222011F00015E01030301183C36
:101E500000000D0400017201020201283C08000884
:101E60001700018601030301183C00001F0A00014E
:101E70002C01030301183C0000003B0701F403029E
:101E80000102403C00000712000190010303011809
:101E90003C000017010001C201020201183C0001D0
:101EA00024010000D2010202010C3C0001011F00CC
:101EB000015E01030301183C00000D0400017201E2
:101EC000020201283C0800081700018601030301F3
:101ED000183C00001F0A00012C01030301183C00FC
:101EE00000003B0701F403020102403C000007121E
:101EF00000019001030301183C000017010001C21A
:101F000001020201183C000124010000D20102027A
:101F1000010C3C0001011F00015E01030301183C9C
:101F200000000D0400017201020201283C080008B3
:101F30001700018601030301183C00001F0A00017D
:101F40002C01030301183C0000003B0701F40302CD
:101F50000102403C00000712000190010303011838
:101F60003C000017010001C201020201183C0001FF
:0D1F700024010000D2010202010C3C00011E
:00000001FF
