:020000040000FA
:100000000214007E1DE4FDEF30E70625E06EFF8060
:1000100004EF25E0FF0DBD08EE2253984FEB4F4D46
:10002000F598220213707597A522220216DF8E5BC7
:100030008F5C8C5D8D5E12185D121ACAE55E24BF5E
:100040009000D6F0E55D34FF9000D5F09000D1E54A
:100050005BF0A3E55CF0439104222202148F121B93
:100060006653D87853DAFE121B31E4900080F022F8
:10007000D2DE22021732D202121A32C290C296C2C5
:1000800080E4FBFD7F1012001A12067174A4F0D2F6
:10009000AFE4F53EF53FD296053FE53F7002053EE1
:1000A000B410F3E53EB427EEC296120026300209E2
:1000B0001219598E418F428006754101754200E543
:1000C000427004E541640170409000D8E07007F58B
:1000D0003EF53F020293053FE53F7002053ED39493
:1000E00010E53E94274002D296D3E53F9430E53E9A
:1000F00094755003020293E4F53EF53F9000D8F06A
:100100009000D7F0C296020293E4F53EF53F9000CE
:10011000D8E014602A14700302026514700302020E
:100120002314700302023924046003020293E5429F
:1001300064AA60030202939000D804F0020293E5DF
:10014000429000D7F0A37402F0E542120B52020B6A
:10015000A00173A10183A501A7A601BDA701C6A89F
:1001600001E2A901C9B001D2B10198C00293FF0018
:1001700000021A12062AE49000A2F0900074F07FA8
:10018000A1807212005E9000D87404F0754008E4FB
:10019000F5447543090202939000D87404F0E4F525
:1001A000447543020202939000A27480F0E4900030
:1001B00074F07FA61206A174A6F0020293120671D3
:1001C00074A4F00202937540089000D87403F00202
:1001D00002939000747401F07FB11206A1EFF00257
:1001E000029312062A9000A2E0F53D7480F0E4909C
:1001F0000074F07FA912192290007AEFF07D307C14
:10020000757F017E001219B80202931206839000D6
:100210007AEFF0E49000D8F08079E49000D7F0A372
:10022000F08070E4F544E542F543E543D394009053
:1002300000D8402C7404F0805A74032544F582E4FD
:100240003400F583E542F00544E544B543059000EC
:10025000D8800DE544C3947040397543709000D840
:100260007402F0802EE542645570289000D8F0C2E8
:10027000029000D7E02460601824FC600F24FE6028
:100280000B14600824F66004241070077FA0121A73
:10029000EED2029000D7E0120B5202BCA102E6A4FB
:1002A00002F8A5039CA603B6A80563A905A0B0069D
:1002B00013B10369C0038AFF000000AA90007FE029
:1002C00030E70F7DC87C0012065A7FA3121818026F
:1002D000057D121B2940030200AA7DE87C0312065B
:1002E0005A7FA202059890007FE020E7030200AA4F
:1002F0007FA41218180203AE9000D8E06003020039
:10030000AA900080E024FC6043240460030200AA59
:10031000154012005E900005E0FAA3E0FBFFAE027C
:100320001218CF900007E0F8A3E0888385834DF58D
:100330004E85834FF550900005E0F551A3E0F5524E
:10034000E4F55375541875550602053AE5406011F9
:100350001218D8500302055412068C121B540205C1
:10036000541206837FA00205989000D8E060030233
:1003700000AA1218CF7F017E001219B8D296121B64
:1003800054C2967FA0121AEE800A7F02121AEEE47F
:100390009000D8F0D2021206980200AA90007FE0E6
:1003A00020E7030200AA547FFD7FA6121785E49080
:1003B000007FF00200AA9000D8E060030200AA903B
:1003C0000080E024FC700302054024046003020066
:1003D000AA900003E0FF248070057545FF80028F1E
:1003E00045154012005E900003E064806003020443
:1003F00074A3E0FCA3E0FD900008E0FAA3E0FBFF9B
:10040000AE021209A3C006C007900006E0FCA3E0FC
:10041000FDAF03AE021209A3C006C00790000AE0B8
:10042000FF7E00900008E0FCA3E0FD1209A3C006D7
:10043000C00790000B1218C8C007C00690000C122D
:1004400018C8AA06AB0790000D1218C88E518F521B
:100450008A4F8B50D04DD04E90000EE0F553A3E064
:10046000F55475550DD003D002D005D004D007D077
:100470000602053AE545F470030205D21218C124BC
:1004800079F582E4341BF583E493FF7E001218C1F2
:10049000247CF582E4341BF583E493FA740193FD24
:1004A000AC021209A3C006C0071218C1247AF58253
:1004B000E4341BF583E4931218C9C006C007121870
:1004C000C1247EF582E4341B1218A1C006C00712B5
:1004D00018C1247FF582E4341B1218A1C007C0069E
:1004E0001218C12480F582E4341B1218A1AA06ABAD
:1004F000071218C12481F582E4341B1218A11218C6
:10050000C1247BF582E4341BF583E493FD1218C10A
:100510002482F582E4341BF583E493F5548D538EE5
:10052000518F528A4F8B50D04DD04E755501D0030C
:10053000D002D005D004D007D0061216100200AAAF
:10054000E5406018E545F4600B1218D84006120625
:100550008C121B54E4900080F00200AA1206987FCF
:10056000A0803590007FE030E71D7DC87C0012063A
:100570003D90007FE0547FFD7FAB121785E4900033
:100580007FF0D2020200AA121B2940030200AA7DBA
:10059000E87C0312063D7FAA121AEED2020200AADC
:1005A000900003E025E0F5469000D8E060030200EB
:1005B000AA900080E0700512005E800B900080E041
:1005C000640460030200AAE5466007E543C394049F
:1005D0005008E49000D7F00200AA74052546F9E41B
:1005E0003400754A01F54B894CC3E543954624FE1A
:1005F000F54D900004E0F54E7B017A007905121666
:10060000827FA0121AEE90007AE0FF121922D20225
:100610000200AA90007FE020E7030200AA7FB11247
:100620001514E490007FF00200AA7D327C007F0167
:100630007E001219B8D296121B54C296227F017EF8
:10064000001219B8D296121B54C2969000A2E53D32
:10065000F090007AE0FF121922227F017E00121929
:10066000B8D296121B54C29690007AE0FF1219225B
:1006700022E49000A2F0900074F07FA4121922905E
:10068000007A2290007AE0FF12192222EFFD7C000E
:100690007F017E001219B82290007AE0FF12192221
:1006A0002212192290007A228C228D238A248B25F3
:1006B000AE07900080E014607F046003020933906D
:1006C000007FE06003020933C3E5239414E522941C
:1006D00005500EC3E5259414E52494055003020942
:1006E000339000A2E0FFAD0685242C85252DAB2399
:1006F000AA221218E290007DEFF0648070030209D4
:1007000033900001E524F0A3E525F0900083740800
:10071000F0E4900075F090007CF0F508F509FE7F9C
:1007200070FD7B017A007903120B78E490007BF076
:10073000D29090008004F02290007DE0FD75F00DD5
:10074000A424EBF582E4341B120D89FC740193128E
:100750000E7990007DE075F00DA424E3F582E43479
:100760001BF583E493FFD39400400B90007CE09F43
:100770005004E004F02290007DE0F96053FD120E79
:10078000B8120D89120EED9000BF120E3724E7F556
:1007900082E4341B120E421209A39000C1120E37DC
:1007A00024E8F582E4341BF583E493FFE9120D8F0E
:1007B000120EED9000C3120E3724E9F582E4341BCB
:1007C000120E421209A39000C5EEF0A3EFF0803E96
:1007D000900078E0FEA3E0FF9000BFEEF0A3EFF002
:1007E000900081E0FCA3E0FD9000C1ECF0A3EDF0EF
:1007F000A3ECF0A3EDF0A3120E3724EBF582E43462
:100800001B120E42900078E0FCA3E0120E799000DB
:1008100083E014F0900075E004F0AE22AF23E4FC16
:10082000FD9000C7120B46AE24AF25E4FCFD9000FE
:10083000CB120B46120E899000BF120934500E9055
:1008400000CB120E8C9000C1120934400CC3120E62
:10085000C45020120DD0B5071A900078E522F0A3FD
:10086000E523F0C290D3120EC6406A852208852384
:10087000098062120E899000C312094C500E90003C
:10088000CB120E8C9000C512094C400CD3120EC432
:100890004033120DD06F702D900081E522F0A3E55A
:1008A00023F0D290120E08C083C082E0FF90008334
:1008B000E0FE7401A806088002C333D8FC4FD08242
:1008C000D083F08010E490007FF0C290A3F09000FD
:1008D0007D7480F022900083E07015120E08120ED5
:1008E0004DFF12000390007BEFF09000837408F03E
:1008F000120DD06F703D121B215005E490007EF068
:10090000120E4A6027121B317D207C037F017E007E
:1009100012198F90007BE090007EF090007DE090B7
:10092000007FF04480F090007D7480F0C290E490ED
:100930000080F022FFE0FCA3E0FDC3EF9DFFEE9CF2
:10094000FE121AE2C3EF9527EE952622FFE0FCA3E4
:10095000E0FDC3EF9DFFEE9CFE121AE2C3EF952768
:10096000EE952622BB010CE58229F582E5833AF556
:1009700083E0225006E92582F8E622BBFE06E9253F
:1009800082F8E222E58229F582E5833AF583E49351
:1009900022BB010689828A83F0225002F722BBFE25
:1009A00001F322EF8DF0A4A8F0CF8CF0A428CE8D17
:1009B000F0A42EFE22BC000BBE0029EF8DF084FFB8
:1009C000ADF022E4CCF875F008EF2FFFEE33FEEC2B
:1009D00033FCEE9DEC984005FCEE9DFE0FD5F0E952
:1009E000E4CEFD22EDF8F5F0EE8420D21CFEADF051
:1009F00075F008EF2FFFED33FD4007985006D5F056
:100A0000F222C398FD0FD5F0EA22C2D5EC30E709F7
:100A1000B2D5E4C39DFDE49CFCEE30E715B2D5E40D
:100A2000C39FFFE49EFE1209B5C3E49DFDE49CFC58
:100A300080031209B530D507C3E49FFFE49EFE2270
:100A4000BB0110E58229F582E5833AF583E0F5F0F4
:100A5000A3E0225009E92582F886F008E622BBFED1
:100A60000AE92582F8E2F5F008E222E5832AF58317
:100A7000E993F5F0A3E9932275F008758200EF2F52
:100A8000FFEE33FECD33CDCC33CCC58233C5829B54
:100A9000ED9AEC99E58298400CF582EE9BFEED9A7A
:100AA000FDEC99FC0FD5F0D6E4CEFBE4CDFAE4CC16
:100AB000F9A88222B800C1B90059BA002DEC8BF018
:100AC00084CFCECDFCE5F0CBF97818EF2FFFEE33D5
:100AD000FEED33FDEC33FCEB33FB10D70399400400
:100AE000EB99FB0FD8E5E4F9FA227818EF2FFFEE27
:100AF00033FEED33FDEC33FCC933C910D7059BE958
:100B00009A4007EC9BFCE99AF90FD8E0E4C9FAE4B3
:100B1000CCFB2275F010EF2FFFEE33FEED33FDCC52
:100B200033CCC833C810D7079BEC9AE899400AED3C
:100B30009BFDEC9AFCE899F80FD5F0DAE4CDFBE4E4
:100B4000CCFAE4C8F922ECF0A3EDF0A3EEF0A3EFA9
:100B5000F022D083D082F8E4937012740193700D68
:100B6000A3A393F8740193F5828883E473740293CA
:100B70006860EFA3A3A380DFEF4E6012EF60010E69
:100B8000EDBB010B89828A83F0A3DFFCDEFA2289A8
:100B9000F05007F709DFFCA9F022BBFEFCF309DFE8
:100BA000FCA9F0228E228F23900080E014604A146A
:100BB0007003020C8124026003020D5FC29090005A
:100BC0007FE06003020D5FAF23AE22121AB0400334
:100BD000020D5FE4F524E524120D63E4F0A3F005B3
:100BE00024E524B40FF0E4900000F0F524120E93F5
:100BF0009000807401F0D29022900076E0FCA3E097
:100C0000FDAE047802CEC313CE13D8F92DFFEC3E0F
:100C1000FED3E5239FE5229E4009120E93E4900047
:100C200000F022AF23AE221217D1501F900000E037
:100C300094004017E4900073F09000837404F0E493
:100C400090007BF09000807402F022C3E52394644E
:100C5000E52294005003020D50120EF71211845039
:100C600003020D5F900000E0120D63120E969000DB
:100C700000E004F0E0D3940F5003020D5FE4020D96
:100C80005AB290120EF71212CE5059900083E0B46F
:100C90000410E524C454F0120DA1EFF0E490008399
:100CA000F022900073E0FF120DA6E0FEE524540F41
:100CB000FDEE4DF074032F120DA8120E4DFF120021
:100CC00003EFF0900073E004F09000837404F09060
:100CD0000073E0D394705003020D5F121B31E49057
:100CE00000008076AF23AE221217D15066121B216E
:100CF0005005E490007EF0120E4A6052121B317DC6
:100D0000F47C017F017E0012198F90007BE090003F
:100D10007EF0900083E07019120DA2C083C082E0C3
:100D2000FF900000E0540FFEEF4ED082D083F080A1
:100D30000E900000E0C454F0440F120DA1EFF090AB
:100D40000073E0FF12105F90007FE04480F0C290DB
:100D5000E48008121B31E4900000F0900080F02243
:100D6000FCE52A25E02484F582E43400F58322AEF4
:100D700032AF337C007D641209B57C007D0A120914
:100D8000A3D3EF94F4EE940122F583E493FFED7E78
:100D90000075F00DA424E4F582E4341BF583E4939C
:100DA00022FF900073E02403F582E43400F58322EF
:100DB000E53075F00DA424E1F582E4341BF583E4FD
:100DC00093FF7E00AC37AD381209A3AC06AD072205
:100DD00090007DE075F00DA424EAF582E4341BF563
:100DE00083E493FF900075E022E53075F00DA424B4
:100DF000E2F582E4341B22EF75F00DA424EDF582B8
:100E0000E4341BF583E49322900075E024FFFFE4B3
:100E100034FFFE7C007D08120A0A74032FF58274E9
:100E2000003EF58322E53075F00DA424E1F582E45F
:100E3000341BF583E49322EEF0A3EFF0E975F00D97
:100E4000A422F583E493FF7E002290007EE0FF90D1
:100E5000007BE06F22E4F9C3ED9BF582EC9AF58309
:100E6000D3EF9582EE958322E0FCA3E0FDEC547F66
:100E7000FAD3ED9400EA940022FD1209A37C007DD0
:100E8000641209B58E268F27229000C7A3A3E0FE27
:100E9000A3E022900076E522F0A3E523F022AB3C0C
:100EA000AA3BAF35AE34121AA2EF22852C34852D21
:100EB00035AB2BAA2AAD292275F00DA424E6F582C4
:100EC000E4341B22E5239509E522950822ED2BFD4C
:100ED000EC3AFCC3EF9DEE9C22F537740193F53894
:100EE00022540F75F002A4F58285F08322FA740172
:100EF00093FDAC020209A37B007A007924AF23AEF4
:100F00002222E0FEA3E0FFC322EC4480AF05F0A361
:100F1000EFF0228F308A328B33E4F536120DF76D05
:100F20006003AF3622120E25FFD394005003020F48
:100F3000C1120DE9F583E493FED394005003020F30
:100F4000C1E530702DEFD39EE53075F00D400C12E9
:100F50000E2AFD7C00AE32AF33800E120DEEF5830B
:100F6000E493FD7C00AE34AF351209B58E378F386F
:100F70008008E530120D91120ED9120D6F40067ED9
:100F8000017FF480008E398F3AAE34AF35120D7385
:100F900040070C7E017FF480008E3B8F3C120DB029
:100FA000AB3AAA39AF33AE32121A94EF7003021083
:100FB0005C120DE9120DBD120E9E700302105C80D2
:100FC00066120DE9F583E493D394004029E53012CD
:100FD0000D91120ED9AE34AF35120D7340070C7E51
:100FE000017FF480008E3B8F3C120DE9120DBD1283
:100FF0000E9E60688031120E25D39400405EE5306D
:10100000120D91120ED9120D6F40070C7E017FF464
:1010100080008E398F3A120DB0AB3AAA39AF33AE99
:1010200032121AA2EF6035E530120EB8120E42AC41
:1010300037AD381209A3900078EEF0A3EFF0E53059
:1010400075F00DA424E8F582E4341B120E42120957
:10105000A3900081EEF0A3EFF0753601AF36228F3A
:1010600025E4F527F526E5252401FFE433FEC3E555
:10107000269FEE6480F874809850397403252612F8
:101080000DA8E0C4540FFF120D63120E684007EF65
:10109000120D63120F0974032526120DA8E0540FD8
:1010A000FF120D63120E684007EF120D63120F0955
:1010B000052680B2E4F526900000E0FFE526C39FF8
:1010C000400302117BE526120D63E030E7030211B5
:1010D0006DAF26900000E0FEEFC39E400302116951
:1010E000EF25E02486F582E43400F583E0FCA3E0FC
:1010F000FDEF120D63ECF0A3EDF0E4FEE525240115
:10110000FDE433FCEEC39DEC6480F8748098505588
:1011100074032E120DA8E0F9C4540FFDEF2401FB57
:10112000E433FAEDB50316E4B50212E9540FFDEF0E
:10113000C454F04DFD74032E120DA8EDF0EF240100
:10114000FDE433FC74032E120DA8E0F9540FB5052D
:1011500011E4B5040DE954F04FFD74032E120DA8EF
:10116000EDF00E80970F0210D305278009E52612B7
:101170000D63E0547FF005260210B7900000E0C335
:101180009527F0228E258F268B278A288929C20051
:101190001212CE5005D200021228E4F52A90000067
:1011A000E0FFE52AC39F4003021228120D61E0FC14
:1011B000A3E0FDAE047803CEC313CE13D8F9FBAA87
:1011C00006EDAE047802CEC313CE13D8F92BFDEE94
:1011D0003A120D60E0C4F854F0C868FEA3E0C454AD
:1011E0000F482DFFEC3EFEC3E5269FFDE5259E1230
:1011F0000D60E0FAA3E0FBD39DEA9C4026E5262F94
:10120000FFE5253EFEC3EB9FEA9E5017E5294528E2
:101210004527600BAB27AA28A929E52A120991D2F4
:10122000008005052A02119DA20022AFFBAEFC7CC6
:10123000007D0A1209A39000BDEEF0A3EFF090002C
:10124000BD120F029464EE940050030212CD30934D
:101250003B8E0A8F0BC3EF950DF511EE950CF51033
:10126000900074E014601F04706390007DE0FF64E0
:10127000806007120DF764016053AB11AA10AD0F27
:10128000AC0EE4FF803DAF11AE10803E9000BDE09B
:10129000FEA3E08E0CF50DC3950BF50FEE950AF548
:1012A0000E900074E014601E04702290007DE0FF38
:1012B00064806005120DF76014AB0FAA0EAD11AC7F
:1012C000107F010206A8AF0FAE0E120BA4228E2BC8
:1012D0008F2C8B2D8A2E892FC201E4F530900000CF
:1012E000E0FFE530C39F400302136DE52CAE2B7881
:1012F00003CEC313CE13D8F9FDAC06E52CAE2B7884
:1013000002CEC313CE13D8F92DF532EE3CF531E5FC
:1013100030120D63120F029532EE953150028004A7
:10132000AE31AF328E318F32E530120D63120F02C3
:101330009532FDEE9531FCC3ED952CEC952B5028A4
:10134000E5322FFFE5313EFEC3E52C9FE52B9E5095
:1013500017E52F452E452D600BAB2DAA2EA92FE5A5
:1013600030120991D201800505300212DDA201225E
:10137000C0E0C0F0C083C082C0D075D000C000C043
:1013800001C002C003C004C005C006C007E59854F0
:1013900003F55FF45298E55F30E017121B6F900081
:1013A000BA1219FFEFF09000BAE004F0E0B41402B2
:1013B000E4F0E55F30E12E9000BCE0D39400401AE9
:1013C0009000B9E02460F8E6FF121B6C9000B9E0D1
:1013D00004F09000BCE014F08002D2039000B9E069
:1013E000B42002E4F0D007D006D005D004D003D05A
:1013F00002D001D000D0D0D082D083D0F0D0E03263
:1014000012005A787FE4F6D8FD75817F02144A02F3
:101410000076E493A3F8E493A34003F68001F20876
:10142000DFF48029E493A3F85407240CC8C333C421
:10143000540F4420C8834004F456800146F6DFE48C
:10144000800B0102040810204080901596E47E0174
:101450009360BCA3FF543F30E509541FFEE493A3FF
:1014600060010ECF54C025E060A840B8E493A3FA11
:10147000E493A3F8E493A3C8C582C8CAC583CAF09D
:10148000A3C8C582C8CAC583CADFE9DEE780BEC07B
:10149000E0C0F0C083C082C0D075D000C000C001E1
:1014A000C002C003C004C005C006C007E5D8548709
:1014B000F521F452D8E5F730E508E5F730E60312F8
:1014C0001B7653F7DFE52130E708E5D930E003125A
:1014D0001B75E52130E008E5DA30E00312122BE558
:1014E0002130E108E5DB30E003121B77E52130E233
:1014F00008E5DC30E003121B78D007D006D005D019
:1015000004D003D002D001D000D0D0D082D083D07C
:10151000F0D0E032AE07E4F547121A5B900000E02D
:1015200004FF121A6212158F900000E0FFE547C316
:101530009F50121219F31219E61219F3F5831219BA
:10154000ED054780E3900076E0FF121A6290007686
:101550001219ED12158FE4F547900073E02401FF96
:10156000E433FEC3E5479FEE6480F874809850171B
:10157000740325471219E10547E547541F70DA1235
:101580001B69121B6280D27F55121A62021B6912FC
:101590001B69121B62224200D300004200CF0000F0
:1015A0004200D500004200D100004100D8004100B7
:1015B000D70041007F00410080004100A28041002F
:1015C000740041007D8041007A0042000100004229
:1015D0000081000042007800004100830041007556
:1015E0000041007C004100730041007E0041007B0F
:1015F00000410000004100BA004100BB004100B8BA
:10160000004100B9004100BC004100B700C1030027
:101610008A4B8B4C855557755880121A0AE553D35F
:1016200094004019E4F556E556C39553500FAD525A
:10163000AC51AF50AE4F121A0A055680EAE4F55687
:10164000E556C39554503274032557120DA8E05542
:1016500058600AAD52AC51AF50AE4F8008AD4EACA1
:101660004DAF4CAE4B121A0AE558C313F55870052E
:101670000557755880055680C7C290900080740445
:10168000F0228B478A488949E4F54FE54FC3954DD1
:101690005043AB47AA48A949C003C002C001AB4AA6
:1016A000AA4BA94C854F82758300120964FDC412B0
:1016B0000EE1D001D002D003120A40FFAEF0AB47DA
:1016C000AA48A949ED120EE1120A40FDACF0121A27
:1016D0000A054F80B6AF4E154EEF70ACC29022C0D7
:1016E000E0C083C082C0D075D000C004C005C00671
:1016F000C00753C87F9000D3E0FEA3E0FF4E700305
:1017000053C8FB9000CF12189650099000D3E4F014
:10171000A3F0800DC39000D4E09DF09000D3E09C36
:10172000F0D007D006D005D004D0D0D082D083D05E
:10173000E032C0E0C083C082C0D075D000C004C019
:1017400005C006C00753917F9000D5E0FEA3E0FFDF
:101750004E70035391FB9000D112189650099000DF
:10176000D5E4F0A3F0800DC39000D6E09DF090008A
:10177000D5E09CF0D007D006D005D004D0D0D082E0
:10178000D083D0E032AE05AD07E4FCFB7FAA121A8D
:1017900062AF05121A62EE75F00DA42452F582E4D0
:1017A000341CF583E493FFECC39F500774082CFCB2
:1017B0000B80F4EB04FF121A5DE4FCECC39B5009B0
:1017C00074032C1219E10C80F27F55121A62021B6D
:1017D00069AB07AA06900076E0FEA3E0FF120D7346
:1017E00040050C7DF48004AC06AD07AE04AF05C324
:1017F000900077E09FFD900076E09EFCC3ED9BECAF
:101800009A5013A3E02FFF900076E03EFEC3EB9FBB
:10181000EA9E50028001C322AE07E4FDF547121A8A
:101820005B900001E0FF121A629000011219ED9026
:101830000078E0FF121A629000781219ED90008192
:10184000E0FF121A629000811219ED74032D121933
:10185000E10DBD03F67F55121A62021B69AB07AAA0
:1018600006E4F9F87F407E427D0FFC120AB4A8041A
:10187000A905AA06AB077F207ED77D757C01120AD9
:10188000B4C3E49FFFE49EFE22AB07AA06E4F9F886
:101890007FE87E03FD22E0FCA3E0FDC3EF9DEE9C0C
:1018A00022F583E493FF7E00E54575F00DA4247CCA
:1018B000F582E4341BF583E493FC740193FD020983
:1018C000A3E54575F00DA422E0FF7E000209A39078
:1018D0000003E0FCA3E0FD22901B84E493FFD3947B
:1018E00000228F288D298A2A8B2B752E80E52824AB
:1018F00080701EE4F52F120EABAF2F120F13EF60A6
:1019000005852F2E8019052FE52FC3940840E78009
:101910000E120EABAF28120F13EF600385282EAF07
:101920002E228F4790007AE0F5487F0B121B7243FE
:10193000DA011200707D0A7C007F017E001219B866
:10194000121B54E4900080F090007FF09000D7E5E7
:1019500047F090007AF0AF48229000BAE0FF900084
:10196000B8E0B507057E017F00229000B81219FF8C
:10197000E0FD7C009000B8E004F0E0B41402E4F074
:101980009000B7E0FEEE4204E4F0AE04AF05228E14
:10199000288F298C2A8D2B12188912186A121ABEC8
:1019A0009000D3E52AF0A3E52BF09000CFE528F0D6
:1019B000A3E529F043C804228E498F4A8C4B8D4CF5
:1019C00012188912186A121ACA9000D5E54BF0A3B2
:1019D000E54CF09000D1E549F0A3E54AF0439104CD
:1019E00022F582E43400F583E0FF021A62A3E0FFEF
:1019F000021A62E54725E02484F582E4340022E0FF
:101A000024A3F582E43400F583228C598D5AD290B8
:101A1000D280AD07AC067F0A7E0012002E121B5446
:101A2000C290C280AD5AAC597F0A7E0012002E02CD
:101A30001B5412002A121B38121B3F121AF9121BD8
:101A40005A121A7E121B17121B03121B0D121AD6E2
:101A5000121B46121B5E021B4DAE077FAA121A62B2
:101A6000AF06C2039000BBE0B42002E4F09000BBDC
:101A7000E02460F8A607E004F0A3E004F022AF88B9
:101A80005388AF758CA0758DCBEF5440FEEF54108A
:101A90004E428822120E554006120ECD500109AF5B
:101AA0000122120E554006120ECD500109AF01223F
:101AB000C3EF9414EE94054003D38001C322AD0715
:101AC000AC06ECF5CBAF058FCA22AD07AC06ECF542
:101AD00093AF058F9222C2DE75D90575F9FF759611
:101AE0000122EE30E707C3E49FFFE49EFE22121AB4
:101AF000597F55121A62021B6975E34075E1017541
:101B0000E20122E59154045391FB429122758E54D7
:101B100075892243885022E5C8540453C8FB42C843
:101B200022E5C8C320E201D322E591C320E201D31C
:101B30002253C8FB53C87F2275A41175D4CF2275D8
:101B4000A54175D5772253F77F75DA302275E69077
:101B500075A8B022E59120E2FB22E4F5A922439882
:101B600010223003FD22C2DE22D299228F9922AFA9
:101B700099228F8C2222222222011F00015E010362
:101B80000301183C00000D0400017201020201284B
:101B90003C0800081700018601030301183C0000FF
:101BA0001F0A00012C01030301183C0000003B0741
:101BB00001F401020302403C000007120001900101
:101BC000030301183C000017010001C201020201D9
:101BD000183C000124010000D2010202010C3C006B
:101BE00001011F00015E01030301183C00000D0408
:101BF00000017201020201283C080008170001865A
:101C000001030301183C00001F0A00012C0103031B
:101C100001183C0000003B0701F401020302403CB4
:101C20000000071200019001030301183C00001797
:101C3000010001C201020201183C00012401000060
:101C4000D2010202010C3C0001011F00015E0103F0
:101C50000301183C00000D0400017201020201287A
:101C60003C0800081700018601030301183C00002E
:101C70001F0A00012C01030301183C0000003B0770
:101C800001F401020302403C000007120001900130
:101C9000030301183C000017010001C20102020108
:101CA000183C000124010000D2010202010C3C009A
:011CB0000132
:00000001FF
