:020000040000FA
:10000000020FEFED24F8FEEFD39E4015ED2408FD1E
:10001000E433FCC3EF9DEC6480F874809850028058
:1000200001C322020ED0E4F5A922220213637EFF4F
:10003000EFD394004022EF9480501DE4FDED75F065
:100040000EA424A5F582E43418F583E493B50704DF
:10005000AE0580040DBD05E5AF062202110612189B
:100060004E53D87853DBFE12180FE4900085F0222F
:10007000D2DE220213B6D2011215F6C290C296D277
:1000800080E4FBFD7F101217F612064374A4F0D231
:10009000AFE4F52FF530D2960530E5307002052F2C
:1000A000B410F3E52FB427EEC29630010912150DF6
:1000B0008E328F338006753201753300E53370045C
:1000C000E532640170409000CCE07007F52FF53008
:1000D0000202870530E5307002052FD39410E52F1A
:1000E00094274002D296D3E5309430E52F94755092
:1000F00003020287E4F52FF5309000CCF09000CB9E
:10010000F0C296020287E4F52FF5309000CCE0149F
:10011000602A14700302025914700302021E147044
:100120000302023424046003020287E53364AA60F8
:10013000030202879000CC04F0020287E5339000AE
:10014000CBF0A37402F0E5331208B30206A00170ED
:10015000A10182A501A6A601BAA701C3A801DFA932
:1001600001C6B001CFB10197C00287FF00000215A0
:100170001205E69000A87401F0E4900075F07FA1EC
:10018000806E12005E9000CC7404F0753108E4F5C6
:10019000357534090202879000CC7404F0E4F5351B
:1001A000753402020287E49000A8F0900075F07F99
:1001B000A612067474A6F002028712064374A4F015
:1001C0000202877531089000CC7403F00202879018
:1001D00000757401F07FB1120674EFF0020287120D
:1001E00005E69000A8E0F52EE4F0900075F07FA9F8
:1001F0001214D090007CEFF07D307C757F017E0082
:1002000012164902028712065790007CEFF0E49024
:1002100000CCF08072E49000CBF0A3F08069E4F5AC
:1002200035E533F534E534D394009000CC402574A3
:1002300004F0805374042535F582E43400F583E539
:1002400033F00535E53565346007E535C394704016
:10025000369000CC7402F0802EE5336455702890FF
:1002600000CCF0C2019000CBE02460601824FC6058
:100270000F24FE600B14600824F66004241070073D
:100280007FA01217C3D2019000CBE01208B302B0D6
:10029000A102DAA402ECA503C5A603E1A8051FA9E3
:1002A000055CB005CFB1038DC003B3FF000000AA09
:1002B000900084E030E70F7DC87C001206167FA313
:1002C00012140902053912180740030200AA7DE83A
:1002D0007C031206167FA2020554900084E020E7FA
:1002E000030200AA7FA41214090203D99000CCE0F3
:1002F00060030200AA900085E024FC606D24046085
:10030000030200AA1531900008E0FEA3E0FF7C0084
:100310007D641208D9C006C0071215A0D007D00608
:100320001208218F3E900006E0FEA3E0FF8E3FF50D
:10033000407C007D641208D9C006C0071215A0D009
:1003400007D0061208218F41754218900008E0FA84
:10035000A3E0FB900004E0FCA3E0FDA3E0FEA3E02B
:10036000FF12067B7406F00204EBE53160171206FB
:100370002DD39400500302051012062D12066012B0
:1003800018400205101206577FA00205549000CCB9
:10039000E060030200AA900004E0FCA3E0FD7F01FE
:1003A0007E00121649D296121840C2967FA01217EC
:1003B000C3800AE4FF1217C3E49000CCF0D201120C
:1003C000066B0200AA900084E020E7030200AA5412
:1003D0007FF537FD7FA612130CE4900084F0020035
:1003E000AA9000CCE060030200AA900085E024FC03
:1003F00070030204F1240460030200AA1531120004
:100400005E900004E0647F702FA3E0FEA3E0FFA3F2
:10041000E0FCA3E0FDA3E0FAA3E0FBA3E0F53EA32C
:10042000E0F53FA3E0F540A3E0F541A3E0F542127B
:10043000067B740CF00204E2900004E0FF12002E30
:100440008F36E536F470030204DDEF75F00EA42458
:1004500060F582E43418F583E493FE740193FFC0E1
:1004600006C0071215BA2462F582E434181215C1C9
:10047000C004C0051215BA2465F582E43418F5836A
:10048000E493FA740193FB1215BA2469F582E434FB
:1004900018F583E493FF1215BA2467F582E4341843
:1004A0001215C11215BA246AF582E43418F583E4F2
:1004B00093FE1215BA246BF582E43418F583E493A5
:1004C000F5428E418C3F8D408F3ED005D004D00741
:1004D000D0061212929000747401F08005E490002E
:1004E000CBF09000CBE070030200AA121749020083
:1004F000AAE53160231215BA246CF582E43418F5AC
:1005000083E493FFD394004007EF12066012184073
:10051000E4900085F00200AA12066B7FA08035905F
:100520000084E0FF30E71C547FF5377DC87C001263
:1005300005F9AD377FAB12130CE4900084F0D201C3
:100540000200AA12180740030200AA7DE87C0312E9
:1005500005F97FAA1217C3D2010200AA900004E095
:1005600025E0F5379000CCE060030200AA900085FA
:10057000E0700512005E800B900085E0640460036B
:100580000200AAE5376007E534C394045008E490FC
:1005900000CBF00200AA74062537F9E43400753B5D
:1005A00001F53C893DC3E534953724FEF53E9000C6
:1005B00005E0F53F7B017A00790612118B7FA012CE
:1005C00017C390007CE0FF1214D0D2010200AA9061
:1005D0000084E020E7030200AA7FB1121210E49029
:1005E0000084F00200AA7D327C007F017E0012169A
:1005F00049D296121840C296227F017E00121649F7
:10060000D296121840C2969000A8E52EF090007C79
:10061000E0FF1214D0227F017E00121649D29612FA
:100620001840C29690007CE0FF1214D0227F011285
:10063000002EEF75F00EA4246CF582E43418F583D7
:10064000E493229000A87401F0E4900075F07FA478
:100650001214D090007C2290007CE0FF1214D02273
:10066000FD7C007F017E001216492290007CE0FF95
:100670001214D0221214D090007C221212929000F8
:100680007422BB010CE58229F582E5833AF583E00B
:10069000225006E92582F8E622BBFE06E92582F80B
:1006A000E222E58229F582E5833AF583E49322BBD1
:1006B000010689828A83F0225002F722BBFE01F3F1
:1006C00022EF8DF0A4A8F0CF8CF0A428CE8DF0A45A
:1006D0002EFE22BC000BBE0029EF8DF084FFADF092
:1006E00022E4CCF875F008EF2FFFEE33FEEC33FC7C
:1006F000EE9DEC984005FCEE9DFE0FD5F0E9E4CEB2
:10070000FD22EDF8F5F0EE8420D21CFEADF075F080
:1007100008EF2FFFED33FD4007985006D5F0F22289
:10072000C398FD0FD5F0EA22C2D5EC30E709B2D567
:10073000E4C39DFDE49CFCEE30E715B2D5E4C39F15
:10074000FFE49EFE1206D3C3E49DFDE49CFC8003FF
:100750001206D330D507C3E49FFFE49EFE22BB01FF
:1007600010E58229F582E5833AF583E0F5F0A3E010
:10077000225009E92582F886F008E622BBFE0AE944
:100780002582F8E2F5F008E222E5832AF583E99371
:10079000F5F0A3E99322E88FF0A4CC8BF0A42CFC15
:1007A000E98EF0A42CFC8AF0EDA42CFCEA8EF0A4D7
:1007B000CDA8F08BF0A42DCC3825F0FDE98FF0A466
:1007C0002CCD35F0FCEB8EF0A4FEA9F0EB8FF0A45D
:1007D000CFC5F02ECD39FEE43CFCEAA42DCE35F099
:1007E000FDE43CFC2275F008758200EF2FFFEE332C
:1007F000FECD33CDCC33CCC58233C5829BED9AEC94
:1008000099E58298400CF582EE9BFEED9AFDEC99FD
:10081000FC0FD5F0D6E4CEFBE4CDFAE4CCF9A88207
:1008200022B800C1B90059BA002DEC8BF084CFCEAC
:10083000CDFCE5F0CBF97818EF2FFFEE33FEED336A
:10084000FDEC33FCEB33FB10D703994004EB99FB31
:100850000FD8E5E4F9FA227818EF2FFFEE33FEED1A
:1008600033FDEC33FCC933C910D7059BE99A400727
:10087000EC9BFCE99AF90FD8E0E4C9FAE4CCFB223E
:1008800075F010EF2FFFEE33FEED33FDCC33CCC807
:1008900033C810D7079BEC9AE899400AED9BFDEC12
:1008A0009AFCE899F80FD5F0DAE4CDFBE4CCFAE451
:1008B000C8F922D083D082F8E49370127401937047
:1008C0000DA3A393F8740193F5828883E4737402F3
:1008D000936860EFA3A3A380DFEC8EF0A4CCC5F0F7
:1008E000CCCDF8EFA4CEC5F02DFDE43CFCE8A42E61
:1008F000C8C5F03DFDE43CFCEFA4FFE5F028FEE4B4
:100900003DFDE43CFC22EF4E6012EF60010EEDBBBA
:10091000010B89828A83F0A3DFFCDEFA2289F05082
:1009200007F709DFFCA9F022BBFEFCF309DFFCA9F5
:10093000F022AFE9AEEA7C007D0A1206C18E088F74
:1009400009209303020B2185080A85090BC3E509D9
:10095000950DF511E508950CF510900075E01470F3
:1009600003020B1B046003020B42900085E014603D
:1009700065046003020B42900084E06003020B42B6
:100980009000A8E0FFAB11AA10AD0FAC0E120E1331
:100990008F12E51264807003020B4290007F120CEC
:1009A000A3900002E510F0A3E511120C5FE49000A3
:1009B00074F0900077F090007EF0F513F514FE7F50
:1009C00070FD7B017A007904120906E490007DF045
:1009D00090008504F022E51275F00EA424AAF58299
:1009E000E43418F583E493FFD39400400B90007E29
:1009F000E09F5004E004F022900088E014F09000A2
:100A000077E004F0AE10AF11AB07AA06E50F2BFF9D
:100A1000E50E3AFEE433FDE433FCC004A905AA0662
:100A2000AB07AE0EAF0F120CABD0001208218F2215
:100A3000120C231200034029E51275F00EA424B015
:100A4000F582E43418F583E493FDAF2212000340ED
:100A500010120B436F600AE4900084F0C290A3F080
:100A600022120C23AF221200035007120B43C39F24
:100A70004011D3E50F9514E50E9513402B120B434F
:100A80006F7025900086120CA3D290120BF6C083D3
:100A9000C082120C9B7401A806088002C333D8FCE4
:100AA0004FD082D083F0801790007A120CA3C290AE
:100AB000D39514E50E95134006850E13850F1490FB
:100AC0000088E07015120BF6E0FF90007DE06FFFEC
:100AD00012176490007DEF120C5F120B436F70626F
:100AE0001217FF5005E4900083F0900083E0FF9020
:100AF000007DE06F601D12180F7DF47C017F017E88
:100B00000012162090007DE0900083F0A3E512F023
:100B10004480F0C290E4900085F022AF11AE1080C6
:100B20001E85080C85090DC3E509950BF50FE50831
:100B3000950AF50E900075E0147007AF0FAE0E1217
:100B40000CC822E51275F00EA424B1F582E4341825
:100B5000F583E493FF900077E022120821AB07AA07
:100B600006E4F9F87F407E427D0FFC120821E47B09
:100B7000FFFAF9F8120796A804A905AA06AB077FA1
:100B8000207ED77D757C01120821EFF40422AE2669
:100B9000AF277C007D1F1206D38E2A8F2B7C007D11
:100BA000051206D3C3E52B9FFDE52A9EFCD3E52560
:100BB0009DE5249C22E52975F00EA424A8F582E485
:100BC0003418F583E493FE740193FF2438FDEE346A
:100BD000FFFCD3E5279DE5269C22900074E02404C9
:100BE000F582E43400F58322E52525E0248AF582A8
:100BF000E43400F58322900077E024FFFFE434FF23
:100C0000FE7C007D0812072874042FF58274003ED4
:100C1000F58322E52B2FFFE52A3EC3FEE5259FE560
:100C2000249E22E51275F00EA424AFF582E4341858
:100C3000F583E493FD22E52975F00EA424A6F58240
:100C4000E43418F5832253DAFE53F7DF53F7BF225B
:100C5000AB3BAA3CA93D854082758300020682F029
:100C60009000887408F022EF24C8FFE43EFEC3E53C
:100C7000279FE5269E2275F0FFA4FFAEF07C007D45
:100C8000640206D3900078E523F0A3E524F02290D7
:100C90000081E0FF900077E0D39F22E0FF90008882
:100CA000E0FE22E50EF0A3E50FF0227C007D640259
:100CB00008D9540F75F002A4F58285F08322D3E59C
:100CC000279470E5269417228E238F24900085E0C8
:100CD000146035147003020D9D24026003020E049B
:100CE000C290900084E06003020E04AF24AE231291
:100CF00017914003020E04E4900001F0120C84905E
:100D000000857401F0D29022900078E0FCA3E0FD11
:100D1000AE047802CEC313CE13D8F92DFFEC3EFEFD
:100D2000D3E5249FE5239E4009120C84E490000142
:100D3000F022AF24AE23121492501A900001E094D6
:100D4000004012E4900074F09000887404F0900069
:100D5000857402F022C3E5249464E5239400403AAC
:100D6000120E05501C120BE8E0FEA3E02524FFE55F
:100D7000233EC313FEEF13FF120BE8EEF0A3EFF0D8
:100D800022900001E0120BEA120C87900001E004AF
:100D9000F0E0D3941E406DE4805EE48063B290AFD7
:100DA00024AE23121492500D900084E04480F0C2CF
:100DB00090E4A3F022120E055041900088E0B404A4
:100DC00011E525C454F0FF120BDAEFF0E49000882F
:100DD000F022120BDAE0FFE525540FFEEF4EF09003
:100DE0000074E004F09000887404F0900074E0D384
:100DF00094704010E4900001F08005E4900001F050
:100E0000900085F0227B007A007925AF24AE231272
:100E1000107E228F238C248D258A268B277528808F
:100E2000E523707CE4F5297F0112002EEF6529701F
:100E30001B120CBE405FE5279450E52694465055A2
:100E4000120B8E4050120C13504B807E120C36E465
:100E500093FE740193FFD39400EE9400402BEF2493
:100E600038FFEE34FFD3120C1B402A120C367401EB
:100E70009324C8FFE4933400120C1A5018120BB5D7
:100E80004013120C67500E8041120BB54007120C34
:100E900067500280350529E529C394054089802DD6
:100EA000AF2312002E8F297F0112002EEF652970CB
:100EB0001C120CBE4017E5279450E5269446500DB1
:100EC000120B8E4008120C135003852928AF2822DC
:100ED000C0E0C0F0C083C082C0D075D000C000C0E8
:100EE00001C002C003C004C005C006C007E5985495
:100EF00003F547F45298E54730E017121857900071
:100F0000C0121690EFF09000C0E004F0E0B41402BC
:100F1000E4F0E54730E12E9000C2E0D39400401A9F
:100F20009000BFE02448F8E6FF1218549000BFE09C
:100F300004F09000C2E014F08002D2029000BFE002
:100F4000B42002E4F0D007D006D005D004D003D0FE
:100F500002D001D000D0D0D082D083D0F0D0E03207
:100F60004200C700004200C300004200C900004226
:100F700000C500004100CC004100CB0041008400CE
:100F8000410085004100A8004100750041007C003F
:100F900041007656410089AB4100000041008200CB
:100FA00042007F0000420002000042008600004232
:100FB000007A000041008100410088004100770074
:100FC00041007E00410074004100830041007D002B
:100FD000410001004100C0004100C1004100BE00CD
:100FE0004100BF004100C2004100BD00C10200122B
:100FF000002A787FE4F6D8FD758167021039020077
:1010000076E493A3F8E493A34003F68001F208DFAB
:10101000F48029E493A3F85407240CC8C333C454C0
:101020000F4420C8834004F456800146F6DFE48074
:101030000B0102040810204080900F60E47E0193B1
:1010400060BCA3FF543F30E509541FFEE493A36046
:10105000010ECF54C025E060A840B8E493A3FAE4A1
:1010600093A3F8E493A3C8C582C8CAC583CAF0A3F2
:10107000C8C582C8CAC583CADFE9DEE780BE8E263E
:101080008F278B288A29892AC200E4F52B9000013A
:10109000E0FFE52BC39F506BE527AE267803CEC358
:1010A00013CE13D8F9FDAC06E527AE267802CEC3E1
:1010B00013CE13D8F92DF52DEE3CF52CE52B120BA4
:1010C000EAE0FEA3E0FFC3952DFDEE952CFCC3EDF9
:1010D0009527EC95265028E52D2FFFE52C3EFEC3E5
:1010E000E5279FE5269E5017E52A45294528600BF0
:1010F000AB28AA29A92AE52B1206AFD20080040545
:101100002B808AA20022C0E0C0F0C083C082C0D081
:1011100075D000C000C001C002C003C004C005C03B
:1011200006C007E5D85487F521F452D8E5F730E535
:1011300008E5F730E60312154353F7DFE52130E702
:1011400008E5D930E00312185DE52130E008E5DA62
:1011500030E00312169BE52130E108E5DB30E003C7
:10116000120932E52130E208E5DC30E00312185EB6
:10117000D007D006D005D004D003D002D001D000D3
:10118000D0D0D082D083D0F0D0E0328B388A398969
:101190003A53DBFE120C4653E2FDE4F540E540C352
:1011A000953E504FAB38AA39A93AC003C002C001DE
:1011B000120C50C4120CB2D001D002D00312075E40
:1011C000F54285F041D280121202AB38AA39A93A11
:1011D000C003C002C001120C50120CB2D001D002E8
:1011E000D00312075EF54285F041C280121202055B
:1011F0004080AAB290AF3F153FEF709E43E202C21B
:101200009022FDAC417F0A7E001215741218402214
:10121000AE07E4F5381216EA900001E004FF12165A
:10122000F112128B900001E0FFE538C39F501212BB
:101230001684121677121684F58312167E053880EE
:10124000E3900078E0FF1216F190007812167E12FB
:10125000128B900088E07006900074E004F0E4F5D2
:1012600038900074E0FFE538C39F501774042538A8
:101270001216720538E538541F70E612185112180C
:101280004A80DE7F551216F10218511218511218B9
:101290004A228E388F398C3A8D3BAE02AF03120C46
:1012A000ABC007AF3EAB07E4FAF9F8D007120B5A10
:1012B000900000F0AE3FAF40120CABC007AF41ABA7
:1012C00007E4FAF9F8D007120B5A900082F0E53ED5
:1012D000120C76900076EFF0E541120C76900089C2
:1012E000EFF090007FE538F0A3E539F0900002E5DB
:1012F0003AF0A3E53BF0900081E542F043DA015378
:10130000F7DF43F74053DBFE75F9FF22AE07E4FC3D
:10131000FB1216EAED75F00EA424F7F582E43418FA
:10132000F583E493FFECC39F500774082CFC0B80FB
:10133000E3EB04FF1216F1ED75F00EA424EBF58239
:10134000E43418F583E493FF1216F1E4FCECC39B3C
:10135000500974042C1216720C80F27F551216F18B
:10136000021851C0E0C083C082C0D075D000C00454
:10137000C005C006C00753C87F9000C7E0FEA3E0C9
:10138000FF4E700353C8FB9000C31214875009909E
:1013900000C7E4F0A3F0800DC39000C8E09DF0907A
:1013A00000C7E09CF0D007D006D005D004D0D0D044
:1013B00082D083D0E032C0E0C083C082C0D075D07C
:1013C00000C004C005C006C00753917F9000C9E06B
:1013D000FEA3E0FF4E70035391FB9000C5121487EB
:1013E00050099000C9E4F0A3F0800DC39000CAE05A
:1013F0009DF09000C9E09CF0D007D006D005D00445
:10140000D0D0D082D083D0E032AE07E4FDF53812E0
:1014100016EA900002E0FF1216F190000212167E0A
:1014200090007AE0FF1216F190007A12167E90007A
:1014300086E0FF1216F190008612167E74042D12BB
:1014400016720DBD03F67F551216F1021851AB0747
:10145000AA06E4F9F87F407E427D0FFC120821A81D
:1014600004A905AA06AB077F207ED77D757C0112F3
:101470000821C3E49FFFE49EFE22AB07AA06E4F91D
:10148000F87FE87E03FD22E0FCA3E0FDC3EF9DEEC4
:101490009C22AD07AC06900078E0FEA3E07802CE77
:1014A000C313CE13D8F9FFC3900079E09FFB9000DF
:1014B00078E09EFAC3EB9DEA9C5013A3E02FFF90C7
:1014C0000078E03EFEC3ED9FEC9E50028001C322F7
:1014D0008F3890007CE0F5397F0B12185A43DB01FE
:1014E000120C461200707D0A7C007F017E001216ED
:1014F0004912184043E202E4900085F0900084F025
:101500009000CBE538F090007CF0AF39229000C01D
:10151000E0FF9000BEE0B507057E017F002290004D
:10152000BE121690E0FD7C009000BEE004F0E0B436
:101530001402E4F09000BDE0FEEE4204E4F0AE04DC
:10154000AF0522120C8F400302172B120BDA120C7C
:101550009BEFA806088002C313D8FC30E00B900074
:1015600000E0FF12185AD29022900082E0FF121879
:101570005AC290228E438F448C458D4612144E12CF
:1015800017ABE54624BF9000CAF0E54534FF900054
:10159000C9F09000C5E543F0A3E544F0439104226F
:1015A000900006E0FEA3E0FF900009E02FFF90000E
:1015B00008E03EAB07FAE4F9F822E53675F00EA430
:1015C00022F583E493FC740193FD22D29053E2FD53
:1015D000D28090007F1215E6C290C2809000021265
:1015E00015E643E20222E0FCA3E0FD7F0A7E001242
:1015F00015741218402212181612181D12182412EF
:1016000017CE12002612177B1217EC1217D81217DA
:10161000E21217B712182B12183212184602183994
:101620008E238F248C258D2612147A12145B1217A8
:101630009F9000C7E525F0A3E526F09000C3E523C1
:10164000F0A3E524F043C804228E3A8F3B8C3C8DF6
:101650003D12147A12145B1217AB9000C9E53CF0EE
:10166000A3E53DF09000C5E53AF0A3E53BF04391DA
:101670000422F582E43400F583E0FF0216F1A3E0D2
:10168000FF0216F1E53825E0248AF582E4340022D1
:10169000E024A9F582E43400F58322900088E0700C
:1016A00008900074E004120C5F900077E004F09062
:1016B0000088E014F0120C8F50030216C353E2FDB1
:1016C000C28022120BDA120C9BEFA806088002C31C
:1016D00013D8FC30E0059000768003900089E07D0F
:1016E00000FCE4FF12170D22AE077FAA1216F1AF1D
:1016F00006C2029000C1E0B42002E4F09000C1E014
:101700002448F8A607E004F0A3E004F022AB07AFFA
:1017100004EB14600C14600E2402700E8DFB8FFC21
:10172000228DE98FEA228DEB8FEC22E4FDFCFF1283
:10173000170D120C4612184E53D87853E2FDC28092
:10174000C2909000857404F022120C60E014F090B6
:1017500000777401F09000857403F01216C312151F
:10176000CB0200707E1DE4FDEF30E70625E06EFF42
:101770008004EF25E0FF0DBD08EE22AF885388AF4F
:10178000758CA0758DCBEF5440FEEF54104E4288FF
:1017900022C3EF94ACEE940D4003D38001C322AD7D
:1017A00007AC06ECF5CBAF058FCA22AD07AC06EC53
:1017B000F593AF058F9222C2DE75D90575F9FF75D5
:1017C0009601221216E87F551216F102185175E3A0
:1017D0004075E10175E20222E59154045391FB4208
:1017E0009122758E5475892243885022E5C854048D
:1017F00053C8FB42C82253984FEB4F4DF59822E552
:10180000C8C320E201D322E591C320E201D32253D1
:10181000C8FB53C87F227597DE7597AD2275A4115A
:1018200075D4CE2275A54175D5772253F77F75DA29
:101830004A2253F77F75DB302275E69075A8B022F7
:10184000E59120E2FB22439810223002FD22C2DE05
:1018500022D299228F9922AF99228F8C22222201A3
:101860000190307000064001904B1918000212C020
:1018700005DC0002BC012C461E2808030BB82328F7
:1018800000044C01904B19180004251C0BB80003F0
:10189000840140461E180005000072D80702BC01F2
:1018A0002C26404000010190307000064001904B12
:1018B0001918000212C005DC0002BC012C461E28CB
:1018C00008030BB8232800044C01904B191800049E
:1018D000251C0BB80003840140461E1800050000BB
:1018E00072D80702BC012C264040000101903070E4
:1018F00000064001904B1918000212C005DC0002DE
:10190000BC012C461E2808030BB8232800044C01F8
:10191000904B19180004251C0BB8000384014046A5
:101920001E180005000072D80702BC012C2640409A
:0119300000B6
:00000001FF
