:020000040000FA
:10000000020779AB07AA06EB2401FEE43A900080D0
:10001000F0A3CEF0ED1490007DF08B828A83E0F5A2
:100020009922220204D0C204C29022020B03120CB5
:100030009C120CA3120CAA120C8012006E120B91CF
:10004000120BAA120BC3120C8A120C75120B5D0252
:100050000C5C53984FEB4F4DF598220208CC1200E0
:100060002E120C30D2AF120B77120C0A80F8E4F586
:10007000A922FF020A37020218E86480F8E933E88F
:100080003360110460F0ED33EC337009E8FCE9FDF6
:10009000EAFEEBFF220460DED3EB9FEA9EE99DE8D7
:1000A000C2E78CF0C2F795F0400CE8CCF8E9CDF946
:1000B000EACEFAEBCFFB1201E385D0F058047003CF
:1000C00020D5B3E80470075002B2D502022292D5BF
:1000D000EC0460F7E4CCC0E0C398F8603B9418608F
:1000E00008400DD0E0FB0201FAE4FBFAC9FC8028CD
:1000F000E830E406E4C9FBE4CAFCE830E305E4C9FF
:10010000CACBFCE854076010F8C3E913F9EA13FA04
:10011000EB13FBEC13FCD8F130F52FC3E49CFCEFA0
:100120009BFFEE9AFEED99FDD0E0FBEF4E4D4C703B
:100130001222DB0302021FEC2CFCEF33FFEE33FE36
:10014000ED33FDED30E7EB0201FAEF2BFFEE3AFE67
:10015000ED39FDD0E0FB50130BBB0003020222ED92
:1001600013FDEE13FEEF13FFEC13FC0201FA75F022
:1001700020800E75F010800575F0087D007E007FF0
:10018000003392D530D5031202E3EC334010EF3345
:10019000FFEE33FEED33FDEC33FCD5F0ED22E5F060
:1001A000247EA2D513CC92E7CDCEFF22EDD2E7CDAF
:1001B00033EC3392D524814006E4FFFEFDFC22FCA3
:1001C000E4CFCECDCC24E0501174FF80EDC3CC132E
:1001D000CCCD13CDCE13CECF13CF0470F030D5DEFF
:1001E0000202E3E9D2E7C933E833F892D5EDD2E76A
:1001F000CD33EC33FC5002B2D522EC30E7100FBF08
:10020000000C0EBE00080DBD00040BEB6014A2D55F
:10021000EB13FCED92E7FD2274FFFCFDFEFF22E4F0
:1002200080F8A2D574FF13FC7D80E480EFEF8DF0A1
:10023000A4A8F0CF8CF0A428CE8DF0A42EFE22BC72
:10024000000BBE0029EF8DF084FFADF022E4CCF866
:1002500075F008EF2FFFEE33FEEC33FCEE9DEC98CB
:100260004005FCEE9DFE0FD5F0E9E4CEFD22EDF851
:10027000F5F0EE8420D21CFEADF075F008EF2FFFF4
:10028000ED33FD4007985006D5F0F222C398FD0FDC
:10029000D5F0EA22E88FF0A4CC8BF0A42CFCE98EF8
:1002A000F0A42CFC8AF0EDA42CFCEA8EF0A4CDA8DE
:1002B000F08BF0A42DCC3825F0FDE98FF0A42CCDE7
:1002C00035F0FCEB8EF0A4FEA9F0EB8FF0A4CFC5C7
:1002D000F02ECD39FEE43CFCEAA42DCE35F0FDE451
:1002E0003CFC22C3E49FFFE49EFEE49DFDE49CFCF5
:1002F00022EB9FF5F0EA9E42F0E99D42F0E89C4532
:10030000F022E8600FECC313FCED13FDEE13FEEFDB
:1003100013FFD8F122E8600FEFC333FFEE33FEED99
:1003200033FDEC33FCD8F122E4F50BF50AF509F5C1
:1003300008F50CF50DF50EF50FF510F511F512F5A4
:1003400013F514F515F516F517900000E06401603B
:10035000030204C7F0E52C7015900004E0F524A317
:10036000E0F525A3E0F526A3E0F5271208ADE52585
:100370002527F50DE5243526F50CFEAF0D7C007D17
:100380000512023F8E108F11AE22AF237C007D0537
:1003900012023F8E128F13E4FBEBC3943040030232
:1003A000044F12086A12087BF583E0FCA3E0FD2FDE
:1003B000F50FEC3EF50EE50D2511FFE50C3510FEB1
:1003C000D3E50F9FE50E9E5014C3E50D9511FFE593
:1003D0000C9510FEC3E50F9FE50E9E5009052EE516
:1003E0002E7002052D2212086AFFD3ED9FEC9E406D
:1003F000221208A0EF4401F50BEEF50AEDF509EC29
:10040000F50812086A1208B812087C12087412085B
:10041000C2803712086A12087BF583E0FCA3E0C3B0
:100420009FEC9E501C1208A08F0B8E0A8D098C0821
:1004300012086A1208C212087C1208741208B880E6
:1004400009052EE52E7002052D220B0B0203999053
:100450000002E0FEA3E0FF2511FDE5103EFCC3E530
:10046000239DE5229C5027C3EF9511FFEE9510FECA
:10047000D3E5239FE5229E4015AF2BAE2AAD29ACD4
:1004800028AB0BAA0AA909A8081202F160311208C8
:10049000AD850B2B850A2A850929850828752C012D
:1004A000E4F52DF52EAE14AF15FC1208878E268FBD
:1004B00027AE16AF177C001208878E248F252205E1
:1004C0002CE4F52DF52E22052EE52E7002052D22A9
:1004D000C0E0C0F0C083C082C0D075D000C000C0F2
:1004E00001C002C003C004C005C006C007E598549F
:1004F00003F51EF4529890007CE0700302058AE533
:100500001E20E00302058A90007EE0FEA3E0FFF5D6
:10051000828E83E599F08F828E83E0FF20000B644A
:10052000AA60030205BCD200803A200137300034B3
:10053000EF64A0601EEF64A16019EF64A26014EF85
:1005400064A3600FEF64A4600AEF64A56005120C59
:10055000698069D201EF64A06008EF64A16003BF05
:10056000A202D20290007FE004F0700690007EE0CC
:1005700004F090007CE014F0E0FE6008BF550B3002
:1005800002086006120C691209E3E51E30E12D90A5
:10059000007DE06024900080E0FEA3E0F5828E8381
:1005A000E0F599900081E004F07006900080E0048E
:1005B000F090007DE014F08003120022D007D006F6
:1005C000D005D004D003D002D001D000D0D0D0824A
:1005D000D083D0F0D0E032E4F518F519F51DF51C04
:1005E000F51BF51A30AF6890006612096BF522ED25
:1005F000F52312096AF526EDF52712096AF524EDAF
:10060000F525A3E0FFE4FCFDFEFBFA7901F81202F8
:1006100094A804A905AA06AB0790006DE0FEE4FCCF
:10062000FD2BFBEA3EFAED39F9EC38F8A3E0FFE4E4
:10063000FEEB2FFFEE3AFEED39FDEC388F2B8E2AC4
:100640008D29F5287F0A7E00120BDCC291C2AFE42F
:10065000F51812095EAF23AE22120BF4852B1D850F
:100660002A1C85291B85281AE4F519E4FFFEE51BE1
:100670005480FDE4FCFBFAF9F8C31202F16011D2D8
:1006800080AF25AE24120BF4C280AF27AE268007C0
:1006900012095EAF25AE24120BF4AF1DAE1CAD1BCC
:1006A000AC1A78011203158F1D8E1C8D1B8C1A0538
:1006B00019E519C3941840B30518E518C394084008
:1006C00091D291D2AF7F0A7E00120BDC12092D125B
:1006D0000003120CC3E4F537220233000001370097
:1006E0000235000041007D0041007C00C100C101D5
:1006F000C102C105C104C1030139000138006064B1
:1007000000000000000000000000000000000000E9
:1007100000000000000000000000000000000000D9
:1007200000000000000000000000000000000000C9
:1007300000000000000000000000000000000000B9
:1007400000000000000000000000000000000000A9
:100750000000000000000000000000000000000099
:100760000000000000000D2200000000000000005A
:10077000000000000001210000787FE4F6D8FD753C
:1007800081390207C002005EE493A3F8E493A3401A
:1007900003F68001F208DFF48029E493A3F85407FC
:1007A000240CC8C333C4540F4420C8834004F456F7
:1007B000800146F6DFE4800B01020408102040802F
:1007C0009006D9E47E019360BCA3FF543F30E50955
:1007D000541FFEE493A360010ECF54C025E060A82F
:1007E00040B8E493A3FAE493A3F8E493A3C8C582C2
:1007F000C8CAC583CAF0A3C8C582C8CAC583CADF30
:10080000E9DEE780BEAB07AA06900001E07019C3DD
:10081000EB94C8EA9400405130934EA3EAF0A3EB66
:10082000F09000017401F0227C007D05AF03AE0260
:1008300012022DD3900003E09F900002E09E401032
:10084000E52112087DF583EAF0A3EBF0052180078E
:10085000E4900001F0F521E521C39430400BE4F56C
:100860002190000004F0E4A3F022EB25E02406F53B
:1008700082E43400F583E0FEA3E022FFEB25E024D0
:1008800004F582E43400227D1812023FAC06AD0765
:10089000E4120173E4FBFAF9783F12007D0201AC27
:1008A000AF0BAE0AAD09AC08780102031590000247
:1008B000E0F522A3E0F523222515F515EE3514F514
:1008C00014222517F517EE3516F51622C0E0C0F0F4
:1008D000C083C082C0D075D000C000C001C002C0BB
:1008E00003C004C005C006C00730D823C2D885FCA9
:1008F0002F85FB30C3E5309532F534E52F9531F582
:1009000033852F31853032AF34FE12080580035312
:10091000D879D007D006D005D004D003D002D001BA
:10092000D000D0D0D082D083D0F0D0E03290007010
:1009300074AAF074A0A3F0A37455F07E007F707DBC
:100940000322AF2BAE2AAD29AC28120302A3EFF08D
:1009500022120A7D120C207E007F707D0C22D28034
:10096000AF27AE26120BF4C28022A3E0FEA3E0FD67
:10097000EE2212022DEEA3F02275F00AA4A3F022BB
:10098000C3E52E9496E52D940022053930052AE51D
:1009900039C39414404C0538E538D394045002B25E
:1009A00096E4F539B290E538C394084035E4F5385B
:1009B000C296C290C205C20422300412E539C39423
:1009C0000A401F309602C296E4F539B290223003F5
:1009D00011E539D3940A400AE4F539B29020900227
:1009E000C20322900064E0FFB4AA0BA3E0B4A00607
:1009F000A3E064556040EF64AA7022900065E06453
:100A0000A1701AA3E0B45515120C2012092D120082
:100A100003E4F535F536120C947537012290006425
:100A2000E0B4AA12A3E0B4A50D90006FE0B455069F
:100A3000753702120C2022C0E0C0F0C083C082C013
:100A4000D075D000C000C001C002C003C004C00502
:100A5000C006C00712098A0536E53670020535530F
:100A6000917FD007D006D005D004D003D002D001AA
:100A7000D000D0D0D082D083D0F0D0E032900070BF
:100A800074AAF0A3EFF0AE22AF237C007D0A120916
:100A900072E523120979AE26AF27120972E52712F3
:100AA0000979AE24AF25120972E52512097978106B
:100AB0001209427808120942A3E52BF0A37455F0FD
:100AC00022E52CB40A03120CBD1209804015E52C56
:100AD000940A400FE4F52DF52E7FA3120951120060
:100AE00003801CC3E5369470E535941740149000DC
:100AF0007074AAF074A2120935120003120026E4E1
:100B0000F53722C0E0C0F0C083C082C0D075D000ED
:100B1000C000C001C002C003C004C005C006C007B9
:100B2000120328C2CFD007D006D005D004D003D0FE
:100B300002D001D000D0D0D082D083D0F0D0E0322B
:100B40001209804017E52CD394004010E4F52DF5F0
:100B50002E7FA4120951120003120CC322E5D854AF
:100B600040FFE5F75480FE53D8BF53F77F75DA3165
:100B7000EF42D8EE42F722E5377015120CB7EF704E
:100B80000F120CB1EF70097E007F647D0C120C4EC9
:100B900022AF885388AF758C0B758AD7758DCBEFD4
:100BA0005440FEEF54104E428822E5C8540453C806
:100BB000FB75CD4075CC9875CB4075CA9843C80479
:100BC00042C822E59154045391FB7595FF75940B2F
:100BD0007593B075923F439104429122AD07AC06E4
:100BE000D3ED9400EC9400400A120C40ED1D70F01F
:100BF0001C80ED22EF1FAC0670011E4C600B000044
:100C00000000000000000080EB22E53714600A14A9
:100C1000600A24027009020B40020AC11205D722A1
:100C2000E4F52CF52BF52AF529F528F522F52322F4
:100C3000C280D291C290C296E4FBFD7F10020052A6
:100C40007F927E09EF1F70011EEF4E70F722900019
:100C50007EEEF0A3EFF090007CEDF02275E690754B
:100C6000F31075A8B075B8102290007CE4F0C200B3
:100C7000C201C20222C2DE75D904759E01D2DE22F3
:100C800075E34075E10175E20122758E14758922C4
:100C900043885022D204E4F539D296227597DE7546
:100CA00097AD2275A41375D4CF2275A54375D507CA
:100CB0002290007DE0FF2290007CE0FF22D205E43C
:090CC000F53922D203E4F53922D2
:00000001FF
